{
  "transactions": [
    {
      "hash": "0xd6c5830bde159ea7e311e6530c22de4b2ccf19e529cdb306e67dcc598314c71f",
      "transactionType": "CALL",
      "contractName": null,
      "contractAddress": "0xe75a7aa0cd905dbdd87922db25a8b4fcbd6c6df8",
      "function": "claimFeesFor(address,address,uint256)",
      "arguments": [
        "0x1D1e94634FBcB767ce8650269B2c4d33280f0130",
        "0xEeeeeEeeeEeEeeEeEeEeeEEEeeeeEeeeeeeeEEeE",
        "152646603516557243"
      ],
      "transaction": {
        "from": "0x1d1e94634fbcb767ce8650269b2c4d33280f0130",
        "to": "0xe75a7aa0cd905dbdd87922db25a8b4fcbd6c6df8",
        "gas": "0xb16e",
        "value": "0x0",
        "input": "0x00b233f70000000000000000000000001d1e94634fbcb767ce8650269b2c4d33280f0130000000000000000000000000eeeeeeeeeeeeeeeeeeeeeeeeeeeeeeeeeeeeeeee000000000000000000000000000000000000000000000000021e4f46f2c637bb",
        "nonce": "0x7d",
        "chainId": "0x2105"
      },
      "additionalContracts": [],
      "isFixedGasLimit": false
    }
  ],
  "receipts": [
    {
      "status": "0x1",
      "cumulativeGasUsed": "0xee1878",
      "logs": [
        {
          "address": "0xe75a7aa0cd905dbdd87922db25a8b4fcbd6c6df8",
          "topics": [
            "0x74961ba99ab7b954d0e6ac1d1d718f21ddfe3cb2e19bf91d3de61eda54786a91"
          ],
          "data": "0x0000000000000000000000001d1e94634fbcb767ce8650269b2c4d33280f0130000000000000000000000000eeeeeeeeeeeeeeeeeeeeeeeeeeeeeeeeeeeeeeee000000000000000000000000000000000000000000000000021e4f46f2c637bb",
          "blockHash": "0xc6c1a1296aa61bad6309116a9f639b53f78f2872c6899456e2de76d7054bd675",
          "blockNumber": "0x11dbc08",
          "transactionHash": "0xd6c5830bde159ea7e311e6530c22de4b2ccf19e529cdb306e67dcc598314c71f",
          "transactionIndex": "0x3f",
          "logIndex": "0x136",
          "removed": false
        }
      ],
      "logsBloom": "0x00000000000000000000000000000000000000004000000000000000000000000000000000000000000000000000000000000000000000000000000000000000000000000000000000000004000000000000000000000000000000000000000000000000000000000000000000000000000000000000000000000000000000000000000002000000000000000000400000000000000000000000000000000000000000000000000000000000000000000000000000000000000000000000000000000000002000000000000000000000000000000000000000000000000000000000000000000000000000000000000000000000000000000010000000000000",
      "type": "0x2",
      "transactionHash": "0xd6c5830bde159ea7e311e6530c22de4b2ccf19e529cdb306e67dcc598314c71f",
      "transactionIndex": "0x3f",
      "blockHash": "0xc6c1a1296aa61bad6309116a9f639b53f78f2872c6899456e2de76d7054bd675",
      "blockNumber": "0x11dbc08",
      "gasUsed": "0x7952",
      "effectiveGasPrice": "0x23be57",
      "from": "0x1d1e94634fbcb767ce8650269b2c4d33280f0130",
      "to": "0xe75a7aa0cd905dbdd87922db25a8b4fcbd6c6df8",
      "contractAddress": null,
      "l1BaseFeeScalar": "0x8dd",
      "l1BlobBaseFee": "0x1",
      "l1BlobBaseFeeScalar": "0x101c12",
      "l1Fee": "0xac9e91ea",
      "l1GasPrice": "0x2f8c5e76",
      "l1GasUsed": "0x640"
    }
  ],
  "libraries": [],
  "pending": [],
  "returns": {},
  "timestamp": 1724241145,
  "chain": 8453,
  "commit": "91f6bca"
}