{
  "transactions": [
    {
      "hash": "0x749a49dc7fb96a9cd1fb22068abe4e25ee9abc3a2d6c212bb9854116084dda92",
      "transactionType": "CALL",
      "contractName": null,
      "contractAddress": "0xb608a7e7e95e61ec343af87a10e257a99848fb05",
      "function": "claimTokensFor(address,address,uint256)",
      "arguments": [
        "0x1D1e94634FBcB767ce8650269B2c4d33280f0130",
        "0x17137d71Fa2A5EAc2bE5507F306f56685cA4334e",
        "935414346693484346"
      ],
      "transaction": {
        "from": "0x1d1e94634fbcb767ce8650269b2c4d33280f0130",
        "to": "0xb608a7e7e95e61ec343af87a10e257a99848fb05",
        "gas": "0x136d6",
        "value": "0x0",
        "input": "0x3f3c75550000000000000000000000001d1e94634fbcb767ce8650269b2c4d33280f013000000000000000000000000017137d71fa2a5eac2be5507f306f56685ca4334e0000000000000000000000000000000000000000000000000cfb42646c781f3a",
        "nonce": "0x146",
        "chainId": "0x2105"
      },
      "additionalContracts": [],
      "isFixedGasLimit": false
    },
    {
      "hash": "0xab0872ef748f3a11ab312df0bc0b06274c7bc5a8304d5e70fb260b9ca88590ff",
      "transactionType": "CALL",
      "contractName": null,
      "contractAddress": "0x17137d71fa2a5eac2be5507f306f56685ca4334e",
      "function": "transfer(address,uint256)",
      "arguments": [
        "0x17137d71Fa2A5EAc2bE5507F306f56685cA4334e",
        "935414346693484346"
      ],
      "transaction": {
        "from": "0x1d1e94634fbcb767ce8650269b2c4d33280f0130",
        "to": "0x17137d71fa2a5eac2be5507f306f56685ca4334e",
        "gas": "0xfbf2",
        "value": "0x0",
        "input": "0xa9059cbb00000000000000000000000017137d71fa2a5eac2be5507f306f56685ca4334e0000000000000000000000000000000000000000000000000cfb42646c781f3a",
        "nonce": "0x147",
        "chainId": "0x2105"
      },
      "additionalContracts": [],
      "isFixedGasLimit": false
    },
    {
      "hash": "0x7930297fe6e0e76d30f148e649a0b1542c9f50ea0a209d89574ba2efd179d4c4",
      "transactionType": "CALL",
      "contractName": null,
      "contractAddress": "0x17137d71fa2a5eac2be5507f306f56685ca4334e",
      "function": "burn(address)",
      "arguments": [
        "0x1D1e94634FBcB767ce8650269B2c4d33280f0130"
      ],
      "transaction": {
        "from": "0x1d1e94634fbcb767ce8650269b2c4d33280f0130",
        "to": "0x17137d71fa2a5eac2be5507f306f56685ca4334e",
        "gas": "0x2e534",
        "value": "0x0",
        "input": "0x89afcb440000000000000000000000001d1e94634fbcb767ce8650269b2c4d33280f0130",
        "nonce": "0x148",
        "chainId": "0x2105"
      },
      "additionalContracts": [],
      "isFixedGasLimit": false
    },
    {
      "hash": "0x16650be52e65412fc092d2fa6115870682cc85d573ceb5475ad0e32c068305c5",
      "transactionType": "CALL",
      "contractName": null,
      "contractAddress": "0x4200000000000000000000000000000000000006",
      "function": "withdraw(uint256)",
      "arguments": [
        "987807053905704629"
      ],
      "transaction": {
        "from": "0x1d1e94634fbcb767ce8650269b2c4d33280f0130",
        "to": "0x4200000000000000000000000000000000000006",
        "gas": "0xa3c3",
        "value": "0x0",
        "input": "0x2e1a7d4d0000000000000000000000000000000000000000000000000db565482aacb6b5",
        "nonce": "0x149",
        "chainId": "0x2105"
      },
      "additionalContracts": [],
      "isFixedGasLimit": false
    }
  ],
  "receipts": [
    {
      "status": "0x1",
      "cumulativeGasUsed": "0xd311ce",
      "logs": [
        {
          "address": "0x17137d71fa2a5eac2be5507f306f56685ca4334e",
          "topics": [
            "0xddf252ad1be2c89b69c2b068fc378daa952ba7f163c4a11628f55a4df523b3ef",
            "0x000000000000000000000000b608a7e7e95e61ec343af87a10e257a99848fb05",
            "0x0000000000000000000000001d1e94634fbcb767ce8650269b2c4d33280f0130"
          ],
          "data": "0x0000000000000000000000000000000000000000000000000cfb42646c781f3a",
          "blockHash": "0x27aefd0222f9c70523609c1e1158d21695699243208f2364215547fe603937dd",
          "blockNumber": "0x1282bb1",
          "transactionHash": "0x749a49dc7fb96a9cd1fb22068abe4e25ee9abc3a2d6c212bb9854116084dda92",
          "transactionIndex": "0x4b",
          "logIndex": "0xd4",
          "removed": false
        },
        {
          "address": "0xb608a7e7e95e61ec343af87a10e257a99848fb05",
          "topics": [
            "0x74961ba99ab7b954d0e6ac1d1d718f21ddfe3cb2e19bf91d3de61eda54786a91"
          ],
          "data": "0x0000000000000000000000001d1e94634fbcb767ce8650269b2c4d33280f013000000000000000000000000017137d71fa2a5eac2be5507f306f56685ca4334e0000000000000000000000000000000000000000000000000cfb42646c781f3a",
          "blockHash": "0x27aefd0222f9c70523609c1e1158d21695699243208f2364215547fe603937dd",
          "blockNumber": "0x1282bb1",
          "transactionHash": "0x749a49dc7fb96a9cd1fb22068abe4e25ee9abc3a2d6c212bb9854116084dda92",
          "transactionIndex": "0x4b",
          "logIndex": "0xd5",
          "removed": false
        }
      ],
      "logsBloom": "0x00000020000000000000000000000000000000004000000000000000000000000000000000000000000000000000000000000000000000000000000000800000000000000000000000100208100000000000000000000000000000000000000000000000400000000000000000000000000000000000000000000010000000000400000000004000000000000000400000000000000000000000000000001000000000000000000000000000000000000000000000000000000000000000000000000002002002000000000000000000000000000000000000000008000000000000000000000000000000000000000000000000000000000000000400000000",
      "type": "0x0",
      "transactionHash": "0x749a49dc7fb96a9cd1fb22068abe4e25ee9abc3a2d6c212bb9854116084dda92",
      "transactionIndex": "0x4b",
      "blockHash": "0x27aefd0222f9c70523609c1e1158d21695699243208f2364215547fe603937dd",
      "blockNumber": "0x1282bb1",
      "gasUsed": "0xd48a",
      "effectiveGasPrice": "0x7a2ac3",
      "from": "0x1d1e94634fbcb767ce8650269b2c4d33280f0130",
      "to": "0xb608a7e7e95e61ec343af87a10e257a99848fb05",
      "contractAddress": null,
      "l1BaseFeeScalar": "0x8dd",
      "l1BlobBaseFee": "0x1",
      "l1BlobBaseFeeScalar": "0x101c12",
      "l1Fee": "0x7d5fe6ce5",
      "l1GasPrice": "0x207c03d4f",
      "l1GasUsed": "0x6a4"
    },
    {
      "status": "0x1",
      "cumulativeGasUsed": "0xbc33bf",
      "logs": [
        {
          "address": "0x17137d71fa2a5eac2be5507f306f56685ca4334e",
          "topics": [
            "0xddf252ad1be2c89b69c2b068fc378daa952ba7f163c4a11628f55a4df523b3ef",
            "0x0000000000000000000000001d1e94634fbcb767ce8650269b2c4d33280f0130",
            "0x00000000000000000000000017137d71fa2a5eac2be5507f306f56685ca4334e"
          ],
          "data": "0x0000000000000000000000000000000000000000000000000cfb42646c781f3a",
          "blockHash": "0x58f59b2f098202e83ca2e2125c0672d7195f9354c9b7787c6f6d4aa75e232796",
          "blockNumber": "0x1282bb2",
          "transactionHash": "0xab0872ef748f3a11ab312df0bc0b06274c7bc5a8304d5e70fb260b9ca88590ff",
          "transactionIndex": "0x41",
          "logIndex": "0xe8",
          "removed": false
        }
      ],
      "logsBloom": "0x00000000000000000000000000000000000000000000000000000000000000000000000000000000000000000000000000000000000000000000000000000000000000000000000000000208000000000000000000000000000000000000000000000000400000000000000000000000000000000000000000000010000000000400000000000000000000000000000000000000000000000000000000001000000010000000000000000000000000000000000000000000000000000000000000000002000002000002000000000000000000000000000000000008000000000000000000000000000000000000000000000000000800000000000000000000",
      "type": "0x0",
      "transactionHash": "0xab0872ef748f3a11ab312df0bc0b06274c7bc5a8304d5e70fb260b9ca88590ff",
      "transactionIndex": "0x41",
      "blockHash": "0x58f59b2f098202e83ca2e2125c0672d7195f9354c9b7787c6f6d4aa75e232796",
      "blockNumber": "0x1282bb2",
      "gasUsed": "0xb668",
      "effectiveGasPrice": "0x7a2ac3",
      "from": "0x1d1e94634fbcb767ce8650269b2c4d33280f0130",
      "to": "0x17137d71fa2a5eac2be5507f306f56685ca4334e",
      "contractAddress": null,
      "l1BaseFeeScalar": "0x8dd",
      "l1BlobBaseFee": "0x1",
      "l1BlobBaseFeeScalar": "0x101c12",
      "l1Fee": "0x75ee75f99",
      "l1GasPrice": "0x207c03d4f",
      "l1GasUsed": "0x640"
    },
    {
      "status": "0x1",
      "cumulativeGasUsed": "0xbe4c5e",
      "logs": [
        {
          "address": "0x17137d71fa2a5eac2be5507f306f56685ca4334e",
          "topics": [
            "0xddf252ad1be2c89b69c2b068fc378daa952ba7f163c4a11628f55a4df523b3ef",
            "0x00000000000000000000000017137d71fa2a5eac2be5507f306f56685ca4334e",
            "0x0000000000000000000000000000000000000000000000000000000000000000"
          ],
          "data": "0x0000000000000000000000000000000000000000000000000cfb42646c781f3a",
          "blockHash": "0x58f59b2f098202e83ca2e2125c0672d7195f9354c9b7787c6f6d4aa75e232796",
          "blockNumber": "0x1282bb2",
          "transactionHash": "0x7930297fe6e0e76d30f148e649a0b1542c9f50ea0a209d89574ba2efd179d4c4",
          "transactionIndex": "0x42",
          "logIndex": "0xe9",
          "removed": false
        },
        {
          "address": "0x4200000000000000000000000000000000000006",
          "topics": [
            "0xddf252ad1be2c89b69c2b068fc378daa952ba7f163c4a11628f55a4df523b3ef",
            "0x00000000000000000000000017137d71fa2a5eac2be5507f306f56685ca4334e",
            "0x0000000000000000000000001d1e94634fbcb767ce8650269b2c4d33280f0130"
          ],
          "data": "0x0000000000000000000000000000000000000000000000000db565482aacb6b5",
          "blockHash": "0x58f59b2f098202e83ca2e2125c0672d7195f9354c9b7787c6f6d4aa75e232796",
          "blockNumber": "0x1282bb2",
          "transactionHash": "0x7930297fe6e0e76d30f148e649a0b1542c9f50ea0a209d89574ba2efd179d4c4",
          "transactionIndex": "0x42",
          "logIndex": "0xea",
          "removed": false
        },
        {
          "address": "0x9f82ecc4825b2e48f6238bb04dcd243a7d94599e",
          "topics": [
            "0xddf252ad1be2c89b69c2b068fc378daa952ba7f163c4a11628f55a4df523b3ef",
            "0x00000000000000000000000017137d71fa2a5eac2be5507f306f56685ca4334e",
            "0x0000000000000000000000001d1e94634fbcb767ce8650269b2c4d33280f0130"
          ],
          "data": "0x0000000000000000000000000000000000000000000000000c534d248f40d06d",
          "blockHash": "0x58f59b2f098202e83ca2e2125c0672d7195f9354c9b7787c6f6d4aa75e232796",
          "blockNumber": "0x1282bb2",
          "transactionHash": "0x7930297fe6e0e76d30f148e649a0b1542c9f50ea0a209d89574ba2efd179d4c4",
          "transactionIndex": "0x42",
          "logIndex": "0xeb",
          "removed": false
        },
        {
          "address": "0x17137d71fa2a5eac2be5507f306f56685ca4334e",
          "topics": [
            "0x1c411e9a96e071241c2f21f7726b17ae89e3cab4c78be50e062b03a9fffbbad1"
          ],
          "data": "0x000000000000000000000000000000000000000000000000000000000000042100000000000000000000000000000000000000000000000000000000000003b6",
          "blockHash": "0x58f59b2f098202e83ca2e2125c0672d7195f9354c9b7787c6f6d4aa75e232796",
          "blockNumber": "0x1282bb2",
          "transactionHash": "0x7930297fe6e0e76d30f148e649a0b1542c9f50ea0a209d89574ba2efd179d4c4",
          "transactionIndex": "0x42",
          "logIndex": "0xec",
          "removed": false
        },
        {
          "address": "0x17137d71fa2a5eac2be5507f306f56685ca4334e",
          "topics": [
            "0xdccd412f0b1252819cb1fd330b93224ca42612892bb3f4f789976e6d81936496",
            "0x0000000000000000000000001d1e94634fbcb767ce8650269b2c4d33280f0130",
            "0x0000000000000000000000001d1e94634fbcb767ce8650269b2c4d33280f0130"
          ],
          "data": "0x0000000000000000000000000000000000000000000000000db565482aacb6b50000000000000000000000000000000000000000000000000c534d248f40d06d",
          "blockHash": "0x58f59b2f098202e83ca2e2125c0672d7195f9354c9b7787c6f6d4aa75e232796",
          "blockNumber": "0x1282bb2",
          "transactionHash": "0x7930297fe6e0e76d30f148e649a0b1542c9f50ea0a209d89574ba2efd179d4c4",
          "transactionIndex": "0x42",
          "logIndex": "0xed",
          "removed": false
        }
      ],
      "logsBloom": "0x00000000000000000000000080000000000000000000000000040000000000000000000000000000000000100010000000000000000000000000000000000000000000000000000000000208000000000000000000000000000000000000000002000004420000000000000000000800000000000000000000000010000000000400000000000000000000000000080000000000002000080000000000001000000010000000004000080000000000000000000000000000000000000000000000000002000002000002000000000000000000000000001000000008000020000000000000000000000000000000000000000000000800000000000000000000",
      "type": "0x0",
      "transactionHash": "0x7930297fe6e0e76d30f148e649a0b1542c9f50ea0a209d89574ba2efd179d4c4",
      "transactionIndex": "0x42",
      "blockHash": "0x58f59b2f098202e83ca2e2125c0672d7195f9354c9b7787c6f6d4aa75e232796",
      "blockNumber": "0x1282bb2",
      "gasUsed": "0x2189f",
      "effectiveGasPrice": "0x7a2ac3",
      "from": "0x1d1e94634fbcb767ce8650269b2c4d33280f0130",
      "to": "0x17137d71fa2a5eac2be5507f306f56685ca4334e",
      "contractAddress": null,
      "l1BaseFeeScalar": "0x8dd",
      "l1BlobBaseFee": "0x1",
      "l1BlobBaseFeeScalar": "0x101c12",
      "l1Fee": "0x75ee75f99",
      "l1GasPrice": "0x207c03d4f",
      "l1GasUsed": "0x640"
    },
    {
      "status": "0x1",
      "cumulativeGasUsed": "0xbec2ee",
      "logs": [
        {
          "address": "0x4200000000000000000000000000000000000006",
          "topics": [
            "0x7fcf532c15f0a6db0bd6d0e038bea71d30d808c7d98cb3bf7268a95bf5081b65",
            "0x0000000000000000000000001d1e94634fbcb767ce8650269b2c4d33280f0130"
          ],
          "data": "0x0000000000000000000000000000000000000000000000000db565482aacb6b5",
          "blockHash": "0x58f59b2f098202e83ca2e2125c0672d7195f9354c9b7787c6f6d4aa75e232796",
          "blockNumber": "0x1282bb2",
          "transactionHash": "0x16650be52e65412fc092d2fa6115870682cc85d573ceb5475ad0e32c068305c5",
          "transactionIndex": "0x43",
          "logIndex": "0xee",
          "removed": false
        }
      ],
      "logsBloom": "0x00000000000000000000000000000000000000000000000000040000000000000000000000000000000000100000000000000000000000000000000000000000000000000000000000000200000000000000000000400000000000000000000000000000000000000000000000000000000000000000040000000000000000000400000000000000000000000000000000000000002000000000000000000000000000000000000000000000000000000000000000000000000000000000000000000000000002000000000000000000000000000000000000000002000000000000000000000000000000000000000000000000000000000000000000000000",
      "type": "0x0",
      "transactionHash": "0x16650be52e65412fc092d2fa6115870682cc85d573ceb5475ad0e32c068305c5",
      "transactionIndex": "0x43",
      "blockHash": "0x58f59b2f098202e83ca2e2125c0672d7195f9354c9b7787c6f6d4aa75e232796",
      "blockNumber": "0x1282bb2",
      "gasUsed": "0x7690",
      "effectiveGasPrice": "0x7a2ac3",
      "from": "0x1d1e94634fbcb767ce8650269b2c4d33280f0130",
      "to": "0x4200000000000000000000000000000000000006",
      "contractAddress": null,
      "l1BaseFeeScalar": "0x8dd",
      "l1BlobBaseFee": "0x1",
      "l1BlobBaseFeeScalar": "0x101c12",
      "l1Fee": "0x75ee75f99",
      "l1GasPrice": "0x207c03d4f",
      "l1GasUsed": "0x640"
    }
  ],
  "libraries": [],
  "pending": [],
  "returns": {},
  "timestamp": 1725609038,
  "chain": 8453,
  "commit": "fbc3e60"
}