{
  "transactions": [
    {
      "hash": "0x77b9f4a5560abc1b58762902e42642d30968a4598480fce84056b2ee2c6c95c0",
      "transactionType": "CALL",
      "contractName": null,
      "contractAddress": "0x83fa9f613ded26baf7feff7d46f128a806d79c30",
      "function": "claimTokensFor(address,address,uint256)",
      "arguments": [
        "0x1D1e94634FBcB767ce8650269B2c4d33280f0130",
        "0x4F73ab53bB4e9eF109907FeB0D749805e542a356",
        "935414346693484346"
      ],
      "transaction": {
        "from": "0x1d1e94634fbcb767ce8650269b2c4d33280f0130",
        "to": "0x83fa9f613ded26baf7feff7d46f128a806d79c30",
        "gas": "0x12ee1",
        "value": "0x0",
        "input": "0x3f3c75550000000000000000000000001d1e94634fbcb767ce8650269b2c4d33280f01300000000000000000000000004f73ab53bb4e9ef109907feb0d749805e542a3560000000000000000000000000000000000000000000000000cfb42646c781f3a",
        "nonce": "0x85",
        "chainId": "0x2105"
      },
      "additionalContracts": [],
      "isFixedGasLimit": false
    },
    {
      "hash": "0x10e5c8d5b4ef36833e04a8ac922f7ed9c758205eedd33c5bde6e8e13104f511a",
      "transactionType": "CALL",
      "contractName": null,
      "contractAddress": "0x4f73ab53bb4e9ef109907feb0d749805e542a356",
      "function": "transfer(address,uint256)",
      "arguments": [
        "0x4F73ab53bB4e9eF109907FeB0D749805e542a356",
        "935414346693484346"
      ],
      "transaction": {
        "from": "0x1d1e94634fbcb767ce8650269b2c4d33280f0130",
        "to": "0x4f73ab53bb4e9ef109907feb0d749805e542a356",
        "gas": "0xfbf2",
        "value": "0x0",
        "input": "0xa9059cbb0000000000000000000000004f73ab53bb4e9ef109907feb0d749805e542a3560000000000000000000000000000000000000000000000000cfb42646c781f3a",
        "nonce": "0x86",
        "chainId": "0x2105"
      },
      "additionalContracts": [],
      "isFixedGasLimit": false
    },
    {
      "hash": "0x04d8f5bf3fb1a48abdc37e338fd6064a08c496bd96feedaa4e4be6f2200ae4e7",
      "transactionType": "CALL",
      "contractName": null,
      "contractAddress": "0x4f73ab53bb4e9ef109907feb0d749805e542a356",
      "function": "burn(address)",
      "arguments": [
        "0x1D1e94634FBcB767ce8650269B2c4d33280f0130"
      ],
      "transaction": {
        "from": "0x1d1e94634fbcb767ce8650269b2c4d33280f0130",
        "to": "0x4f73ab53bb4e9ef109907feb0d749805e542a356",
        "gas": "0x3083c",
        "value": "0x0",
        "input": "0x89afcb440000000000000000000000001d1e94634fbcb767ce8650269b2c4d33280f0130",
        "nonce": "0x87",
        "chainId": "0x2105"
      },
      "additionalContracts": [],
      "isFixedGasLimit": false
    },
    {
      "hash": "0x4356c85710b9b5912124ab4f30f93c53130c11cae9aec6d3ce8f6e49135524ac",
      "transactionType": "CALL",
      "contractName": null,
      "contractAddress": "0x4200000000000000000000000000000000000006",
      "function": "withdraw(uint256)",
      "arguments": [
        "2077079182338001751"
      ],
      "transaction": {
        "from": "0x1d1e94634fbcb767ce8650269b2c4d33280f0130",
        "to": "0x4200000000000000000000000000000000000006",
        "gas": "0xa3c3",
        "value": "0x0",
        "input": "0x2e1a7d4d0000000000000000000000000000000000000000000000001cd34482f19d8b57",
        "nonce": "0x88",
        "chainId": "0x2105"
      },
      "additionalContracts": [],
      "isFixedGasLimit": false
    }
  ],
  "receipts": [
    {
      "status": "0x1",
      "cumulativeGasUsed": "0xd1e02c",
      "logs": [
        {
          "address": "0x4f73ab53bb4e9ef109907feb0d749805e542a356",
          "topics": [
            "0xddf252ad1be2c89b69c2b068fc378daa952ba7f163c4a11628f55a4df523b3ef",
            "0x00000000000000000000000083fa9f613ded26baf7feff7d46f128a806d79c30",
            "0x0000000000000000000000001d1e94634fbcb767ce8650269b2c4d33280f0130"
          ],
          "data": "0x0000000000000000000000000000000000000000000000000cfb42646c781f3a",
          "blockHash": "0xb56d8d6bb0b4c780df806b8b521f35e08122cfb18a2b712e1caf8542a5564088",
          "blockNumber": "0x11e56dd",
          "transactionHash": "0x77b9f4a5560abc1b58762902e42642d30968a4598480fce84056b2ee2c6c95c0",
          "transactionIndex": "0x35",
          "logIndex": "0xf2",
          "removed": false
        },
        {
          "address": "0x83fa9f613ded26baf7feff7d46f128a806d79c30",
          "topics": [
            "0x74961ba99ab7b954d0e6ac1d1d718f21ddfe3cb2e19bf91d3de61eda54786a91"
          ],
          "data": "0x0000000000000000000000001d1e94634fbcb767ce8650269b2c4d33280f01300000000000000000000000004f73ab53bb4e9ef109907feb0d749805e542a3560000000000000000000000000000000000000000000000000cfb42646c781f3a",
          "blockHash": "0xb56d8d6bb0b4c780df806b8b521f35e08122cfb18a2b712e1caf8542a5564088",
          "blockNumber": "0x11e56dd",
          "transactionHash": "0x77b9f4a5560abc1b58762902e42642d30968a4598480fce84056b2ee2c6c95c0",
          "transactionIndex": "0x35",
          "logIndex": "0xf3",
          "removed": false
        }
      ],
      "logsBloom": "0x000000000000000000000000000000000000000040040004000000080000000000100000000000000000000000000000000000000000000000000000000000000000000000000000000002080000000000000000000000000000000000000000000000000000000000000000000008000000000000000000000000100000000004000000000000000000000000004000000000000000000c0000000000000000000000002000000000000000000000000000000000000000000000000000000000000002002002000000000000000000000000000000000010000000000000000000000000000000000000000000000000000000000000000000000000000000",
      "type": "0x2",
      "transactionHash": "0x77b9f4a5560abc1b58762902e42642d30968a4598480fce84056b2ee2c6c95c0",
      "transactionIndex": "0x35",
      "blockHash": "0xb56d8d6bb0b4c780df806b8b521f35e08122cfb18a2b712e1caf8542a5564088",
      "blockNumber": "0x11e56dd",
      "gasUsed": "0xcf19",
      "effectiveGasPrice": "0x6496ea",
      "from": "0x1d1e94634fbcb767ce8650269b2c4d33280f0130",
      "to": "0x83fa9f613ded26baf7feff7d46f128a806d79c30",
      "contractAddress": null,
      "l1BaseFeeScalar": "0x8dd",
      "l1BlobBaseFee": "0x1",
      "l1BlobBaseFeeScalar": "0x101c12",
      "l1Fee": "0xe40e67ff",
      "l1GasPrice": "0x386cdf80",
      "l1GasUsed": "0x6f5"
    },
    {
      "status": "0x1",
      "cumulativeGasUsed": "0xd29694",
      "logs": [
        {
          "address": "0x4f73ab53bb4e9ef109907feb0d749805e542a356",
          "topics": [
            "0xddf252ad1be2c89b69c2b068fc378daa952ba7f163c4a11628f55a4df523b3ef",
            "0x0000000000000000000000001d1e94634fbcb767ce8650269b2c4d33280f0130",
            "0x0000000000000000000000004f73ab53bb4e9ef109907feb0d749805e542a356"
          ],
          "data": "0x0000000000000000000000000000000000000000000000000cfb42646c781f3a",
          "blockHash": "0xb56d8d6bb0b4c780df806b8b521f35e08122cfb18a2b712e1caf8542a5564088",
          "blockNumber": "0x11e56dd",
          "transactionHash": "0x10e5c8d5b4ef36833e04a8ac922f7ed9c758205eedd33c5bde6e8e13104f511a",
          "transactionIndex": "0x36",
          "logIndex": "0xf4",
          "removed": false
        }
      ],
      "logsBloom": "0x00000000000000000000000000000000000000000000000000000008000000000010000000000000000000000000000000000000000000000000000000000000000000000000000000000208000000000000000000000000000000000000000000000000000000000000000000000000000000000000000000000010000000000400000000000000000000000000000000000000000000000100000000000000000008002000000000000000000000000000008000000000000000000000000000000002000002000000000000000000000000000000000000000000000000000000000000000000000000000000000000000000000000000000000000000000",
      "type": "0x2",
      "transactionHash": "0x10e5c8d5b4ef36833e04a8ac922f7ed9c758205eedd33c5bde6e8e13104f511a",
      "transactionIndex": "0x36",
      "blockHash": "0xb56d8d6bb0b4c780df806b8b521f35e08122cfb18a2b712e1caf8542a5564088",
      "blockNumber": "0x11e56dd",
      "gasUsed": "0xb668",
      "effectiveGasPrice": "0x6496ea",
      "from": "0x1d1e94634fbcb767ce8650269b2c4d33280f0130",
      "to": "0x4f73ab53bb4e9ef109907feb0d749805e542a356",
      "contractAddress": null,
      "l1BaseFeeScalar": "0x8dd",
      "l1BlobBaseFee": "0x1",
      "l1BlobBaseFeeScalar": "0x101c12",
      "l1Fee": "0xccd8ab31",
      "l1GasPrice": "0x386cdf80",
      "l1GasUsed": "0x640"
    },
    {
      "status": "0x1",
      "cumulativeGasUsed": "0xd4a957",
      "logs": [
        {
          "address": "0x4f73ab53bb4e9ef109907feb0d749805e542a356",
          "topics": [
            "0xddf252ad1be2c89b69c2b068fc378daa952ba7f163c4a11628f55a4df523b3ef",
            "0x0000000000000000000000004f73ab53bb4e9ef109907feb0d749805e542a356",
            "0x0000000000000000000000000000000000000000000000000000000000000000"
          ],
          "data": "0x0000000000000000000000000000000000000000000000000cfb42646c781f3a",
          "blockHash": "0xb56d8d6bb0b4c780df806b8b521f35e08122cfb18a2b712e1caf8542a5564088",
          "blockNumber": "0x11e56dd",
          "transactionHash": "0x04d8f5bf3fb1a48abdc37e338fd6064a08c496bd96feedaa4e4be6f2200ae4e7",
          "transactionIndex": "0x37",
          "logIndex": "0xf5",
          "removed": false
        },
        {
          "address": "0x4200000000000000000000000000000000000006",
          "topics": [
            "0xddf252ad1be2c89b69c2b068fc378daa952ba7f163c4a11628f55a4df523b3ef",
            "0x0000000000000000000000004f73ab53bb4e9ef109907feb0d749805e542a356",
            "0x0000000000000000000000001d1e94634fbcb767ce8650269b2c4d33280f0130"
          ],
          "data": "0x0000000000000000000000000000000000000000000000001cd34482f19d8b57",
          "blockHash": "0xb56d8d6bb0b4c780df806b8b521f35e08122cfb18a2b712e1caf8542a5564088",
          "blockNumber": "0x11e56dd",
          "transactionHash": "0x04d8f5bf3fb1a48abdc37e338fd6064a08c496bd96feedaa4e4be6f2200ae4e7",
          "transactionIndex": "0x37",
          "logIndex": "0xf6",
          "removed": false
        },
        {
          "address": "0x7f0d7158bb08cdd761d89e45724a2140a9bacce8",
          "topics": [
            "0xddf252ad1be2c89b69c2b068fc378daa952ba7f163c4a11628f55a4df523b3ef",
            "0x0000000000000000000000004f73ab53bb4e9ef109907feb0d749805e542a356",
            "0x0000000000000000000000001d1e94634fbcb767ce8650269b2c4d33280f0130"
          ],
          "data": "0x00000000000000000000000000000000000000000000000005daa433a52cf35d",
          "blockHash": "0xb56d8d6bb0b4c780df806b8b521f35e08122cfb18a2b712e1caf8542a5564088",
          "blockNumber": "0x11e56dd",
          "transactionHash": "0x04d8f5bf3fb1a48abdc37e338fd6064a08c496bd96feedaa4e4be6f2200ae4e7",
          "transactionIndex": "0x37",
          "logIndex": "0xf7",
          "removed": false
        },
        {
          "address": "0x4f73ab53bb4e9ef109907feb0d749805e542a356",
          "topics": [
            "0x1c411e9a96e071241c2f21f7726b17ae89e3cab4c78be50e062b03a9fffbbad1"
          ],
          "data": "0x00000000000000000000000000000000000000000000000000000000000008ad00000000000000000000000000000000000000000000000000000000000001c3",
          "blockHash": "0xb56d8d6bb0b4c780df806b8b521f35e08122cfb18a2b712e1caf8542a5564088",
          "blockNumber": "0x11e56dd",
          "transactionHash": "0x04d8f5bf3fb1a48abdc37e338fd6064a08c496bd96feedaa4e4be6f2200ae4e7",
          "transactionIndex": "0x37",
          "logIndex": "0xf8",
          "removed": false
        },
        {
          "address": "0x4f73ab53bb4e9ef109907feb0d749805e542a356",
          "topics": [
            "0xdccd412f0b1252819cb1fd330b93224ca42612892bb3f4f789976e6d81936496",
            "0x0000000000000000000000001d1e94634fbcb767ce8650269b2c4d33280f0130",
            "0x0000000000000000000000001d1e94634fbcb767ce8650269b2c4d33280f0130"
          ],
          "data": "0x0000000000000000000000000000000000000000000000001cd34482f19d8b5700000000000000000000000000000000000000000000000005daa433a52cf35d",
          "blockHash": "0xb56d8d6bb0b4c780df806b8b521f35e08122cfb18a2b712e1caf8542a5564088",
          "blockNumber": "0x11e56dd",
          "transactionHash": "0x04d8f5bf3fb1a48abdc37e338fd6064a08c496bd96feedaa4e4be6f2200ae4e7",
          "transactionIndex": "0x37",
          "logIndex": "0xf9",
          "removed": false
        }
      ],
      "logsBloom": "0x00000000000000000000000080000000000000000000000000040008000000000010000000000000000000100000000000000000000000000000000000000000000000000000000000000208000000000000000000000000000000000000000000000004024000000000000000000800000000000000000000000010000400000400000000000000000000000000080000000000002000080100000000000000000008002000004000000000000000000000008000000000000000000000000000000002000002000000000000000000000000000000001000000000000020000000000000000000000000000000000000000000000000000040000000000000",
      "type": "0x2",
      "transactionHash": "0x04d8f5bf3fb1a48abdc37e338fd6064a08c496bd96feedaa4e4be6f2200ae4e7",
      "transactionIndex": "0x37",
      "blockHash": "0xb56d8d6bb0b4c780df806b8b521f35e08122cfb18a2b712e1caf8542a5564088",
      "blockNumber": "0x11e56dd",
      "gasUsed": "0x212c3",
      "effectiveGasPrice": "0x6496ea",
      "from": "0x1d1e94634fbcb767ce8650269b2c4d33280f0130",
      "to": "0x4f73ab53bb4e9ef109907feb0d749805e542a356",
      "contractAddress": null,
      "l1BaseFeeScalar": "0x8dd",
      "l1BlobBaseFee": "0x1",
      "l1BlobBaseFeeScalar": "0x101c12",
      "l1Fee": "0xccd8ab31",
      "l1GasPrice": "0x386cdf80",
      "l1GasUsed": "0x640"
    },
    {
      "status": "0x1",
      "cumulativeGasUsed": "0xd51fe7",
      "logs": [
        {
          "address": "0x4200000000000000000000000000000000000006",
          "topics": [
            "0x7fcf532c15f0a6db0bd6d0e038bea71d30d808c7d98cb3bf7268a95bf5081b65",
            "0x0000000000000000000000001d1e94634fbcb767ce8650269b2c4d33280f0130"
          ],
          "data": "0x0000000000000000000000000000000000000000000000001cd34482f19d8b57",
          "blockHash": "0xb56d8d6bb0b4c780df806b8b521f35e08122cfb18a2b712e1caf8542a5564088",
          "blockNumber": "0x11e56dd",
          "transactionHash": "0x4356c85710b9b5912124ab4f30f93c53130c11cae9aec6d3ce8f6e49135524ac",
          "transactionIndex": "0x38",
          "logIndex": "0xfa",
          "removed": false
        }
      ],
      "logsBloom": "0x00000000000000000000000000000000000000000000000000040000000000000000000000000000000000100000000000000000000000000000000000000000000000000000000000000200000000000000000000400000000000000000000000000000000000000000000000000000000000000000040000000000000000000400000000000000000000000000000000000000002000000000000000000000000000000000000000000000000000000000000000000000000000000000000000000000000002000000000000000000000000000000000000000002000000000000000000000000000000000000000000000000000000000000000000000000",
      "type": "0x2",
      "transactionHash": "0x4356c85710b9b5912124ab4f30f93c53130c11cae9aec6d3ce8f6e49135524ac",
      "transactionIndex": "0x38",
      "blockHash": "0xb56d8d6bb0b4c780df806b8b521f35e08122cfb18a2b712e1caf8542a5564088",
      "blockNumber": "0x11e56dd",
      "gasUsed": "0x7690",
      "effectiveGasPrice": "0x6496ea",
      "from": "0x1d1e94634fbcb767ce8650269b2c4d33280f0130",
      "to": "0x4200000000000000000000000000000000000006",
      "contractAddress": null,
      "l1BaseFeeScalar": "0x8dd",
      "l1BlobBaseFee": "0x1",
      "l1BlobBaseFeeScalar": "0x101c12",
      "l1Fee": "0xccd8ab31",
      "l1GasPrice": "0x386cdf80",
      "l1GasUsed": "0x640"
    }
  ],
  "libraries": [],
  "pending": [],
  "returns": {},
  "timestamp": 1724320417,
  "chain": 8453,
  "commit": "91f6bca"
}