{
  "transactions": [
    {
      "hash": "0x49f2791957eb4a59e4829a80163fbf2e1c7fe33e359a97a2276c7d3ebdaa95bf",
      "transactionType": "CALL",
      "contractName": null,
      "contractAddress": "0xb608a7e7e95e61ec343af87a10e257a99848fb05",
      "function": "claimTokensFor(address,address,uint256)",
      "arguments": [
        "0x1D1e94634FBcB767ce8650269B2c4d33280f0130",
        "0xc07A16eD824ea536DDc971089C43D3A05E3A2CBA",
        "935414346693484346"
      ],
      "transaction": {
        "from": "0x1d1e94634fbcb767ce8650269b2c4d33280f0130",
        "to": "0xb608a7e7e95e61ec343af87a10e257a99848fb05",
        "gas": "0x136d6",
        "value": "0x0",
        "input": "0x3f3c75550000000000000000000000001d1e94634fbcb767ce8650269b2c4d33280f0130000000000000000000000000c07a16ed824ea536ddc971089c43d3a05e3a2cba0000000000000000000000000000000000000000000000000cfb42646c781f3a",
        "nonce": "0x142",
        "chainId": "0x2105"
      },
      "additionalContracts": [],
      "isFixedGasLimit": false
    },
    {
      "hash": "0xb7d5d2301450622969434ee22e75978a46992d4f1f68d95936f35b86855d6a99",
      "transactionType": "CALL",
      "contractName": null,
      "contractAddress": "0xc07a16ed824ea536ddc971089c43d3a05e3a2cba",
      "function": "transfer(address,uint256)",
      "arguments": [
        "0xc07A16eD824ea536DDc971089C43D3A05E3A2CBA",
        "935414346693484346"
      ],
      "transaction": {
        "from": "0x1d1e94634fbcb767ce8650269b2c4d33280f0130",
        "to": "0xc07a16ed824ea536ddc971089c43d3a05e3a2cba",
        "gas": "0xfbf2",
        "value": "0x0",
        "input": "0xa9059cbb000000000000000000000000c07a16ed824ea536ddc971089c43d3a05e3a2cba0000000000000000000000000000000000000000000000000cfb42646c781f3a",
        "nonce": "0x143",
        "chainId": "0x2105"
      },
      "additionalContracts": [],
      "isFixedGasLimit": false
    },
    {
      "hash": "0x474015f5548ed163f49230e1b31acffb61b8b7acfe7222c0c8506da06087ab92",
      "transactionType": "CALL",
      "contractName": null,
      "contractAddress": "0xc07a16ed824ea536ddc971089c43d3a05e3a2cba",
      "function": "burn(address)",
      "arguments": [
        "0x1D1e94634FBcB767ce8650269B2c4d33280f0130"
      ],
      "transaction": {
        "from": "0x1d1e94634fbcb767ce8650269b2c4d33280f0130",
        "to": "0xc07a16ed824ea536ddc971089c43d3a05e3a2cba",
        "gas": "0x2e534",
        "value": "0x0",
        "input": "0x89afcb440000000000000000000000001d1e94634fbcb767ce8650269b2c4d33280f0130",
        "nonce": "0x144",
        "chainId": "0x2105"
      },
      "additionalContracts": [],
      "isFixedGasLimit": false
    },
    {
      "hash": "0x4a380e9dd5d125409f8d6453c56f0fefec1db02ebcd31d0c32f2dae95a8efdd3",
      "transactionType": "CALL",
      "contractName": null,
      "contractAddress": "0x4200000000000000000000000000000000000006",
      "function": "withdraw(uint256)",
      "arguments": [
        "899964241929731979"
      ],
      "transaction": {
        "from": "0x1d1e94634fbcb767ce8650269b2c4d33280f0130",
        "to": "0x4200000000000000000000000000000000000006",
        "gas": "0xa3c3",
        "value": "0x0",
        "input": "0x2e1a7d4d0000000000000000000000000000000000000000000000000c7d50b5b6c67f8b",
        "nonce": "0x145",
        "chainId": "0x2105"
      },
      "additionalContracts": [],
      "isFixedGasLimit": false
    }
  ],
  "receipts": [
    {
      "status": "0x1",
      "cumulativeGasUsed": "0x1c28f06",
      "logs": [
        {
          "address": "0xc07a16ed824ea536ddc971089c43d3a05e3a2cba",
          "topics": [
            "0xddf252ad1be2c89b69c2b068fc378daa952ba7f163c4a11628f55a4df523b3ef",
            "0x000000000000000000000000b608a7e7e95e61ec343af87a10e257a99848fb05",
            "0x0000000000000000000000001d1e94634fbcb767ce8650269b2c4d33280f0130"
          ],
          "data": "0x0000000000000000000000000000000000000000000000000cfb42646c781f3a",
          "blockHash": "0x1982277c7e79a7100073fc0dff4102b4df5e055cec97cd6a985ca254ea42c3d4",
          "blockNumber": "0x1282a08",
          "transactionHash": "0x49f2791957eb4a59e4829a80163fbf2e1c7fe33e359a97a2276c7d3ebdaa95bf",
          "transactionIndex": "0x31",
          "logIndex": "0x21d",
          "removed": false
        },
        {
          "address": "0xb608a7e7e95e61ec343af87a10e257a99848fb05",
          "topics": [
            "0x74961ba99ab7b954d0e6ac1d1d718f21ddfe3cb2e19bf91d3de61eda54786a91"
          ],
          "data": "0x0000000000000000000000001d1e94634fbcb767ce8650269b2c4d33280f0130000000000000000000000000c07a16ed824ea536ddc971089c43d3a05e3a2cba0000000000000000000000000000000000000000000000000cfb42646c781f3a",
          "blockHash": "0x1982277c7e79a7100073fc0dff4102b4df5e055cec97cd6a985ca254ea42c3d4",
          "blockNumber": "0x1282a08",
          "transactionHash": "0x49f2791957eb4a59e4829a80163fbf2e1c7fe33e359a97a2276c7d3ebdaa95bf",
          "transactionIndex": "0x31",
          "logIndex": "0x21e",
          "removed": false
        }
      ],
      "logsBloom": "0x00000020000000000000000000000000000000004000000000000000000000000000000000000000000000000000000000000000000000000000000000800000000000000000100000100208100000000000000000000000000000000000000000000000000000000400000000000000000000000000000000000010000000000400000000004000000000004000400000000000000000000000000000000000000000000000000000000000000000000000000000000000000000000000000000000002002002000000000000000000000000000000000000000000000000000000000000000000000000000000000000000000000000000000000400000000",
      "type": "0x0",
      "transactionHash": "0x49f2791957eb4a59e4829a80163fbf2e1c7fe33e359a97a2276c7d3ebdaa95bf",
      "transactionIndex": "0x31",
      "blockHash": "0x1982277c7e79a7100073fc0dff4102b4df5e055cec97cd6a985ca254ea42c3d4",
      "blockNumber": "0x1282a08",
      "gasUsed": "0xd48a",
      "effectiveGasPrice": "0x748e62",
      "from": "0x1d1e94634fbcb767ce8650269b2c4d33280f0130",
      "to": "0xb608a7e7e95e61ec343af87a10e257a99848fb05",
      "contractAddress": null,
      "l1BaseFeeScalar": "0x8dd",
      "l1BlobBaseFee": "0x1",
      "l1BlobBaseFeeScalar": "0x101c12",
      "l1Fee": "0x9e0386415",
      "l1GasPrice": "0x28f0f2bf3",
      "l1GasUsed": "0x6a4"
    },
    {
      "status": "0x1",
      "cumulativeGasUsed": "0x1c67af8",
      "logs": [
        {
          "address": "0xc07a16ed824ea536ddc971089c43d3a05e3a2cba",
          "topics": [
            "0xddf252ad1be2c89b69c2b068fc378daa952ba7f163c4a11628f55a4df523b3ef",
            "0x0000000000000000000000001d1e94634fbcb767ce8650269b2c4d33280f0130",
            "0x000000000000000000000000c07a16ed824ea536ddc971089c43d3a05e3a2cba"
          ],
          "data": "0x0000000000000000000000000000000000000000000000000cfb42646c781f3a",
          "blockHash": "0x1982277c7e79a7100073fc0dff4102b4df5e055cec97cd6a985ca254ea42c3d4",
          "blockNumber": "0x1282a08",
          "transactionHash": "0xb7d5d2301450622969434ee22e75978a46992d4f1f68d95936f35b86855d6a99",
          "transactionIndex": "0x37",
          "logIndex": "0x222",
          "removed": false
        }
      ],
      "logsBloom": "0x00000000000000000000000000000000000000000000000000000000000000000000000000000000000000000000000000000000000000000000000000000000000000000000100000000208000000000000000000000000000000000000080000000000000000001400000000000000000000000000000000000010000000000400000000000000000000004000000000000000000000000000000000000000000000000000000000000000000000000000000000000000000000000000000000000002000002000000010000000000000000000000000000000000000000000000000000000000000000000000000000000000000000000000000000000000",
      "type": "0x0",
      "transactionHash": "0xb7d5d2301450622969434ee22e75978a46992d4f1f68d95936f35b86855d6a99",
      "transactionIndex": "0x37",
      "blockHash": "0x1982277c7e79a7100073fc0dff4102b4df5e055cec97cd6a985ca254ea42c3d4",
      "blockNumber": "0x1282a08",
      "gasUsed": "0xb668",
      "effectiveGasPrice": "0x748e62",
      "from": "0x1d1e94634fbcb767ce8650269b2c4d33280f0130",
      "to": "0xc07a16ed824ea536ddc971089c43d3a05e3a2cba",
      "contractAddress": null,
      "l1BaseFeeScalar": "0x8dd",
      "l1BlobBaseFee": "0x1",
      "l1BlobBaseFeeScalar": "0x101c12",
      "l1Fee": "0x94a208d88",
      "l1GasPrice": "0x28f0f2bf3",
      "l1GasUsed": "0x640"
    },
    {
      "status": "0x1",
      "cumulativeGasUsed": "0x1c89397",
      "logs": [
        {
          "address": "0xc07a16ed824ea536ddc971089c43d3a05e3a2cba",
          "topics": [
            "0xddf252ad1be2c89b69c2b068fc378daa952ba7f163c4a11628f55a4df523b3ef",
            "0x000000000000000000000000c07a16ed824ea536ddc971089c43d3a05e3a2cba",
            "0x0000000000000000000000000000000000000000000000000000000000000000"
          ],
          "data": "0x0000000000000000000000000000000000000000000000000cfb42646c781f3a",
          "blockHash": "0x1982277c7e79a7100073fc0dff4102b4df5e055cec97cd6a985ca254ea42c3d4",
          "blockNumber": "0x1282a08",
          "transactionHash": "0x474015f5548ed163f49230e1b31acffb61b8b7acfe7222c0c8506da06087ab92",
          "transactionIndex": "0x38",
          "logIndex": "0x223",
          "removed": false
        },
        {
          "address": "0x4200000000000000000000000000000000000006",
          "topics": [
            "0xddf252ad1be2c89b69c2b068fc378daa952ba7f163c4a11628f55a4df523b3ef",
            "0x000000000000000000000000c07a16ed824ea536ddc971089c43d3a05e3a2cba",
            "0x0000000000000000000000001d1e94634fbcb767ce8650269b2c4d33280f0130"
          ],
          "data": "0x0000000000000000000000000000000000000000000000000c7d50b5b6c67f8b",
          "blockHash": "0x1982277c7e79a7100073fc0dff4102b4df5e055cec97cd6a985ca254ea42c3d4",
          "blockNumber": "0x1282a08",
          "transactionHash": "0x474015f5548ed163f49230e1b31acffb61b8b7acfe7222c0c8506da06087ab92",
          "transactionIndex": "0x38",
          "logIndex": "0x224",
          "removed": false
        },
        {
          "address": "0xbdcc0603941417df6161d46a0e5c39667afe7d33",
          "topics": [
            "0xddf252ad1be2c89b69c2b068fc378daa952ba7f163c4a11628f55a4df523b3ef",
            "0x000000000000000000000000c07a16ed824ea536ddc971089c43d3a05e3a2cba",
            "0x0000000000000000000000001d1e94634fbcb767ce8650269b2c4d33280f0130"
          ],
          "data": "0x0000000000000000000000000000000000000000000000000d894f0c0ee14a71",
          "blockHash": "0x1982277c7e79a7100073fc0dff4102b4df5e055cec97cd6a985ca254ea42c3d4",
          "blockNumber": "0x1282a08",
          "transactionHash": "0x474015f5548ed163f49230e1b31acffb61b8b7acfe7222c0c8506da06087ab92",
          "transactionIndex": "0x38",
          "logIndex": "0x225",
          "removed": false
        },
        {
          "address": "0xc07a16ed824ea536ddc971089c43d3a05e3a2cba",
          "topics": [
            "0x1c411e9a96e071241c2f21f7726b17ae89e3cab4c78be50e062b03a9fffbbad1"
          ],
          "data": "0x00000000000000000000000000000000000000000000000000000000000003c30000000000000000000000000000000000000000000000000000000000000413",
          "blockHash": "0x1982277c7e79a7100073fc0dff4102b4df5e055cec97cd6a985ca254ea42c3d4",
          "blockNumber": "0x1282a08",
          "transactionHash": "0x474015f5548ed163f49230e1b31acffb61b8b7acfe7222c0c8506da06087ab92",
          "transactionIndex": "0x38",
          "logIndex": "0x226",
          "removed": false
        },
        {
          "address": "0xc07a16ed824ea536ddc971089c43d3a05e3a2cba",
          "topics": [
            "0xdccd412f0b1252819cb1fd330b93224ca42612892bb3f4f789976e6d81936496",
            "0x0000000000000000000000001d1e94634fbcb767ce8650269b2c4d33280f0130",
            "0x0000000000000000000000001d1e94634fbcb767ce8650269b2c4d33280f0130"
          ],
          "data": "0x0000000000000000000000000000000000000000000000000c7d50b5b6c67f8b0000000000000000000000000000000000000000000000000d894f0c0ee14a71",
          "blockHash": "0x1982277c7e79a7100073fc0dff4102b4df5e055cec97cd6a985ca254ea42c3d4",
          "blockNumber": "0x1282a08",
          "transactionHash": "0x474015f5548ed163f49230e1b31acffb61b8b7acfe7222c0c8506da06087ab92",
          "transactionIndex": "0x38",
          "logIndex": "0x227",
          "removed": false
        }
      ],
      "logsBloom": "0x00000000000000000000000080000000000000000000000000040000000000000020080000000000000000100000000000000000000000000000000000000000000000000000100000000208000000000000000000000000000000000000080000000004020000001400000000000800000000000000000000000010000000000400000000000000000001004000080000000000002000080000000000000000000000000000004000000000000000000000000000000000000000000000000000000002000002000000010000000000000000000000001000000000000020000000000000000000000000000000000000000000000000000000000000000000",
      "type": "0x0",
      "transactionHash": "0x474015f5548ed163f49230e1b31acffb61b8b7acfe7222c0c8506da06087ab92",
      "transactionIndex": "0x38",
      "blockHash": "0x1982277c7e79a7100073fc0dff4102b4df5e055cec97cd6a985ca254ea42c3d4",
      "blockNumber": "0x1282a08",
      "gasUsed": "0x2189f",
      "effectiveGasPrice": "0x748e62",
      "from": "0x1d1e94634fbcb767ce8650269b2c4d33280f0130",
      "to": "0xc07a16ed824ea536ddc971089c43d3a05e3a2cba",
      "contractAddress": null,
      "l1BaseFeeScalar": "0x8dd",
      "l1BlobBaseFee": "0x1",
      "l1BlobBaseFeeScalar": "0x101c12",
      "l1Fee": "0x94a208d88",
      "l1GasPrice": "0x28f0f2bf3",
      "l1GasUsed": "0x640"
    },
    {
      "status": "0x1",
      "cumulativeGasUsed": "0x1c90a27",
      "logs": [
        {
          "address": "0x4200000000000000000000000000000000000006",
          "topics": [
            "0x7fcf532c15f0a6db0bd6d0e038bea71d30d808c7d98cb3bf7268a95bf5081b65",
            "0x0000000000000000000000001d1e94634fbcb767ce8650269b2c4d33280f0130"
          ],
          "data": "0x0000000000000000000000000000000000000000000000000c7d50b5b6c67f8b",
          "blockHash": "0x1982277c7e79a7100073fc0dff4102b4df5e055cec97cd6a985ca254ea42c3d4",
          "blockNumber": "0x1282a08",
          "transactionHash": "0x4a380e9dd5d125409f8d6453c56f0fefec1db02ebcd31d0c32f2dae95a8efdd3",
          "transactionIndex": "0x39",
          "logIndex": "0x228",
          "removed": false
        }
      ],
      "logsBloom": "0x00000000000000000000000000000000000000000000000000040000000000000000000000000000000000100000000000000000000000000000000000000000000000000000000000000200000000000000000000400000000000000000000000000000000000000000000000000000000000000000040000000000000000000400000000000000000000000000000000000000002000000000000000000000000000000000000000000000000000000000000000000000000000000000000000000000000002000000000000000000000000000000000000000002000000000000000000000000000000000000000000000000000000000000000000000000",
      "type": "0x0",
      "transactionHash": "0x4a380e9dd5d125409f8d6453c56f0fefec1db02ebcd31d0c32f2dae95a8efdd3",
      "transactionIndex": "0x39",
      "blockHash": "0x1982277c7e79a7100073fc0dff4102b4df5e055cec97cd6a985ca254ea42c3d4",
      "blockNumber": "0x1282a08",
      "gasUsed": "0x7690",
      "effectiveGasPrice": "0x748e62",
      "from": "0x1d1e94634fbcb767ce8650269b2c4d33280f0130",
      "to": "0x4200000000000000000000000000000000000006",
      "contractAddress": null,
      "l1BaseFeeScalar": "0x8dd",
      "l1BlobBaseFee": "0x1",
      "l1BlobBaseFeeScalar": "0x101c12",
      "l1Fee": "0x94a208d88",
      "l1GasPrice": "0x28f0f2bf3",
      "l1GasUsed": "0x640"
    }
  ],
  "libraries": [],
  "pending": [],
  "returns": {},
  "timestamp": 1725608186,
  "chain": 8453,
  "commit": "fbc3e60"
}