{
  "transactions": [
    {
      "hash": "0x301e0593c93354a7d6b0dc6e8136a762e84e9c9f7b34c7e0670f71dad1bf4b94",
      "transactionType": "CALL",
      "contractName": null,
      "contractAddress": "0xea6be71604185d49d9dcfa8cf536d842ef68f0c1",
      "function": "createLaunchPad(address,string,string)",
      "arguments": [
        "0x09DB045CC4f7399BbBB4F7d8a8C541d23E9A0430",
        "\"FUCK Meme\"",
        "\"FMeme\""
      ],
      "transaction": {
        "from": "0x1d1e94634fbcb767ce8650269b2c4d33280f0130",
        "to": "0xea6be71604185d49d9dcfa8cf536d842ef68f0c1",
        "gas": "0x15dd16",
        "value": "0x0",
        "input": "0xbca92ec300000000000000000000000009db045cc4f7399bbbb4f7d8a8c541d23e9a0430000000000000000000000000000000000000000000000000000000000000006000000000000000000000000000000000000000000000000000000000000000a000000000000000000000000000000000000000000000000000000000000000094655434b204d656d6500000000000000000000000000000000000000000000000000000000000000000000000000000000000000000000000000000000000005464d656d65000000000000000000000000000000000000000000000000000000",
        "nonce": "0x12",
        "chainId": "0x14a34"
      },
      "additionalContracts": [
        {
          "transactionType": "CREATE2",
          "address": "0x6643da9ea423d29880d59b6e5c71d8c87c234479",
          "initCode": "0x60a060405234801561001057600080fd5b50604051610b01380380610b0183398101604081905261002f9161013a565b81604051602001610040919061019d565b60408051601f1981840301815291905281600361005d8382610259565b50600461006a8282610259565b50503360805250610318915050565b634e487b7160e01b600052604160045260246000fd5b60005b838110156100aa578181015183820152602001610092565b50506000910152565b600082601f8301126100c457600080fd5b81516001600160401b03808211156100de576100de610079565b604051601f8301601f19908116603f0116810190828211818310171561010657610106610079565b8160405283815286602085880101111561011f57600080fd5b61013084602083016020890161008f565b9695505050505050565b6000806040838503121561014d57600080fd5b82516001600160401b038082111561016457600080fd5b610170868387016100b3565b9350602085015191508082111561018657600080fd5b50610193858286016100b3565b9150509250929050565b600082516101af81846020870161008f565b6c1024b73334b734902a37b5b2b760991b920191825250600d01919050565b600181811c908216806101e257607f821691505b60208210810361020257634e487b7160e01b600052602260045260246000fd5b50919050565b601f821115610254576000816000526020600020601f850160051c810160208610156102315750805b601f850160051c820191505b818110156102505782815560010161023d565b5050505b505050565b81516001600160401b0381111561027257610272610079565b6102868161028084546101ce565b84610208565b602080601f8311600181146102bb57600084156102a35750858301515b600019600386901b1c1916600185901b178555610250565b600085815260208120601f198616915b828110156102ea578886015182559484019460019091019084016102cb565b50858210156103085787850151600019600388901b60f8161c191681555b5050505050600190811b01905550565b6080516107ce610333600039600061028501526107ce6000f3fe608060405234801561001057600080fd5b506004361061009e5760003560e01c806340c10f191161006657806340c10f191461011857806370a082311461012d57806395d89b4114610156578063a9059cbb1461015e578063dd62ed3e1461017157600080fd5b806306fdde03146100a3578063095ea7b3146100c157806318160ddd146100e457806323b872dd146100f6578063313ce56714610109575b600080fd5b6100ab6101aa565b6040516100b89190610617565b60405180910390f35b6100d46100cf366004610682565b61023c565b60405190151581526020016100b8565b6002545b6040519081526020016100b8565b6100d46101043660046106ac565b610256565b604051600981526020016100b8565b61012b610126366004610682565b61027a565b005b6100e861013b3660046106e8565b6001600160a01b031660009081526020819052604090205490565b6100ab6102d1565b6100d461016c366004610682565b6102e0565b6100e861017f36600461070a565b6001600160a01b03918216600090815260016020908152604080832093909416825291909152205490565b6060600380546101b99061073d565b80601f01602080910402602001604051908101604052809291908181526020018280546101e59061073d565b80156102325780601f1061020757610100808354040283529160200191610232565b820191906000526020600020905b81548152906001019060200180831161021557829003601f168201915b5050505050905090565b60003361024a8185856102ee565b60019150505b92915050565b600033610264858285610300565b61026f858585610383565b506001949350505050565b336001600160a01b037f000000000000000000000000000000000000000000000000000000000000000016146102c35760405163b0490f9d60e01b815260040160405180910390fd5b6102cd82826103e2565b5050565b6060600480546101b99061073d565b60003361024a818585610383565b6102fb8383836001610418565b505050565b6001600160a01b03838116600090815260016020908152604080832093861683529290522054600019811461037d578181101561036e57604051637dc7a0d960e11b81526001600160a01b038416600482015260248101829052604481018390526064015b60405180910390fd5b61037d84848484036000610418565b50505050565b6001600160a01b0383166103ad57604051634b637e8f60e11b815260006004820152602401610365565b6001600160a01b0382166103d75760405163ec442f0560e01b815260006004820152602401610365565b6102fb8383836104ed565b6001600160a01b03821661040c5760405163ec442f0560e01b815260006004820152602401610365565b6102cd600083836104ed565b6001600160a01b0384166104425760405163e602df0560e01b815260006004820152602401610365565b6001600160a01b03831661046c57604051634a1406b160e11b815260006004820152602401610365565b6001600160a01b038085166000908152600160209081526040808320938716835292905220829055801561037d57826001600160a01b0316846001600160a01b03167f8c5be1e5ebec7d5bd14f71427d1e84f3dd0314c0f7b2291e5b200ac8c7c3b925846040516104df91815260200190565b60405180910390a350505050565b6001600160a01b03831661051857806002600082825461050d9190610777565b9091555061058a9050565b6001600160a01b0383166000908152602081905260409020548181101561056b5760405163391434e360e21b81526001600160a01b03851660048201526024810182905260448101839052606401610365565b6001600160a01b03841660009081526020819052604090209082900390555b6001600160a01b0382166105a6576002805482900390556105c5565b6001600160a01b03821660009081526020819052604090208054820190555b816001600160a01b0316836001600160a01b03167fddf252ad1be2c89b69c2b068fc378daa952ba7f163c4a11628f55a4df523b3ef8360405161060a91815260200190565b60405180910390a3505050565b60006020808352835180602085015260005b8181101561064557858101830151858201604001528201610629565b506000604082860101526040601f19601f8301168501019250505092915050565b80356001600160a01b038116811461067d57600080fd5b919050565b6000806040838503121561069557600080fd5b61069e83610666565b946020939093013593505050565b6000806000606084860312156106c157600080fd5b6106ca84610666565b92506106d860208501610666565b9150604084013590509250925092565b6000602082840312156106fa57600080fd5b61070382610666565b9392505050565b6000806040838503121561071d57600080fd5b61072683610666565b915061073460208401610666565b90509250929050565b600181811c9082168061075157607f821691505b60208210810361077157634e487b7160e01b600052602260045260246000fd5b50919050565b8082018082111561025057634e487b7160e01b600052601160045260246000fdfea26469706673582212205d9117847ddd2e32c08a9123c3026634b5447e1da54daf627351790ab25709fe64736f6c634300081900330000000000000000000000000000000000000000000000000000000000000040000000000000000000000000000000000000000000000000000000000000008000000000000000000000000000000000000000000000000000000000000000094655434b204d656d6500000000000000000000000000000000000000000000000000000000000000000000000000000000000000000000000000000000000005464d656d65000000000000000000000000000000000000000000000000000000"
        },
        {
          "transactionType": "CREATE2",
          "address": "0x603374d7bd2ce7dd7c4a44dc78b9a96c98b98fa9",
          "initCode": "0x3d602d80600a3d3981f3363d3d373d3d3d363d737a7c20d9c7a065f489c0f5f5144b327613bf960b5af43d82803e903d91602b57fd5bf3"
        }
      ],
      "isFixedGasLimit": false
    },
    {
      "hash": "0x3e96aa1665853826f44822e07fc5e52ffba6be36516cf34469a2006e8605e71d",
      "transactionType": "CALL",
      "contractName": null,
      "contractAddress": "0x09db045cc4f7399bbbb4f7d8a8c541d23e9a0430",
      "function": "approve(address,uint256)",
      "arguments": [
        "0x0280e57c5A352d98632b9Fde01d4D6AD987306D5",
        "10000000000000000"
      ],
      "transaction": {
        "from": "0x1d1e94634fbcb767ce8650269b2c4d33280f0130",
        "to": "0x09db045cc4f7399bbbb4f7d8a8c541d23e9a0430",
        "gas": "0xfa40",
        "value": "0x0",
        "input": "0x095ea7b30000000000000000000000000280e57c5a352d98632b9fde01d4d6ad987306d5000000000000000000000000000000000000000000000000002386f26fc10000",
        "nonce": "0x13",
        "chainId": "0x14a34"
      },
      "additionalContracts": [],
      "isFixedGasLimit": false
    },
    {
      "hash": "0xf9f26b80521d588314eebf878ed0e746625877b9bd0d840b50fc99d9c4c8ebcf",
      "transactionType": "CALL",
      "contractName": null,
      "contractAddress": "0x0280e57c5a352d98632b9fde01d4d6ad987306d5",
      "function": "buyQuote(address,uint256,uint256)",
      "arguments": [
        "0x603374D7bD2ce7Dd7c4a44dc78b9a96c98B98fA9",
        "10000000000000000",
        "0"
      ],
      "transaction": {
        "from": "0x1d1e94634fbcb767ce8650269b2c4d33280f0130",
        "to": "0x0280e57c5a352d98632b9fde01d4d6ad987306d5",
        "gas": "0x3a5f5",
        "value": "0x0",
        "input": "0xa7591849000000000000000000000000603374d7bd2ce7dd7c4a44dc78b9a96c98b98fa9000000000000000000000000000000000000000000000000002386f26fc100000000000000000000000000000000000000000000000000000000000000000000",
        "nonce": "0x14",
        "chainId": "0x14a34"
      },
      "additionalContracts": [],
      "isFixedGasLimit": false
    }
  ],
  "receipts": [
    {
      "status": "0x1",
      "cumulativeGasUsed": "0xff10f",
      "logs": [
        {
          "address": "0xea6be71604185d49d9dcfa8cf536d842ef68f0c1",
          "topics": [
            "0x91d24864a084ab70b268a1f865e757ca12006cf298d763b6be697302ef86498c"
          ],
          "data": "0x0000000000000000000000006643da9ea423d29880d59b6e5c71d8c87c234479",
          "blockHash": "0x98ba578297ba610eab46ad8640dbf35e9a3d6c21be37e1e17d0aacd5fc82dd7b",
          "blockNumber": "0xb8a6d4",
          "transactionHash": "0x301e0593c93354a7d6b0dc6e8136a762e84e9c9f7b34c7e0670f71dad1bf4b94",
          "transactionIndex": "0x2",
          "logIndex": "0x0",
          "removed": false
        },
        {
          "address": "0x6643da9ea423d29880d59b6e5c71d8c87c234479",
          "topics": [
            "0xddf252ad1be2c89b69c2b068fc378daa952ba7f163c4a11628f55a4df523b3ef",
            "0x0000000000000000000000000000000000000000000000000000000000000000",
            "0x000000000000000000000000ea6be71604185d49d9dcfa8cf536d842ef68f0c1"
          ],
          "data": "0x00000000000000000000000000000000000000000000000009b6e64a8ec60000",
          "blockHash": "0x98ba578297ba610eab46ad8640dbf35e9a3d6c21be37e1e17d0aacd5fc82dd7b",
          "blockNumber": "0xb8a6d4",
          "transactionHash": "0x301e0593c93354a7d6b0dc6e8136a762e84e9c9f7b34c7e0670f71dad1bf4b94",
          "transactionIndex": "0x2",
          "logIndex": "0x1",
          "removed": false
        },
        {
          "address": "0x6643da9ea423d29880d59b6e5c71d8c87c234479",
          "topics": [
            "0x8c5be1e5ebec7d5bd14f71427d1e84f3dd0314c0f7b2291e5b200ac8c7c3b925",
            "0x000000000000000000000000ea6be71604185d49d9dcfa8cf536d842ef68f0c1",
            "0x000000000000000000000000603374d7bd2ce7dd7c4a44dc78b9a96c98b98fa9"
          ],
          "data": "0x00000000000000000000000000000000000000000000000009b6e64a8ec60000",
          "blockHash": "0x98ba578297ba610eab46ad8640dbf35e9a3d6c21be37e1e17d0aacd5fc82dd7b",
          "blockNumber": "0xb8a6d4",
          "transactionHash": "0x301e0593c93354a7d6b0dc6e8136a762e84e9c9f7b34c7e0670f71dad1bf4b94",
          "transactionIndex": "0x2",
          "logIndex": "0x2",
          "removed": false
        },
        {
          "address": "0x6643da9ea423d29880d59b6e5c71d8c87c234479",
          "topics": [
            "0xddf252ad1be2c89b69c2b068fc378daa952ba7f163c4a11628f55a4df523b3ef",
            "0x000000000000000000000000ea6be71604185d49d9dcfa8cf536d842ef68f0c1",
            "0x000000000000000000000000603374d7bd2ce7dd7c4a44dc78b9a96c98b98fa9"
          ],
          "data": "0x00000000000000000000000000000000000000000000000009b6e64a8ec60000",
          "blockHash": "0x98ba578297ba610eab46ad8640dbf35e9a3d6c21be37e1e17d0aacd5fc82dd7b",
          "blockNumber": "0xb8a6d4",
          "transactionHash": "0x301e0593c93354a7d6b0dc6e8136a762e84e9c9f7b34c7e0670f71dad1bf4b94",
          "transactionIndex": "0x2",
          "logIndex": "0x3",
          "removed": false
        },
        {
          "address": "0x603374d7bd2ce7dd7c4a44dc78b9a96c98b98fa9",
          "topics": [
            "0xcf2aa50876cdfbb541206f89af0ee78d44a2abf8d328e37fa4917f982149848a"
          ],
          "data": "0x000000000000000000000000000000000000000000000000000000000000000000000000000000000000000000000000000000000000000009b6e64a8ec60000",
          "blockHash": "0x98ba578297ba610eab46ad8640dbf35e9a3d6c21be37e1e17d0aacd5fc82dd7b",
          "blockNumber": "0xb8a6d4",
          "transactionHash": "0x301e0593c93354a7d6b0dc6e8136a762e84e9c9f7b34c7e0670f71dad1bf4b94",
          "transactionIndex": "0x2",
          "logIndex": "0x4",
          "removed": false
        },
        {
          "address": "0x603374d7bd2ce7dd7c4a44dc78b9a96c98b98fa9",
          "topics": [
            "0xb1169cd24fa73a90447c53832d208080fef5826a3f1c5ffa5040dd02b290ff59"
          ],
          "data": "0x00000000000000000000000009db045cc4f7399bbbb4f7d8a8c541d23e9a04300000000000000000000000006643da9ea423d29880d59b6e5c71d8c87c234479000000000000000000000000ea6be71604185d49d9dcfa8cf536d842ef68f0c100000000000000000000000000000000000000000000000009b6e64a8ec60000",
          "blockHash": "0x98ba578297ba610eab46ad8640dbf35e9a3d6c21be37e1e17d0aacd5fc82dd7b",
          "blockNumber": "0xb8a6d4",
          "transactionHash": "0x301e0593c93354a7d6b0dc6e8136a762e84e9c9f7b34c7e0670f71dad1bf4b94",
          "transactionIndex": "0x2",
          "logIndex": "0x5",
          "removed": false
        },
        {
          "address": "0x1ede905c7e3cca39894333f7e7fd2751ced68a21",
          "topics": [
            "0x9c5d829b9b23efc461f9aeef91979ec04bb903feb3bee4f26d22114abfc7335b"
          ],
          "data": "0x00000000000000000000000009db045cc4f7399bbbb4f7d8a8c541d23e9a04300000000000000000000000006643da9ea423d29880d59b6e5c71d8c87c234479000000000000000000000000603374d7bd2ce7dd7c4a44dc78b9a96c98b98fa9",
          "blockHash": "0x98ba578297ba610eab46ad8640dbf35e9a3d6c21be37e1e17d0aacd5fc82dd7b",
          "blockNumber": "0xb8a6d4",
          "transactionHash": "0x301e0593c93354a7d6b0dc6e8136a762e84e9c9f7b34c7e0670f71dad1bf4b94",
          "transactionIndex": "0x2",
          "logIndex": "0x6",
          "removed": false
        }
      ],
      "logsBloom": "0x0000000000000000000000000000000000000000400000000000008800000000000000000000100000000000000000000000000000000000000000000020000000001004000000000000000c000000000400000000000000020000000000000000000000020400000000000000000800004000000000000100000010000000001000000000000000000008200000000040001000000000000000000000004000020000000000004000000000000000000000000000000000000000000000000000000002000000000800000400000002000000000028000000400000000020000010000008000000000000000000000019000000000000000000000000000000",
      "type": "0x2",
      "transactionHash": "0x301e0593c93354a7d6b0dc6e8136a762e84e9c9f7b34c7e0670f71dad1bf4b94",
      "transactionIndex": "0x2",
      "blockHash": "0x98ba578297ba610eab46ad8640dbf35e9a3d6c21be37e1e17d0aacd5fc82dd7b",
      "blockNumber": "0xb8a6d4",
      "gasUsed": "0xef3d4",
      "effectiveGasPrice": "0x10cac5",
      "from": "0x1d1e94634fbcb767ce8650269b2c4d33280f0130",
      "to": "0xea6be71604185d49d9dcfa8cf536d842ef68f0c1",
      "contractAddress": null,
      "l1BaseFeeScalar": "0x44d",
      "l1BlobBaseFee": "0xd",
      "l1BlobBaseFeeScalar": "0xa118b",
      "l1Fee": "0x76b6e16b3",
      "l1GasPrice": "0x3919726b0",
      "l1GasUsed": "0x760"
    },
    {
      "status": "0x1",
      "cumulativeGasUsed": "0x10a63d",
      "logs": [
        {
          "address": "0x09db045cc4f7399bbbb4f7d8a8c541d23e9a0430",
          "topics": [
            "0x8c5be1e5ebec7d5bd14f71427d1e84f3dd0314c0f7b2291e5b200ac8c7c3b925",
            "0x0000000000000000000000001d1e94634fbcb767ce8650269b2c4d33280f0130",
            "0x0000000000000000000000000280e57c5a352d98632b9fde01d4d6ad987306d5"
          ],
          "data": "0x000000000000000000000000000000000000000000000000002386f26fc10000",
          "blockHash": "0x98ba578297ba610eab46ad8640dbf35e9a3d6c21be37e1e17d0aacd5fc82dd7b",
          "blockNumber": "0xb8a6d4",
          "transactionHash": "0x3e96aa1665853826f44822e07fc5e52ffba6be36516cf34469a2006e8605e71d",
          "transactionIndex": "0x3",
          "logIndex": "0x7",
          "removed": false
        }
      ],
      "logsBloom": "0x00000000000000000000000000000000000000000000400000000000000000000000000000080000000000000000000000000000000000000000000000200000000000000000000000000200000000000000000000000008000000000000000000400000000000000000000000000000000000000000000000000000000000000400000000000000000000000001000020000000000000000000000000000000020000000000000000000000000000000000000000000000000000000000000000000000000002000000000000000000000000000000000000000000000000000010000000000000000000000000000000000000000000000000000000000000",
      "type": "0x2",
      "transactionHash": "0x3e96aa1665853826f44822e07fc5e52ffba6be36516cf34469a2006e8605e71d",
      "transactionIndex": "0x3",
      "blockHash": "0x98ba578297ba610eab46ad8640dbf35e9a3d6c21be37e1e17d0aacd5fc82dd7b",
      "blockNumber": "0xb8a6d4",
      "gasUsed": "0xb52e",
      "effectiveGasPrice": "0x10cac5",
      "from": "0x1d1e94634fbcb767ce8650269b2c4d33280f0130",
      "to": "0x09db045cc4f7399bbbb4f7d8a8c541d23e9a0430",
      "contractAddress": null,
      "l1BaseFeeScalar": "0x44d",
      "l1BlobBaseFee": "0xd",
      "l1BlobBaseFeeScalar": "0xa118b",
      "l1Fee": "0x649618694",
      "l1GasPrice": "0x3919726b0",
      "l1GasUsed": "0x640"
    },
    {
      "status": "0x1",
      "cumulativeGasUsed": "0x1324d8",
      "logs": [
        {
          "address": "0x09db045cc4f7399bbbb4f7d8a8c541d23e9a0430",
          "topics": [
            "0xddf252ad1be2c89b69c2b068fc378daa952ba7f163c4a11628f55a4df523b3ef",
            "0x0000000000000000000000001d1e94634fbcb767ce8650269b2c4d33280f0130",
            "0x000000000000000000000000603374d7bd2ce7dd7c4a44dc78b9a96c98b98fa9"
          ],
          "data": "0x000000000000000000000000000000000000000000000000002386f26fc10000",
          "blockHash": "0x98ba578297ba610eab46ad8640dbf35e9a3d6c21be37e1e17d0aacd5fc82dd7b",
          "blockNumber": "0xb8a6d4",
          "transactionHash": "0xf9f26b80521d588314eebf878ed0e746625877b9bd0d840b50fc99d9c4c8ebcf",
          "transactionIndex": "0x4",
          "logIndex": "0x8",
          "removed": false
        },
        {
          "address": "0x6643da9ea423d29880d59b6e5c71d8c87c234479",
          "topics": [
            "0xddf252ad1be2c89b69c2b068fc378daa952ba7f163c4a11628f55a4df523b3ef",
            "0x000000000000000000000000603374d7bd2ce7dd7c4a44dc78b9a96c98b98fa9",
            "0x0000000000000000000000001d1e94634fbcb767ce8650269b2c4d33280f0130"
          ],
          "data": "0x0000000000000000000000000000000000000000000000000018b14f89967b76",
          "blockHash": "0x98ba578297ba610eab46ad8640dbf35e9a3d6c21be37e1e17d0aacd5fc82dd7b",
          "blockNumber": "0xb8a6d4",
          "transactionHash": "0xf9f26b80521d588314eebf878ed0e746625877b9bd0d840b50fc99d9c4c8ebcf",
          "transactionIndex": "0x4",
          "logIndex": "0x9",
          "removed": false
        },
        {
          "address": "0x603374d7bd2ce7dd7c4a44dc78b9a96c98b98fa9",
          "topics": [
            "0xcf2aa50876cdfbb541206f89af0ee78d44a2abf8d328e37fa4917f982149848a"
          ],
          "data": "0x000000000000000000000000000000000000000000000000002386f26fc10000000000000000000000000000000000000000000000000000099e34fb052f848a",
          "blockHash": "0x98ba578297ba610eab46ad8640dbf35e9a3d6c21be37e1e17d0aacd5fc82dd7b",
          "blockNumber": "0xb8a6d4",
          "transactionHash": "0xf9f26b80521d588314eebf878ed0e746625877b9bd0d840b50fc99d9c4c8ebcf",
          "transactionIndex": "0x4",
          "logIndex": "0xa",
          "removed": false
        },
        {
          "address": "0x0280e57c5a352d98632b9fde01d4d6ad987306d5",
          "topics": [
            "0xd779a2a16d4cdcc6e02d5f60425aee920c68279b0396ca2267a3df2072e05469"
          ],
          "data": "0x000000000000000000000000603374d7bd2ce7dd7c4a44dc78b9a96c98b98fa9000000000000000000000000000000000000000000000000002386f26fc100000000000000000000000000000000000000000000000000000018b14f89967b7600000000000000000000000000000000000000000000000000000000000000000000000000000000000000000000000000000000000000000000000000000000",
          "blockHash": "0x98ba578297ba610eab46ad8640dbf35e9a3d6c21be37e1e17d0aacd5fc82dd7b",
          "blockNumber": "0xb8a6d4",
          "transactionHash": "0xf9f26b80521d588314eebf878ed0e746625877b9bd0d840b50fc99d9c4c8ebcf",
          "transactionIndex": "0x4",
          "logIndex": "0xb",
          "removed": false
        }
      ],
      "logsBloom": "0x00000000000000000000000000000000004000004000000000000000000000000000000000080000000000000000000000000000000000000000000000000000000000000000000000002208000000000400000000000000020000000000000000400000000400000000000000000000000000000000800140000010000000001400000000000000000000200000000020001000000001000000000000000000000000000000004000000000000000000000000000000000000000000000000000000002000002000000000400000002000000000020000000000000000000001000000000000000000000000000000000000000000000000000000000000000",
      "type": "0x2",
      "transactionHash": "0xf9f26b80521d588314eebf878ed0e746625877b9bd0d840b50fc99d9c4c8ebcf",
      "transactionIndex": "0x4",
      "blockHash": "0x98ba578297ba610eab46ad8640dbf35e9a3d6c21be37e1e17d0aacd5fc82dd7b",
      "blockNumber": "0xb8a6d4",
      "gasUsed": "0x27e9b",
      "effectiveGasPrice": "0x10cac5",
      "from": "0x1d1e94634fbcb767ce8650269b2c4d33280f0130",
      "to": "0x0280e57c5a352d98632b9fde01d4d6ad987306d5",
      "contractAddress": null,
      "l1BaseFeeScalar": "0x44d",
      "l1BlobBaseFee": "0xd",
      "l1BlobBaseFeeScalar": "0xa118b",
      "l1Fee": "0x649618694",
      "l1GasPrice": "0x3919726b0",
      "l1GasUsed": "0x640"
    }
  ],
  "libraries": [],
  "pending": [],
  "returns": {},
  "timestamp": 1719970957,
  "chain": 84532,
  "commit": "ca8c998"
}