{
  "transactions": [
    {
      "hash": "0x32cdcf2dd6ad1a9118bddb7190fe17821bb7378ab01b5d54023536b384cedda0",
      "transactionType": "CALL",
      "contractName": null,
      "contractAddress": "0xb752c502c0bccac9d12f61a5db4a1f3a60b083b9",
      "function": "createLaunchPad(address,string,string)",
      "arguments": [
        "0x9C80F556f34d39286f2cfD145b98e93f66580295",
        "\"FUCK Meme\"",
        "\"FMeme\""
      ],
      "transaction": {
        "from": "0x1d1e94634fbcb767ce8650269b2c4d33280f0130",
        "to": "0xb752c502c0bccac9d12f61a5db4a1f3a60b083b9",
        "gas": "0x14a035",
        "value": "0x0",
        "input": "0xf502ba680000000000000000000000009c80f556f34d39286f2cfd145b98e93f66580295000000000000000000000000000000000000000000000000000000000000006000000000000000000000000000000000000000000000000000000000000000a000000000000000000000000000000000000000000000000000000000000000094655434b204d656d6500000000000000000000000000000000000000000000000000000000000000000000000000000000000000000000000000000000000005464d656d65000000000000000000000000000000000000000000000000000000",
        "nonce": "0x382",
        "chainId": "0x14a34"
      },
      "additionalContracts": [
        {
          "transactionType": "CREATE",
          "address": "0x0262dcf4fa96a6575496a321353985be07d274dd",
          "initCode": "0x60a060405234801561001057600080fd5b50604051610b00380380610b0083398101604081905261002f9161013a565b81604051602001610040919061019d565b60408051601f1981840301815291905281600361005d8382610258565b50600461006a8282610258565b50503360805250610317915050565b634e487b7160e01b600052604160045260246000fd5b60005b838110156100aa578181015183820152602001610092565b50506000910152565b600082601f8301126100c457600080fd5b81516001600160401b03808211156100de576100de610079565b604051601f8301601f19908116603f0116810190828211818310171561010657610106610079565b8160405283815286602085880101111561011f57600080fd5b61013084602083016020890161008f565b9695505050505050565b6000806040838503121561014d57600080fd5b82516001600160401b038082111561016457600080fd5b610170868387016100b3565b9350602085015191508082111561018657600080fd5b50610193858286016100b3565b9150509250929050565b600082516101af81846020870161008f565b6b102630b6b137902a37b5b2b760a11b920191825250600c01919050565b600181811c908216806101e157607f821691505b60208210810361020157634e487b7160e01b600052602260045260246000fd5b50919050565b601f821115610253576000816000526020600020601f850160051c810160208610156102305750805b601f850160051c820191505b8181101561024f5782815560010161023c565b5050505b505050565b81516001600160401b0381111561027157610271610079565b6102858161027f84546101cd565b84610207565b602080601f8311600181146102ba57600084156102a25750858301515b600019600386901b1c1916600185901b17855561024f565b600085815260208120601f198616915b828110156102e9578886015182559484019460019091019084016102ca565b50858210156103075787850151600019600388901b60f8161c191681555b5050505050600190811b01905550565b6080516107ce610332600039600061028501526107ce6000f3fe608060405234801561001057600080fd5b506004361061009e5760003560e01c806340c10f191161006657806340c10f191461011857806370a082311461012d57806395d89b4114610156578063a9059cbb1461015e578063dd62ed3e1461017157600080fd5b806306fdde03146100a3578063095ea7b3146100c157806318160ddd146100e457806323b872dd146100f6578063313ce56714610109575b600080fd5b6100ab6101aa565b6040516100b89190610617565b60405180910390f35b6100d46100cf366004610682565b61023c565b60405190151581526020016100b8565b6002545b6040519081526020016100b8565b6100d46101043660046106ac565b610256565b604051600981526020016100b8565b61012b610126366004610682565b61027a565b005b6100e861013b3660046106e8565b6001600160a01b031660009081526020819052604090205490565b6100ab6102d1565b6100d461016c366004610682565b6102e0565b6100e861017f36600461070a565b6001600160a01b03918216600090815260016020908152604080832093909416825291909152205490565b6060600380546101b99061073d565b80601f01602080910402602001604051908101604052809291908181526020018280546101e59061073d565b80156102325780601f1061020757610100808354040283529160200191610232565b820191906000526020600020905b81548152906001019060200180831161021557829003601f168201915b5050505050905090565b60003361024a8185856102ee565b60019150505b92915050565b600033610264858285610300565b61026f858585610383565b506001949350505050565b336001600160a01b037f000000000000000000000000000000000000000000000000000000000000000016146102c35760405163b0490f9d60e01b815260040160405180910390fd5b6102cd82826103e2565b5050565b6060600480546101b99061073d565b60003361024a818585610383565b6102fb8383836001610418565b505050565b6001600160a01b03838116600090815260016020908152604080832093861683529290522054600019811461037d578181101561036e57604051637dc7a0d960e11b81526001600160a01b038416600482015260248101829052604481018390526064015b60405180910390fd5b61037d84848484036000610418565b50505050565b6001600160a01b0383166103ad57604051634b637e8f60e11b815260006004820152602401610365565b6001600160a01b0382166103d75760405163ec442f0560e01b815260006004820152602401610365565b6102fb8383836104ed565b6001600160a01b03821661040c5760405163ec442f0560e01b815260006004820152602401610365565b6102cd600083836104ed565b6001600160a01b0384166104425760405163e602df0560e01b815260006004820152602401610365565b6001600160a01b03831661046c57604051634a1406b160e11b815260006004820152602401610365565b6001600160a01b038085166000908152600160209081526040808320938716835292905220829055801561037d57826001600160a01b0316846001600160a01b03167f8c5be1e5ebec7d5bd14f71427d1e84f3dd0314c0f7b2291e5b200ac8c7c3b925846040516104df91815260200190565b60405180910390a350505050565b6001600160a01b03831661051857806002600082825461050d9190610777565b9091555061058a9050565b6001600160a01b0383166000908152602081905260409020548181101561056b5760405163391434e360e21b81526001600160a01b03851660048201526024810182905260448101839052606401610365565b6001600160a01b03841660009081526020819052604090209082900390555b6001600160a01b0382166105a6576002805482900390556105c5565b6001600160a01b03821660009081526020819052604090208054820190555b816001600160a01b0316836001600160a01b03167fddf252ad1be2c89b69c2b068fc378daa952ba7f163c4a11628f55a4df523b3ef8360405161060a91815260200190565b60405180910390a3505050565b60006020808352835180602085015260005b8181101561064557858101830151858201604001528201610629565b506000604082860101526040601f19601f8301168501019250505092915050565b80356001600160a01b038116811461067d57600080fd5b919050565b6000806040838503121561069557600080fd5b61069e83610666565b946020939093013593505050565b6000806000606084860312156106c157600080fd5b6106ca84610666565b92506106d860208501610666565b9150604084013590509250925092565b6000602082840312156106fa57600080fd5b61070382610666565b9392505050565b6000806040838503121561071d57600080fd5b61072683610666565b915061073460208401610666565b90509250929050565b600181811c9082168061075157607f821691505b60208210810361077157634e487b7160e01b600052602260045260246000fd5b50919050565b8082018082111561025057634e487b7160e01b600052601160045260246000fdfea2646970667358221220a942be7634f07744b5f3f10a472c0b0d593962f6aa3ac2074845314a1d105fa164736f6c634300081900330000000000000000000000000000000000000000000000000000000000000040000000000000000000000000000000000000000000000000000000000000008000000000000000000000000000000000000000000000000000000000000000094655434b204d656d6500000000000000000000000000000000000000000000000000000000000000000000000000000000000000000000000000000000000005464d656d65000000000000000000000000000000000000000000000000000000"
        },
        {
          "transactionType": "CREATE2",
          "address": "0x5597ccc89d8a00c354229a42b7967e13643a6d38",
          "initCode": "0x3d602d80600a3d3981f3363d3d373d3d3d363d73bb4c843da5faf8488c34bc39a9a3e264e8de68075af43d82803e903d91602b57fd5bf3"
        }
      ],
      "isFixedGasLimit": false
    },
    {
      "hash": "0x86fbf9777350d319106f27d09c18dcd8709e01c6289419795f605fe8d6a3ce83",
      "transactionType": "CALL",
      "contractName": null,
      "contractAddress": "0x9c80f556f34d39286f2cfd145b98e93f66580295",
      "function": "approve(address,uint256)",
      "arguments": [
        "0xa04815BAF6EbA59C5975876d0d8541b4399eB9e8",
        "1000000000000000000"
      ],
      "transaction": {
        "from": "0x1d1e94634fbcb767ce8650269b2c4d33280f0130",
        "to": "0x9c80f556f34d39286f2cfd145b98e93f66580295",
        "gas": "0x1090a",
        "value": "0x0",
        "input": "0x095ea7b3000000000000000000000000a04815baf6eba59c5975876d0d8541b4399eb9e80000000000000000000000000000000000000000000000000de0b6b3a7640000",
        "nonce": "0x383",
        "chainId": "0x14a34"
      },
      "additionalContracts": [],
      "isFixedGasLimit": false
    },
    {
      "hash": "0xe7d38fa45ebd2a690a70a3c423675ed1d78febabe64d5800b883fca66988c777",
      "transactionType": "CALL",
      "contractName": null,
      "contractAddress": "0xa04815baf6eba59c5975876d0d8541b4399eb9e8",
      "function": "buyQuote(address,uint256,uint256)",
      "arguments": [
        "0x5597Ccc89d8a00c354229A42b7967E13643A6D38",
        "1000000000000000000",
        "0"
      ],
      "transaction": {
        "from": "0x1d1e94634fbcb767ce8650269b2c4d33280f0130",
        "to": "0xa04815baf6eba59c5975876d0d8541b4399eb9e8",
        "gas": "0x45b9f",
        "value": "0x0",
        "input": "0xa75918490000000000000000000000005597ccc89d8a00c354229a42b7967e13643a6d380000000000000000000000000000000000000000000000000de0b6b3a76400000000000000000000000000000000000000000000000000000000000000000000",
        "nonce": "0x384",
        "chainId": "0x14a34"
      },
      "additionalContracts": [],
      "isFixedGasLimit": false
    },
    {
      "hash": "0xd14014cc57f8fc196d72a5703d627d9bec35be2aeb9245188f477c44fea11eaf",
      "transactionType": "CALL",
      "contractName": "LamboToken",
      "contractAddress": "0x0262dcf4fa96a6575496a321353985be07d274dd",
      "function": "approve(address,uint256)",
      "arguments": [
        "0xa04815BAF6EbA59C5975876d0d8541b4399eB9e8",
        "367040816326530612"
      ],
      "transaction": {
        "from": "0x1d1e94634fbcb767ce8650269b2c4d33280f0130",
        "to": "0x0262dcf4fa96a6575496a321353985be07d274dd",
        "gas": "0x1090c",
        "value": "0x0",
        "input": "0x095ea7b3000000000000000000000000a04815baf6eba59c5975876d0d8541b4399eb9e80000000000000000000000000000000000000000000000000517fdad83365634",
        "nonce": "0x385",
        "chainId": "0x14a34"
      },
      "additionalContracts": [],
      "isFixedGasLimit": false
    },
    {
      "hash": "0x280ab8444dbe633faf820643d8ce525342621abdc4385ff543966aad75e93208",
      "transactionType": "CALL",
      "contractName": null,
      "contractAddress": "0xa04815baf6eba59c5975876d0d8541b4399eb9e8",
      "function": "sellQuote(address,uint256,uint256)",
      "arguments": [
        "0x5597Ccc89d8a00c354229A42b7967E13643A6D38",
        "367040816326530612",
        "0"
      ],
      "transaction": {
        "from": "0x1d1e94634fbcb767ce8650269b2c4d33280f0130",
        "to": "0xa04815baf6eba59c5975876d0d8541b4399eb9e8",
        "gas": "0x2c6f9",
        "value": "0x0",
        "input": "0xe784a0590000000000000000000000005597ccc89d8a00c354229a42b7967e13643a6d380000000000000000000000000000000000000000000000000517fdad833656340000000000000000000000000000000000000000000000000000000000000000",
        "nonce": "0x386",
        "chainId": "0x14a34"
      },
      "additionalContracts": [],
      "isFixedGasLimit": false
    }
  ],
  "receipts": [
    {
      "status": "0x1",
      "cumulativeGasUsed": "0x284204",
      "logs": [
        {
          "address": "0xb752c502c0bccac9d12f61a5db4a1f3a60b083b9",
          "topics": [
            "0x91d24864a084ab70b268a1f865e757ca12006cf298d763b6be697302ef86498c"
          ],
          "data": "0x0000000000000000000000000262dcf4fa96a6575496a321353985be07d274dd",
          "blockHash": "0x16f016a6963ef5b82c111bf9425bd665a96119963fd8691c41e2a8df257dd856",
          "blockNumber": "0xd885d9",
          "transactionHash": "0x32cdcf2dd6ad1a9118bddb7190fe17821bb7378ab01b5d54023536b384cedda0",
          "transactionIndex": "0x6",
          "logIndex": "0x1a",
          "removed": false
        },
        {
          "address": "0x0262dcf4fa96a6575496a321353985be07d274dd",
          "topics": [
            "0xddf252ad1be2c89b69c2b068fc378daa952ba7f163c4a11628f55a4df523b3ef",
            "0x0000000000000000000000000000000000000000000000000000000000000000",
            "0x0000000000000000000000001ab55bd4e93405c2f813bc991e367c92e67dd06e"
          ],
          "data": "0x0000000000000000000000000000000000000000000000000429d069189e0000",
          "blockHash": "0x16f016a6963ef5b82c111bf9425bd665a96119963fd8691c41e2a8df257dd856",
          "blockNumber": "0xd885d9",
          "transactionHash": "0x32cdcf2dd6ad1a9118bddb7190fe17821bb7378ab01b5d54023536b384cedda0",
          "transactionIndex": "0x6",
          "logIndex": "0x1b",
          "removed": false
        },
        {
          "address": "0x0262dcf4fa96a6575496a321353985be07d274dd",
          "topics": [
            "0xddf252ad1be2c89b69c2b068fc378daa952ba7f163c4a11628f55a4df523b3ef",
            "0x0000000000000000000000000000000000000000000000000000000000000000",
            "0x000000000000000000000000b752c502c0bccac9d12f61a5db4a1f3a60b083b9"
          ],
          "data": "0x00000000000000000000000000000000000000000000000009b6e64a8ec60000",
          "blockHash": "0x16f016a6963ef5b82c111bf9425bd665a96119963fd8691c41e2a8df257dd856",
          "blockNumber": "0xd885d9",
          "transactionHash": "0x32cdcf2dd6ad1a9118bddb7190fe17821bb7378ab01b5d54023536b384cedda0",
          "transactionIndex": "0x6",
          "logIndex": "0x1c",
          "removed": false
        },
        {
          "address": "0x0262dcf4fa96a6575496a321353985be07d274dd",
          "topics": [
            "0x8c5be1e5ebec7d5bd14f71427d1e84f3dd0314c0f7b2291e5b200ac8c7c3b925",
            "0x000000000000000000000000b752c502c0bccac9d12f61a5db4a1f3a60b083b9",
            "0x0000000000000000000000005597ccc89d8a00c354229a42b7967e13643a6d38"
          ],
          "data": "0x00000000000000000000000000000000000000000000000009b6e64a8ec60000",
          "blockHash": "0x16f016a6963ef5b82c111bf9425bd665a96119963fd8691c41e2a8df257dd856",
          "blockNumber": "0xd885d9",
          "transactionHash": "0x32cdcf2dd6ad1a9118bddb7190fe17821bb7378ab01b5d54023536b384cedda0",
          "transactionIndex": "0x6",
          "logIndex": "0x1d",
          "removed": false
        },
        {
          "address": "0x0262dcf4fa96a6575496a321353985be07d274dd",
          "topics": [
            "0xddf252ad1be2c89b69c2b068fc378daa952ba7f163c4a11628f55a4df523b3ef",
            "0x000000000000000000000000b752c502c0bccac9d12f61a5db4a1f3a60b083b9",
            "0x0000000000000000000000005597ccc89d8a00c354229a42b7967e13643a6d38"
          ],
          "data": "0x00000000000000000000000000000000000000000000000009b6e64a8ec60000",
          "blockHash": "0x16f016a6963ef5b82c111bf9425bd665a96119963fd8691c41e2a8df257dd856",
          "blockNumber": "0xd885d9",
          "transactionHash": "0x32cdcf2dd6ad1a9118bddb7190fe17821bb7378ab01b5d54023536b384cedda0",
          "transactionIndex": "0x6",
          "logIndex": "0x1e",
          "removed": false
        },
        {
          "address": "0x5597ccc89d8a00c354229a42b7967e13643a6d38",
          "topics": [
            "0xcf2aa50876cdfbb541206f89af0ee78d44a2abf8d328e37fa4917f982149848a"
          ],
          "data": "0x000000000000000000000000000000000000000000000000000000000000000000000000000000000000000000000000000000000000000009b6e64a8ec60000",
          "blockHash": "0x16f016a6963ef5b82c111bf9425bd665a96119963fd8691c41e2a8df257dd856",
          "blockNumber": "0xd885d9",
          "transactionHash": "0x32cdcf2dd6ad1a9118bddb7190fe17821bb7378ab01b5d54023536b384cedda0",
          "transactionIndex": "0x6",
          "logIndex": "0x1f",
          "removed": false
        },
        {
          "address": "0x9c80f556f34d39286f2cfd145b98e93f66580295",
          "topics": [
            "0x8c5be1e5ebec7d5bd14f71427d1e84f3dd0314c0f7b2291e5b200ac8c7c3b925",
            "0x0000000000000000000000005597ccc89d8a00c354229a42b7967e13643a6d38",
            "0x0000000000000000000000001ab55bd4e93405c2f813bc991e367c92e67dd06e"
          ],
          "data": "0xffffffffffffffffffffffffffffffffffffffffffffffffffffffffffffffff",
          "blockHash": "0x16f016a6963ef5b82c111bf9425bd665a96119963fd8691c41e2a8df257dd856",
          "blockNumber": "0xd885d9",
          "transactionHash": "0x32cdcf2dd6ad1a9118bddb7190fe17821bb7378ab01b5d54023536b384cedda0",
          "transactionIndex": "0x6",
          "logIndex": "0x20",
          "removed": false
        },
        {
          "address": "0x0262dcf4fa96a6575496a321353985be07d274dd",
          "topics": [
            "0x8c5be1e5ebec7d5bd14f71427d1e84f3dd0314c0f7b2291e5b200ac8c7c3b925",
            "0x0000000000000000000000005597ccc89d8a00c354229a42b7967e13643a6d38",
            "0x0000000000000000000000001ab55bd4e93405c2f813bc991e367c92e67dd06e"
          ],
          "data": "0xffffffffffffffffffffffffffffffffffffffffffffffffffffffffffffffff",
          "blockHash": "0x16f016a6963ef5b82c111bf9425bd665a96119963fd8691c41e2a8df257dd856",
          "blockNumber": "0xd885d9",
          "transactionHash": "0x32cdcf2dd6ad1a9118bddb7190fe17821bb7378ab01b5d54023536b384cedda0",
          "transactionIndex": "0x6",
          "logIndex": "0x21",
          "removed": false
        },
        {
          "address": "0x5597ccc89d8a00c354229a42b7967e13643a6d38",
          "topics": [
            "0xb1169cd24fa73a90447c53832d208080fef5826a3f1c5ffa5040dd02b290ff59"
          ],
          "data": "0x0000000000000000000000009c80f556f34d39286f2cfd145b98e93f665802950000000000000000000000000262dcf4fa96a6575496a321353985be07d274dd000000000000000000000000b752c502c0bccac9d12f61a5db4a1f3a60b083b900000000000000000000000000000000000000000000000009b6e64a8ec60000",
          "blockHash": "0x16f016a6963ef5b82c111bf9425bd665a96119963fd8691c41e2a8df257dd856",
          "blockNumber": "0xd885d9",
          "transactionHash": "0x32cdcf2dd6ad1a9118bddb7190fe17821bb7378ab01b5d54023536b384cedda0",
          "transactionIndex": "0x6",
          "logIndex": "0x22",
          "removed": false
        },
        {
          "address": "0x796c948cc0b12db4a836f230b23b6577a068e6b8",
          "topics": [
            "0x9c5d829b9b23efc461f9aeef91979ec04bb903feb3bee4f26d22114abfc7335b"
          ],
          "data": "0x0000000000000000000000009c80f556f34d39286f2cfd145b98e93f665802950000000000000000000000000262dcf4fa96a6575496a321353985be07d274dd0000000000000000000000005597ccc89d8a00c354229a42b7967e13643a6d38",
          "blockHash": "0x16f016a6963ef5b82c111bf9425bd665a96119963fd8691c41e2a8df257dd856",
          "blockNumber": "0xd885d9",
          "transactionHash": "0x32cdcf2dd6ad1a9118bddb7190fe17821bb7378ab01b5d54023536b384cedda0",
          "transactionIndex": "0x6",
          "logIndex": "0x23",
          "removed": false
        },
        {
          "address": "0xb752c502c0bccac9d12f61a5db4a1f3a60b083b9",
          "topics": [
            "0x9c5d829b9b23efc461f9aeef91979ec04bb903feb3bee4f26d22114abfc7335b"
          ],
          "data": "0x0000000000000000000000009c80f556f34d39286f2cfd145b98e93f665802950000000000000000000000000262dcf4fa96a6575496a321353985be07d274dd0000000000000000000000005597ccc89d8a00c354229a42b7967e13643a6d38",
          "blockHash": "0x16f016a6963ef5b82c111bf9425bd665a96119963fd8691c41e2a8df257dd856",
          "blockNumber": "0xd885d9",
          "transactionHash": "0x32cdcf2dd6ad1a9118bddb7190fe17821bb7378ab01b5d54023536b384cedda0",
          "transactionIndex": "0x6",
          "logIndex": "0x24",
          "removed": false
        }
      ],
      "logsBloom": "0x00000000000000000000000000000000000000000000000000000040000000000020000000000040000008000100000000000000000000000000002000200000000000040040002000000008000000100000000020080000000000000000000000000000020401004040000000800800004000000000000000000010200000000000000000000000000000000000000040001000002000000000000000000200020000000000000000000000000000000000000000000000000000000000000000800006000000000820000400000000010000000008000000000000040020000810000008000000000000000000000011000000000000000000000000000000",
      "type": "0x2",
      "transactionHash": "0x32cdcf2dd6ad1a9118bddb7190fe17821bb7378ab01b5d54023536b384cedda0",
      "transactionIndex": "0x6",
      "blockHash": "0x16f016a6963ef5b82c111bf9425bd665a96119963fd8691c41e2a8df257dd856",
      "blockNumber": "0xd885d9",
      "gasUsed": "0xeef87",
      "effectiveGasPrice": "0xf4805",
      "from": "0x1d1e94634fbcb767ce8650269b2c4d33280f0130",
      "to": "0xb752c502c0bccac9d12f61a5db4a1f3a60b083b9",
      "contractAddress": null,
      "l1BaseFeeScalar": "0x44d",
      "l1BlobBaseFee": "0x69849e63d",
      "l1BlobBaseFeeScalar": "0xa118b",
      "l1Fee": "0x20a42e8554a",
      "l1GasPrice": "0xa8d162b9",
      "l1GasUsed": "0x77b"
    },
    {
      "status": "0x1",
      "cumulativeGasUsed": "0x28f73e",
      "logs": [
        {
          "address": "0x9c80f556f34d39286f2cfd145b98e93f66580295",
          "topics": [
            "0x8c5be1e5ebec7d5bd14f71427d1e84f3dd0314c0f7b2291e5b200ac8c7c3b925",
            "0x0000000000000000000000001d1e94634fbcb767ce8650269b2c4d33280f0130",
            "0x000000000000000000000000a04815baf6eba59c5975876d0d8541b4399eb9e8"
          ],
          "data": "0x0000000000000000000000000000000000000000000000000de0b6b3a7640000",
          "blockHash": "0x16f016a6963ef5b82c111bf9425bd665a96119963fd8691c41e2a8df257dd856",
          "blockNumber": "0xd885d9",
          "transactionHash": "0x86fbf9777350d319106f27d09c18dcd8709e01c6289419795f605fe8d6a3ce83",
          "transactionIndex": "0x7",
          "logIndex": "0x25",
          "removed": false
        }
      ],
      "logsBloom": "0x00000000000000000000000000000000000080000000000000000000000000000000000000000000000000000000000000000000000000000000000000200000000000000000000000000200000000100000000000000000000000000000000000000000000000000040000000000000000000000000000000000000000000000400000000000000000000000000000000000000000000000000000000000000020000000000000000000000000000000000000000000000000000000000000000000004001002000000000000000000000000000000000000000000000800000010000000000000000000000000000000000000000000000000000000000000",
      "type": "0x2",
      "transactionHash": "0x86fbf9777350d319106f27d09c18dcd8709e01c6289419795f605fe8d6a3ce83",
      "transactionIndex": "0x7",
      "blockHash": "0x16f016a6963ef5b82c111bf9425bd665a96119963fd8691c41e2a8df257dd856",
      "blockNumber": "0xd885d9",
      "gasUsed": "0xb53a",
      "effectiveGasPrice": "0xf4805",
      "from": "0x1d1e94634fbcb767ce8650269b2c4d33280f0130",
      "to": "0x9c80f556f34d39286f2cfd145b98e93f66580295",
      "contractAddress": null,
      "l1BaseFeeScalar": "0x44d",
      "l1BlobBaseFee": "0x69849e63d",
      "l1BlobBaseFeeScalar": "0xa118b",
      "l1Fee": "0x1b453494bea",
      "l1GasPrice": "0xa8d162b9",
      "l1GasUsed": "0x640"
    },
    {
      "status": "0x1",
      "cumulativeGasUsed": "0x2bf210",
      "logs": [
        {
          "address": "0x9c80f556f34d39286f2cfd145b98e93f66580295",
          "topics": [
            "0xddf252ad1be2c89b69c2b068fc378daa952ba7f163c4a11628f55a4df523b3ef",
            "0x0000000000000000000000001d1e94634fbcb767ce8650269b2c4d33280f0130",
            "0x000000000000000000000000e7a14793e0a243c390d63dd318c45a20ae1c07ba"
          ],
          "data": "0x000000000000000000000000000000000000000000000000002386f26fc10000",
          "blockHash": "0x16f016a6963ef5b82c111bf9425bd665a96119963fd8691c41e2a8df257dd856",
          "blockNumber": "0xd885d9",
          "transactionHash": "0xe7d38fa45ebd2a690a70a3c423675ed1d78febabe64d5800b883fca66988c777",
          "transactionIndex": "0x8",
          "logIndex": "0x26",
          "removed": false
        },
        {
          "address": "0x9c80f556f34d39286f2cfd145b98e93f66580295",
          "topics": [
            "0xddf252ad1be2c89b69c2b068fc378daa952ba7f163c4a11628f55a4df523b3ef",
            "0x0000000000000000000000001d1e94634fbcb767ce8650269b2c4d33280f0130",
            "0x0000000000000000000000005597ccc89d8a00c354229a42b7967e13643a6d38"
          ],
          "data": "0x0000000000000000000000000000000000000000000000000dbd2fc137a30000",
          "blockHash": "0x16f016a6963ef5b82c111bf9425bd665a96119963fd8691c41e2a8df257dd856",
          "blockNumber": "0xd885d9",
          "transactionHash": "0xe7d38fa45ebd2a690a70a3c423675ed1d78febabe64d5800b883fca66988c777",
          "transactionIndex": "0x8",
          "logIndex": "0x27",
          "removed": false
        },
        {
          "address": "0x0262dcf4fa96a6575496a321353985be07d274dd",
          "topics": [
            "0xddf252ad1be2c89b69c2b068fc378daa952ba7f163c4a11628f55a4df523b3ef",
            "0x0000000000000000000000005597ccc89d8a00c354229a42b7967e13643a6d38",
            "0x0000000000000000000000001d1e94634fbcb767ce8650269b2c4d33280f0130"
          ],
          "data": "0x0000000000000000000000000000000000000000000000000517fdad83365634",
          "blockHash": "0x16f016a6963ef5b82c111bf9425bd665a96119963fd8691c41e2a8df257dd856",
          "blockNumber": "0xd885d9",
          "transactionHash": "0xe7d38fa45ebd2a690a70a3c423675ed1d78febabe64d5800b883fca66988c777",
          "transactionIndex": "0x8",
          "logIndex": "0x28",
          "removed": false
        },
        {
          "address": "0x5597ccc89d8a00c354229a42b7967e13643a6d38",
          "topics": [
            "0xcf2aa50876cdfbb541206f89af0ee78d44a2abf8d328e37fa4917f982149848a"
          ],
          "data": "0x0000000000000000000000000000000000000000000000000dbd2fc137a30000000000000000000000000000000000000000000000000000049ee89d0b8fa9cc",
          "blockHash": "0x16f016a6963ef5b82c111bf9425bd665a96119963fd8691c41e2a8df257dd856",
          "blockNumber": "0xd885d9",
          "transactionHash": "0xe7d38fa45ebd2a690a70a3c423675ed1d78febabe64d5800b883fca66988c777",
          "transactionIndex": "0x8",
          "logIndex": "0x29",
          "removed": false
        },
        {
          "address": "0xa04815baf6eba59c5975876d0d8541b4399eb9e8",
          "topics": [
            "0x0ae52a34bc319eaa4ece799f69c6a1d4b7b64fd9ff992022c9821cd08daa7ec6"
          ],
          "data": "0x4000000000000000000000005597ccc89d8a00c354229a42b7967e13643a6d380000000000000000000000009c80f556f34d39286f2cfd145b98e93f665802950000000000000000000000000262dcf4fa96a6575496a321353985be07d274dd0000000000000000000000000000000000000000000000000dbd2fc137a300000000000000000000000000000000000000000000000000000517fdad833656340000000000000000000000000000000000000000000000000000000000000000",
          "blockHash": "0x16f016a6963ef5b82c111bf9425bd665a96119963fd8691c41e2a8df257dd856",
          "blockNumber": "0xd885d9",
          "transactionHash": "0xe7d38fa45ebd2a690a70a3c423675ed1d78febabe64d5800b883fca66988c777",
          "transactionIndex": "0x8",
          "logIndex": "0x2a",
          "removed": false
        }
      ],
      "logsBloom": "0x00000000000000000000000000000000000000000000000000000000000000000020000000000000000000000100000000000000000000000000000001000000000400000010002000000208000000100000000020000000000000000000800000000000000401004040000000000000820000000000000000000010200000000400000000000000000000000000000000001000000000000000000000000000000000000000000000000000000000000000000000000000000000000000000000000006000002000020000400000000000000000000000800000000000000000800000000000000000000000000000004000000000000000000000000000000",
      "type": "0x2",
      "transactionHash": "0xe7d38fa45ebd2a690a70a3c423675ed1d78febabe64d5800b883fca66988c777",
      "transactionIndex": "0x8",
      "blockHash": "0x16f016a6963ef5b82c111bf9425bd665a96119963fd8691c41e2a8df257dd856",
      "blockNumber": "0xd885d9",
      "gasUsed": "0x2fad2",
      "effectiveGasPrice": "0xf4805",
      "from": "0x1d1e94634fbcb767ce8650269b2c4d33280f0130",
      "to": "0xa04815baf6eba59c5975876d0d8541b4399eb9e8",
      "contractAddress": null,
      "l1BaseFeeScalar": "0x44d",
      "l1BlobBaseFee": "0x69849e63d",
      "l1BlobBaseFeeScalar": "0xa118b",
      "l1Fee": "0x1b453494bea",
      "l1GasPrice": "0xa8d162b9",
      "l1GasUsed": "0x640"
    },
    {
      "status": "0x1",
      "cumulativeGasUsed": "0x2ca74b",
      "logs": [
        {
          "address": "0x0262dcf4fa96a6575496a321353985be07d274dd",
          "topics": [
            "0x8c5be1e5ebec7d5bd14f71427d1e84f3dd0314c0f7b2291e5b200ac8c7c3b925",
            "0x0000000000000000000000001d1e94634fbcb767ce8650269b2c4d33280f0130",
            "0x000000000000000000000000a04815baf6eba59c5975876d0d8541b4399eb9e8"
          ],
          "data": "0x0000000000000000000000000000000000000000000000000517fdad83365634",
          "blockHash": "0x16f016a6963ef5b82c111bf9425bd665a96119963fd8691c41e2a8df257dd856",
          "blockNumber": "0xd885d9",
          "transactionHash": "0xd14014cc57f8fc196d72a5703d627d9bec35be2aeb9245188f477c44fea11eaf",
          "transactionIndex": "0x9",
          "logIndex": "0x2b",
          "removed": false
        }
      ],
      "logsBloom": "0x00000000000000000000000000000000000080000000000000000000000000000000000000000000000000000000000000000000000000000000000000200000000000000000000000000200000000000000000000000000000000000000000000000000000001000000000000000000000000000000000000000000200000000400000000000000000000000000000000000000000000000000000000000000020000000000000000000000000000000000000000000000000000000000000000000000001002000020000000000000000000000000000000000000000800000010000000000000000000000000000000000000000000000000000000000000",
      "type": "0x2",
      "transactionHash": "0xd14014cc57f8fc196d72a5703d627d9bec35be2aeb9245188f477c44fea11eaf",
      "transactionIndex": "0x9",
      "blockHash": "0x16f016a6963ef5b82c111bf9425bd665a96119963fd8691c41e2a8df257dd856",
      "blockNumber": "0xd885d9",
      "gasUsed": "0xb53b",
      "effectiveGasPrice": "0xf4805",
      "from": "0x1d1e94634fbcb767ce8650269b2c4d33280f0130",
      "to": "0x0262dcf4fa96a6575496a321353985be07d274dd",
      "contractAddress": null,
      "l1BaseFeeScalar": "0x44d",
      "l1BlobBaseFee": "0x69849e63d",
      "l1BlobBaseFeeScalar": "0xa118b",
      "l1Fee": "0x1b453494bea",
      "l1GasPrice": "0xa8d162b9",
      "l1GasUsed": "0x640"
    },
    {
      "status": "0x1",
      "cumulativeGasUsed": "0x2e8d6e",
      "logs": [
        {
          "address": "0x0262dcf4fa96a6575496a321353985be07d274dd",
          "topics": [
            "0xddf252ad1be2c89b69c2b068fc378daa952ba7f163c4a11628f55a4df523b3ef",
            "0x0000000000000000000000001d1e94634fbcb767ce8650269b2c4d33280f0130",
            "0x0000000000000000000000005597ccc89d8a00c354229a42b7967e13643a6d38"
          ],
          "data": "0x0000000000000000000000000000000000000000000000000517fdad83365634",
          "blockHash": "0x16f016a6963ef5b82c111bf9425bd665a96119963fd8691c41e2a8df257dd856",
          "blockNumber": "0xd885d9",
          "transactionHash": "0x280ab8444dbe633faf820643d8ce525342621abdc4385ff543966aad75e93208",
          "transactionIndex": "0xa",
          "logIndex": "0x2c",
          "removed": false
        },
        {
          "address": "0x9c80f556f34d39286f2cfd145b98e93f66580295",
          "topics": [
            "0xddf252ad1be2c89b69c2b068fc378daa952ba7f163c4a11628f55a4df523b3ef",
            "0x0000000000000000000000005597ccc89d8a00c354229a42b7967e13643a6d38",
            "0x000000000000000000000000a04815baf6eba59c5975876d0d8541b4399eb9e8"
          ],
          "data": "0x0000000000000000000000000000000000000000000000000dbd2fc137a2ffff",
          "blockHash": "0x16f016a6963ef5b82c111bf9425bd665a96119963fd8691c41e2a8df257dd856",
          "blockNumber": "0xd885d9",
          "transactionHash": "0x280ab8444dbe633faf820643d8ce525342621abdc4385ff543966aad75e93208",
          "transactionIndex": "0xa",
          "logIndex": "0x2d",
          "removed": false
        },
        {
          "address": "0x5597ccc89d8a00c354229a42b7967e13643a6d38",
          "topics": [
            "0xcf2aa50876cdfbb541206f89af0ee78d44a2abf8d328e37fa4917f982149848a"
          ],
          "data": "0x000000000000000000000000000000000000000000000000000000000000000100000000000000000000000000000000000000000000000009b6e64a8ec60000",
          "blockHash": "0x16f016a6963ef5b82c111bf9425bd665a96119963fd8691c41e2a8df257dd856",
          "blockNumber": "0xd885d9",
          "transactionHash": "0x280ab8444dbe633faf820643d8ce525342621abdc4385ff543966aad75e93208",
          "transactionIndex": "0xa",
          "logIndex": "0x2e",
          "removed": false
        },
        {
          "address": "0x9c80f556f34d39286f2cfd145b98e93f66580295",
          "topics": [
            "0xddf252ad1be2c89b69c2b068fc378daa952ba7f163c4a11628f55a4df523b3ef",
            "0x000000000000000000000000a04815baf6eba59c5975876d0d8541b4399eb9e8",
            "0x000000000000000000000000e7a14793e0a243c390d63dd318c45a20ae1c07ba"
          ],
          "data": "0x00000000000000000000000000000000000000000000000000232bff5f46bfff",
          "blockHash": "0x16f016a6963ef5b82c111bf9425bd665a96119963fd8691c41e2a8df257dd856",
          "blockNumber": "0xd885d9",
          "transactionHash": "0x280ab8444dbe633faf820643d8ce525342621abdc4385ff543966aad75e93208",
          "transactionIndex": "0xa",
          "logIndex": "0x2f",
          "removed": false
        },
        {
          "address": "0x9c80f556f34d39286f2cfd145b98e93f66580295",
          "topics": [
            "0xddf252ad1be2c89b69c2b068fc378daa952ba7f163c4a11628f55a4df523b3ef",
            "0x000000000000000000000000a04815baf6eba59c5975876d0d8541b4399eb9e8",
            "0x0000000000000000000000001d1e94634fbcb767ce8650269b2c4d33280f0130"
          ],
          "data": "0x0000000000000000000000000000000000000000000000000d9a03c1d85c4000",
          "blockHash": "0x16f016a6963ef5b82c111bf9425bd665a96119963fd8691c41e2a8df257dd856",
          "blockNumber": "0xd885d9",
          "transactionHash": "0x280ab8444dbe633faf820643d8ce525342621abdc4385ff543966aad75e93208",
          "transactionIndex": "0xa",
          "logIndex": "0x30",
          "removed": false
        },
        {
          "address": "0xa04815baf6eba59c5975876d0d8541b4399eb9e8",
          "topics": [
            "0x0ae52a34bc319eaa4ece799f69c6a1d4b7b64fd9ff992022c9821cd08daa7ec6"
          ],
          "data": "0x0000000000000000000000005597ccc89d8a00c354229a42b7967e13643a6d380000000000000000000000000262dcf4fa96a6575496a321353985be07d274dd0000000000000000000000009c80f556f34d39286f2cfd145b98e93f665802950000000000000000000000000000000000000000000000000517fdad833656340000000000000000000000000000000000000000000000000d9a03c1d85c40000000000000000000000000000000000000000000000000000000000000000000",
          "blockHash": "0x16f016a6963ef5b82c111bf9425bd665a96119963fd8691c41e2a8df257dd856",
          "blockNumber": "0xd885d9",
          "transactionHash": "0x280ab8444dbe633faf820643d8ce525342621abdc4385ff543966aad75e93208",
          "transactionIndex": "0xa",
          "logIndex": "0x31",
          "removed": false
        }
      ],
      "logsBloom": "0x00000000000000000000000000000000000080000000000000000000000000000020000000000000000000000100000000000000000000000000000001000000000400000010002000000208000000100000000020000000000000000000800000000000000401004040000000000000820000000000000000000010200000000400000000000000000000000000000000001000000000000000000000000000000000000000000000000000000000000000000000000000000000000000000000000006001002000020000400000000000000000000000800000000000800000800000000000000000000000000000004000000000000000000000000000000",
      "type": "0x2",
      "transactionHash": "0x280ab8444dbe633faf820643d8ce525342621abdc4385ff543966aad75e93208",
      "transactionIndex": "0xa",
      "blockHash": "0x16f016a6963ef5b82c111bf9425bd665a96119963fd8691c41e2a8df257dd856",
      "blockNumber": "0xd885d9",
      "gasUsed": "0x1e623",
      "effectiveGasPrice": "0xf4805",
      "from": "0x1d1e94634fbcb767ce8650269b2c4d33280f0130",
      "to": "0xa04815baf6eba59c5975876d0d8541b4399eb9e8",
      "contractAddress": null,
      "l1BaseFeeScalar": "0x44d",
      "l1BlobBaseFee": "0x69849e63d",
      "l1BlobBaseFeeScalar": "0xa118b",
      "l1Fee": "0x1b453494bea",
      "l1GasPrice": "0xa8d162b9",
      "l1GasUsed": "0x640"
    }
  ],
  "libraries": [],
  "pending": [],
  "returns": {},
  "timestamp": 1724148377,
  "chain": 84532,
  "commit": "50f07b9"
}