{
  "transactions": [
    {
      "hash": "0x6e5ca0eae20e6c98860d5b721a8c0826ae4816a3c491376621e64538ac3b6f6b",
      "transactionType": "CALL",
      "contractName": null,
      "contractAddress": "0x9c80f556f34d39286f2cfd145b98e93f66580295",
      "function": "transfer(address,uint256)",
      "arguments": [
        "0x0488CaA0847a315e1B76d6F7Af42caae7dd5fDbE",
        "100000000000000000000"
      ],
      "transaction": {
        "from": "0x1d1e94634fbcb767ce8650269b2c4d33280f0130",
        "to": "0x9c80f556f34d39286f2cfd145b98e93f66580295",
        "gas": "0xba31",
        "value": "0x0",
        "input": "0xa9059cbb0000000000000000000000000488caa0847a315e1b76d6f7af42caae7dd5fdbe0000000000000000000000000000000000000000000000056bc75e2d63100000",
        "nonce": "0x2c9",
        "chainId": "0x14a34"
      },
      "additionalContracts": [],
      "isFixedGasLimit": false
    },
    {
      "hash": "0x463f9eb67d16aa21529caf858c959ae9c8d7d893c3c4416ba3b6c39897e9c2ad",
      "transactionType": "CALL",
      "contractName": null,
      "contractAddress": "0x9c80f556f34d39286f2cfd145b98e93f66580295",
      "function": "transfer(address,uint256)",
      "arguments": [
        "0xE570B47230379ed9a83eBc335Aa0928C6f798272",
        "100000000000000000000"
      ],
      "transaction": {
        "from": "0x1d1e94634fbcb767ce8650269b2c4d33280f0130",
        "to": "0x9c80f556f34d39286f2cfd145b98e93f66580295",
        "gas": "0xba31",
        "value": "0x0",
        "input": "0xa9059cbb000000000000000000000000e570b47230379ed9a83ebc335aa0928c6f7982720000000000000000000000000000000000000000000000056bc75e2d63100000",
        "nonce": "0x2ca",
        "chainId": "0x14a34"
      },
      "additionalContracts": [],
      "isFixedGasLimit": false
    },
    {
      "hash": "0x2ad3acc79778b91e9ea7bdab29c6c56211edc97c71ca341836067dc1501e3b11",
      "transactionType": "CALL",
      "contractName": null,
      "contractAddress": "0x9c80f556f34d39286f2cfd145b98e93f66580295",
      "function": "transfer(address,uint256)",
      "arguments": [
        "0xece84B524e3E70c2d97080e0fEe140e27583b319",
        "100000000000000000000"
      ],
      "transaction": {
        "from": "0x1d1e94634fbcb767ce8650269b2c4d33280f0130",
        "to": "0x9c80f556f34d39286f2cfd145b98e93f66580295",
        "gas": "0xba31",
        "value": "0x0",
        "input": "0xa9059cbb000000000000000000000000ece84b524e3e70c2d97080e0fee140e27583b3190000000000000000000000000000000000000000000000056bc75e2d63100000",
        "nonce": "0x2cb",
        "chainId": "0x14a34"
      },
      "additionalContracts": [],
      "isFixedGasLimit": false
    },
    {
      "hash": "0x2d34d086916f7d3b9c27c0079cd49eb8c7e9fa8243a682fdddcc7cadd9653d8a",
      "transactionType": "CALL",
      "contractName": null,
      "contractAddress": "0x9c80f556f34d39286f2cfd145b98e93f66580295",
      "function": "transfer(address,uint256)",
      "arguments": [
        "0x3e6d1AB01613154C190A2E8f9E6132C48b935F3A",
        "100000000000000000000"
      ],
      "transaction": {
        "from": "0x1d1e94634fbcb767ce8650269b2c4d33280f0130",
        "to": "0x9c80f556f34d39286f2cfd145b98e93f66580295",
        "gas": "0xba31",
        "value": "0x0",
        "input": "0xa9059cbb0000000000000000000000003e6d1ab01613154c190a2e8f9e6132c48b935f3a0000000000000000000000000000000000000000000000056bc75e2d63100000",
        "nonce": "0x2cc",
        "chainId": "0x14a34"
      },
      "additionalContracts": [],
      "isFixedGasLimit": false
    },
    {
      "hash": "0xa60f907f80bf9985a86f51d9717765bd609e066180bf3bf448ea9a1021cb4bbd",
      "transactionType": "CALL",
      "contractName": null,
      "contractAddress": "0x9c80f556f34d39286f2cfd145b98e93f66580295",
      "function": "transfer(address,uint256)",
      "arguments": [
        "0x1f6B36cC1d9ADe3713f58543dB3C57da4E841599",
        "100000000000000000000"
      ],
      "transaction": {
        "from": "0x1d1e94634fbcb767ce8650269b2c4d33280f0130",
        "to": "0x9c80f556f34d39286f2cfd145b98e93f66580295",
        "gas": "0xba31",
        "value": "0x0",
        "input": "0xa9059cbb0000000000000000000000001f6b36cc1d9ade3713f58543db3c57da4e8415990000000000000000000000000000000000000000000000056bc75e2d63100000",
        "nonce": "0x2cd",
        "chainId": "0x14a34"
      },
      "additionalContracts": [],
      "isFixedGasLimit": false
    },
    {
      "hash": "0x4da173767e1aef8452519a9ac04284492d96231835411ac7c5885f0b1e3c09db",
      "transactionType": "CALL",
      "contractName": null,
      "contractAddress": "0x9c80f556f34d39286f2cfd145b98e93f66580295",
      "function": "transfer(address,uint256)",
      "arguments": [
        "0x1f065310AED94f8fB9DF2e2Bf1201db936586fC0",
        "100000000000000000000"
      ],
      "transaction": {
        "from": "0x1d1e94634fbcb767ce8650269b2c4d33280f0130",
        "to": "0x9c80f556f34d39286f2cfd145b98e93f66580295",
        "gas": "0xba31",
        "value": "0x0",
        "input": "0xa9059cbb0000000000000000000000001f065310aed94f8fb9df2e2bf1201db936586fc00000000000000000000000000000000000000000000000056bc75e2d63100000",
        "nonce": "0x2ce",
        "chainId": "0x14a34"
      },
      "additionalContracts": [],
      "isFixedGasLimit": false
    },
    {
      "hash": "0xe27704744e7f11840ba76ab98405ca85c62f8711481eafc4863bdfeac9eb34db",
      "transactionType": "CALL",
      "contractName": null,
      "contractAddress": "0x9c80f556f34d39286f2cfd145b98e93f66580295",
      "function": "transfer(address,uint256)",
      "arguments": [
        "0xf71D046F4e6f9407f3e913cba7A3D8FC0f652f76",
        "100000000000000000000"
      ],
      "transaction": {
        "from": "0x1d1e94634fbcb767ce8650269b2c4d33280f0130",
        "to": "0x9c80f556f34d39286f2cfd145b98e93f66580295",
        "gas": "0xba31",
        "value": "0x0",
        "input": "0xa9059cbb000000000000000000000000f71d046f4e6f9407f3e913cba7a3d8fc0f652f760000000000000000000000000000000000000000000000056bc75e2d63100000",
        "nonce": "0x2cf",
        "chainId": "0x14a34"
      },
      "additionalContracts": [],
      "isFixedGasLimit": false
    },
    {
      "hash": "0xdef56c6e98d2e919a884740181539b10938096ce3dcc939d8f50f555280abfdf",
      "transactionType": "CALL",
      "contractName": null,
      "contractAddress": "0x9c80f556f34d39286f2cfd145b98e93f66580295",
      "function": "transfer(address,uint256)",
      "arguments": [
        "0xAE5eD1f565ACb9b4254af0e1792505499acCdd8B",
        "100000000000000000000"
      ],
      "transaction": {
        "from": "0x1d1e94634fbcb767ce8650269b2c4d33280f0130",
        "to": "0x9c80f556f34d39286f2cfd145b98e93f66580295",
        "gas": "0xba31",
        "value": "0x0",
        "input": "0xa9059cbb000000000000000000000000ae5ed1f565acb9b4254af0e1792505499accdd8b0000000000000000000000000000000000000000000000056bc75e2d63100000",
        "nonce": "0x2d0",
        "chainId": "0x14a34"
      },
      "additionalContracts": [],
      "isFixedGasLimit": false
    },
    {
      "hash": "0x8cd5be6314ca2cccc57611bbe9272a494bcab593c9fd9d5eda56eb9de3ce345d",
      "transactionType": "CALL",
      "contractName": null,
      "contractAddress": "0x9c80f556f34d39286f2cfd145b98e93f66580295",
      "function": "transfer(address,uint256)",
      "arguments": [
        "0x13088F336c918b1b31Eb7ecE87752EBC86c312Bb",
        "100000000000000000000"
      ],
      "transaction": {
        "from": "0x1d1e94634fbcb767ce8650269b2c4d33280f0130",
        "to": "0x9c80f556f34d39286f2cfd145b98e93f66580295",
        "gas": "0xba31",
        "value": "0x0",
        "input": "0xa9059cbb00000000000000000000000013088f336c918b1b31eb7ece87752ebc86c312bb0000000000000000000000000000000000000000000000056bc75e2d63100000",
        "nonce": "0x2d1",
        "chainId": "0x14a34"
      },
      "additionalContracts": [],
      "isFixedGasLimit": false
    },
    {
      "hash": "0xd701aa08a00987ad60e9ec939ce474f675993877cc0b2feab6dc9f1266b04696",
      "transactionType": "CALL",
      "contractName": null,
      "contractAddress": "0x9c80f556f34d39286f2cfd145b98e93f66580295",
      "function": "transfer(address,uint256)",
      "arguments": [
        "0x5AaACB69D94c08E99dfCFF125BBA6b9061A2a94a",
        "100000000000000000000"
      ],
      "transaction": {
        "from": "0x1d1e94634fbcb767ce8650269b2c4d33280f0130",
        "to": "0x9c80f556f34d39286f2cfd145b98e93f66580295",
        "gas": "0xba31",
        "value": "0x0",
        "input": "0xa9059cbb0000000000000000000000005aaacb69d94c08e99dfcff125bba6b9061a2a94a0000000000000000000000000000000000000000000000056bc75e2d63100000",
        "nonce": "0x2d2",
        "chainId": "0x14a34"
      },
      "additionalContracts": [],
      "isFixedGasLimit": false
    },
    {
      "hash": "0x09bb811354a5b360a866ddbd57c2802b202d502d53e65113d087277f9aca916b",
      "transactionType": "CALL",
      "contractName": null,
      "contractAddress": "0x9c80f556f34d39286f2cfd145b98e93f66580295",
      "function": "transfer(address,uint256)",
      "arguments": [
        "0xE2986606527910bfDbbc55219565c5B997e56153",
        "100000000000000000000"
      ],
      "transaction": {
        "from": "0x1d1e94634fbcb767ce8650269b2c4d33280f0130",
        "to": "0x9c80f556f34d39286f2cfd145b98e93f66580295",
        "gas": "0xba31",
        "value": "0x0",
        "input": "0xa9059cbb000000000000000000000000e2986606527910bfdbbc55219565c5b997e561530000000000000000000000000000000000000000000000056bc75e2d63100000",
        "nonce": "0x2d3",
        "chainId": "0x14a34"
      },
      "additionalContracts": [],
      "isFixedGasLimit": false
    },
    {
      "hash": "0x23a9cd6b32b178e6cc4ff980cf32034eb35774e039d851e4fa9fca12570f560a",
      "transactionType": "CALL",
      "contractName": null,
      "contractAddress": "0x9c80f556f34d39286f2cfd145b98e93f66580295",
      "function": "transfer(address,uint256)",
      "arguments": [
        "0x9d12b861e6d78478902d20477a1F422367c647B4",
        "100000000000000000000"
      ],
      "transaction": {
        "from": "0x1d1e94634fbcb767ce8650269b2c4d33280f0130",
        "to": "0x9c80f556f34d39286f2cfd145b98e93f66580295",
        "gas": "0xba31",
        "value": "0x0",
        "input": "0xa9059cbb0000000000000000000000009d12b861e6d78478902d20477a1f422367c647b40000000000000000000000000000000000000000000000056bc75e2d63100000",
        "nonce": "0x2d4",
        "chainId": "0x14a34"
      },
      "additionalContracts": [],
      "isFixedGasLimit": false
    },
    {
      "hash": "0xbe58cfbae7981e4bff549becf98d8a1354d0ff68407b913f05aa29b5332d1fa7",
      "transactionType": "CALL",
      "contractName": null,
      "contractAddress": "0x9c80f556f34d39286f2cfd145b98e93f66580295",
      "function": "transfer(address,uint256)",
      "arguments": [
        "0x2b58515C803E960D83F89628176394Fb6C1Ee913",
        "100000000000000000000"
      ],
      "transaction": {
        "from": "0x1d1e94634fbcb767ce8650269b2c4d33280f0130",
        "to": "0x9c80f556f34d39286f2cfd145b98e93f66580295",
        "gas": "0xba31",
        "value": "0x0",
        "input": "0xa9059cbb0000000000000000000000002b58515c803e960d83f89628176394fb6c1ee9130000000000000000000000000000000000000000000000056bc75e2d63100000",
        "nonce": "0x2d5",
        "chainId": "0x14a34"
      },
      "additionalContracts": [],
      "isFixedGasLimit": false
    },
    {
      "hash": "0xb9fda7dec9bad3678b5fe4bfe469499a2becfb71e8923a6105a2b380b8763364",
      "transactionType": "CALL",
      "contractName": null,
      "contractAddress": "0x9c80f556f34d39286f2cfd145b98e93f66580295",
      "function": "transfer(address,uint256)",
      "arguments": [
        "0x8cDBE20FfbA52C57Af99C6e30ca6a97065A93B13",
        "100000000000000000000"
      ],
      "transaction": {
        "from": "0x1d1e94634fbcb767ce8650269b2c4d33280f0130",
        "to": "0x9c80f556f34d39286f2cfd145b98e93f66580295",
        "gas": "0xba31",
        "value": "0x0",
        "input": "0xa9059cbb0000000000000000000000008cdbe20ffba52c57af99c6e30ca6a97065a93b130000000000000000000000000000000000000000000000056bc75e2d63100000",
        "nonce": "0x2d6",
        "chainId": "0x14a34"
      },
      "additionalContracts": [],
      "isFixedGasLimit": false
    },
    {
      "hash": "0x3ee823ba7199a8ffcc82510f9a4284ccf88ad116953486027796a20b419c63d0",
      "transactionType": "CALL",
      "contractName": null,
      "contractAddress": "0x9c80f556f34d39286f2cfd145b98e93f66580295",
      "function": "transfer(address,uint256)",
      "arguments": [
        "0x907796932Ba29419F4516AA727D437FaAdf6F87F",
        "100000000000000000000"
      ],
      "transaction": {
        "from": "0x1d1e94634fbcb767ce8650269b2c4d33280f0130",
        "to": "0x9c80f556f34d39286f2cfd145b98e93f66580295",
        "gas": "0xba31",
        "value": "0x0",
        "input": "0xa9059cbb000000000000000000000000907796932ba29419f4516aa727d437faadf6f87f0000000000000000000000000000000000000000000000056bc75e2d63100000",
        "nonce": "0x2d7",
        "chainId": "0x14a34"
      },
      "additionalContracts": [],
      "isFixedGasLimit": false
    },
    {
      "hash": "0x617f6d90f2603efed16e875f6cf7358b46fc6922af512db7a905daa6c3baeeff",
      "transactionType": "CALL",
      "contractName": null,
      "contractAddress": "0x9c80f556f34d39286f2cfd145b98e93f66580295",
      "function": "transfer(address,uint256)",
      "arguments": [
        "0xf3BA20897d1300f84915bEc5Ce375F678250557a",
        "100000000000000000000"
      ],
      "transaction": {
        "from": "0x1d1e94634fbcb767ce8650269b2c4d33280f0130",
        "to": "0x9c80f556f34d39286f2cfd145b98e93f66580295",
        "gas": "0xc515",
        "value": "0x0",
        "input": "0xa9059cbb000000000000000000000000f3ba20897d1300f84915bec5ce375f678250557a0000000000000000000000000000000000000000000000056bc75e2d63100000",
        "nonce": "0x2d8",
        "chainId": "0x14a34"
      },
      "additionalContracts": [],
      "isFixedGasLimit": false
    },
    {
      "hash": "0x935df1f2e53be1d0bcbae1ba89ef0ea5572bfdd672f0dc9c4d06bfdb3a928250",
      "transactionType": "CALL",
      "contractName": null,
      "contractAddress": "0x9c80f556f34d39286f2cfd145b98e93f66580295",
      "function": "transfer(address,uint256)",
      "arguments": [
        "0x77Fa2529e830a1fB4EbCd83CE0281912c5CC4Ebc",
        "100000000000000000000"
      ],
      "transaction": {
        "from": "0x1d1e94634fbcb767ce8650269b2c4d33280f0130",
        "to": "0x9c80f556f34d39286f2cfd145b98e93f66580295",
        "gas": "0xba31",
        "value": "0x0",
        "input": "0xa9059cbb00000000000000000000000077fa2529e830a1fb4ebcd83ce0281912c5cc4ebc0000000000000000000000000000000000000000000000056bc75e2d63100000",
        "nonce": "0x2d9",
        "chainId": "0x14a34"
      },
      "additionalContracts": [],
      "isFixedGasLimit": false
    },
    {
      "hash": "0x3027bab9c2a7bd53a183dda2cb4c34f1168925c025bc9f386cac7650d9eecbba",
      "transactionType": "CALL",
      "contractName": null,
      "contractAddress": "0x9c80f556f34d39286f2cfd145b98e93f66580295",
      "function": "transfer(address,uint256)",
      "arguments": [
        "0x37450C3bD3FA5F5Afc5A13b80CeA5ccD72746C43",
        "100000000000000000000"
      ],
      "transaction": {
        "from": "0x1d1e94634fbcb767ce8650269b2c4d33280f0130",
        "to": "0x9c80f556f34d39286f2cfd145b98e93f66580295",
        "gas": "0xba31",
        "value": "0x0",
        "input": "0xa9059cbb00000000000000000000000037450c3bd3fa5f5afc5a13b80cea5ccd72746c430000000000000000000000000000000000000000000000056bc75e2d63100000",
        "nonce": "0x2da",
        "chainId": "0x14a34"
      },
      "additionalContracts": [],
      "isFixedGasLimit": false
    },
    {
      "hash": "0x4fd2424a03a0f85f8dfbf843829a5d9247cc8c810106a0cd966e9e49eaf33e52",
      "transactionType": "CALL",
      "contractName": null,
      "contractAddress": "0x9c80f556f34d39286f2cfd145b98e93f66580295",
      "function": "transfer(address,uint256)",
      "arguments": [
        "0x97F040eE3e16BD3BF0116e9117f869ADD9Cb2692",
        "100000000000000000000"
      ],
      "transaction": {
        "from": "0x1d1e94634fbcb767ce8650269b2c4d33280f0130",
        "to": "0x9c80f556f34d39286f2cfd145b98e93f66580295",
        "gas": "0xba31",
        "value": "0x0",
        "input": "0xa9059cbb00000000000000000000000097f040ee3e16bd3bf0116e9117f869add9cb26920000000000000000000000000000000000000000000000056bc75e2d63100000",
        "nonce": "0x2db",
        "chainId": "0x14a34"
      },
      "additionalContracts": [],
      "isFixedGasLimit": false
    },
    {
      "hash": "0x10129f240578969eadd9951cb3b465403e31145ea4f789c23dd27aff3e23e1b9",
      "transactionType": "CALL",
      "contractName": null,
      "contractAddress": "0x9c80f556f34d39286f2cfd145b98e93f66580295",
      "function": "transfer(address,uint256)",
      "arguments": [
        "0x795BD85d04405Cad5a9fb16639Bf5568bd5a978b",
        "100000000000000000000"
      ],
      "transaction": {
        "from": "0x1d1e94634fbcb767ce8650269b2c4d33280f0130",
        "to": "0x9c80f556f34d39286f2cfd145b98e93f66580295",
        "gas": "0xba31",
        "value": "0x0",
        "input": "0xa9059cbb000000000000000000000000795bd85d04405cad5a9fb16639bf5568bd5a978b0000000000000000000000000000000000000000000000056bc75e2d63100000",
        "nonce": "0x2dc",
        "chainId": "0x14a34"
      },
      "additionalContracts": [],
      "isFixedGasLimit": false
    },
    {
      "hash": "0xa5a4ec1063e44ed3cf2ae01e9da8865907fe8891548b69aea67ccb24adc2b481",
      "transactionType": "CALL",
      "contractName": null,
      "contractAddress": "0x9c80f556f34d39286f2cfd145b98e93f66580295",
      "function": "transfer(address,uint256)",
      "arguments": [
        "0xabdF5f14f06A1086924318789bC4754c1Cd6c441",
        "100000000000000000000"
      ],
      "transaction": {
        "from": "0x1d1e94634fbcb767ce8650269b2c4d33280f0130",
        "to": "0x9c80f556f34d39286f2cfd145b98e93f66580295",
        "gas": "0xba31",
        "value": "0x0",
        "input": "0xa9059cbb000000000000000000000000abdf5f14f06a1086924318789bc4754c1cd6c4410000000000000000000000000000000000000000000000056bc75e2d63100000",
        "nonce": "0x2dd",
        "chainId": "0x14a34"
      },
      "additionalContracts": [],
      "isFixedGasLimit": false
    },
    {
      "hash": "0xc15c20bcf0214b488e981e1fbb8f2a9581d912af0a6b5dee18a1739454fe9c9b",
      "transactionType": "CALL",
      "contractName": null,
      "contractAddress": "0x9c80f556f34d39286f2cfd145b98e93f66580295",
      "function": "transfer(address,uint256)",
      "arguments": [
        "0x8F2eB44aa42D191D32dd5063Af70E09d27869518",
        "100000000000000000000"
      ],
      "transaction": {
        "from": "0x1d1e94634fbcb767ce8650269b2c4d33280f0130",
        "to": "0x9c80f556f34d39286f2cfd145b98e93f66580295",
        "gas": "0xba31",
        "value": "0x0",
        "input": "0xa9059cbb0000000000000000000000008f2eb44aa42d191d32dd5063af70e09d278695180000000000000000000000000000000000000000000000056bc75e2d63100000",
        "nonce": "0x2de",
        "chainId": "0x14a34"
      },
      "additionalContracts": [],
      "isFixedGasLimit": false
    },
    {
      "hash": "0x4e4869a595deb63e1f266ee08be7b531d0ab6e7a359f9bec9b2d7e50fcf1aa74",
      "transactionType": "CALL",
      "contractName": null,
      "contractAddress": "0x9c80f556f34d39286f2cfd145b98e93f66580295",
      "function": "transfer(address,uint256)",
      "arguments": [
        "0xe4B4ad9864E68E3605625A5ebf52552aB21A53Da",
        "100000000000000000000"
      ],
      "transaction": {
        "from": "0x1d1e94634fbcb767ce8650269b2c4d33280f0130",
        "to": "0x9c80f556f34d39286f2cfd145b98e93f66580295",
        "gas": "0xba31",
        "value": "0x0",
        "input": "0xa9059cbb000000000000000000000000e4b4ad9864e68e3605625a5ebf52552ab21a53da0000000000000000000000000000000000000000000000056bc75e2d63100000",
        "nonce": "0x2df",
        "chainId": "0x14a34"
      },
      "additionalContracts": [],
      "isFixedGasLimit": false
    },
    {
      "hash": "0x432d1e8ddc11c28d3e62bd023a61343c99743f90f92d919f48d13437be4be908",
      "transactionType": "CALL",
      "contractName": null,
      "contractAddress": "0x9c80f556f34d39286f2cfd145b98e93f66580295",
      "function": "transfer(address,uint256)",
      "arguments": [
        "0x820b59263f399442ef0c3b86A25D7c515861b464",
        "100000000000000000000"
      ],
      "transaction": {
        "from": "0x1d1e94634fbcb767ce8650269b2c4d33280f0130",
        "to": "0x9c80f556f34d39286f2cfd145b98e93f66580295",
        "gas": "0xba31",
        "value": "0x0",
        "input": "0xa9059cbb000000000000000000000000820b59263f399442ef0c3b86a25d7c515861b4640000000000000000000000000000000000000000000000056bc75e2d63100000",
        "nonce": "0x2e0",
        "chainId": "0x14a34"
      },
      "additionalContracts": [],
      "isFixedGasLimit": false
    },
    {
      "hash": "0x8e040a63fa19a1bd2f9c2f860e7d01caf9eb9b1ba2bec8c513fe09098cede11b",
      "transactionType": "CALL",
      "contractName": null,
      "contractAddress": "0x9c80f556f34d39286f2cfd145b98e93f66580295",
      "function": "transfer(address,uint256)",
      "arguments": [
        "0x2498F0515663aF008227eD0440450EFAEdD374b6",
        "100000000000000000000"
      ],
      "transaction": {
        "from": "0x1d1e94634fbcb767ce8650269b2c4d33280f0130",
        "to": "0x9c80f556f34d39286f2cfd145b98e93f66580295",
        "gas": "0xc515",
        "value": "0x0",
        "input": "0xa9059cbb0000000000000000000000002498f0515663af008227ed0440450efaedd374b60000000000000000000000000000000000000000000000056bc75e2d63100000",
        "nonce": "0x2e1",
        "chainId": "0x14a34"
      },
      "additionalContracts": [],
      "isFixedGasLimit": false
    },
    {
      "hash": "0x7cdaf3fc60375ba069f7beafb7696477463aad23bf0f951c78dac32ffef4324d",
      "transactionType": "CALL",
      "contractName": null,
      "contractAddress": "0x9c80f556f34d39286f2cfd145b98e93f66580295",
      "function": "transfer(address,uint256)",
      "arguments": [
        "0x3660a2B355047DD434BF5B258E9F8D8C4d20F21D",
        "100000000000000000000"
      ],
      "transaction": {
        "from": "0x1d1e94634fbcb767ce8650269b2c4d33280f0130",
        "to": "0x9c80f556f34d39286f2cfd145b98e93f66580295",
        "gas": "0xba31",
        "value": "0x0",
        "input": "0xa9059cbb0000000000000000000000003660a2b355047dd434bf5b258e9f8d8c4d20f21d0000000000000000000000000000000000000000000000056bc75e2d63100000",
        "nonce": "0x2e2",
        "chainId": "0x14a34"
      },
      "additionalContracts": [],
      "isFixedGasLimit": false
    },
    {
      "hash": "0x06c269cc0ef6f8af9c35bcbd3906a96e72f68db27a0c025a8034da538192dc03",
      "transactionType": "CALL",
      "contractName": null,
      "contractAddress": "0x9c80f556f34d39286f2cfd145b98e93f66580295",
      "function": "transfer(address,uint256)",
      "arguments": [
        "0x584deD47c060AE1c3FE0f38549D854607d488b40",
        "100000000000000000000"
      ],
      "transaction": {
        "from": "0x1d1e94634fbcb767ce8650269b2c4d33280f0130",
        "to": "0x9c80f556f34d39286f2cfd145b98e93f66580295",
        "gas": "0xba31",
        "value": "0x0",
        "input": "0xa9059cbb000000000000000000000000584ded47c060ae1c3fe0f38549d854607d488b400000000000000000000000000000000000000000000000056bc75e2d63100000",
        "nonce": "0x2e3",
        "chainId": "0x14a34"
      },
      "additionalContracts": [],
      "isFixedGasLimit": false
    },
    {
      "hash": "0xe0a97f9dc9b9f46fff71340e012a318d6923108ee52fdaa0608acc254c37c53a",
      "transactionType": "CALL",
      "contractName": null,
      "contractAddress": "0x9c80f556f34d39286f2cfd145b98e93f66580295",
      "function": "transfer(address,uint256)",
      "arguments": [
        "0x8827DF1a64f3Ba03F6Ffd1b18B9FAdecBb53CA4f",
        "100000000000000000000"
      ],
      "transaction": {
        "from": "0x1d1e94634fbcb767ce8650269b2c4d33280f0130",
        "to": "0x9c80f556f34d39286f2cfd145b98e93f66580295",
        "gas": "0xba31",
        "value": "0x0",
        "input": "0xa9059cbb0000000000000000000000008827df1a64f3ba03f6ffd1b18b9fadecbb53ca4f0000000000000000000000000000000000000000000000056bc75e2d63100000",
        "nonce": "0x2e4",
        "chainId": "0x14a34"
      },
      "additionalContracts": [],
      "isFixedGasLimit": false
    },
    {
      "hash": "0xfbea4272aae9653303e9696d9e460c31c1921b45fddc44b5fe1ece7368048015",
      "transactionType": "CALL",
      "contractName": null,
      "contractAddress": "0x9c80f556f34d39286f2cfd145b98e93f66580295",
      "function": "transfer(address,uint256)",
      "arguments": [
        "0x3f248482Cf38eC62A6035A2962BdA8C530BCCc3a",
        "100000000000000000000"
      ],
      "transaction": {
        "from": "0x1d1e94634fbcb767ce8650269b2c4d33280f0130",
        "to": "0x9c80f556f34d39286f2cfd145b98e93f66580295",
        "gas": "0x126d7",
        "value": "0x0",
        "input": "0xa9059cbb0000000000000000000000003f248482cf38ec62a6035a2962bda8c530bccc3a0000000000000000000000000000000000000000000000056bc75e2d63100000",
        "nonce": "0x2e5",
        "chainId": "0x14a34"
      },
      "additionalContracts": [],
      "isFixedGasLimit": false
    },
    {
      "hash": "0x967f00f85a6a47653e04dc5e6aae94a77294ea60878eb6aa4c56b279edc7d59f",
      "transactionType": "CALL",
      "contractName": null,
      "contractAddress": "0x9c80f556f34d39286f2cfd145b98e93f66580295",
      "function": "transfer(address,uint256)",
      "arguments": [
        "0xbfbA54563EB9fd30d77bC3b2c2C2188F92F508CB",
        "100000000000000000000"
      ],
      "transaction": {
        "from": "0x1d1e94634fbcb767ce8650269b2c4d33280f0130",
        "to": "0x9c80f556f34d39286f2cfd145b98e93f66580295",
        "gas": "0x126d7",
        "value": "0x0",
        "input": "0xa9059cbb000000000000000000000000bfba54563eb9fd30d77bc3b2c2c2188f92f508cb0000000000000000000000000000000000000000000000056bc75e2d63100000",
        "nonce": "0x2e6",
        "chainId": "0x14a34"
      },
      "additionalContracts": [],
      "isFixedGasLimit": false
    }
  ],
  "receipts": [
    {
      "status": "0x1",
      "cumulativeGasUsed": "0x21014a",
      "logs": [
        {
          "address": "0x9c80f556f34d39286f2cfd145b98e93f66580295",
          "topics": [
            "0xddf252ad1be2c89b69c2b068fc378daa952ba7f163c4a11628f55a4df523b3ef",
            "0x0000000000000000000000001d1e94634fbcb767ce8650269b2c4d33280f0130",
            "0x0000000000000000000000000488caa0847a315e1b76d6f7af42caae7dd5fdbe"
          ],
          "data": "0x0000000000000000000000000000000000000000000000056bc75e2d63100000",
          "blockHash": "0x4ef24eaf95fe82e8260c512a4bf2368d5df9f23a9db3c47124bdf57082c921dc",
          "blockNumber": "0xd51e99",
          "transactionHash": "0x6e5ca0eae20e6c98860d5b721a8c0826ae4816a3c491376621e64538ac3b6f6b",
          "transactionIndex": "0x6",
          "logIndex": "0x37",
          "removed": false
        }
      ],
      "logsBloom": "0x04000000000000000000000000000000000000000000000000000000000000000000000080000000000000000000000000000000000000000000000000000000000000000000000000000208000000100000000000000000000000000000000000000800000000000040000000000000000000000000000000000010000000000400000000000000000000000000000000000000000000000000000000000000000000000000000000000000000000000000000000000000000000000000000000000006000002000000000000000000000000000000000000000000000000000000000000000000000000000000000000000000000000000000000000000000",
      "type": "0x2",
      "transactionHash": "0x6e5ca0eae20e6c98860d5b721a8c0826ae4816a3c491376621e64538ac3b6f6b",
      "transactionIndex": "0x6",
      "blockHash": "0x4ef24eaf95fe82e8260c512a4bf2368d5df9f23a9db3c47124bdf57082c921dc",
      "blockNumber": "0xd51e99",
      "gasUsed": "0x86ce",
      "effectiveGasPrice": "0x1aaf6f2b2",
      "from": "0x1d1e94634fbcb767ce8650269b2c4d33280f0130",
      "to": "0x9c80f556f34d39286f2cfd145b98e93f66580295",
      "contractAddress": null,
      "l1BaseFeeScalar": "0x44d",
      "l1BlobBaseFee": "0x80e4",
      "l1BlobBaseFeeScalar": "0xa118b",
      "l1Fee": "0x1830ff066",
      "l1GasPrice": "0xdba5f895",
      "l1GasUsed": "0x640"
    },
    {
      "status": "0x1",
      "cumulativeGasUsed": "0x218818",
      "logs": [
        {
          "address": "0x9c80f556f34d39286f2cfd145b98e93f66580295",
          "topics": [
            "0xddf252ad1be2c89b69c2b068fc378daa952ba7f163c4a11628f55a4df523b3ef",
            "0x0000000000000000000000001d1e94634fbcb767ce8650269b2c4d33280f0130",
            "0x000000000000000000000000e570b47230379ed9a83ebc335aa0928c6f798272"
          ],
          "data": "0x0000000000000000000000000000000000000000000000056bc75e2d63100000",
          "blockHash": "0x4ef24eaf95fe82e8260c512a4bf2368d5df9f23a9db3c47124bdf57082c921dc",
          "blockNumber": "0xd51e99",
          "transactionHash": "0x463f9eb67d16aa21529caf858c959ae9c8d7d893c3c4416ba3b6c39897e9c2ad",
          "transactionIndex": "0x7",
          "logIndex": "0x38",
          "removed": false
        }
      ],
      "logsBloom": "0x00000000000000000000080000000000000000000000000000000000000080000000000000000000000000000000000000000000000000000000000000000000000000000000000000000208000000100000000000000000000000000000000000000000000000000040000000000000000000000000000000000010000000000400000000000000000000000000000000000000000000000000000000000000000000000000000000000000002000000000000000000000000000000000000000000006000002000000000000000000000000000000000000000000000000000000000000000000000000000000000000000000000000000000000000000000",
      "type": "0x2",
      "transactionHash": "0x463f9eb67d16aa21529caf858c959ae9c8d7d893c3c4416ba3b6c39897e9c2ad",
      "transactionIndex": "0x7",
      "blockHash": "0x4ef24eaf95fe82e8260c512a4bf2368d5df9f23a9db3c47124bdf57082c921dc",
      "blockNumber": "0xd51e99",
      "gasUsed": "0x86ce",
      "effectiveGasPrice": "0x1aaf6f2b2",
      "from": "0x1d1e94634fbcb767ce8650269b2c4d33280f0130",
      "to": "0x9c80f556f34d39286f2cfd145b98e93f66580295",
      "contractAddress": null,
      "l1BaseFeeScalar": "0x44d",
      "l1BlobBaseFee": "0x80e4",
      "l1BlobBaseFeeScalar": "0xa118b",
      "l1Fee": "0x1830ff066",
      "l1GasPrice": "0xdba5f895",
      "l1GasUsed": "0x640"
    },
    {
      "status": "0x1",
      "cumulativeGasUsed": "0x220ee6",
      "logs": [
        {
          "address": "0x9c80f556f34d39286f2cfd145b98e93f66580295",
          "topics": [
            "0xddf252ad1be2c89b69c2b068fc378daa952ba7f163c4a11628f55a4df523b3ef",
            "0x0000000000000000000000001d1e94634fbcb767ce8650269b2c4d33280f0130",
            "0x000000000000000000000000ece84b524e3e70c2d97080e0fee140e27583b319"
          ],
          "data": "0x0000000000000000000000000000000000000000000000056bc75e2d63100000",
          "blockHash": "0x4ef24eaf95fe82e8260c512a4bf2368d5df9f23a9db3c47124bdf57082c921dc",
          "blockNumber": "0xd51e99",
          "transactionHash": "0x2ad3acc79778b91e9ea7bdab29c6c56211edc97c71ca341836067dc1501e3b11",
          "transactionIndex": "0x8",
          "logIndex": "0x39",
          "removed": false
        }
      ],
      "logsBloom": "0x00000000000000000000000000000000000000000000000000000000000000000000000000000000000000000000000000000000000000000000000000000000000000000000000000000208001000100000000000000000000000000000000000000000000000000040000000000000000000000000000000000010000000000400000000000000000000000000000000000000000000000000000000000000000000000000000000000000000000800000000000000000000000000000000000000006000002000000000000000000000000000000000000000000000000010000000000000000000000000000000000000000000000000000000000000000",
      "type": "0x2",
      "transactionHash": "0x2ad3acc79778b91e9ea7bdab29c6c56211edc97c71ca341836067dc1501e3b11",
      "transactionIndex": "0x8",
      "blockHash": "0x4ef24eaf95fe82e8260c512a4bf2368d5df9f23a9db3c47124bdf57082c921dc",
      "blockNumber": "0xd51e99",
      "gasUsed": "0x86ce",
      "effectiveGasPrice": "0x1aaf6f2b2",
      "from": "0x1d1e94634fbcb767ce8650269b2c4d33280f0130",
      "to": "0x9c80f556f34d39286f2cfd145b98e93f66580295",
      "contractAddress": null,
      "l1BaseFeeScalar": "0x44d",
      "l1BlobBaseFee": "0x80e4",
      "l1BlobBaseFeeScalar": "0xa118b",
      "l1Fee": "0x1830ff066",
      "l1GasPrice": "0xdba5f895",
      "l1GasUsed": "0x640"
    },
    {
      "status": "0x1",
      "cumulativeGasUsed": "0x2295b4",
      "logs": [
        {
          "address": "0x9c80f556f34d39286f2cfd145b98e93f66580295",
          "topics": [
            "0xddf252ad1be2c89b69c2b068fc378daa952ba7f163c4a11628f55a4df523b3ef",
            "0x0000000000000000000000001d1e94634fbcb767ce8650269b2c4d33280f0130",
            "0x0000000000000000000000003e6d1ab01613154c190a2e8f9e6132c48b935f3a"
          ],
          "data": "0x0000000000000000000000000000000000000000000000056bc75e2d63100000",
          "blockHash": "0x4ef24eaf95fe82e8260c512a4bf2368d5df9f23a9db3c47124bdf57082c921dc",
          "blockNumber": "0xd51e99",
          "transactionHash": "0x2d34d086916f7d3b9c27c0079cd49eb8c7e9fa8243a682fdddcc7cadd9653d8a",
          "transactionIndex": "0x9",
          "logIndex": "0x3a",
          "removed": false
        }
      ],
      "logsBloom": "0x00000000000000000000000000000000000000000000000000000000000000000000000000000000000000000000000000000000000000000000000000001000000000000000000000000208000000100000000000000000000000000000000000000000000000000040000000000000000000000000000000000010000000000400000000000000000000000000000000000000000000000000000000000000000000000000000000000000000000000000000000000000000000000200000000000006000002000000000000000000000000000000000000000000000000000000000000000000000000000000000000080000000000000000000000000000",
      "type": "0x2",
      "transactionHash": "0x2d34d086916f7d3b9c27c0079cd49eb8c7e9fa8243a682fdddcc7cadd9653d8a",
      "transactionIndex": "0x9",
      "blockHash": "0x4ef24eaf95fe82e8260c512a4bf2368d5df9f23a9db3c47124bdf57082c921dc",
      "blockNumber": "0xd51e99",
      "gasUsed": "0x86ce",
      "effectiveGasPrice": "0x1aaf6f2b2",
      "from": "0x1d1e94634fbcb767ce8650269b2c4d33280f0130",
      "to": "0x9c80f556f34d39286f2cfd145b98e93f66580295",
      "contractAddress": null,
      "l1BaseFeeScalar": "0x44d",
      "l1BlobBaseFee": "0x80e4",
      "l1BlobBaseFeeScalar": "0xa118b",
      "l1Fee": "0x1830ff066",
      "l1GasPrice": "0xdba5f895",
      "l1GasUsed": "0x640"
    },
    {
      "status": "0x1",
      "cumulativeGasUsed": "0x231c82",
      "logs": [
        {
          "address": "0x9c80f556f34d39286f2cfd145b98e93f66580295",
          "topics": [
            "0xddf252ad1be2c89b69c2b068fc378daa952ba7f163c4a11628f55a4df523b3ef",
            "0x0000000000000000000000001d1e94634fbcb767ce8650269b2c4d33280f0130",
            "0x0000000000000000000000001f6b36cc1d9ade3713f58543db3c57da4e841599"
          ],
          "data": "0x0000000000000000000000000000000000000000000000056bc75e2d63100000",
          "blockHash": "0x4ef24eaf95fe82e8260c512a4bf2368d5df9f23a9db3c47124bdf57082c921dc",
          "blockNumber": "0xd51e99",
          "transactionHash": "0xa60f907f80bf9985a86f51d9717765bd609e066180bf3bf448ea9a1021cb4bbd",
          "transactionIndex": "0xa",
          "logIndex": "0x3b",
          "removed": false
        }
      ],
      "logsBloom": "0x00000000000000000000000000000000000000000000000000000000000000000000000000000000000000000000000000000000000000000000000000000000000000000000000000000208000000100000000000000000000000000000000000000000000000000040000000000000000000000000000000000010000000000400000000000000000000008000000000000000000000000000000000000000000000000000000000000000000000000000000000000000000000000000000000000006000802000000000000000000000000000000000000000000000000000000000000000000000000000000000000000400000000000000000000000000",
      "type": "0x2",
      "transactionHash": "0xa60f907f80bf9985a86f51d9717765bd609e066180bf3bf448ea9a1021cb4bbd",
      "transactionIndex": "0xa",
      "blockHash": "0x4ef24eaf95fe82e8260c512a4bf2368d5df9f23a9db3c47124bdf57082c921dc",
      "blockNumber": "0xd51e99",
      "gasUsed": "0x86ce",
      "effectiveGasPrice": "0x1aaf6f2b2",
      "from": "0x1d1e94634fbcb767ce8650269b2c4d33280f0130",
      "to": "0x9c80f556f34d39286f2cfd145b98e93f66580295",
      "contractAddress": null,
      "l1BaseFeeScalar": "0x44d",
      "l1BlobBaseFee": "0x80e4",
      "l1BlobBaseFeeScalar": "0xa118b",
      "l1Fee": "0x1830ff066",
      "l1GasPrice": "0xdba5f895",
      "l1GasUsed": "0x640"
    },
    {
      "status": "0x1",
      "cumulativeGasUsed": "0x23a350",
      "logs": [
        {
          "address": "0x9c80f556f34d39286f2cfd145b98e93f66580295",
          "topics": [
            "0xddf252ad1be2c89b69c2b068fc378daa952ba7f163c4a11628f55a4df523b3ef",
            "0x0000000000000000000000001d1e94634fbcb767ce8650269b2c4d33280f0130",
            "0x0000000000000000000000001f065310aed94f8fb9df2e2bf1201db936586fc0"
          ],
          "data": "0x0000000000000000000000000000000000000000000000056bc75e2d63100000",
          "blockHash": "0x4ef24eaf95fe82e8260c512a4bf2368d5df9f23a9db3c47124bdf57082c921dc",
          "blockNumber": "0xd51e99",
          "transactionHash": "0x4da173767e1aef8452519a9ac04284492d96231835411ac7c5885f0b1e3c09db",
          "transactionIndex": "0xb",
          "logIndex": "0x3c",
          "removed": false
        }
      ],
      "logsBloom": "0x00000000000000000000000000000000000000000000000000000000000000000000000020000000000000000000000000000000000000000000000010000000000000000000000000000208000000100000000000000000000000000000000000000000000000000040000000000000000000000000000000000010000000000400000000000000000000000000000000000000000000000000000000000000000000000000000000000000000000000000000000000000000000000000800000000006000002000000000000000000000000000000000000000000000000000000000000000000000000000000000000000000000000000000000000000000",
      "type": "0x2",
      "transactionHash": "0x4da173767e1aef8452519a9ac04284492d96231835411ac7c5885f0b1e3c09db",
      "transactionIndex": "0xb",
      "blockHash": "0x4ef24eaf95fe82e8260c512a4bf2368d5df9f23a9db3c47124bdf57082c921dc",
      "blockNumber": "0xd51e99",
      "gasUsed": "0x86ce",
      "effectiveGasPrice": "0x1aaf6f2b2",
      "from": "0x1d1e94634fbcb767ce8650269b2c4d33280f0130",
      "to": "0x9c80f556f34d39286f2cfd145b98e93f66580295",
      "contractAddress": null,
      "l1BaseFeeScalar": "0x44d",
      "l1BlobBaseFee": "0x80e4",
      "l1BlobBaseFeeScalar": "0xa118b",
      "l1Fee": "0x1830ff066",
      "l1GasPrice": "0xdba5f895",
      "l1GasUsed": "0x640"
    },
    {
      "status": "0x1",
      "cumulativeGasUsed": "0x242a1e",
      "logs": [
        {
          "address": "0x9c80f556f34d39286f2cfd145b98e93f66580295",
          "topics": [
            "0xddf252ad1be2c89b69c2b068fc378daa952ba7f163c4a11628f55a4df523b3ef",
            "0x0000000000000000000000001d1e94634fbcb767ce8650269b2c4d33280f0130",
            "0x000000000000000000000000f71d046f4e6f9407f3e913cba7a3d8fc0f652f76"
          ],
          "data": "0x0000000000000000000000000000000000000000000000056bc75e2d63100000",
          "blockHash": "0x4ef24eaf95fe82e8260c512a4bf2368d5df9f23a9db3c47124bdf57082c921dc",
          "blockNumber": "0xd51e99",
          "transactionHash": "0xe27704744e7f11840ba76ab98405ca85c62f8711481eafc4863bdfeac9eb34db",
          "transactionIndex": "0xc",
          "logIndex": "0x3d",
          "removed": false
        }
      ],
      "logsBloom": "0x00000000000000000000000000000000000000000000000000000000000000000000000000000000000000000000000000000000000000000000000000000000000000000000000020000208000000100000000000000000000000000000000000000000000000000040000000000000000000000000000000000014000000000400000000000000000000000000000000000000000000000000000000000000000000000000000000000000000000000000000000000000000000000000000000000006000002000000000000000000000000000000000000000000000000000000000000000000000000000000000000000000000000040000000000000000",
      "type": "0x2",
      "transactionHash": "0xe27704744e7f11840ba76ab98405ca85c62f8711481eafc4863bdfeac9eb34db",
      "transactionIndex": "0xc",
      "blockHash": "0x4ef24eaf95fe82e8260c512a4bf2368d5df9f23a9db3c47124bdf57082c921dc",
      "blockNumber": "0xd51e99",
      "gasUsed": "0x86ce",
      "effectiveGasPrice": "0x1aaf6f2b2",
      "from": "0x1d1e94634fbcb767ce8650269b2c4d33280f0130",
      "to": "0x9c80f556f34d39286f2cfd145b98e93f66580295",
      "contractAddress": null,
      "l1BaseFeeScalar": "0x44d",
      "l1BlobBaseFee": "0x80e4",
      "l1BlobBaseFeeScalar": "0xa118b",
      "l1Fee": "0x1830ff066",
      "l1GasPrice": "0xdba5f895",
      "l1GasUsed": "0x640"
    },
    {
      "status": "0x1",
      "cumulativeGasUsed": "0x24b0ec",
      "logs": [
        {
          "address": "0x9c80f556f34d39286f2cfd145b98e93f66580295",
          "topics": [
            "0xddf252ad1be2c89b69c2b068fc378daa952ba7f163c4a11628f55a4df523b3ef",
            "0x0000000000000000000000001d1e94634fbcb767ce8650269b2c4d33280f0130",
            "0x000000000000000000000000ae5ed1f565acb9b4254af0e1792505499accdd8b"
          ],
          "data": "0x0000000000000000000000000000000000000000000000056bc75e2d63100000",
          "blockHash": "0x4ef24eaf95fe82e8260c512a4bf2368d5df9f23a9db3c47124bdf57082c921dc",
          "blockNumber": "0xd51e99",
          "transactionHash": "0xdef56c6e98d2e919a884740181539b10938096ce3dcc939d8f50f555280abfdf",
          "transactionIndex": "0xd",
          "logIndex": "0x3e",
          "removed": false
        }
      ],
      "logsBloom": "0x00000000100000000000000000000000000000000000000000000000000000000000000000000000000000000000000000000000000000000000000000000000000000000000000000000208000000100000000000000000000000000000000000000000000000000040000000000000000000000000000000000010000000000400000000000000000000000000000000000040000000000000000000000000000000000000000000000000000000000000000000000000000000000000000000000006000022000000000000000000000000000000000000000000000000000000000000000000000000000000000000000000000000000000000000000000",
      "type": "0x2",
      "transactionHash": "0xdef56c6e98d2e919a884740181539b10938096ce3dcc939d8f50f555280abfdf",
      "transactionIndex": "0xd",
      "blockHash": "0x4ef24eaf95fe82e8260c512a4bf2368d5df9f23a9db3c47124bdf57082c921dc",
      "blockNumber": "0xd51e99",
      "gasUsed": "0x86ce",
      "effectiveGasPrice": "0x1aaf6f2b2",
      "from": "0x1d1e94634fbcb767ce8650269b2c4d33280f0130",
      "to": "0x9c80f556f34d39286f2cfd145b98e93f66580295",
      "contractAddress": null,
      "l1BaseFeeScalar": "0x44d",
      "l1BlobBaseFee": "0x80e4",
      "l1BlobBaseFeeScalar": "0xa118b",
      "l1Fee": "0x1830ff066",
      "l1GasPrice": "0xdba5f895",
      "l1GasUsed": "0x640"
    },
    {
      "status": "0x1",
      "cumulativeGasUsed": "0x2537ba",
      "logs": [
        {
          "address": "0x9c80f556f34d39286f2cfd145b98e93f66580295",
          "topics": [
            "0xddf252ad1be2c89b69c2b068fc378daa952ba7f163c4a11628f55a4df523b3ef",
            "0x0000000000000000000000001d1e94634fbcb767ce8650269b2c4d33280f0130",
            "0x00000000000000000000000013088f336c918b1b31eb7ece87752ebc86c312bb"
          ],
          "data": "0x0000000000000000000000000000000000000000000000056bc75e2d63100000",
          "blockHash": "0x4ef24eaf95fe82e8260c512a4bf2368d5df9f23a9db3c47124bdf57082c921dc",
          "blockNumber": "0xd51e99",
          "transactionHash": "0x8cd5be6314ca2cccc57611bbe9272a494bcab593c9fd9d5eda56eb9de3ce345d",
          "transactionIndex": "0xe",
          "logIndex": "0x3f",
          "removed": false
        }
      ],
      "logsBloom": "0x20000000000000000000000000000000000000000000000000000000000000000000000000000000000000000000000000000000000000000000000000000000000000000000000000000208000000100000000000000000000000000000000000000000000000000040000000000000000000000000000000000010000000000400000000000000000000001000000000000000000000000000000000000000000000000000000000000000000000000000000000000000000000000000000000000006000002000000000000000000000000000000000020000000000000000000000000000000000000000000000000000000000000000000000000000000",
      "type": "0x2",
      "transactionHash": "0x8cd5be6314ca2cccc57611bbe9272a494bcab593c9fd9d5eda56eb9de3ce345d",
      "transactionIndex": "0xe",
      "blockHash": "0x4ef24eaf95fe82e8260c512a4bf2368d5df9f23a9db3c47124bdf57082c921dc",
      "blockNumber": "0xd51e99",
      "gasUsed": "0x86ce",
      "effectiveGasPrice": "0x1aaf6f2b2",
      "from": "0x1d1e94634fbcb767ce8650269b2c4d33280f0130",
      "to": "0x9c80f556f34d39286f2cfd145b98e93f66580295",
      "contractAddress": null,
      "l1BaseFeeScalar": "0x44d",
      "l1BlobBaseFee": "0x80e4",
      "l1BlobBaseFeeScalar": "0xa118b",
      "l1Fee": "0x1830ff066",
      "l1GasPrice": "0xdba5f895",
      "l1GasUsed": "0x640"
    },
    {
      "status": "0x1",
      "cumulativeGasUsed": "0x25be88",
      "logs": [
        {
          "address": "0x9c80f556f34d39286f2cfd145b98e93f66580295",
          "topics": [
            "0xddf252ad1be2c89b69c2b068fc378daa952ba7f163c4a11628f55a4df523b3ef",
            "0x0000000000000000000000001d1e94634fbcb767ce8650269b2c4d33280f0130",
            "0x0000000000000000000000005aaacb69d94c08e99dfcff125bba6b9061a2a94a"
          ],
          "data": "0x0000000000000000000000000000000000000000000000056bc75e2d63100000",
          "blockHash": "0x4ef24eaf95fe82e8260c512a4bf2368d5df9f23a9db3c47124bdf57082c921dc",
          "blockNumber": "0xd51e99",
          "transactionHash": "0xd701aa08a00987ad60e9ec939ce474f675993877cc0b2feab6dc9f1266b04696",
          "transactionIndex": "0xf",
          "logIndex": "0x40",
          "removed": false
        }
      ],
      "logsBloom": "0x00000000000000000000000000000000000000000000000000000000000000000000000000000000000000000000000001000000000800000000000000000000000000000000000000000208000000100000000000000000000000000000000000000000000000000040000000000000000000000000000000000010000000000400000000000000000000000000000000000000000000000000000000000000000000000000000000000000000000000000000000000000000000000000000000000006080002000000000000000000000000000000000000000000000000000000000000000000000000000000000000000000000000000000000000000000",
      "type": "0x2",
      "transactionHash": "0xd701aa08a00987ad60e9ec939ce474f675993877cc0b2feab6dc9f1266b04696",
      "transactionIndex": "0xf",
      "blockHash": "0x4ef24eaf95fe82e8260c512a4bf2368d5df9f23a9db3c47124bdf57082c921dc",
      "blockNumber": "0xd51e99",
      "gasUsed": "0x86ce",
      "effectiveGasPrice": "0x1aaf6f2b2",
      "from": "0x1d1e94634fbcb767ce8650269b2c4d33280f0130",
      "to": "0x9c80f556f34d39286f2cfd145b98e93f66580295",
      "contractAddress": null,
      "l1BaseFeeScalar": "0x44d",
      "l1BlobBaseFee": "0x80e4",
      "l1BlobBaseFeeScalar": "0xa118b",
      "l1Fee": "0x1830ff066",
      "l1GasPrice": "0xdba5f895",
      "l1GasUsed": "0x640"
    },
    {
      "status": "0x1",
      "cumulativeGasUsed": "0x264556",
      "logs": [
        {
          "address": "0x9c80f556f34d39286f2cfd145b98e93f66580295",
          "topics": [
            "0xddf252ad1be2c89b69c2b068fc378daa952ba7f163c4a11628f55a4df523b3ef",
            "0x0000000000000000000000001d1e94634fbcb767ce8650269b2c4d33280f0130",
            "0x000000000000000000000000e2986606527910bfdbbc55219565c5b997e56153"
          ],
          "data": "0x0000000000000000000000000000000000000000000000056bc75e2d63100000",
          "blockHash": "0x4ef24eaf95fe82e8260c512a4bf2368d5df9f23a9db3c47124bdf57082c921dc",
          "blockNumber": "0xd51e99",
          "transactionHash": "0x09bb811354a5b360a866ddbd57c2802b202d502d53e65113d087277f9aca916b",
          "transactionIndex": "0x10",
          "logIndex": "0x41",
          "removed": false
        }
      ],
      "logsBloom": "0x00000000000000000000000000000000000000000000000000000000000000000000000000000000000000000000000000001000000000000000000000000000000000000000000000000208000000100000000000000000000001000000000000000000000000000040000000000000000000000000000000000010000000000400000000000000000000000000000000000000000000000000000000000000000000000000000000000000000000000000000000000000000000000000000000000006000002000000000000000000000000000000000000000000000000000000000000000400000000000000000000000000000000000000000000000000",
      "type": "0x2",
      "transactionHash": "0x09bb811354a5b360a866ddbd57c2802b202d502d53e65113d087277f9aca916b",
      "transactionIndex": "0x10",
      "blockHash": "0x4ef24eaf95fe82e8260c512a4bf2368d5df9f23a9db3c47124bdf57082c921dc",
      "blockNumber": "0xd51e99",
      "gasUsed": "0x86ce",
      "effectiveGasPrice": "0x1aaf6f2b2",
      "from": "0x1d1e94634fbcb767ce8650269b2c4d33280f0130",
      "to": "0x9c80f556f34d39286f2cfd145b98e93f66580295",
      "contractAddress": null,
      "l1BaseFeeScalar": "0x44d",
      "l1BlobBaseFee": "0x80e4",
      "l1BlobBaseFeeScalar": "0xa118b",
      "l1Fee": "0x1830ff066",
      "l1GasPrice": "0xdba5f895",
      "l1GasUsed": "0x640"
    },
    {
      "status": "0x1",
      "cumulativeGasUsed": "0x26cc24",
      "logs": [
        {
          "address": "0x9c80f556f34d39286f2cfd145b98e93f66580295",
          "topics": [
            "0xddf252ad1be2c89b69c2b068fc378daa952ba7f163c4a11628f55a4df523b3ef",
            "0x0000000000000000000000001d1e94634fbcb767ce8650269b2c4d33280f0130",
            "0x0000000000000000000000009d12b861e6d78478902d20477a1f422367c647b4"
          ],
          "data": "0x0000000000000000000000000000000000000000000000056bc75e2d63100000",
          "blockHash": "0x4ef24eaf95fe82e8260c512a4bf2368d5df9f23a9db3c47124bdf57082c921dc",
          "blockNumber": "0xd51e99",
          "transactionHash": "0x23a9cd6b32b178e6cc4ff980cf32034eb35774e039d851e4fa9fca12570f560a",
          "transactionIndex": "0x11",
          "logIndex": "0x42",
          "removed": false
        }
      ],
      "logsBloom": "0x00000000000000000000000000000000000000000000000000000000000000000000080000000000000000000000000000000000000000000000000000000000000000000000000000000208000000100000000000000000000000000000000000000000000000000040000000000000000000000000000000000010000000000400000000000000000000000000000000000000000000000000000000000000000000000000020000000000000000000000080000000000000000000000000000000006000002000000000000000000000000000000000000000000000000000000000000000000000000000000000000000000000000000000000000000000",
      "type": "0x2",
      "transactionHash": "0x23a9cd6b32b178e6cc4ff980cf32034eb35774e039d851e4fa9fca12570f560a",
      "transactionIndex": "0x11",
      "blockHash": "0x4ef24eaf95fe82e8260c512a4bf2368d5df9f23a9db3c47124bdf57082c921dc",
      "blockNumber": "0xd51e99",
      "gasUsed": "0x86ce",
      "effectiveGasPrice": "0x1aaf6f2b2",
      "from": "0x1d1e94634fbcb767ce8650269b2c4d33280f0130",
      "to": "0x9c80f556f34d39286f2cfd145b98e93f66580295",
      "contractAddress": null,
      "l1BaseFeeScalar": "0x44d",
      "l1BlobBaseFee": "0x80e4",
      "l1BlobBaseFeeScalar": "0xa118b",
      "l1Fee": "0x1830ff066",
      "l1GasPrice": "0xdba5f895",
      "l1GasUsed": "0x640"
    },
    {
      "status": "0x1",
      "cumulativeGasUsed": "0x2752f2",
      "logs": [
        {
          "address": "0x9c80f556f34d39286f2cfd145b98e93f66580295",
          "topics": [
            "0xddf252ad1be2c89b69c2b068fc378daa952ba7f163c4a11628f55a4df523b3ef",
            "0x0000000000000000000000001d1e94634fbcb767ce8650269b2c4d33280f0130",
            "0x0000000000000000000000002b58515c803e960d83f89628176394fb6c1ee913"
          ],
          "data": "0x0000000000000000000000000000000000000000000000056bc75e2d63100000",
          "blockHash": "0x4ef24eaf95fe82e8260c512a4bf2368d5df9f23a9db3c47124bdf57082c921dc",
          "blockNumber": "0xd51e99",
          "transactionHash": "0xbe58cfbae7981e4bff549becf98d8a1354d0ff68407b913f05aa29b5332d1fa7",
          "transactionIndex": "0x12",
          "logIndex": "0x43",
          "removed": false
        }
      ],
      "logsBloom": "0x00000000000000000000000000000000000010000000000000000000000000000000000000000000000000000000000000000000000000000000000000000000000000000000000000000208000000100000000000000000000000000000000000000000000000000040000000000000000000000000000000000010000000000400000000000000000000000000000002000000000000000000000000000000000000000000000000000000000000000000000000000000000000000000000000000006000002000000000000010000000000000000000000000000000000000000000000000000000000000000000000000000000000000000000000000000",
      "type": "0x2",
      "transactionHash": "0xbe58cfbae7981e4bff549becf98d8a1354d0ff68407b913f05aa29b5332d1fa7",
      "transactionIndex": "0x12",
      "blockHash": "0x4ef24eaf95fe82e8260c512a4bf2368d5df9f23a9db3c47124bdf57082c921dc",
      "blockNumber": "0xd51e99",
      "gasUsed": "0x86ce",
      "effectiveGasPrice": "0x1aaf6f2b2",
      "from": "0x1d1e94634fbcb767ce8650269b2c4d33280f0130",
      "to": "0x9c80f556f34d39286f2cfd145b98e93f66580295",
      "contractAddress": null,
      "l1BaseFeeScalar": "0x44d",
      "l1BlobBaseFee": "0x80e4",
      "l1BlobBaseFeeScalar": "0xa118b",
      "l1Fee": "0x1830ff066",
      "l1GasPrice": "0xdba5f895",
      "l1GasUsed": "0x640"
    },
    {
      "status": "0x1",
      "cumulativeGasUsed": "0x809383",
      "logs": [
        {
          "address": "0x9c80f556f34d39286f2cfd145b98e93f66580295",
          "topics": [
            "0xddf252ad1be2c89b69c2b068fc378daa952ba7f163c4a11628f55a4df523b3ef",
            "0x0000000000000000000000001d1e94634fbcb767ce8650269b2c4d33280f0130",
            "0x0000000000000000000000008cdbe20ffba52c57af99c6e30ca6a97065a93b13"
          ],
          "data": "0x0000000000000000000000000000000000000000000000056bc75e2d63100000",
          "blockHash": "0xe036351325a3de621155ad37f940e725112f74d2898d8f45d439466754851f23",
          "blockNumber": "0xd51e9a",
          "transactionHash": "0xb9fda7dec9bad3678b5fe4bfe469499a2becfb71e8923a6105a2b380b8763364",
          "transactionIndex": "0xa",
          "logIndex": "0xca",
          "removed": false
        }
      ],
      "logsBloom": "0x00000000000000000000000000000000000000000000000000000000000000000000000000000000000000000000000000000000000000000000000000000000000000000000000000000208000000100000000000080000000000000000000000000000000000000040000000000000000000000000000000200010000000000400000000000000000000000000000000000000000000000000400000000000000000000000000000000000000000000000000000000000000000000000000000000006000002000000000000000000000000000000000000000000000000000000000000000000000000000000000000000000000000000000000000000000",
      "type": "0x2",
      "transactionHash": "0xb9fda7dec9bad3678b5fe4bfe469499a2becfb71e8923a6105a2b380b8763364",
      "transactionIndex": "0xa",
      "blockHash": "0xe036351325a3de621155ad37f940e725112f74d2898d8f45d439466754851f23",
      "blockNumber": "0xd51e9a",
      "gasUsed": "0x86ce",
      "effectiveGasPrice": "0x1aa4b8cf0",
      "from": "0x1d1e94634fbcb767ce8650269b2c4d33280f0130",
      "to": "0x9c80f556f34d39286f2cfd145b98e93f66580295",
      "contractAddress": null,
      "l1BaseFeeScalar": "0x44d",
      "l1BlobBaseFee": "0x80e4",
      "l1BlobBaseFeeScalar": "0xa118b",
      "l1Fee": "0x1830ff066",
      "l1GasPrice": "0xdba5f895",
      "l1GasUsed": "0x640"
    },
    {
      "status": "0x1",
      "cumulativeGasUsed": "0x811a51",
      "logs": [
        {
          "address": "0x9c80f556f34d39286f2cfd145b98e93f66580295",
          "topics": [
            "0xddf252ad1be2c89b69c2b068fc378daa952ba7f163c4a11628f55a4df523b3ef",
            "0x0000000000000000000000001d1e94634fbcb767ce8650269b2c4d33280f0130",
            "0x000000000000000000000000907796932ba29419f4516aa727d437faadf6f87f"
          ],
          "data": "0x0000000000000000000000000000000000000000000000056bc75e2d63100000",
          "blockHash": "0xe036351325a3de621155ad37f940e725112f74d2898d8f45d439466754851f23",
          "blockNumber": "0xd51e9a",
          "transactionHash": "0x3ee823ba7199a8ffcc82510f9a4284ccf88ad116953486027796a20b419c63d0",
          "transactionIndex": "0xb",
          "logIndex": "0xcb",
          "removed": false
        }
      ],
      "logsBloom": "0x00000000000000000000000000000000000000000000000000000040000000000000000000000000000000000000000000000000000000000000000000000000000000000000800000000208000000100000000000000000000000000000000000000000000000000040000000000010000000000000000000000010000000000400000000000000000000000000000000000000000000000000000000000000000000000000000000000000000000000000000000000000000000000000000000000006000002000000000000000000000000000000000000000000000000000000000000000000000000000000000000000000000000000000000000000000",
      "type": "0x2",
      "transactionHash": "0x3ee823ba7199a8ffcc82510f9a4284ccf88ad116953486027796a20b419c63d0",
      "transactionIndex": "0xb",
      "blockHash": "0xe036351325a3de621155ad37f940e725112f74d2898d8f45d439466754851f23",
      "blockNumber": "0xd51e9a",
      "gasUsed": "0x86ce",
      "effectiveGasPrice": "0x1aa4b8cf0",
      "from": "0x1d1e94634fbcb767ce8650269b2c4d33280f0130",
      "to": "0x9c80f556f34d39286f2cfd145b98e93f66580295",
      "contractAddress": null,
      "l1BaseFeeScalar": "0x44d",
      "l1BlobBaseFee": "0x80e4",
      "l1BlobBaseFeeScalar": "0xa118b",
      "l1Fee": "0x1830ff066",
      "l1GasPrice": "0xdba5f895",
      "l1GasUsed": "0x640"
    },
    {
      "status": "0x1",
      "cumulativeGasUsed": "0x81a113",
      "logs": [
        {
          "address": "0x9c80f556f34d39286f2cfd145b98e93f66580295",
          "topics": [
            "0xddf252ad1be2c89b69c2b068fc378daa952ba7f163c4a11628f55a4df523b3ef",
            "0x0000000000000000000000001d1e94634fbcb767ce8650269b2c4d33280f0130",
            "0x000000000000000000000000f3ba20897d1300f84915bec5ce375f678250557a"
          ],
          "data": "0x0000000000000000000000000000000000000000000000056bc75e2d63100000",
          "blockHash": "0xe036351325a3de621155ad37f940e725112f74d2898d8f45d439466754851f23",
          "blockNumber": "0xd51e9a",
          "transactionHash": "0x617f6d90f2603efed16e875f6cf7358b46fc6922af512db7a905daa6c3baeeff",
          "transactionIndex": "0xc",
          "logIndex": "0xcc",
          "removed": false
        }
      ],
      "logsBloom": "0x00000000000000000000000000000000000000000000000000000000000000000000000000000000000000000000000000000000000000000000000000000000000000000000800000000208000000100000000000000000000400000000000000000000000000000040000000000000000000000000000000000010000000000400000000000000000000000000000000000000000000000000000000000000000000000000000000000000000000000000000000000000000000000000000000000046000002000000000000000000000000000000000000000000000000000000000000000000000000000000000000000000000000000000000000000000",
      "type": "0x2",
      "transactionHash": "0x617f6d90f2603efed16e875f6cf7358b46fc6922af512db7a905daa6c3baeeff",
      "transactionIndex": "0xc",
      "blockHash": "0xe036351325a3de621155ad37f940e725112f74d2898d8f45d439466754851f23",
      "blockNumber": "0xd51e9a",
      "gasUsed": "0x86c2",
      "effectiveGasPrice": "0x1aa4b8cf0",
      "from": "0x1d1e94634fbcb767ce8650269b2c4d33280f0130",
      "to": "0x9c80f556f34d39286f2cfd145b98e93f66580295",
      "contractAddress": null,
      "l1BaseFeeScalar": "0x44d",
      "l1BlobBaseFee": "0x80e4",
      "l1BlobBaseFeeScalar": "0xa118b",
      "l1Fee": "0x1830ff066",
      "l1GasPrice": "0xdba5f895",
      "l1GasUsed": "0x640"
    },
    {
      "status": "0x1",
      "cumulativeGasUsed": "0x8227e1",
      "logs": [
        {
          "address": "0x9c80f556f34d39286f2cfd145b98e93f66580295",
          "topics": [
            "0xddf252ad1be2c89b69c2b068fc378daa952ba7f163c4a11628f55a4df523b3ef",
            "0x0000000000000000000000001d1e94634fbcb767ce8650269b2c4d33280f0130",
            "0x00000000000000000000000077fa2529e830a1fb4ebcd83ce0281912c5cc4ebc"
          ],
          "data": "0x0000000000000000000000000000000000000000000000056bc75e2d63100000",
          "blockHash": "0xe036351325a3de621155ad37f940e725112f74d2898d8f45d439466754851f23",
          "blockNumber": "0xd51e9a",
          "transactionHash": "0x935df1f2e53be1d0bcbae1ba89ef0ea5572bfdd672f0dc9c4d06bfdb3a928250",
          "transactionIndex": "0xd",
          "logIndex": "0xcd",
          "removed": false
        }
      ],
      "logsBloom": "0x00000000000000000000000000000000000000020000000000000000000000000000000000000000000000000000000000000000000000000000000000000000000000000000000000000208000000100000000000000000000000000000000000000000000000000040000000000000000000000000000000000010000000000400000000000000000000000000000000000000004000000000000002000000000000000000000000000000000000000000000000000000000000000000000000000006000002000000000000000000000000000000000000000000000000000000000000000000000000000000000000000000000000000000000000000000",
      "type": "0x2",
      "transactionHash": "0x935df1f2e53be1d0bcbae1ba89ef0ea5572bfdd672f0dc9c4d06bfdb3a928250",
      "transactionIndex": "0xd",
      "blockHash": "0xe036351325a3de621155ad37f940e725112f74d2898d8f45d439466754851f23",
      "blockNumber": "0xd51e9a",
      "gasUsed": "0x86ce",
      "effectiveGasPrice": "0x1aa4b8cf0",
      "from": "0x1d1e94634fbcb767ce8650269b2c4d33280f0130",
      "to": "0x9c80f556f34d39286f2cfd145b98e93f66580295",
      "contractAddress": null,
      "l1BaseFeeScalar": "0x44d",
      "l1BlobBaseFee": "0x80e4",
      "l1BlobBaseFeeScalar": "0xa118b",
      "l1Fee": "0x1830ff066",
      "l1GasPrice": "0xdba5f895",
      "l1GasUsed": "0x640"
    },
    {
      "status": "0x1",
      "cumulativeGasUsed": "0x82aeaf",
      "logs": [
        {
          "address": "0x9c80f556f34d39286f2cfd145b98e93f66580295",
          "topics": [
            "0xddf252ad1be2c89b69c2b068fc378daa952ba7f163c4a11628f55a4df523b3ef",
            "0x0000000000000000000000001d1e94634fbcb767ce8650269b2c4d33280f0130",
            "0x00000000000000000000000037450c3bd3fa5f5afc5a13b80cea5ccd72746c43"
          ],
          "data": "0x0000000000000000000000000000000000000000000000056bc75e2d63100000",
          "blockHash": "0xe036351325a3de621155ad37f940e725112f74d2898d8f45d439466754851f23",
          "blockNumber": "0xd51e9a",
          "transactionHash": "0x3027bab9c2a7bd53a183dda2cb4c34f1168925c025bc9f386cac7650d9eecbba",
          "transactionIndex": "0xe",
          "logIndex": "0xce",
          "removed": false
        }
      ],
      "logsBloom": "0x00000000000000000000000000000000000000000000000000000000000000000000000000000000000000000000000000000000000000000000008000000000000000000000000000000208000000100000000000000000000000000000200000000000000000000040000000000000000000000000000000000010000000000400000000000000000000000000000000000000000400000000000000000000000000000000000000000000000000000000000000000000000000000000000000000006000002000000000000000000000000000000000000000000000000000000000000000000000000000000000000000000000000000000000000000000",
      "type": "0x2",
      "transactionHash": "0x3027bab9c2a7bd53a183dda2cb4c34f1168925c025bc9f386cac7650d9eecbba",
      "transactionIndex": "0xe",
      "blockHash": "0xe036351325a3de621155ad37f940e725112f74d2898d8f45d439466754851f23",
      "blockNumber": "0xd51e9a",
      "gasUsed": "0x86ce",
      "effectiveGasPrice": "0x1aa4b8cf0",
      "from": "0x1d1e94634fbcb767ce8650269b2c4d33280f0130",
      "to": "0x9c80f556f34d39286f2cfd145b98e93f66580295",
      "contractAddress": null,
      "l1BaseFeeScalar": "0x44d",
      "l1BlobBaseFee": "0x80e4",
      "l1BlobBaseFeeScalar": "0xa118b",
      "l1Fee": "0x1830ff066",
      "l1GasPrice": "0xdba5f895",
      "l1GasUsed": "0x640"
    },
    {
      "status": "0x1",
      "cumulativeGasUsed": "0x83357d",
      "logs": [
        {
          "address": "0x9c80f556f34d39286f2cfd145b98e93f66580295",
          "topics": [
            "0xddf252ad1be2c89b69c2b068fc378daa952ba7f163c4a11628f55a4df523b3ef",
            "0x0000000000000000000000001d1e94634fbcb767ce8650269b2c4d33280f0130",
            "0x00000000000000000000000097f040ee3e16bd3bf0116e9117f869add9cb2692"
          ],
          "data": "0x0000000000000000000000000000000000000000000000056bc75e2d63100000",
          "blockHash": "0xe036351325a3de621155ad37f940e725112f74d2898d8f45d439466754851f23",
          "blockNumber": "0xd51e9a",
          "transactionHash": "0x4fd2424a03a0f85f8dfbf843829a5d9247cc8c810106a0cd966e9e49eaf33e52",
          "transactionIndex": "0xf",
          "logIndex": "0xcf",
          "removed": false
        }
      ],
      "logsBloom": "0x00000000000000000000000000000000000000000000000000000000000000000000000000000000000000000000000000000000000000000000000000000000000000040000000000000208000000100000000000000000000000000000000000000000000000000040000000000000000000000000800000000010000000000400000000000000000000000000000000000000000000000000000000000000000000000000000000000000000000000000000000000000000000000000000000000006000002000000000000000000000000000000004000000000000000000000000000000000000000000000000000000000000000000000000000000000",
      "type": "0x2",
      "transactionHash": "0x4fd2424a03a0f85f8dfbf843829a5d9247cc8c810106a0cd966e9e49eaf33e52",
      "transactionIndex": "0xf",
      "blockHash": "0xe036351325a3de621155ad37f940e725112f74d2898d8f45d439466754851f23",
      "blockNumber": "0xd51e9a",
      "gasUsed": "0x86ce",
      "effectiveGasPrice": "0x1aa4b8cf0",
      "from": "0x1d1e94634fbcb767ce8650269b2c4d33280f0130",
      "to": "0x9c80f556f34d39286f2cfd145b98e93f66580295",
      "contractAddress": null,
      "l1BaseFeeScalar": "0x44d",
      "l1BlobBaseFee": "0x80e4",
      "l1BlobBaseFeeScalar": "0xa118b",
      "l1Fee": "0x1830ff066",
      "l1GasPrice": "0xdba5f895",
      "l1GasUsed": "0x640"
    },
    {
      "status": "0x1",
      "cumulativeGasUsed": "0x83bc4b",
      "logs": [
        {
          "address": "0x9c80f556f34d39286f2cfd145b98e93f66580295",
          "topics": [
            "0xddf252ad1be2c89b69c2b068fc378daa952ba7f163c4a11628f55a4df523b3ef",
            "0x0000000000000000000000001d1e94634fbcb767ce8650269b2c4d33280f0130",
            "0x000000000000000000000000795bd85d04405cad5a9fb16639bf5568bd5a978b"
          ],
          "data": "0x0000000000000000000000000000000000000000000000056bc75e2d63100000",
          "blockHash": "0xe036351325a3de621155ad37f940e725112f74d2898d8f45d439466754851f23",
          "blockNumber": "0xd51e9a",
          "transactionHash": "0x10129f240578969eadd9951cb3b465403e31145ea4f789c23dd27aff3e23e1b9",
          "transactionIndex": "0x10",
          "logIndex": "0xd0",
          "removed": false
        }
      ],
      "logsBloom": "0x00000000000000000000400000000000000000000000000000000000000000000000000000000000000000000000000000000000000000000008000000000000000000000000000000000208000000100000000000000000000000080000000000000000000000000040000000000000000000000000000000000010000000000400000000000000000000000000000000000000000000000000000000000000000000000000000000000000000000000000000000000000000000000000000000000006000002000000000000000000000000000000000000000000000000000000000000000000000000000000000000000000000000000000000000000000",
      "type": "0x2",
      "transactionHash": "0x10129f240578969eadd9951cb3b465403e31145ea4f789c23dd27aff3e23e1b9",
      "transactionIndex": "0x10",
      "blockHash": "0xe036351325a3de621155ad37f940e725112f74d2898d8f45d439466754851f23",
      "blockNumber": "0xd51e9a",
      "gasUsed": "0x86ce",
      "effectiveGasPrice": "0x1aa4b8cf0",
      "from": "0x1d1e94634fbcb767ce8650269b2c4d33280f0130",
      "to": "0x9c80f556f34d39286f2cfd145b98e93f66580295",
      "contractAddress": null,
      "l1BaseFeeScalar": "0x44d",
      "l1BlobBaseFee": "0x80e4",
      "l1BlobBaseFeeScalar": "0xa118b",
      "l1Fee": "0x1830ff066",
      "l1GasPrice": "0xdba5f895",
      "l1GasUsed": "0x640"
    },
    {
      "status": "0x1",
      "cumulativeGasUsed": "0x844319",
      "logs": [
        {
          "address": "0x9c80f556f34d39286f2cfd145b98e93f66580295",
          "topics": [
            "0xddf252ad1be2c89b69c2b068fc378daa952ba7f163c4a11628f55a4df523b3ef",
            "0x0000000000000000000000001d1e94634fbcb767ce8650269b2c4d33280f0130",
            "0x000000000000000000000000abdf5f14f06a1086924318789bc4754c1cd6c441"
          ],
          "data": "0x0000000000000000000000000000000000000000000000056bc75e2d63100000",
          "blockHash": "0xe036351325a3de621155ad37f940e725112f74d2898d8f45d439466754851f23",
          "blockNumber": "0xd51e9a",
          "transactionHash": "0xa5a4ec1063e44ed3cf2ae01e9da8865907fe8891548b69aea67ccb24adc2b481",
          "transactionIndex": "0x11",
          "logIndex": "0xd1",
          "removed": false
        }
      ],
      "logsBloom": "0x00000000000000000040000000000000000000000000000000000000000000000000000000000000000000000000000000000000000000000000000000000000000000000000000000000208000000100000000000000000000000000000000000000000000000000040000000000000000000000000000000000010000000000400000000000000000000000000000000000000000000000000000000000000000000000000000000000000000000000000000000000000000000000000400000000006000002000000000000000000000000000000001000000000000000000000000000000000000000000000000000000000000000000000000000000000",
      "type": "0x2",
      "transactionHash": "0xa5a4ec1063e44ed3cf2ae01e9da8865907fe8891548b69aea67ccb24adc2b481",
      "transactionIndex": "0x11",
      "blockHash": "0xe036351325a3de621155ad37f940e725112f74d2898d8f45d439466754851f23",
      "blockNumber": "0xd51e9a",
      "gasUsed": "0x86ce",
      "effectiveGasPrice": "0x1aa4b8cf0",
      "from": "0x1d1e94634fbcb767ce8650269b2c4d33280f0130",
      "to": "0x9c80f556f34d39286f2cfd145b98e93f66580295",
      "contractAddress": null,
      "l1BaseFeeScalar": "0x44d",
      "l1BlobBaseFee": "0x80e4",
      "l1BlobBaseFeeScalar": "0xa118b",
      "l1Fee": "0x1830ff066",
      "l1GasPrice": "0xdba5f895",
      "l1GasUsed": "0x640"
    },
    {
      "status": "0x1",
      "cumulativeGasUsed": "0x84c9e7",
      "logs": [
        {
          "address": "0x9c80f556f34d39286f2cfd145b98e93f66580295",
          "topics": [
            "0xddf252ad1be2c89b69c2b068fc378daa952ba7f163c4a11628f55a4df523b3ef",
            "0x0000000000000000000000001d1e94634fbcb767ce8650269b2c4d33280f0130",
            "0x0000000000000000000000008f2eb44aa42d191d32dd5063af70e09d27869518"
          ],
          "data": "0x0000000000000000000000000000000000000000000000056bc75e2d63100000",
          "blockHash": "0xe036351325a3de621155ad37f940e725112f74d2898d8f45d439466754851f23",
          "blockNumber": "0xd51e9a",
          "transactionHash": "0xc15c20bcf0214b488e981e1fbb8f2a9581d912af0a6b5dee18a1739454fe9c9b",
          "transactionIndex": "0x12",
          "logIndex": "0xd2",
          "removed": false
        }
      ],
      "logsBloom": "0x00000000000000000000000000000000000000000000000000000000000000000000000000000000000000000000000000000000000000000000000000000000000000000000000000000208000000100000000000000000000000000000000000000000000000000040000000000000000000000000000000000010000000000400000000000000000000000000000400000000000000000000100000000000000000000000000000000000000000000000000000000000000000000000000000000006000002000000000000000000000000000000000000000000000000000000000000000000000000000000000000000000000000000000000000400000",
      "type": "0x2",
      "transactionHash": "0xc15c20bcf0214b488e981e1fbb8f2a9581d912af0a6b5dee18a1739454fe9c9b",
      "transactionIndex": "0x12",
      "blockHash": "0xe036351325a3de621155ad37f940e725112f74d2898d8f45d439466754851f23",
      "blockNumber": "0xd51e9a",
      "gasUsed": "0x86ce",
      "effectiveGasPrice": "0x1aa4b8cf0",
      "from": "0x1d1e94634fbcb767ce8650269b2c4d33280f0130",
      "to": "0x9c80f556f34d39286f2cfd145b98e93f66580295",
      "contractAddress": null,
      "l1BaseFeeScalar": "0x44d",
      "l1BlobBaseFee": "0x80e4",
      "l1BlobBaseFeeScalar": "0xa118b",
      "l1Fee": "0x1830ff066",
      "l1GasPrice": "0xdba5f895",
      "l1GasUsed": "0x640"
    },
    {
      "status": "0x1",
      "cumulativeGasUsed": "0x8550b5",
      "logs": [
        {
          "address": "0x9c80f556f34d39286f2cfd145b98e93f66580295",
          "topics": [
            "0xddf252ad1be2c89b69c2b068fc378daa952ba7f163c4a11628f55a4df523b3ef",
            "0x0000000000000000000000001d1e94634fbcb767ce8650269b2c4d33280f0130",
            "0x000000000000000000000000e4b4ad9864e68e3605625a5ebf52552ab21a53da"
          ],
          "data": "0x0000000000000000000000000000000000000000000000056bc75e2d63100000",
          "blockHash": "0xe036351325a3de621155ad37f940e725112f74d2898d8f45d439466754851f23",
          "blockNumber": "0xd51e9a",
          "transactionHash": "0x4e4869a595deb63e1f266ee08be7b531d0ab6e7a359f9bec9b2d7e50fcf1aa74",
          "transactionIndex": "0x13",
          "logIndex": "0xd3",
          "removed": false
        }
      ],
      "logsBloom": "0x00000000000000000000000000000000000000000000000000000040000000000000000000000000000000000000000000000000000000000000000000000000000000000000000000000208000000100000000000000000000000000000000000000000000000000040000000000000000000000000000000000010000000000400000000000000000000000000000000000000000000000000000000000000000000000000000000000000000000000000000000000000000000000000000000000006000002000000200000000000000000000000000000000000000000000000000000100000000000000000000000000000000000000000000000000000",
      "type": "0x2",
      "transactionHash": "0x4e4869a595deb63e1f266ee08be7b531d0ab6e7a359f9bec9b2d7e50fcf1aa74",
      "transactionIndex": "0x13",
      "blockHash": "0xe036351325a3de621155ad37f940e725112f74d2898d8f45d439466754851f23",
      "blockNumber": "0xd51e9a",
      "gasUsed": "0x86ce",
      "effectiveGasPrice": "0x1aa4b8cf0",
      "from": "0x1d1e94634fbcb767ce8650269b2c4d33280f0130",
      "to": "0x9c80f556f34d39286f2cfd145b98e93f66580295",
      "contractAddress": null,
      "l1BaseFeeScalar": "0x44d",
      "l1BlobBaseFee": "0x80e4",
      "l1BlobBaseFeeScalar": "0xa118b",
      "l1Fee": "0x1830ff066",
      "l1GasPrice": "0xdba5f895",
      "l1GasUsed": "0x640"
    },
    {
      "status": "0x1",
      "cumulativeGasUsed": "0x85d783",
      "logs": [
        {
          "address": "0x9c80f556f34d39286f2cfd145b98e93f66580295",
          "topics": [
            "0xddf252ad1be2c89b69c2b068fc378daa952ba7f163c4a11628f55a4df523b3ef",
            "0x0000000000000000000000001d1e94634fbcb767ce8650269b2c4d33280f0130",
            "0x000000000000000000000000820b59263f399442ef0c3b86a25d7c515861b464"
          ],
          "data": "0x0000000000000000000000000000000000000000000000056bc75e2d63100000",
          "blockHash": "0xe036351325a3de621155ad37f940e725112f74d2898d8f45d439466754851f23",
          "blockNumber": "0xd51e9a",
          "transactionHash": "0x432d1e8ddc11c28d3e62bd023a61343c99743f90f92d919f48d13437be4be908",
          "transactionIndex": "0x14",
          "logIndex": "0xd4",
          "removed": false
        }
      ],
      "logsBloom": "0x00000000000000000000000000000000000000000000000000000000000000000000000010000000000000000000000000000000000000000000000000000000000000000000000000000208000000100000000000000000000000000000000000000000000000000040000000000000000000000000000000000010000000000400000200000000000000000000000000000000000000000000000000000000000000000000000000000000000000000000000000000000000000000000000000000006000002000000000000000000000000000000000000000000000000000000000000000000000000000000000000000000000000200000000000000000",
      "type": "0x2",
      "transactionHash": "0x432d1e8ddc11c28d3e62bd023a61343c99743f90f92d919f48d13437be4be908",
      "transactionIndex": "0x14",
      "blockHash": "0xe036351325a3de621155ad37f940e725112f74d2898d8f45d439466754851f23",
      "blockNumber": "0xd51e9a",
      "gasUsed": "0x86ce",
      "effectiveGasPrice": "0x1aa4b8cf0",
      "from": "0x1d1e94634fbcb767ce8650269b2c4d33280f0130",
      "to": "0x9c80f556f34d39286f2cfd145b98e93f66580295",
      "contractAddress": null,
      "l1BaseFeeScalar": "0x44d",
      "l1BlobBaseFee": "0x80e4",
      "l1BlobBaseFeeScalar": "0xa118b",
      "l1Fee": "0x1830ff066",
      "l1GasPrice": "0xdba5f895",
      "l1GasUsed": "0x640"
    },
    {
      "status": "0x1",
      "cumulativeGasUsed": "0x865e45",
      "logs": [
        {
          "address": "0x9c80f556f34d39286f2cfd145b98e93f66580295",
          "topics": [
            "0xddf252ad1be2c89b69c2b068fc378daa952ba7f163c4a11628f55a4df523b3ef",
            "0x0000000000000000000000001d1e94634fbcb767ce8650269b2c4d33280f0130",
            "0x0000000000000000000000002498f0515663af008227ed0440450efaedd374b6"
          ],
          "data": "0x0000000000000000000000000000000000000000000000056bc75e2d63100000",
          "blockHash": "0xe036351325a3de621155ad37f940e725112f74d2898d8f45d439466754851f23",
          "blockNumber": "0xd51e9a",
          "transactionHash": "0x8e040a63fa19a1bd2f9c2f860e7d01caf9eb9b1ba2bec8c513fe09098cede11b",
          "transactionIndex": "0x15",
          "logIndex": "0xd5",
          "removed": false
        }
      ],
      "logsBloom": "0x00000000000000000000002000000000000000000000000000000010000000100000000000000000000000000000000000000000000000000000000000000000000000000000000000000208000000100000000000000000000000000000000000000000000000000040000000000000000000000000000000000010000000000400000000000000000000000000000000000000000000000000000000000000000000000000000000000000000000000000000000000000000000000000000000000006000002000000000000000000000000000000000000000000000000000000000000000000000000000000000000000000000000000000000000000000",
      "type": "0x2",
      "transactionHash": "0x8e040a63fa19a1bd2f9c2f860e7d01caf9eb9b1ba2bec8c513fe09098cede11b",
      "transactionIndex": "0x15",
      "blockHash": "0xe036351325a3de621155ad37f940e725112f74d2898d8f45d439466754851f23",
      "blockNumber": "0xd51e9a",
      "gasUsed": "0x86c2",
      "effectiveGasPrice": "0x1aa4b8cf0",
      "from": "0x1d1e94634fbcb767ce8650269b2c4d33280f0130",
      "to": "0x9c80f556f34d39286f2cfd145b98e93f66580295",
      "contractAddress": null,
      "l1BaseFeeScalar": "0x44d",
      "l1BlobBaseFee": "0x80e4",
      "l1BlobBaseFeeScalar": "0xa118b",
      "l1Fee": "0x1830ff066",
      "l1GasPrice": "0xdba5f895",
      "l1GasUsed": "0x640"
    },
    {
      "status": "0x1",
      "cumulativeGasUsed": "0x86e513",
      "logs": [
        {
          "address": "0x9c80f556f34d39286f2cfd145b98e93f66580295",
          "topics": [
            "0xddf252ad1be2c89b69c2b068fc378daa952ba7f163c4a11628f55a4df523b3ef",
            "0x0000000000000000000000001d1e94634fbcb767ce8650269b2c4d33280f0130",
            "0x0000000000000000000000003660a2b355047dd434bf5b258e9f8d8c4d20f21d"
          ],
          "data": "0x0000000000000000000000000000000000000000000000056bc75e2d63100000",
          "blockHash": "0xe036351325a3de621155ad37f940e725112f74d2898d8f45d439466754851f23",
          "blockNumber": "0xd51e9a",
          "transactionHash": "0x7cdaf3fc60375ba069f7beafb7696477463aad23bf0f951c78dac32ffef4324d",
          "transactionIndex": "0x16",
          "logIndex": "0xd6",
          "removed": false
        }
      ],
      "logsBloom": "0x00000000000000000000000000000000000000000000000000000000000000000000000000000000000000000000000000000000000000000000000000000000000000000000000000000208000000100000000000000000000000000000000000000000000000000040000000000000000000000000000000000010000000000400000000002000000000000000000000000000000000000000000800000000000000000000000000000000000000000000000000000000000000000000000000000006000002000000000000000000000000000000000100000000000000000000000000000000000000000000000000000000000000000000000000000000",
      "type": "0x2",
      "transactionHash": "0x7cdaf3fc60375ba069f7beafb7696477463aad23bf0f951c78dac32ffef4324d",
      "transactionIndex": "0x16",
      "blockHash": "0xe036351325a3de621155ad37f940e725112f74d2898d8f45d439466754851f23",
      "blockNumber": "0xd51e9a",
      "gasUsed": "0x86ce",
      "effectiveGasPrice": "0x1aa4b8cf0",
      "from": "0x1d1e94634fbcb767ce8650269b2c4d33280f0130",
      "to": "0x9c80f556f34d39286f2cfd145b98e93f66580295",
      "contractAddress": null,
      "l1BaseFeeScalar": "0x44d",
      "l1BlobBaseFee": "0x80e4",
      "l1BlobBaseFeeScalar": "0xa118b",
      "l1Fee": "0x1830ff066",
      "l1GasPrice": "0xdba5f895",
      "l1GasUsed": "0x640"
    },
    {
      "status": "0x1",
      "cumulativeGasUsed": "0x876be1",
      "logs": [
        {
          "address": "0x9c80f556f34d39286f2cfd145b98e93f66580295",
          "topics": [
            "0xddf252ad1be2c89b69c2b068fc378daa952ba7f163c4a11628f55a4df523b3ef",
            "0x0000000000000000000000001d1e94634fbcb767ce8650269b2c4d33280f0130",
            "0x000000000000000000000000584ded47c060ae1c3fe0f38549d854607d488b40"
          ],
          "data": "0x0000000000000000000000000000000000000000000000056bc75e2d63100000",
          "blockHash": "0xe036351325a3de621155ad37f940e725112f74d2898d8f45d439466754851f23",
          "blockNumber": "0xd51e9a",
          "transactionHash": "0x06c269cc0ef6f8af9c35bcbd3906a96e72f68db27a0c025a8034da538192dc03",
          "transactionIndex": "0x17",
          "logIndex": "0xd7",
          "removed": false
        }
      ],
      "logsBloom": "0x00000000000000000000000000000000000000000000000000000000000000000000000000000000000000000000000000000000000020000000000000000000000000000000000000000208000000100000000000000000000000000000000000000000000000000040000000000000000000000000000000000010000000000400000000000000000000000000000000000000000000000020000000000000100000000000000000000000000000000000000000000000000000000000000000000006000002000000000000000000000000000000000000000000000000000000000000000000000000000000000000000000000000000000000000000000",
      "type": "0x2",
      "transactionHash": "0x06c269cc0ef6f8af9c35bcbd3906a96e72f68db27a0c025a8034da538192dc03",
      "transactionIndex": "0x17",
      "blockHash": "0xe036351325a3de621155ad37f940e725112f74d2898d8f45d439466754851f23",
      "blockNumber": "0xd51e9a",
      "gasUsed": "0x86ce",
      "effectiveGasPrice": "0x1aa4b8cf0",
      "from": "0x1d1e94634fbcb767ce8650269b2c4d33280f0130",
      "to": "0x9c80f556f34d39286f2cfd145b98e93f66580295",
      "contractAddress": null,
      "l1BaseFeeScalar": "0x44d",
      "l1BlobBaseFee": "0x80e4",
      "l1BlobBaseFeeScalar": "0xa118b",
      "l1Fee": "0x1830ff066",
      "l1GasPrice": "0xdba5f895",
      "l1GasUsed": "0x640"
    },
    {
      "status": "0x1",
      "cumulativeGasUsed": "0x87f2af",
      "logs": [
        {
          "address": "0x9c80f556f34d39286f2cfd145b98e93f66580295",
          "topics": [
            "0xddf252ad1be2c89b69c2b068fc378daa952ba7f163c4a11628f55a4df523b3ef",
            "0x0000000000000000000000001d1e94634fbcb767ce8650269b2c4d33280f0130",
            "0x0000000000000000000000008827df1a64f3ba03f6ffd1b18b9fadecbb53ca4f"
          ],
          "data": "0x0000000000000000000000000000000000000000000000056bc75e2d63100000",
          "blockHash": "0xe036351325a3de621155ad37f940e725112f74d2898d8f45d439466754851f23",
          "blockNumber": "0xd51e9a",
          "transactionHash": "0xe0a97f9dc9b9f46fff71340e012a318d6923108ee52fdaa0608acc254c37c53a",
          "transactionIndex": "0x18",
          "logIndex": "0xd8",
          "removed": false
        }
      ],
      "logsBloom": "0x00000000000000000000000000000000000000000000000000000000000200000000000000000000000000000000000000000000000000000000000000000000000000000000000000000208000000100000000000000000000000000000000000000000000000000040000000000000000000400000000000000010000000000400000000000000000000000000000000000000000000000000000000000000000000000000000000000000000000000000000000000000000000000000000000000006000002000000000000000000000000000000000000000000000000000000000000000000000000000000000000000000010000000000000000000000",
      "type": "0x2",
      "transactionHash": "0xe0a97f9dc9b9f46fff71340e012a318d6923108ee52fdaa0608acc254c37c53a",
      "transactionIndex": "0x18",
      "blockHash": "0xe036351325a3de621155ad37f940e725112f74d2898d8f45d439466754851f23",
      "blockNumber": "0xd51e9a",
      "gasUsed": "0x86ce",
      "effectiveGasPrice": "0x1aa4b8cf0",
      "from": "0x1d1e94634fbcb767ce8650269b2c4d33280f0130",
      "to": "0x9c80f556f34d39286f2cfd145b98e93f66580295",
      "contractAddress": null,
      "l1BaseFeeScalar": "0x44d",
      "l1BlobBaseFee": "0x80e4",
      "l1BlobBaseFeeScalar": "0xa118b",
      "l1Fee": "0x1830ff066",
      "l1GasPrice": "0xdba5f895",
      "l1GasUsed": "0x640"
    },
    {
      "status": "0x1",
      "cumulativeGasUsed": "0x88bc49",
      "logs": [
        {
          "address": "0x9c80f556f34d39286f2cfd145b98e93f66580295",
          "topics": [
            "0xddf252ad1be2c89b69c2b068fc378daa952ba7f163c4a11628f55a4df523b3ef",
            "0x0000000000000000000000001d1e94634fbcb767ce8650269b2c4d33280f0130",
            "0x0000000000000000000000003f248482cf38ec62a6035a2962bda8c530bccc3a"
          ],
          "data": "0x0000000000000000000000000000000000000000000000056bc75e2d63100000",
          "blockHash": "0xe036351325a3de621155ad37f940e725112f74d2898d8f45d439466754851f23",
          "blockNumber": "0xd51e9a",
          "transactionHash": "0xfbea4272aae9653303e9696d9e460c31c1921b45fddc44b5fe1ece7368048015",
          "transactionIndex": "0x19",
          "logIndex": "0xd9",
          "removed": false
        }
      ],
      "logsBloom": "0x00000000000000000000000000000000000000000000000000000001000000000000000000000000000000000000000000000000000000000000000000000000000000000000000000000208000400100000000000000000000000000000000000000000000000000040000000000000000000000000000000000010000000000400000000000000000000000000000000000000000000000000000000000000000000000000000000000000000000000000000000000000000000000000000000000006000002000000000000000000040000000000000000000000000000000000000000000000000000000000000000000000000000000000000000000000",
      "type": "0x2",
      "transactionHash": "0xfbea4272aae9653303e9696d9e460c31c1921b45fddc44b5fe1ece7368048015",
      "transactionIndex": "0x19",
      "blockHash": "0xe036351325a3de621155ad37f940e725112f74d2898d8f45d439466754851f23",
      "blockNumber": "0xd51e9a",
      "gasUsed": "0xc99a",
      "effectiveGasPrice": "0x1aa4b8cf0",
      "from": "0x1d1e94634fbcb767ce8650269b2c4d33280f0130",
      "to": "0x9c80f556f34d39286f2cfd145b98e93f66580295",
      "contractAddress": null,
      "l1BaseFeeScalar": "0x44d",
      "l1BlobBaseFee": "0x80e4",
      "l1BlobBaseFeeScalar": "0xa118b",
      "l1Fee": "0x1830ff066",
      "l1GasPrice": "0xdba5f895",
      "l1GasUsed": "0x640"
    },
    {
      "status": "0x1",
      "cumulativeGasUsed": "0x672979",
      "logs": [
        {
          "address": "0x9c80f556f34d39286f2cfd145b98e93f66580295",
          "topics": [
            "0xddf252ad1be2c89b69c2b068fc378daa952ba7f163c4a11628f55a4df523b3ef",
            "0x0000000000000000000000001d1e94634fbcb767ce8650269b2c4d33280f0130",
            "0x000000000000000000000000bfba54563eb9fd30d77bc3b2c2c2188f92f508cb"
          ],
          "data": "0x0000000000000000000000000000000000000000000000056bc75e2d63100000",
          "blockHash": "0x141b2f5975207ab8b9b52445221afedbc4bff49c8d8dde95b948e999a9c90716",
          "blockNumber": "0xd51e9b",
          "transactionHash": "0x967f00f85a6a47653e04dc5e6aae94a77294ea60878eb6aa4c56b279edc7d59f",
          "transactionIndex": "0x16",
          "logIndex": "0xa7",
          "removed": false
        }
      ],
      "logsBloom": "0x00000000000000000000000000000000000000000000000000000020000000000000000000000000000000000000000000000000000000000000000000000000000000000000000000000208000000100000000000000000000000000000000000000000000000000040000000000000000000000000000000000010000000000400000000000000000000000000000000000000000000000000000000000000000000000000000000000000000000000000000000000000000000000000000000000006000022000000000000000000000000000000000000000000000000000000000080000000000000000000000000000000000000000000000000000000",
      "type": "0x2",
      "transactionHash": "0x967f00f85a6a47653e04dc5e6aae94a77294ea60878eb6aa4c56b279edc7d59f",
      "transactionIndex": "0x16",
      "blockHash": "0x141b2f5975207ab8b9b52445221afedbc4bff49c8d8dde95b948e999a9c90716",
      "blockNumber": "0xd51e9b",
      "gasUsed": "0xc99a",
      "effectiveGasPrice": "0x1abdcac16",
      "from": "0x1d1e94634fbcb767ce8650269b2c4d33280f0130",
      "to": "0x9c80f556f34d39286f2cfd145b98e93f66580295",
      "contractAddress": null,
      "l1BaseFeeScalar": "0x44d",
      "l1BlobBaseFee": "0x80e4",
      "l1BlobBaseFeeScalar": "0xa118b",
      "l1Fee": "0x1830ff066",
      "l1GasPrice": "0xdba5f895",
      "l1GasUsed": "0x640"
    }
  ],
  "libraries": [],
  "pending": [],
  "returns": {},
  "timestamp": 1723702298,
  "chain": 84532,
  "commit": "50f07b9"
}