{
  "transactions": [
    {
      "hash": "0x93e889e5f44832cde5600f390d973ba88c2236a65a5d6198b54ed73eda36932e",
      "transactionType": "CALL",
      "contractName": null,
      "contractAddress": "0x9c80f556f34d39286f2cfd145b98e93f66580295",
      "function": "transfer(address,uint256)",
      "arguments": [
        "0x0488CaA0847a315e1B76d6F7Af42caae7dd5fDbE",
        "100000000000000000000"
      ],
      "transaction": {
        "from": "0x1d1e94634fbcb767ce8650269b2c4d33280f0130",
        "to": "0x9c80f556f34d39286f2cfd145b98e93f66580295",
        "gas": "0x126d7",
        "value": "0x0",
        "input": "0xa9059cbb0000000000000000000000000488caa0847a315e1b76d6f7af42caae7dd5fdbe0000000000000000000000000000000000000000000000056bc75e2d63100000",
        "nonce": "0x2aa",
        "chainId": "0x14a34"
      },
      "additionalContracts": [],
      "isFixedGasLimit": false
    },
    {
      "hash": "0x9f604294a5155c0425e33a837ac28932758ae9cf6114e8bb0770d334c1e49e7f",
      "transactionType": "CALL",
      "contractName": null,
      "contractAddress": "0x9c80f556f34d39286f2cfd145b98e93f66580295",
      "function": "transfer(address,uint256)",
      "arguments": [
        "0xE570B47230379ed9a83eBc335Aa0928C6f798272",
        "100000000000000000000"
      ],
      "transaction": {
        "from": "0x1d1e94634fbcb767ce8650269b2c4d33280f0130",
        "to": "0x9c80f556f34d39286f2cfd145b98e93f66580295",
        "gas": "0x126d7",
        "value": "0x0",
        "input": "0xa9059cbb000000000000000000000000e570b47230379ed9a83ebc335aa0928c6f7982720000000000000000000000000000000000000000000000056bc75e2d63100000",
        "nonce": "0x2ab",
        "chainId": "0x14a34"
      },
      "additionalContracts": [],
      "isFixedGasLimit": false
    },
    {
      "hash": "0x612657dea7d84e13f0826456d08ae38b367e12cb74b686d708ba0f01c3889647",
      "transactionType": "CALL",
      "contractName": null,
      "contractAddress": "0x9c80f556f34d39286f2cfd145b98e93f66580295",
      "function": "transfer(address,uint256)",
      "arguments": [
        "0xece84B524e3E70c2d97080e0fEe140e27583b319",
        "100000000000000000000"
      ],
      "transaction": {
        "from": "0x1d1e94634fbcb767ce8650269b2c4d33280f0130",
        "to": "0x9c80f556f34d39286f2cfd145b98e93f66580295",
        "gas": "0x126d7",
        "value": "0x0",
        "input": "0xa9059cbb000000000000000000000000ece84b524e3e70c2d97080e0fee140e27583b3190000000000000000000000000000000000000000000000056bc75e2d63100000",
        "nonce": "0x2ac",
        "chainId": "0x14a34"
      },
      "additionalContracts": [],
      "isFixedGasLimit": false
    },
    {
      "hash": "0x6f1cee7ae75a983ec3bb3af176273158f3cf061916d5d5f57a53794a0506466e",
      "transactionType": "CALL",
      "contractName": null,
      "contractAddress": "0x9c80f556f34d39286f2cfd145b98e93f66580295",
      "function": "transfer(address,uint256)",
      "arguments": [
        "0x3e6d1AB01613154C190A2E8f9E6132C48b935F3A",
        "100000000000000000000"
      ],
      "transaction": {
        "from": "0x1d1e94634fbcb767ce8650269b2c4d33280f0130",
        "to": "0x9c80f556f34d39286f2cfd145b98e93f66580295",
        "gas": "0x126d7",
        "value": "0x0",
        "input": "0xa9059cbb0000000000000000000000003e6d1ab01613154c190a2e8f9e6132c48b935f3a0000000000000000000000000000000000000000000000056bc75e2d63100000",
        "nonce": "0x2ad",
        "chainId": "0x14a34"
      },
      "additionalContracts": [],
      "isFixedGasLimit": false
    },
    {
      "hash": "0x8677ef45062c32b2f15ad5ee951ccfebdfc2e52d845aaa6d5a81b1466f52aa66",
      "transactionType": "CALL",
      "contractName": null,
      "contractAddress": "0x9c80f556f34d39286f2cfd145b98e93f66580295",
      "function": "transfer(address,uint256)",
      "arguments": [
        "0x1f6B36cC1d9ADe3713f58543dB3C57da4E841599",
        "100000000000000000000"
      ],
      "transaction": {
        "from": "0x1d1e94634fbcb767ce8650269b2c4d33280f0130",
        "to": "0x9c80f556f34d39286f2cfd145b98e93f66580295",
        "gas": "0x126d7",
        "value": "0x0",
        "input": "0xa9059cbb0000000000000000000000001f6b36cc1d9ade3713f58543db3c57da4e8415990000000000000000000000000000000000000000000000056bc75e2d63100000",
        "nonce": "0x2ae",
        "chainId": "0x14a34"
      },
      "additionalContracts": [],
      "isFixedGasLimit": false
    },
    {
      "hash": "0x779fdf0bb283b018a111cbef2c6d6009394f188ed8fe2f468a55a80fd9fe9c7b",
      "transactionType": "CALL",
      "contractName": null,
      "contractAddress": "0x9c80f556f34d39286f2cfd145b98e93f66580295",
      "function": "transfer(address,uint256)",
      "arguments": [
        "0x1f065310AED94f8fB9DF2e2Bf1201db936586fC0",
        "100000000000000000000"
      ],
      "transaction": {
        "from": "0x1d1e94634fbcb767ce8650269b2c4d33280f0130",
        "to": "0x9c80f556f34d39286f2cfd145b98e93f66580295",
        "gas": "0x126d7",
        "value": "0x0",
        "input": "0xa9059cbb0000000000000000000000001f065310aed94f8fb9df2e2bf1201db936586fc00000000000000000000000000000000000000000000000056bc75e2d63100000",
        "nonce": "0x2af",
        "chainId": "0x14a34"
      },
      "additionalContracts": [],
      "isFixedGasLimit": false
    },
    {
      "hash": "0x7661d20c3efa79adf263f312fdc800a33f8bbb9e09a57cdbb930aaf373c0aebe",
      "transactionType": "CALL",
      "contractName": null,
      "contractAddress": "0x9c80f556f34d39286f2cfd145b98e93f66580295",
      "function": "transfer(address,uint256)",
      "arguments": [
        "0xf71D046F4e6f9407f3e913cba7A3D8FC0f652f76",
        "100000000000000000000"
      ],
      "transaction": {
        "from": "0x1d1e94634fbcb767ce8650269b2c4d33280f0130",
        "to": "0x9c80f556f34d39286f2cfd145b98e93f66580295",
        "gas": "0x126d7",
        "value": "0x0",
        "input": "0xa9059cbb000000000000000000000000f71d046f4e6f9407f3e913cba7a3d8fc0f652f760000000000000000000000000000000000000000000000056bc75e2d63100000",
        "nonce": "0x2b0",
        "chainId": "0x14a34"
      },
      "additionalContracts": [],
      "isFixedGasLimit": false
    },
    {
      "hash": "0x007c5b4f5cea1c8c647a2dce3aedc39cb95a1ad7094238195812e083f338771a",
      "transactionType": "CALL",
      "contractName": null,
      "contractAddress": "0x9c80f556f34d39286f2cfd145b98e93f66580295",
      "function": "transfer(address,uint256)",
      "arguments": [
        "0xAE5eD1f565ACb9b4254af0e1792505499acCdd8B",
        "100000000000000000000"
      ],
      "transaction": {
        "from": "0x1d1e94634fbcb767ce8650269b2c4d33280f0130",
        "to": "0x9c80f556f34d39286f2cfd145b98e93f66580295",
        "gas": "0x126d7",
        "value": "0x0",
        "input": "0xa9059cbb000000000000000000000000ae5ed1f565acb9b4254af0e1792505499accdd8b0000000000000000000000000000000000000000000000056bc75e2d63100000",
        "nonce": "0x2b1",
        "chainId": "0x14a34"
      },
      "additionalContracts": [],
      "isFixedGasLimit": false
    },
    {
      "hash": "0xbbd06a4ff0a8a5ff65aab578ab93f715d3f461f0e01716fbaed1a11aca9838f6",
      "transactionType": "CALL",
      "contractName": null,
      "contractAddress": "0x9c80f556f34d39286f2cfd145b98e93f66580295",
      "function": "transfer(address,uint256)",
      "arguments": [
        "0x13088F336c918b1b31Eb7ecE87752EBC86c312Bb",
        "100000000000000000000"
      ],
      "transaction": {
        "from": "0x1d1e94634fbcb767ce8650269b2c4d33280f0130",
        "to": "0x9c80f556f34d39286f2cfd145b98e93f66580295",
        "gas": "0x126d7",
        "value": "0x0",
        "input": "0xa9059cbb00000000000000000000000013088f336c918b1b31eb7ece87752ebc86c312bb0000000000000000000000000000000000000000000000056bc75e2d63100000",
        "nonce": "0x2b2",
        "chainId": "0x14a34"
      },
      "additionalContracts": [],
      "isFixedGasLimit": false
    },
    {
      "hash": "0x870b3a49269de93374bd1cf24bad997908e7e284eeadf0aad53e09847a1a2593",
      "transactionType": "CALL",
      "contractName": null,
      "contractAddress": "0x9c80f556f34d39286f2cfd145b98e93f66580295",
      "function": "transfer(address,uint256)",
      "arguments": [
        "0x5AaACB69D94c08E99dfCFF125BBA6b9061A2a94a",
        "100000000000000000000"
      ],
      "transaction": {
        "from": "0x1d1e94634fbcb767ce8650269b2c4d33280f0130",
        "to": "0x9c80f556f34d39286f2cfd145b98e93f66580295",
        "gas": "0x126d7",
        "value": "0x0",
        "input": "0xa9059cbb0000000000000000000000005aaacb69d94c08e99dfcff125bba6b9061a2a94a0000000000000000000000000000000000000000000000056bc75e2d63100000",
        "nonce": "0x2b3",
        "chainId": "0x14a34"
      },
      "additionalContracts": [],
      "isFixedGasLimit": false
    },
    {
      "hash": "0x122d56cd486ab1d1660938e93e4ccc1db72936ac57ae73be45334a2c09c44262",
      "transactionType": "CALL",
      "contractName": null,
      "contractAddress": "0x9c80f556f34d39286f2cfd145b98e93f66580295",
      "function": "transfer(address,uint256)",
      "arguments": [
        "0xE2986606527910bfDbbc55219565c5B997e56153",
        "100000000000000000000"
      ],
      "transaction": {
        "from": "0x1d1e94634fbcb767ce8650269b2c4d33280f0130",
        "to": "0x9c80f556f34d39286f2cfd145b98e93f66580295",
        "gas": "0x126d7",
        "value": "0x0",
        "input": "0xa9059cbb000000000000000000000000e2986606527910bfdbbc55219565c5b997e561530000000000000000000000000000000000000000000000056bc75e2d63100000",
        "nonce": "0x2b4",
        "chainId": "0x14a34"
      },
      "additionalContracts": [],
      "isFixedGasLimit": false
    },
    {
      "hash": "0x33aea6c6afeaf0efbfb449513a9108f495d1aa1277fd020a3ad2627fbb6db413",
      "transactionType": "CALL",
      "contractName": null,
      "contractAddress": "0x9c80f556f34d39286f2cfd145b98e93f66580295",
      "function": "transfer(address,uint256)",
      "arguments": [
        "0x9d12b861e6d78478902d20477a1F422367c647B4",
        "100000000000000000000"
      ],
      "transaction": {
        "from": "0x1d1e94634fbcb767ce8650269b2c4d33280f0130",
        "to": "0x9c80f556f34d39286f2cfd145b98e93f66580295",
        "gas": "0x126d7",
        "value": "0x0",
        "input": "0xa9059cbb0000000000000000000000009d12b861e6d78478902d20477a1f422367c647b40000000000000000000000000000000000000000000000056bc75e2d63100000",
        "nonce": "0x2b5",
        "chainId": "0x14a34"
      },
      "additionalContracts": [],
      "isFixedGasLimit": false
    },
    {
      "hash": "0x58dc150adbe46574044e1bdd120ca6b9ec44a28352e7b5678961096b10baa610",
      "transactionType": "CALL",
      "contractName": null,
      "contractAddress": "0x9c80f556f34d39286f2cfd145b98e93f66580295",
      "function": "transfer(address,uint256)",
      "arguments": [
        "0x2b58515C803E960D83F89628176394Fb6C1Ee913",
        "100000000000000000000"
      ],
      "transaction": {
        "from": "0x1d1e94634fbcb767ce8650269b2c4d33280f0130",
        "to": "0x9c80f556f34d39286f2cfd145b98e93f66580295",
        "gas": "0x126d7",
        "value": "0x0",
        "input": "0xa9059cbb0000000000000000000000002b58515c803e960d83f89628176394fb6c1ee9130000000000000000000000000000000000000000000000056bc75e2d63100000",
        "nonce": "0x2b6",
        "chainId": "0x14a34"
      },
      "additionalContracts": [],
      "isFixedGasLimit": false
    },
    {
      "hash": "0xb95091aaf637155322e81f289b753b90b244319659abc02f665656e2e739517c",
      "transactionType": "CALL",
      "contractName": null,
      "contractAddress": "0x9c80f556f34d39286f2cfd145b98e93f66580295",
      "function": "transfer(address,uint256)",
      "arguments": [
        "0x8cDBE20FfbA52C57Af99C6e30ca6a97065A93B13",
        "100000000000000000000"
      ],
      "transaction": {
        "from": "0x1d1e94634fbcb767ce8650269b2c4d33280f0130",
        "to": "0x9c80f556f34d39286f2cfd145b98e93f66580295",
        "gas": "0x126d7",
        "value": "0x0",
        "input": "0xa9059cbb0000000000000000000000008cdbe20ffba52c57af99c6e30ca6a97065a93b130000000000000000000000000000000000000000000000056bc75e2d63100000",
        "nonce": "0x2b7",
        "chainId": "0x14a34"
      },
      "additionalContracts": [],
      "isFixedGasLimit": false
    },
    {
      "hash": "0xc89631b96353d27e780dc79583595cd5781a77a51e8275224ee216d57351c746",
      "transactionType": "CALL",
      "contractName": null,
      "contractAddress": "0x9c80f556f34d39286f2cfd145b98e93f66580295",
      "function": "transfer(address,uint256)",
      "arguments": [
        "0x907796932Ba29419F4516AA727D437FaAdf6F87F",
        "100000000000000000000"
      ],
      "transaction": {
        "from": "0x1d1e94634fbcb767ce8650269b2c4d33280f0130",
        "to": "0x9c80f556f34d39286f2cfd145b98e93f66580295",
        "gas": "0x126d7",
        "value": "0x0",
        "input": "0xa9059cbb000000000000000000000000907796932ba29419f4516aa727d437faadf6f87f0000000000000000000000000000000000000000000000056bc75e2d63100000",
        "nonce": "0x2b8",
        "chainId": "0x14a34"
      },
      "additionalContracts": [],
      "isFixedGasLimit": false
    },
    {
      "hash": "0x55d8115ec3d3f70eae76085498905b485793f2f085d9ee16af573a4abbb5ba54",
      "transactionType": "CALL",
      "contractName": null,
      "contractAddress": "0x9c80f556f34d39286f2cfd145b98e93f66580295",
      "function": "transfer(address,uint256)",
      "arguments": [
        "0xf3BA20897d1300f84915bEc5Ce375F678250557a",
        "100000000000000000000"
      ],
      "transaction": {
        "from": "0x1d1e94634fbcb767ce8650269b2c4d33280f0130",
        "to": "0x9c80f556f34d39286f2cfd145b98e93f66580295",
        "gas": "0x11664",
        "value": "0x0",
        "input": "0xa9059cbb000000000000000000000000f3ba20897d1300f84915bec5ce375f678250557a0000000000000000000000000000000000000000000000056bc75e2d63100000",
        "nonce": "0x2b9",
        "chainId": "0x14a34"
      },
      "additionalContracts": [],
      "isFixedGasLimit": false
    },
    {
      "hash": "0x3b2e8b4bc7df00a7b5256b297048afd93de6ce1b9a8693f6b24339467d487171",
      "transactionType": "CALL",
      "contractName": null,
      "contractAddress": "0x9c80f556f34d39286f2cfd145b98e93f66580295",
      "function": "transfer(address,uint256)",
      "arguments": [
        "0x77Fa2529e830a1fB4EbCd83CE0281912c5CC4Ebc",
        "100000000000000000000"
      ],
      "transaction": {
        "from": "0x1d1e94634fbcb767ce8650269b2c4d33280f0130",
        "to": "0x9c80f556f34d39286f2cfd145b98e93f66580295",
        "gas": "0x126d7",
        "value": "0x0",
        "input": "0xa9059cbb00000000000000000000000077fa2529e830a1fb4ebcd83ce0281912c5cc4ebc0000000000000000000000000000000000000000000000056bc75e2d63100000",
        "nonce": "0x2ba",
        "chainId": "0x14a34"
      },
      "additionalContracts": [],
      "isFixedGasLimit": false
    },
    {
      "hash": "0x8b1864a99a9ca31657ad581f44a0509ce85c4376ab5f96340861fc6c402d2b55",
      "transactionType": "CALL",
      "contractName": null,
      "contractAddress": "0x9c80f556f34d39286f2cfd145b98e93f66580295",
      "function": "transfer(address,uint256)",
      "arguments": [
        "0x37450C3bD3FA5F5Afc5A13b80CeA5ccD72746C43",
        "100000000000000000000"
      ],
      "transaction": {
        "from": "0x1d1e94634fbcb767ce8650269b2c4d33280f0130",
        "to": "0x9c80f556f34d39286f2cfd145b98e93f66580295",
        "gas": "0x126d7",
        "value": "0x0",
        "input": "0xa9059cbb00000000000000000000000037450c3bd3fa5f5afc5a13b80cea5ccd72746c430000000000000000000000000000000000000000000000056bc75e2d63100000",
        "nonce": "0x2bb",
        "chainId": "0x14a34"
      },
      "additionalContracts": [],
      "isFixedGasLimit": false
    },
    {
      "hash": "0x7e6ccd7c09046b5bcfe5561a16d95aab05f9fdafd23c3370635d3c009fb952d3",
      "transactionType": "CALL",
      "contractName": null,
      "contractAddress": "0x9c80f556f34d39286f2cfd145b98e93f66580295",
      "function": "transfer(address,uint256)",
      "arguments": [
        "0x97F040eE3e16BD3BF0116e9117f869ADD9Cb2692",
        "100000000000000000000"
      ],
      "transaction": {
        "from": "0x1d1e94634fbcb767ce8650269b2c4d33280f0130",
        "to": "0x9c80f556f34d39286f2cfd145b98e93f66580295",
        "gas": "0x126d7",
        "value": "0x0",
        "input": "0xa9059cbb00000000000000000000000097f040ee3e16bd3bf0116e9117f869add9cb26920000000000000000000000000000000000000000000000056bc75e2d63100000",
        "nonce": "0x2bc",
        "chainId": "0x14a34"
      },
      "additionalContracts": [],
      "isFixedGasLimit": false
    },
    {
      "hash": "0x3e044bd5e78f3b87d895137b2072297f3817de409a0a4b2ef112604b9f97f55b",
      "transactionType": "CALL",
      "contractName": null,
      "contractAddress": "0x9c80f556f34d39286f2cfd145b98e93f66580295",
      "function": "transfer(address,uint256)",
      "arguments": [
        "0x795BD85d04405Cad5a9fb16639Bf5568bd5a978b",
        "100000000000000000000"
      ],
      "transaction": {
        "from": "0x1d1e94634fbcb767ce8650269b2c4d33280f0130",
        "to": "0x9c80f556f34d39286f2cfd145b98e93f66580295",
        "gas": "0x126d7",
        "value": "0x0",
        "input": "0xa9059cbb000000000000000000000000795bd85d04405cad5a9fb16639bf5568bd5a978b0000000000000000000000000000000000000000000000056bc75e2d63100000",
        "nonce": "0x2bd",
        "chainId": "0x14a34"
      },
      "additionalContracts": [],
      "isFixedGasLimit": false
    },
    {
      "hash": "0x442b3cd5668e040c4e51d92ff945b8d26d07eb72b3d1b9ce6af985b4b139863b",
      "transactionType": "CALL",
      "contractName": null,
      "contractAddress": "0x9c80f556f34d39286f2cfd145b98e93f66580295",
      "function": "transfer(address,uint256)",
      "arguments": [
        "0xabdF5f14f06A1086924318789bC4754c1Cd6c441",
        "100000000000000000000"
      ],
      "transaction": {
        "from": "0x1d1e94634fbcb767ce8650269b2c4d33280f0130",
        "to": "0x9c80f556f34d39286f2cfd145b98e93f66580295",
        "gas": "0x126d7",
        "value": "0x0",
        "input": "0xa9059cbb000000000000000000000000abdf5f14f06a1086924318789bc4754c1cd6c4410000000000000000000000000000000000000000000000056bc75e2d63100000",
        "nonce": "0x2be",
        "chainId": "0x14a34"
      },
      "additionalContracts": [],
      "isFixedGasLimit": false
    },
    {
      "hash": "0xf5529e5d141d276b1ddc192b65193eaa59ffa576393c82c89cc7cd29220be9b7",
      "transactionType": "CALL",
      "contractName": null,
      "contractAddress": "0x9c80f556f34d39286f2cfd145b98e93f66580295",
      "function": "transfer(address,uint256)",
      "arguments": [
        "0x8F2eB44aa42D191D32dd5063Af70E09d27869518",
        "100000000000000000000"
      ],
      "transaction": {
        "from": "0x1d1e94634fbcb767ce8650269b2c4d33280f0130",
        "to": "0x9c80f556f34d39286f2cfd145b98e93f66580295",
        "gas": "0x126d7",
        "value": "0x0",
        "input": "0xa9059cbb0000000000000000000000008f2eb44aa42d191d32dd5063af70e09d278695180000000000000000000000000000000000000000000000056bc75e2d63100000",
        "nonce": "0x2bf",
        "chainId": "0x14a34"
      },
      "additionalContracts": [],
      "isFixedGasLimit": false
    },
    {
      "hash": "0xd7a23df7b4588c31118a4ba6f135b9d6921b69c7330420d0a35e787c0229b9c9",
      "transactionType": "CALL",
      "contractName": null,
      "contractAddress": "0x9c80f556f34d39286f2cfd145b98e93f66580295",
      "function": "transfer(address,uint256)",
      "arguments": [
        "0xe4B4ad9864E68E3605625A5ebf52552aB21A53Da",
        "100000000000000000000"
      ],
      "transaction": {
        "from": "0x1d1e94634fbcb767ce8650269b2c4d33280f0130",
        "to": "0x9c80f556f34d39286f2cfd145b98e93f66580295",
        "gas": "0x126d7",
        "value": "0x0",
        "input": "0xa9059cbb000000000000000000000000e4b4ad9864e68e3605625a5ebf52552ab21a53da0000000000000000000000000000000000000000000000056bc75e2d63100000",
        "nonce": "0x2c0",
        "chainId": "0x14a34"
      },
      "additionalContracts": [],
      "isFixedGasLimit": false
    },
    {
      "hash": "0x60261715cc3caaa46c1b1412fca89c5344b06d33c289955156d572017bf578a1",
      "transactionType": "CALL",
      "contractName": null,
      "contractAddress": "0x9c80f556f34d39286f2cfd145b98e93f66580295",
      "function": "transfer(address,uint256)",
      "arguments": [
        "0x820b59263f399442ef0c3b86A25D7c515861b464",
        "100000000000000000000"
      ],
      "transaction": {
        "from": "0x1d1e94634fbcb767ce8650269b2c4d33280f0130",
        "to": "0x9c80f556f34d39286f2cfd145b98e93f66580295",
        "gas": "0x126d7",
        "value": "0x0",
        "input": "0xa9059cbb000000000000000000000000820b59263f399442ef0c3b86a25d7c515861b4640000000000000000000000000000000000000000000000056bc75e2d63100000",
        "nonce": "0x2c1",
        "chainId": "0x14a34"
      },
      "additionalContracts": [],
      "isFixedGasLimit": false
    },
    {
      "hash": "0xa9de8ca3785993b7dbf63693801e3500de28ee947df5476396f2b5efef156829",
      "transactionType": "CALL",
      "contractName": null,
      "contractAddress": "0x9c80f556f34d39286f2cfd145b98e93f66580295",
      "function": "transfer(address,uint256)",
      "arguments": [
        "0x2498F0515663aF008227eD0440450EFAEdD374b6",
        "100000000000000000000"
      ],
      "transaction": {
        "from": "0x1d1e94634fbcb767ce8650269b2c4d33280f0130",
        "to": "0x9c80f556f34d39286f2cfd145b98e93f66580295",
        "gas": "0x11664",
        "value": "0x0",
        "input": "0xa9059cbb0000000000000000000000002498f0515663af008227ed0440450efaedd374b60000000000000000000000000000000000000000000000056bc75e2d63100000",
        "nonce": "0x2c2",
        "chainId": "0x14a34"
      },
      "additionalContracts": [],
      "isFixedGasLimit": false
    },
    {
      "hash": "0x1856b0d7983ebc5e84b263b90d0fcee95923f346dc17ab519b911076fb4c1ef6",
      "transactionType": "CALL",
      "contractName": null,
      "contractAddress": "0x9c80f556f34d39286f2cfd145b98e93f66580295",
      "function": "transfer(address,uint256)",
      "arguments": [
        "0x3660a2B355047DD434BF5B258E9F8D8C4d20F21D",
        "100000000000000000000"
      ],
      "transaction": {
        "from": "0x1d1e94634fbcb767ce8650269b2c4d33280f0130",
        "to": "0x9c80f556f34d39286f2cfd145b98e93f66580295",
        "gas": "0x126d7",
        "value": "0x0",
        "input": "0xa9059cbb0000000000000000000000003660a2b355047dd434bf5b258e9f8d8c4d20f21d0000000000000000000000000000000000000000000000056bc75e2d63100000",
        "nonce": "0x2c3",
        "chainId": "0x14a34"
      },
      "additionalContracts": [],
      "isFixedGasLimit": false
    },
    {
      "hash": "0xc4dd442af5aa0226a08f99e2fff9b0e6b24e265791e130f496693513e5a97abc",
      "transactionType": "CALL",
      "contractName": null,
      "contractAddress": "0x9c80f556f34d39286f2cfd145b98e93f66580295",
      "function": "transfer(address,uint256)",
      "arguments": [
        "0x584deD47c060AE1c3FE0f38549D854607d488b40",
        "100000000000000000000"
      ],
      "transaction": {
        "from": "0x1d1e94634fbcb767ce8650269b2c4d33280f0130",
        "to": "0x9c80f556f34d39286f2cfd145b98e93f66580295",
        "gas": "0x126d7",
        "value": "0x0",
        "input": "0xa9059cbb000000000000000000000000584ded47c060ae1c3fe0f38549d854607d488b400000000000000000000000000000000000000000000000056bc75e2d63100000",
        "nonce": "0x2c4",
        "chainId": "0x14a34"
      },
      "additionalContracts": [],
      "isFixedGasLimit": false
    },
    {
      "hash": "0xe7c0002b5fa3cb0db9bffe1247c0e62adedf428e8272cf3ce3829e7b59a3580b",
      "transactionType": "CALL",
      "contractName": null,
      "contractAddress": "0x9c80f556f34d39286f2cfd145b98e93f66580295",
      "function": "transfer(address,uint256)",
      "arguments": [
        "0x8827DF1a64f3Ba03F6Ffd1b18B9FAdecBb53CA4f",
        "100000000000000000000"
      ],
      "transaction": {
        "from": "0x1d1e94634fbcb767ce8650269b2c4d33280f0130",
        "to": "0x9c80f556f34d39286f2cfd145b98e93f66580295",
        "gas": "0x126d7",
        "value": "0x0",
        "input": "0xa9059cbb0000000000000000000000008827df1a64f3ba03f6ffd1b18b9fadecbb53ca4f0000000000000000000000000000000000000000000000056bc75e2d63100000",
        "nonce": "0x2c5",
        "chainId": "0x14a34"
      },
      "additionalContracts": [],
      "isFixedGasLimit": false
    }
  ],
  "receipts": [
    {
      "status": "0x1",
      "cumulativeGasUsed": "0x3a6cf4",
      "logs": [
        {
          "address": "0x9c80f556f34d39286f2cfd145b98e93f66580295",
          "topics": [
            "0xddf252ad1be2c89b69c2b068fc378daa952ba7f163c4a11628f55a4df523b3ef",
            "0x0000000000000000000000001d1e94634fbcb767ce8650269b2c4d33280f0130",
            "0x0000000000000000000000000488caa0847a315e1b76d6f7af42caae7dd5fdbe"
          ],
          "data": "0x0000000000000000000000000000000000000000000000056bc75e2d63100000",
          "blockHash": "0x3b0287be51f8e84055c531a3da7b6d2234f0ae7b824f335ef803aa1f3c1da524",
          "blockNumber": "0xd517a0",
          "transactionHash": "0x93e889e5f44832cde5600f390d973ba88c2236a65a5d6198b54ed73eda36932e",
          "transactionIndex": "0x5",
          "logIndex": "0x62",
          "removed": false
        }
      ],
      "logsBloom": "0x04000000000000000000000000000000000000000000000000000000000000000000000080000000000000000000000000000000000000000000000000000000000000000000000000000208000000100000000000000000000000000000000000000800000000000040000000000000000000000000000000000010000000000400000000000000000000000000000000000000000000000000000000000000000000000000000000000000000000000000000000000000000000000000000000000006000002000000000000000000000000000000000000000000000000000000000000000000000000000000000000000000000000000000000000000000",
      "type": "0x2",
      "transactionHash": "0x93e889e5f44832cde5600f390d973ba88c2236a65a5d6198b54ed73eda36932e",
      "transactionIndex": "0x5",
      "blockHash": "0x3b0287be51f8e84055c531a3da7b6d2234f0ae7b824f335ef803aa1f3c1da524",
      "blockNumber": "0xd517a0",
      "gasUsed": "0xc99a",
      "effectiveGasPrice": "0x1b7bdf4c",
      "from": "0x1d1e94634fbcb767ce8650269b2c4d33280f0130",
      "to": "0x9c80f556f34d39286f2cfd145b98e93f66580295",
      "contractAddress": null,
      "l1BaseFeeScalar": "0x44d",
      "l1BlobBaseFee": "0xe4d",
      "l1BlobBaseFeeScalar": "0xa118b",
      "l1Fee": "0x3e7c3493d",
      "l1GasPrice": "0x23785e061",
      "l1GasUsed": "0x640"
    },
    {
      "status": "0x1",
      "cumulativeGasUsed": "0x3b368e",
      "logs": [
        {
          "address": "0x9c80f556f34d39286f2cfd145b98e93f66580295",
          "topics": [
            "0xddf252ad1be2c89b69c2b068fc378daa952ba7f163c4a11628f55a4df523b3ef",
            "0x0000000000000000000000001d1e94634fbcb767ce8650269b2c4d33280f0130",
            "0x000000000000000000000000e570b47230379ed9a83ebc335aa0928c6f798272"
          ],
          "data": "0x0000000000000000000000000000000000000000000000056bc75e2d63100000",
          "blockHash": "0x3b0287be51f8e84055c531a3da7b6d2234f0ae7b824f335ef803aa1f3c1da524",
          "blockNumber": "0xd517a0",
          "transactionHash": "0x9f604294a5155c0425e33a837ac28932758ae9cf6114e8bb0770d334c1e49e7f",
          "transactionIndex": "0x6",
          "logIndex": "0x63",
          "removed": false
        }
      ],
      "logsBloom": "0x00000000000000000000080000000000000000000000000000000000000080000000000000000000000000000000000000000000000000000000000000000000000000000000000000000208000000100000000000000000000000000000000000000000000000000040000000000000000000000000000000000010000000000400000000000000000000000000000000000000000000000000000000000000000000000000000000000000002000000000000000000000000000000000000000000006000002000000000000000000000000000000000000000000000000000000000000000000000000000000000000000000000000000000000000000000",
      "type": "0x2",
      "transactionHash": "0x9f604294a5155c0425e33a837ac28932758ae9cf6114e8bb0770d334c1e49e7f",
      "transactionIndex": "0x6",
      "blockHash": "0x3b0287be51f8e84055c531a3da7b6d2234f0ae7b824f335ef803aa1f3c1da524",
      "blockNumber": "0xd517a0",
      "gasUsed": "0xc99a",
      "effectiveGasPrice": "0x1b7bdf4c",
      "from": "0x1d1e94634fbcb767ce8650269b2c4d33280f0130",
      "to": "0x9c80f556f34d39286f2cfd145b98e93f66580295",
      "contractAddress": null,
      "l1BaseFeeScalar": "0x44d",
      "l1BlobBaseFee": "0xe4d",
      "l1BlobBaseFeeScalar": "0xa118b",
      "l1Fee": "0x3e7c3493d",
      "l1GasPrice": "0x23785e061",
      "l1GasUsed": "0x640"
    },
    {
      "status": "0x1",
      "cumulativeGasUsed": "0x3c0028",
      "logs": [
        {
          "address": "0x9c80f556f34d39286f2cfd145b98e93f66580295",
          "topics": [
            "0xddf252ad1be2c89b69c2b068fc378daa952ba7f163c4a11628f55a4df523b3ef",
            "0x0000000000000000000000001d1e94634fbcb767ce8650269b2c4d33280f0130",
            "0x000000000000000000000000ece84b524e3e70c2d97080e0fee140e27583b319"
          ],
          "data": "0x0000000000000000000000000000000000000000000000056bc75e2d63100000",
          "blockHash": "0x3b0287be51f8e84055c531a3da7b6d2234f0ae7b824f335ef803aa1f3c1da524",
          "blockNumber": "0xd517a0",
          "transactionHash": "0x612657dea7d84e13f0826456d08ae38b367e12cb74b686d708ba0f01c3889647",
          "transactionIndex": "0x7",
          "logIndex": "0x64",
          "removed": false
        }
      ],
      "logsBloom": "0x00000000000000000000000000000000000000000000000000000000000000000000000000000000000000000000000000000000000000000000000000000000000000000000000000000208001000100000000000000000000000000000000000000000000000000040000000000000000000000000000000000010000000000400000000000000000000000000000000000000000000000000000000000000000000000000000000000000000000800000000000000000000000000000000000000006000002000000000000000000000000000000000000000000000000010000000000000000000000000000000000000000000000000000000000000000",
      "type": "0x2",
      "transactionHash": "0x612657dea7d84e13f0826456d08ae38b367e12cb74b686d708ba0f01c3889647",
      "transactionIndex": "0x7",
      "blockHash": "0x3b0287be51f8e84055c531a3da7b6d2234f0ae7b824f335ef803aa1f3c1da524",
      "blockNumber": "0xd517a0",
      "gasUsed": "0xc99a",
      "effectiveGasPrice": "0x1b7bdf4c",
      "from": "0x1d1e94634fbcb767ce8650269b2c4d33280f0130",
      "to": "0x9c80f556f34d39286f2cfd145b98e93f66580295",
      "contractAddress": null,
      "l1BaseFeeScalar": "0x44d",
      "l1BlobBaseFee": "0xe4d",
      "l1BlobBaseFeeScalar": "0xa118b",
      "l1Fee": "0x3e7c3493d",
      "l1GasPrice": "0x23785e061",
      "l1GasUsed": "0x640"
    },
    {
      "status": "0x1",
      "cumulativeGasUsed": "0x3cc9c2",
      "logs": [
        {
          "address": "0x9c80f556f34d39286f2cfd145b98e93f66580295",
          "topics": [
            "0xddf252ad1be2c89b69c2b068fc378daa952ba7f163c4a11628f55a4df523b3ef",
            "0x0000000000000000000000001d1e94634fbcb767ce8650269b2c4d33280f0130",
            "0x0000000000000000000000003e6d1ab01613154c190a2e8f9e6132c48b935f3a"
          ],
          "data": "0x0000000000000000000000000000000000000000000000056bc75e2d63100000",
          "blockHash": "0x3b0287be51f8e84055c531a3da7b6d2234f0ae7b824f335ef803aa1f3c1da524",
          "blockNumber": "0xd517a0",
          "transactionHash": "0x6f1cee7ae75a983ec3bb3af176273158f3cf061916d5d5f57a53794a0506466e",
          "transactionIndex": "0x8",
          "logIndex": "0x65",
          "removed": false
        }
      ],
      "logsBloom": "0x00000000000000000000000000000000000000000000000000000000000000000000000000000000000000000000000000000000000000000000000000001000000000000000000000000208000000100000000000000000000000000000000000000000000000000040000000000000000000000000000000000010000000000400000000000000000000000000000000000000000000000000000000000000000000000000000000000000000000000000000000000000000000000200000000000006000002000000000000000000000000000000000000000000000000000000000000000000000000000000000000080000000000000000000000000000",
      "type": "0x2",
      "transactionHash": "0x6f1cee7ae75a983ec3bb3af176273158f3cf061916d5d5f57a53794a0506466e",
      "transactionIndex": "0x8",
      "blockHash": "0x3b0287be51f8e84055c531a3da7b6d2234f0ae7b824f335ef803aa1f3c1da524",
      "blockNumber": "0xd517a0",
      "gasUsed": "0xc99a",
      "effectiveGasPrice": "0x1b7bdf4c",
      "from": "0x1d1e94634fbcb767ce8650269b2c4d33280f0130",
      "to": "0x9c80f556f34d39286f2cfd145b98e93f66580295",
      "contractAddress": null,
      "l1BaseFeeScalar": "0x44d",
      "l1BlobBaseFee": "0xe4d",
      "l1BlobBaseFeeScalar": "0xa118b",
      "l1Fee": "0x3e7c3493d",
      "l1GasPrice": "0x23785e061",
      "l1GasUsed": "0x640"
    },
    {
      "status": "0x1",
      "cumulativeGasUsed": "0x3d935c",
      "logs": [
        {
          "address": "0x9c80f556f34d39286f2cfd145b98e93f66580295",
          "topics": [
            "0xddf252ad1be2c89b69c2b068fc378daa952ba7f163c4a11628f55a4df523b3ef",
            "0x0000000000000000000000001d1e94634fbcb767ce8650269b2c4d33280f0130",
            "0x0000000000000000000000001f6b36cc1d9ade3713f58543db3c57da4e841599"
          ],
          "data": "0x0000000000000000000000000000000000000000000000056bc75e2d63100000",
          "blockHash": "0x3b0287be51f8e84055c531a3da7b6d2234f0ae7b824f335ef803aa1f3c1da524",
          "blockNumber": "0xd517a0",
          "transactionHash": "0x8677ef45062c32b2f15ad5ee951ccfebdfc2e52d845aaa6d5a81b1466f52aa66",
          "transactionIndex": "0x9",
          "logIndex": "0x66",
          "removed": false
        }
      ],
      "logsBloom": "0x00000000000000000000000000000000000000000000000000000000000000000000000000000000000000000000000000000000000000000000000000000000000000000000000000000208000000100000000000000000000000000000000000000000000000000040000000000000000000000000000000000010000000000400000000000000000000008000000000000000000000000000000000000000000000000000000000000000000000000000000000000000000000000000000000000006000802000000000000000000000000000000000000000000000000000000000000000000000000000000000000000400000000000000000000000000",
      "type": "0x2",
      "transactionHash": "0x8677ef45062c32b2f15ad5ee951ccfebdfc2e52d845aaa6d5a81b1466f52aa66",
      "transactionIndex": "0x9",
      "blockHash": "0x3b0287be51f8e84055c531a3da7b6d2234f0ae7b824f335ef803aa1f3c1da524",
      "blockNumber": "0xd517a0",
      "gasUsed": "0xc99a",
      "effectiveGasPrice": "0x1b7bdf4c",
      "from": "0x1d1e94634fbcb767ce8650269b2c4d33280f0130",
      "to": "0x9c80f556f34d39286f2cfd145b98e93f66580295",
      "contractAddress": null,
      "l1BaseFeeScalar": "0x44d",
      "l1BlobBaseFee": "0xe4d",
      "l1BlobBaseFeeScalar": "0xa118b",
      "l1Fee": "0x3e7c3493d",
      "l1GasPrice": "0x23785e061",
      "l1GasUsed": "0x640"
    },
    {
      "status": "0x1",
      "cumulativeGasUsed": "0x3e5cf6",
      "logs": [
        {
          "address": "0x9c80f556f34d39286f2cfd145b98e93f66580295",
          "topics": [
            "0xddf252ad1be2c89b69c2b068fc378daa952ba7f163c4a11628f55a4df523b3ef",
            "0x0000000000000000000000001d1e94634fbcb767ce8650269b2c4d33280f0130",
            "0x0000000000000000000000001f065310aed94f8fb9df2e2bf1201db936586fc0"
          ],
          "data": "0x0000000000000000000000000000000000000000000000056bc75e2d63100000",
          "blockHash": "0x3b0287be51f8e84055c531a3da7b6d2234f0ae7b824f335ef803aa1f3c1da524",
          "blockNumber": "0xd517a0",
          "transactionHash": "0x779fdf0bb283b018a111cbef2c6d6009394f188ed8fe2f468a55a80fd9fe9c7b",
          "transactionIndex": "0xa",
          "logIndex": "0x67",
          "removed": false
        }
      ],
      "logsBloom": "0x00000000000000000000000000000000000000000000000000000000000000000000000020000000000000000000000000000000000000000000000010000000000000000000000000000208000000100000000000000000000000000000000000000000000000000040000000000000000000000000000000000010000000000400000000000000000000000000000000000000000000000000000000000000000000000000000000000000000000000000000000000000000000000000800000000006000002000000000000000000000000000000000000000000000000000000000000000000000000000000000000000000000000000000000000000000",
      "type": "0x2",
      "transactionHash": "0x779fdf0bb283b018a111cbef2c6d6009394f188ed8fe2f468a55a80fd9fe9c7b",
      "transactionIndex": "0xa",
      "blockHash": "0x3b0287be51f8e84055c531a3da7b6d2234f0ae7b824f335ef803aa1f3c1da524",
      "blockNumber": "0xd517a0",
      "gasUsed": "0xc99a",
      "effectiveGasPrice": "0x1b7bdf4c",
      "from": "0x1d1e94634fbcb767ce8650269b2c4d33280f0130",
      "to": "0x9c80f556f34d39286f2cfd145b98e93f66580295",
      "contractAddress": null,
      "l1BaseFeeScalar": "0x44d",
      "l1BlobBaseFee": "0xe4d",
      "l1BlobBaseFeeScalar": "0xa118b",
      "l1Fee": "0x3e7c3493d",
      "l1GasPrice": "0x23785e061",
      "l1GasUsed": "0x640"
    },
    {
      "status": "0x1",
      "cumulativeGasUsed": "0x3f2690",
      "logs": [
        {
          "address": "0x9c80f556f34d39286f2cfd145b98e93f66580295",
          "topics": [
            "0xddf252ad1be2c89b69c2b068fc378daa952ba7f163c4a11628f55a4df523b3ef",
            "0x0000000000000000000000001d1e94634fbcb767ce8650269b2c4d33280f0130",
            "0x000000000000000000000000f71d046f4e6f9407f3e913cba7a3d8fc0f652f76"
          ],
          "data": "0x0000000000000000000000000000000000000000000000056bc75e2d63100000",
          "blockHash": "0x3b0287be51f8e84055c531a3da7b6d2234f0ae7b824f335ef803aa1f3c1da524",
          "blockNumber": "0xd517a0",
          "transactionHash": "0x7661d20c3efa79adf263f312fdc800a33f8bbb9e09a57cdbb930aaf373c0aebe",
          "transactionIndex": "0xb",
          "logIndex": "0x68",
          "removed": false
        }
      ],
      "logsBloom": "0x00000000000000000000000000000000000000000000000000000000000000000000000000000000000000000000000000000000000000000000000000000000000000000000000020000208000000100000000000000000000000000000000000000000000000000040000000000000000000000000000000000014000000000400000000000000000000000000000000000000000000000000000000000000000000000000000000000000000000000000000000000000000000000000000000000006000002000000000000000000000000000000000000000000000000000000000000000000000000000000000000000000000000040000000000000000",
      "type": "0x2",
      "transactionHash": "0x7661d20c3efa79adf263f312fdc800a33f8bbb9e09a57cdbb930aaf373c0aebe",
      "transactionIndex": "0xb",
      "blockHash": "0x3b0287be51f8e84055c531a3da7b6d2234f0ae7b824f335ef803aa1f3c1da524",
      "blockNumber": "0xd517a0",
      "gasUsed": "0xc99a",
      "effectiveGasPrice": "0x1b7bdf4c",
      "from": "0x1d1e94634fbcb767ce8650269b2c4d33280f0130",
      "to": "0x9c80f556f34d39286f2cfd145b98e93f66580295",
      "contractAddress": null,
      "l1BaseFeeScalar": "0x44d",
      "l1BlobBaseFee": "0xe4d",
      "l1BlobBaseFeeScalar": "0xa118b",
      "l1Fee": "0x3e7c3493d",
      "l1GasPrice": "0x23785e061",
      "l1GasUsed": "0x640"
    },
    {
      "status": "0x1",
      "cumulativeGasUsed": "0x3ff02a",
      "logs": [
        {
          "address": "0x9c80f556f34d39286f2cfd145b98e93f66580295",
          "topics": [
            "0xddf252ad1be2c89b69c2b068fc378daa952ba7f163c4a11628f55a4df523b3ef",
            "0x0000000000000000000000001d1e94634fbcb767ce8650269b2c4d33280f0130",
            "0x000000000000000000000000ae5ed1f565acb9b4254af0e1792505499accdd8b"
          ],
          "data": "0x0000000000000000000000000000000000000000000000056bc75e2d63100000",
          "blockHash": "0x3b0287be51f8e84055c531a3da7b6d2234f0ae7b824f335ef803aa1f3c1da524",
          "blockNumber": "0xd517a0",
          "transactionHash": "0x007c5b4f5cea1c8c647a2dce3aedc39cb95a1ad7094238195812e083f338771a",
          "transactionIndex": "0xc",
          "logIndex": "0x69",
          "removed": false
        }
      ],
      "logsBloom": "0x00000000100000000000000000000000000000000000000000000000000000000000000000000000000000000000000000000000000000000000000000000000000000000000000000000208000000100000000000000000000000000000000000000000000000000040000000000000000000000000000000000010000000000400000000000000000000000000000000000040000000000000000000000000000000000000000000000000000000000000000000000000000000000000000000000006000022000000000000000000000000000000000000000000000000000000000000000000000000000000000000000000000000000000000000000000",
      "type": "0x2",
      "transactionHash": "0x007c5b4f5cea1c8c647a2dce3aedc39cb95a1ad7094238195812e083f338771a",
      "transactionIndex": "0xc",
      "blockHash": "0x3b0287be51f8e84055c531a3da7b6d2234f0ae7b824f335ef803aa1f3c1da524",
      "blockNumber": "0xd517a0",
      "gasUsed": "0xc99a",
      "effectiveGasPrice": "0x1b7bdf4c",
      "from": "0x1d1e94634fbcb767ce8650269b2c4d33280f0130",
      "to": "0x9c80f556f34d39286f2cfd145b98e93f66580295",
      "contractAddress": null,
      "l1BaseFeeScalar": "0x44d",
      "l1BlobBaseFee": "0xe4d",
      "l1BlobBaseFeeScalar": "0xa118b",
      "l1Fee": "0x3e7c3493d",
      "l1GasPrice": "0x23785e061",
      "l1GasUsed": "0x640"
    },
    {
      "status": "0x1",
      "cumulativeGasUsed": "0x40b9c4",
      "logs": [
        {
          "address": "0x9c80f556f34d39286f2cfd145b98e93f66580295",
          "topics": [
            "0xddf252ad1be2c89b69c2b068fc378daa952ba7f163c4a11628f55a4df523b3ef",
            "0x0000000000000000000000001d1e94634fbcb767ce8650269b2c4d33280f0130",
            "0x00000000000000000000000013088f336c918b1b31eb7ece87752ebc86c312bb"
          ],
          "data": "0x0000000000000000000000000000000000000000000000056bc75e2d63100000",
          "blockHash": "0x3b0287be51f8e84055c531a3da7b6d2234f0ae7b824f335ef803aa1f3c1da524",
          "blockNumber": "0xd517a0",
          "transactionHash": "0xbbd06a4ff0a8a5ff65aab578ab93f715d3f461f0e01716fbaed1a11aca9838f6",
          "transactionIndex": "0xd",
          "logIndex": "0x6a",
          "removed": false
        }
      ],
      "logsBloom": "0x20000000000000000000000000000000000000000000000000000000000000000000000000000000000000000000000000000000000000000000000000000000000000000000000000000208000000100000000000000000000000000000000000000000000000000040000000000000000000000000000000000010000000000400000000000000000000001000000000000000000000000000000000000000000000000000000000000000000000000000000000000000000000000000000000000006000002000000000000000000000000000000000020000000000000000000000000000000000000000000000000000000000000000000000000000000",
      "type": "0x2",
      "transactionHash": "0xbbd06a4ff0a8a5ff65aab578ab93f715d3f461f0e01716fbaed1a11aca9838f6",
      "transactionIndex": "0xd",
      "blockHash": "0x3b0287be51f8e84055c531a3da7b6d2234f0ae7b824f335ef803aa1f3c1da524",
      "blockNumber": "0xd517a0",
      "gasUsed": "0xc99a",
      "effectiveGasPrice": "0x1b7bdf4c",
      "from": "0x1d1e94634fbcb767ce8650269b2c4d33280f0130",
      "to": "0x9c80f556f34d39286f2cfd145b98e93f66580295",
      "contractAddress": null,
      "l1BaseFeeScalar": "0x44d",
      "l1BlobBaseFee": "0xe4d",
      "l1BlobBaseFeeScalar": "0xa118b",
      "l1Fee": "0x3e7c3493d",
      "l1GasPrice": "0x23785e061",
      "l1GasUsed": "0x640"
    },
    {
      "status": "0x1",
      "cumulativeGasUsed": "0x41835e",
      "logs": [
        {
          "address": "0x9c80f556f34d39286f2cfd145b98e93f66580295",
          "topics": [
            "0xddf252ad1be2c89b69c2b068fc378daa952ba7f163c4a11628f55a4df523b3ef",
            "0x0000000000000000000000001d1e94634fbcb767ce8650269b2c4d33280f0130",
            "0x0000000000000000000000005aaacb69d94c08e99dfcff125bba6b9061a2a94a"
          ],
          "data": "0x0000000000000000000000000000000000000000000000056bc75e2d63100000",
          "blockHash": "0x3b0287be51f8e84055c531a3da7b6d2234f0ae7b824f335ef803aa1f3c1da524",
          "blockNumber": "0xd517a0",
          "transactionHash": "0x870b3a49269de93374bd1cf24bad997908e7e284eeadf0aad53e09847a1a2593",
          "transactionIndex": "0xe",
          "logIndex": "0x6b",
          "removed": false
        }
      ],
      "logsBloom": "0x00000000000000000000000000000000000000000000000000000000000000000000000000000000000000000000000001000000000800000000000000000000000000000000000000000208000000100000000000000000000000000000000000000000000000000040000000000000000000000000000000000010000000000400000000000000000000000000000000000000000000000000000000000000000000000000000000000000000000000000000000000000000000000000000000000006080002000000000000000000000000000000000000000000000000000000000000000000000000000000000000000000000000000000000000000000",
      "type": "0x2",
      "transactionHash": "0x870b3a49269de93374bd1cf24bad997908e7e284eeadf0aad53e09847a1a2593",
      "transactionIndex": "0xe",
      "blockHash": "0x3b0287be51f8e84055c531a3da7b6d2234f0ae7b824f335ef803aa1f3c1da524",
      "blockNumber": "0xd517a0",
      "gasUsed": "0xc99a",
      "effectiveGasPrice": "0x1b7bdf4c",
      "from": "0x1d1e94634fbcb767ce8650269b2c4d33280f0130",
      "to": "0x9c80f556f34d39286f2cfd145b98e93f66580295",
      "contractAddress": null,
      "l1BaseFeeScalar": "0x44d",
      "l1BlobBaseFee": "0xe4d",
      "l1BlobBaseFeeScalar": "0xa118b",
      "l1Fee": "0x3e7c3493d",
      "l1GasPrice": "0x23785e061",
      "l1GasUsed": "0x640"
    },
    {
      "status": "0x1",
      "cumulativeGasUsed": "0x424cf8",
      "logs": [
        {
          "address": "0x9c80f556f34d39286f2cfd145b98e93f66580295",
          "topics": [
            "0xddf252ad1be2c89b69c2b068fc378daa952ba7f163c4a11628f55a4df523b3ef",
            "0x0000000000000000000000001d1e94634fbcb767ce8650269b2c4d33280f0130",
            "0x000000000000000000000000e2986606527910bfdbbc55219565c5b997e56153"
          ],
          "data": "0x0000000000000000000000000000000000000000000000056bc75e2d63100000",
          "blockHash": "0x3b0287be51f8e84055c531a3da7b6d2234f0ae7b824f335ef803aa1f3c1da524",
          "blockNumber": "0xd517a0",
          "transactionHash": "0x122d56cd486ab1d1660938e93e4ccc1db72936ac57ae73be45334a2c09c44262",
          "transactionIndex": "0xf",
          "logIndex": "0x6c",
          "removed": false
        }
      ],
      "logsBloom": "0x00000000000000000000000000000000000000000000000000000000000000000000000000000000000000000000000000001000000000000000000000000000000000000000000000000208000000100000000000000000000001000000000000000000000000000040000000000000000000000000000000000010000000000400000000000000000000000000000000000000000000000000000000000000000000000000000000000000000000000000000000000000000000000000000000000006000002000000000000000000000000000000000000000000000000000000000000000400000000000000000000000000000000000000000000000000",
      "type": "0x2",
      "transactionHash": "0x122d56cd486ab1d1660938e93e4ccc1db72936ac57ae73be45334a2c09c44262",
      "transactionIndex": "0xf",
      "blockHash": "0x3b0287be51f8e84055c531a3da7b6d2234f0ae7b824f335ef803aa1f3c1da524",
      "blockNumber": "0xd517a0",
      "gasUsed": "0xc99a",
      "effectiveGasPrice": "0x1b7bdf4c",
      "from": "0x1d1e94634fbcb767ce8650269b2c4d33280f0130",
      "to": "0x9c80f556f34d39286f2cfd145b98e93f66580295",
      "contractAddress": null,
      "l1BaseFeeScalar": "0x44d",
      "l1BlobBaseFee": "0xe4d",
      "l1BlobBaseFeeScalar": "0xa118b",
      "l1Fee": "0x3e7c3493d",
      "l1GasPrice": "0x23785e061",
      "l1GasUsed": "0x640"
    },
    {
      "status": "0x1",
      "cumulativeGasUsed": "0x431692",
      "logs": [
        {
          "address": "0x9c80f556f34d39286f2cfd145b98e93f66580295",
          "topics": [
            "0xddf252ad1be2c89b69c2b068fc378daa952ba7f163c4a11628f55a4df523b3ef",
            "0x0000000000000000000000001d1e94634fbcb767ce8650269b2c4d33280f0130",
            "0x0000000000000000000000009d12b861e6d78478902d20477a1f422367c647b4"
          ],
          "data": "0x0000000000000000000000000000000000000000000000056bc75e2d63100000",
          "blockHash": "0x3b0287be51f8e84055c531a3da7b6d2234f0ae7b824f335ef803aa1f3c1da524",
          "blockNumber": "0xd517a0",
          "transactionHash": "0x33aea6c6afeaf0efbfb449513a9108f495d1aa1277fd020a3ad2627fbb6db413",
          "transactionIndex": "0x10",
          "logIndex": "0x6d",
          "removed": false
        }
      ],
      "logsBloom": "0x00000000000000000000000000000000000000000000000000000000000000000000080000000000000000000000000000000000000000000000000000000000000000000000000000000208000000100000000000000000000000000000000000000000000000000040000000000000000000000000000000000010000000000400000000000000000000000000000000000000000000000000000000000000000000000000020000000000000000000000080000000000000000000000000000000006000002000000000000000000000000000000000000000000000000000000000000000000000000000000000000000000000000000000000000000000",
      "type": "0x2",
      "transactionHash": "0x33aea6c6afeaf0efbfb449513a9108f495d1aa1277fd020a3ad2627fbb6db413",
      "transactionIndex": "0x10",
      "blockHash": "0x3b0287be51f8e84055c531a3da7b6d2234f0ae7b824f335ef803aa1f3c1da524",
      "blockNumber": "0xd517a0",
      "gasUsed": "0xc99a",
      "effectiveGasPrice": "0x1b7bdf4c",
      "from": "0x1d1e94634fbcb767ce8650269b2c4d33280f0130",
      "to": "0x9c80f556f34d39286f2cfd145b98e93f66580295",
      "contractAddress": null,
      "l1BaseFeeScalar": "0x44d",
      "l1BlobBaseFee": "0xe4d",
      "l1BlobBaseFeeScalar": "0xa118b",
      "l1Fee": "0x3e7c3493d",
      "l1GasPrice": "0x23785e061",
      "l1GasUsed": "0x640"
    },
    {
      "status": "0x1",
      "cumulativeGasUsed": "0x43e02c",
      "logs": [
        {
          "address": "0x9c80f556f34d39286f2cfd145b98e93f66580295",
          "topics": [
            "0xddf252ad1be2c89b69c2b068fc378daa952ba7f163c4a11628f55a4df523b3ef",
            "0x0000000000000000000000001d1e94634fbcb767ce8650269b2c4d33280f0130",
            "0x0000000000000000000000002b58515c803e960d83f89628176394fb6c1ee913"
          ],
          "data": "0x0000000000000000000000000000000000000000000000056bc75e2d63100000",
          "blockHash": "0x3b0287be51f8e84055c531a3da7b6d2234f0ae7b824f335ef803aa1f3c1da524",
          "blockNumber": "0xd517a0",
          "transactionHash": "0x58dc150adbe46574044e1bdd120ca6b9ec44a28352e7b5678961096b10baa610",
          "transactionIndex": "0x11",
          "logIndex": "0x6e",
          "removed": false
        }
      ],
      "logsBloom": "0x00000000000000000000000000000000000010000000000000000000000000000000000000000000000000000000000000000000000000000000000000000000000000000000000000000208000000100000000000000000000000000000000000000000000000000040000000000000000000000000000000000010000000000400000000000000000000000000000002000000000000000000000000000000000000000000000000000000000000000000000000000000000000000000000000000006000002000000000000010000000000000000000000000000000000000000000000000000000000000000000000000000000000000000000000000000",
      "type": "0x2",
      "transactionHash": "0x58dc150adbe46574044e1bdd120ca6b9ec44a28352e7b5678961096b10baa610",
      "transactionIndex": "0x11",
      "blockHash": "0x3b0287be51f8e84055c531a3da7b6d2234f0ae7b824f335ef803aa1f3c1da524",
      "blockNumber": "0xd517a0",
      "gasUsed": "0xc99a",
      "effectiveGasPrice": "0x1b7bdf4c",
      "from": "0x1d1e94634fbcb767ce8650269b2c4d33280f0130",
      "to": "0x9c80f556f34d39286f2cfd145b98e93f66580295",
      "contractAddress": null,
      "l1BaseFeeScalar": "0x44d",
      "l1BlobBaseFee": "0xe4d",
      "l1BlobBaseFeeScalar": "0xa118b",
      "l1Fee": "0x3e7c3493d",
      "l1GasPrice": "0x23785e061",
      "l1GasUsed": "0x640"
    },
    {
      "status": "0x1",
      "cumulativeGasUsed": "0x44a9c6",
      "logs": [
        {
          "address": "0x9c80f556f34d39286f2cfd145b98e93f66580295",
          "topics": [
            "0xddf252ad1be2c89b69c2b068fc378daa952ba7f163c4a11628f55a4df523b3ef",
            "0x0000000000000000000000001d1e94634fbcb767ce8650269b2c4d33280f0130",
            "0x0000000000000000000000008cdbe20ffba52c57af99c6e30ca6a97065a93b13"
          ],
          "data": "0x0000000000000000000000000000000000000000000000056bc75e2d63100000",
          "blockHash": "0x3b0287be51f8e84055c531a3da7b6d2234f0ae7b824f335ef803aa1f3c1da524",
          "blockNumber": "0xd517a0",
          "transactionHash": "0xb95091aaf637155322e81f289b753b90b244319659abc02f665656e2e739517c",
          "transactionIndex": "0x12",
          "logIndex": "0x6f",
          "removed": false
        }
      ],
      "logsBloom": "0x00000000000000000000000000000000000000000000000000000000000000000000000000000000000000000000000000000000000000000000000000000000000000000000000000000208000000100000000000080000000000000000000000000000000000000040000000000000000000000000000000200010000000000400000000000000000000000000000000000000000000000000400000000000000000000000000000000000000000000000000000000000000000000000000000000006000002000000000000000000000000000000000000000000000000000000000000000000000000000000000000000000000000000000000000000000",
      "type": "0x2",
      "transactionHash": "0xb95091aaf637155322e81f289b753b90b244319659abc02f665656e2e739517c",
      "transactionIndex": "0x12",
      "blockHash": "0x3b0287be51f8e84055c531a3da7b6d2234f0ae7b824f335ef803aa1f3c1da524",
      "blockNumber": "0xd517a0",
      "gasUsed": "0xc99a",
      "effectiveGasPrice": "0x1b7bdf4c",
      "from": "0x1d1e94634fbcb767ce8650269b2c4d33280f0130",
      "to": "0x9c80f556f34d39286f2cfd145b98e93f66580295",
      "contractAddress": null,
      "l1BaseFeeScalar": "0x44d",
      "l1BlobBaseFee": "0xe4d",
      "l1BlobBaseFeeScalar": "0xa118b",
      "l1Fee": "0x3e7c3493d",
      "l1GasPrice": "0x23785e061",
      "l1GasUsed": "0x640"
    },
    {
      "status": "0x1",
      "cumulativeGasUsed": "0x457360",
      "logs": [
        {
          "address": "0x9c80f556f34d39286f2cfd145b98e93f66580295",
          "topics": [
            "0xddf252ad1be2c89b69c2b068fc378daa952ba7f163c4a11628f55a4df523b3ef",
            "0x0000000000000000000000001d1e94634fbcb767ce8650269b2c4d33280f0130",
            "0x000000000000000000000000907796932ba29419f4516aa727d437faadf6f87f"
          ],
          "data": "0x0000000000000000000000000000000000000000000000056bc75e2d63100000",
          "blockHash": "0x3b0287be51f8e84055c531a3da7b6d2234f0ae7b824f335ef803aa1f3c1da524",
          "blockNumber": "0xd517a0",
          "transactionHash": "0xc89631b96353d27e780dc79583595cd5781a77a51e8275224ee216d57351c746",
          "transactionIndex": "0x13",
          "logIndex": "0x70",
          "removed": false
        }
      ],
      "logsBloom": "0x00000000000000000000000000000000000000000000000000000040000000000000000000000000000000000000000000000000000000000000000000000000000000000000800000000208000000100000000000000000000000000000000000000000000000000040000000000010000000000000000000000010000000000400000000000000000000000000000000000000000000000000000000000000000000000000000000000000000000000000000000000000000000000000000000000006000002000000000000000000000000000000000000000000000000000000000000000000000000000000000000000000000000000000000000000000",
      "type": "0x2",
      "transactionHash": "0xc89631b96353d27e780dc79583595cd5781a77a51e8275224ee216d57351c746",
      "transactionIndex": "0x13",
      "blockHash": "0x3b0287be51f8e84055c531a3da7b6d2234f0ae7b824f335ef803aa1f3c1da524",
      "blockNumber": "0xd517a0",
      "gasUsed": "0xc99a",
      "effectiveGasPrice": "0x1b7bdf4c",
      "from": "0x1d1e94634fbcb767ce8650269b2c4d33280f0130",
      "to": "0x9c80f556f34d39286f2cfd145b98e93f66580295",
      "contractAddress": null,
      "l1BaseFeeScalar": "0x44d",
      "l1BlobBaseFee": "0xe4d",
      "l1BlobBaseFeeScalar": "0xa118b",
      "l1Fee": "0x3e7c3493d",
      "l1GasPrice": "0x23785e061",
      "l1GasUsed": "0x640"
    },
    {
      "status": "0x1",
      "cumulativeGasUsed": "0x463cee",
      "logs": [
        {
          "address": "0x9c80f556f34d39286f2cfd145b98e93f66580295",
          "topics": [
            "0xddf252ad1be2c89b69c2b068fc378daa952ba7f163c4a11628f55a4df523b3ef",
            "0x0000000000000000000000001d1e94634fbcb767ce8650269b2c4d33280f0130",
            "0x000000000000000000000000f3ba20897d1300f84915bec5ce375f678250557a"
          ],
          "data": "0x0000000000000000000000000000000000000000000000056bc75e2d63100000",
          "blockHash": "0x3b0287be51f8e84055c531a3da7b6d2234f0ae7b824f335ef803aa1f3c1da524",
          "blockNumber": "0xd517a0",
          "transactionHash": "0x55d8115ec3d3f70eae76085498905b485793f2f085d9ee16af573a4abbb5ba54",
          "transactionIndex": "0x14",
          "logIndex": "0x71",
          "removed": false
        }
      ],
      "logsBloom": "0x00000000000000000000000000000000000000000000000000000000000000000000000000000000000000000000000000000000000000000000000000000000000000000000800000000208000000100000000000000000000400000000000000000000000000000040000000000000000000000000000000000010000000000400000000000000000000000000000000000000000000000000000000000000000000000000000000000000000000000000000000000000000000000000000000000046000002000000000000000000000000000000000000000000000000000000000000000000000000000000000000000000000000000000000000000000",
      "type": "0x2",
      "transactionHash": "0x55d8115ec3d3f70eae76085498905b485793f2f085d9ee16af573a4abbb5ba54",
      "transactionIndex": "0x14",
      "blockHash": "0x3b0287be51f8e84055c531a3da7b6d2234f0ae7b824f335ef803aa1f3c1da524",
      "blockNumber": "0xd517a0",
      "gasUsed": "0xc98e",
      "effectiveGasPrice": "0x1b7bdf4c",
      "from": "0x1d1e94634fbcb767ce8650269b2c4d33280f0130",
      "to": "0x9c80f556f34d39286f2cfd145b98e93f66580295",
      "contractAddress": null,
      "l1BaseFeeScalar": "0x44d",
      "l1BlobBaseFee": "0xe4d",
      "l1BlobBaseFeeScalar": "0xa118b",
      "l1Fee": "0x3e7c3493d",
      "l1GasPrice": "0x23785e061",
      "l1GasUsed": "0x640"
    },
    {
      "status": "0x1",
      "cumulativeGasUsed": "0x6066e0",
      "logs": [
        {
          "address": "0x9c80f556f34d39286f2cfd145b98e93f66580295",
          "topics": [
            "0xddf252ad1be2c89b69c2b068fc378daa952ba7f163c4a11628f55a4df523b3ef",
            "0x0000000000000000000000001d1e94634fbcb767ce8650269b2c4d33280f0130",
            "0x00000000000000000000000077fa2529e830a1fb4ebcd83ce0281912c5cc4ebc"
          ],
          "data": "0x0000000000000000000000000000000000000000000000056bc75e2d63100000",
          "blockHash": "0x60c18baf3340463c347615cdff8ac90b698bbc1e0a04e62a3cbb80ffa7d6027e",
          "blockNumber": "0xd517a1",
          "transactionHash": "0x3b2e8b4bc7df00a7b5256b297048afd93de6ce1b9a8693f6b24339467d487171",
          "transactionIndex": "0x8",
          "logIndex": "0x9c",
          "removed": false
        }
      ],
      "logsBloom": "0x00000000000000000000000000000000000000020000000000000000000000000000000000000000000000000000000000000000000000000000000000000000000000000000000000000208000000100000000000000000000000000000000000000000000000000040000000000000000000000000000000000010000000000400000000000000000000000000000000000000004000000000000002000000000000000000000000000000000000000000000000000000000000000000000000000006000002000000000000000000000000000000000000000000000000000000000000000000000000000000000000000000000000000000000000000000",
      "type": "0x2",
      "transactionHash": "0x3b2e8b4bc7df00a7b5256b297048afd93de6ce1b9a8693f6b24339467d487171",
      "transactionIndex": "0x8",
      "blockHash": "0x60c18baf3340463c347615cdff8ac90b698bbc1e0a04e62a3cbb80ffa7d6027e",
      "blockNumber": "0xd517a1",
      "gasUsed": "0xc99a",
      "effectiveGasPrice": "0x1b8f8077",
      "from": "0x1d1e94634fbcb767ce8650269b2c4d33280f0130",
      "to": "0x9c80f556f34d39286f2cfd145b98e93f66580295",
      "contractAddress": null,
      "l1BaseFeeScalar": "0x44d",
      "l1BlobBaseFee": "0xe4d",
      "l1BlobBaseFeeScalar": "0xa118b",
      "l1Fee": "0x3e7c3493d",
      "l1GasPrice": "0x23785e061",
      "l1GasUsed": "0x640"
    },
    {
      "status": "0x1",
      "cumulativeGasUsed": "0x61307a",
      "logs": [
        {
          "address": "0x9c80f556f34d39286f2cfd145b98e93f66580295",
          "topics": [
            "0xddf252ad1be2c89b69c2b068fc378daa952ba7f163c4a11628f55a4df523b3ef",
            "0x0000000000000000000000001d1e94634fbcb767ce8650269b2c4d33280f0130",
            "0x00000000000000000000000037450c3bd3fa5f5afc5a13b80cea5ccd72746c43"
          ],
          "data": "0x0000000000000000000000000000000000000000000000056bc75e2d63100000",
          "blockHash": "0x60c18baf3340463c347615cdff8ac90b698bbc1e0a04e62a3cbb80ffa7d6027e",
          "blockNumber": "0xd517a1",
          "transactionHash": "0x8b1864a99a9ca31657ad581f44a0509ce85c4376ab5f96340861fc6c402d2b55",
          "transactionIndex": "0x9",
          "logIndex": "0x9d",
          "removed": false
        }
      ],
      "logsBloom": "0x00000000000000000000000000000000000000000000000000000000000000000000000000000000000000000000000000000000000000000000008000000000000000000000000000000208000000100000000000000000000000000000200000000000000000000040000000000000000000000000000000000010000000000400000000000000000000000000000000000000000400000000000000000000000000000000000000000000000000000000000000000000000000000000000000000006000002000000000000000000000000000000000000000000000000000000000000000000000000000000000000000000000000000000000000000000",
      "type": "0x2",
      "transactionHash": "0x8b1864a99a9ca31657ad581f44a0509ce85c4376ab5f96340861fc6c402d2b55",
      "transactionIndex": "0x9",
      "blockHash": "0x60c18baf3340463c347615cdff8ac90b698bbc1e0a04e62a3cbb80ffa7d6027e",
      "blockNumber": "0xd517a1",
      "gasUsed": "0xc99a",
      "effectiveGasPrice": "0x1b8f8077",
      "from": "0x1d1e94634fbcb767ce8650269b2c4d33280f0130",
      "to": "0x9c80f556f34d39286f2cfd145b98e93f66580295",
      "contractAddress": null,
      "l1BaseFeeScalar": "0x44d",
      "l1BlobBaseFee": "0xe4d",
      "l1BlobBaseFeeScalar": "0xa118b",
      "l1Fee": "0x3e7c3493d",
      "l1GasPrice": "0x23785e061",
      "l1GasUsed": "0x640"
    },
    {
      "status": "0x1",
      "cumulativeGasUsed": "0x61fa14",
      "logs": [
        {
          "address": "0x9c80f556f34d39286f2cfd145b98e93f66580295",
          "topics": [
            "0xddf252ad1be2c89b69c2b068fc378daa952ba7f163c4a11628f55a4df523b3ef",
            "0x0000000000000000000000001d1e94634fbcb767ce8650269b2c4d33280f0130",
            "0x00000000000000000000000097f040ee3e16bd3bf0116e9117f869add9cb2692"
          ],
          "data": "0x0000000000000000000000000000000000000000000000056bc75e2d63100000",
          "blockHash": "0x60c18baf3340463c347615cdff8ac90b698bbc1e0a04e62a3cbb80ffa7d6027e",
          "blockNumber": "0xd517a1",
          "transactionHash": "0x7e6ccd7c09046b5bcfe5561a16d95aab05f9fdafd23c3370635d3c009fb952d3",
          "transactionIndex": "0xa",
          "logIndex": "0x9e",
          "removed": false
        }
      ],
      "logsBloom": "0x00000000000000000000000000000000000000000000000000000000000000000000000000000000000000000000000000000000000000000000000000000000000000040000000000000208000000100000000000000000000000000000000000000000000000000040000000000000000000000000800000000010000000000400000000000000000000000000000000000000000000000000000000000000000000000000000000000000000000000000000000000000000000000000000000000006000002000000000000000000000000000000004000000000000000000000000000000000000000000000000000000000000000000000000000000000",
      "type": "0x2",
      "transactionHash": "0x7e6ccd7c09046b5bcfe5561a16d95aab05f9fdafd23c3370635d3c009fb952d3",
      "transactionIndex": "0xa",
      "blockHash": "0x60c18baf3340463c347615cdff8ac90b698bbc1e0a04e62a3cbb80ffa7d6027e",
      "blockNumber": "0xd517a1",
      "gasUsed": "0xc99a",
      "effectiveGasPrice": "0x1b8f8077",
      "from": "0x1d1e94634fbcb767ce8650269b2c4d33280f0130",
      "to": "0x9c80f556f34d39286f2cfd145b98e93f66580295",
      "contractAddress": null,
      "l1BaseFeeScalar": "0x44d",
      "l1BlobBaseFee": "0xe4d",
      "l1BlobBaseFeeScalar": "0xa118b",
      "l1Fee": "0x3e7c3493d",
      "l1GasPrice": "0x23785e061",
      "l1GasUsed": "0x640"
    },
    {
      "status": "0x1",
      "cumulativeGasUsed": "0x62c3ae",
      "logs": [
        {
          "address": "0x9c80f556f34d39286f2cfd145b98e93f66580295",
          "topics": [
            "0xddf252ad1be2c89b69c2b068fc378daa952ba7f163c4a11628f55a4df523b3ef",
            "0x0000000000000000000000001d1e94634fbcb767ce8650269b2c4d33280f0130",
            "0x000000000000000000000000795bd85d04405cad5a9fb16639bf5568bd5a978b"
          ],
          "data": "0x0000000000000000000000000000000000000000000000056bc75e2d63100000",
          "blockHash": "0x60c18baf3340463c347615cdff8ac90b698bbc1e0a04e62a3cbb80ffa7d6027e",
          "blockNumber": "0xd517a1",
          "transactionHash": "0x3e044bd5e78f3b87d895137b2072297f3817de409a0a4b2ef112604b9f97f55b",
          "transactionIndex": "0xb",
          "logIndex": "0x9f",
          "removed": false
        }
      ],
      "logsBloom": "0x00000000000000000000400000000000000000000000000000000000000000000000000000000000000000000000000000000000000000000008000000000000000000000000000000000208000000100000000000000000000000080000000000000000000000000040000000000000000000000000000000000010000000000400000000000000000000000000000000000000000000000000000000000000000000000000000000000000000000000000000000000000000000000000000000000006000002000000000000000000000000000000000000000000000000000000000000000000000000000000000000000000000000000000000000000000",
      "type": "0x2",
      "transactionHash": "0x3e044bd5e78f3b87d895137b2072297f3817de409a0a4b2ef112604b9f97f55b",
      "transactionIndex": "0xb",
      "blockHash": "0x60c18baf3340463c347615cdff8ac90b698bbc1e0a04e62a3cbb80ffa7d6027e",
      "blockNumber": "0xd517a1",
      "gasUsed": "0xc99a",
      "effectiveGasPrice": "0x1b8f8077",
      "from": "0x1d1e94634fbcb767ce8650269b2c4d33280f0130",
      "to": "0x9c80f556f34d39286f2cfd145b98e93f66580295",
      "contractAddress": null,
      "l1BaseFeeScalar": "0x44d",
      "l1BlobBaseFee": "0xe4d",
      "l1BlobBaseFeeScalar": "0xa118b",
      "l1Fee": "0x3e7c3493d",
      "l1GasPrice": "0x23785e061",
      "l1GasUsed": "0x640"
    },
    {
      "status": "0x1",
      "cumulativeGasUsed": "0x638d48",
      "logs": [
        {
          "address": "0x9c80f556f34d39286f2cfd145b98e93f66580295",
          "topics": [
            "0xddf252ad1be2c89b69c2b068fc378daa952ba7f163c4a11628f55a4df523b3ef",
            "0x0000000000000000000000001d1e94634fbcb767ce8650269b2c4d33280f0130",
            "0x000000000000000000000000abdf5f14f06a1086924318789bc4754c1cd6c441"
          ],
          "data": "0x0000000000000000000000000000000000000000000000056bc75e2d63100000",
          "blockHash": "0x60c18baf3340463c347615cdff8ac90b698bbc1e0a04e62a3cbb80ffa7d6027e",
          "blockNumber": "0xd517a1",
          "transactionHash": "0x442b3cd5668e040c4e51d92ff945b8d26d07eb72b3d1b9ce6af985b4b139863b",
          "transactionIndex": "0xc",
          "logIndex": "0xa0",
          "removed": false
        }
      ],
      "logsBloom": "0x00000000000000000040000000000000000000000000000000000000000000000000000000000000000000000000000000000000000000000000000000000000000000000000000000000208000000100000000000000000000000000000000000000000000000000040000000000000000000000000000000000010000000000400000000000000000000000000000000000000000000000000000000000000000000000000000000000000000000000000000000000000000000000000400000000006000002000000000000000000000000000000001000000000000000000000000000000000000000000000000000000000000000000000000000000000",
      "type": "0x2",
      "transactionHash": "0x442b3cd5668e040c4e51d92ff945b8d26d07eb72b3d1b9ce6af985b4b139863b",
      "transactionIndex": "0xc",
      "blockHash": "0x60c18baf3340463c347615cdff8ac90b698bbc1e0a04e62a3cbb80ffa7d6027e",
      "blockNumber": "0xd517a1",
      "gasUsed": "0xc99a",
      "effectiveGasPrice": "0x1b8f8077",
      "from": "0x1d1e94634fbcb767ce8650269b2c4d33280f0130",
      "to": "0x9c80f556f34d39286f2cfd145b98e93f66580295",
      "contractAddress": null,
      "l1BaseFeeScalar": "0x44d",
      "l1BlobBaseFee": "0xe4d",
      "l1BlobBaseFeeScalar": "0xa118b",
      "l1Fee": "0x3e7c3493d",
      "l1GasPrice": "0x23785e061",
      "l1GasUsed": "0x640"
    },
    {
      "status": "0x1",
      "cumulativeGasUsed": "0x6456e2",
      "logs": [
        {
          "address": "0x9c80f556f34d39286f2cfd145b98e93f66580295",
          "topics": [
            "0xddf252ad1be2c89b69c2b068fc378daa952ba7f163c4a11628f55a4df523b3ef",
            "0x0000000000000000000000001d1e94634fbcb767ce8650269b2c4d33280f0130",
            "0x0000000000000000000000008f2eb44aa42d191d32dd5063af70e09d27869518"
          ],
          "data": "0x0000000000000000000000000000000000000000000000056bc75e2d63100000",
          "blockHash": "0x60c18baf3340463c347615cdff8ac90b698bbc1e0a04e62a3cbb80ffa7d6027e",
          "blockNumber": "0xd517a1",
          "transactionHash": "0xf5529e5d141d276b1ddc192b65193eaa59ffa576393c82c89cc7cd29220be9b7",
          "transactionIndex": "0xd",
          "logIndex": "0xa1",
          "removed": false
        }
      ],
      "logsBloom": "0x00000000000000000000000000000000000000000000000000000000000000000000000000000000000000000000000000000000000000000000000000000000000000000000000000000208000000100000000000000000000000000000000000000000000000000040000000000000000000000000000000000010000000000400000000000000000000000000000400000000000000000000100000000000000000000000000000000000000000000000000000000000000000000000000000000006000002000000000000000000000000000000000000000000000000000000000000000000000000000000000000000000000000000000000000400000",
      "type": "0x2",
      "transactionHash": "0xf5529e5d141d276b1ddc192b65193eaa59ffa576393c82c89cc7cd29220be9b7",
      "transactionIndex": "0xd",
      "blockHash": "0x60c18baf3340463c347615cdff8ac90b698bbc1e0a04e62a3cbb80ffa7d6027e",
      "blockNumber": "0xd517a1",
      "gasUsed": "0xc99a",
      "effectiveGasPrice": "0x1b8f8077",
      "from": "0x1d1e94634fbcb767ce8650269b2c4d33280f0130",
      "to": "0x9c80f556f34d39286f2cfd145b98e93f66580295",
      "contractAddress": null,
      "l1BaseFeeScalar": "0x44d",
      "l1BlobBaseFee": "0xe4d",
      "l1BlobBaseFeeScalar": "0xa118b",
      "l1Fee": "0x3e7c3493d",
      "l1GasPrice": "0x23785e061",
      "l1GasUsed": "0x640"
    },
    {
      "status": "0x1",
      "cumulativeGasUsed": "0x65207c",
      "logs": [
        {
          "address": "0x9c80f556f34d39286f2cfd145b98e93f66580295",
          "topics": [
            "0xddf252ad1be2c89b69c2b068fc378daa952ba7f163c4a11628f55a4df523b3ef",
            "0x0000000000000000000000001d1e94634fbcb767ce8650269b2c4d33280f0130",
            "0x000000000000000000000000e4b4ad9864e68e3605625a5ebf52552ab21a53da"
          ],
          "data": "0x0000000000000000000000000000000000000000000000056bc75e2d63100000",
          "blockHash": "0x60c18baf3340463c347615cdff8ac90b698bbc1e0a04e62a3cbb80ffa7d6027e",
          "blockNumber": "0xd517a1",
          "transactionHash": "0xd7a23df7b4588c31118a4ba6f135b9d6921b69c7330420d0a35e787c0229b9c9",
          "transactionIndex": "0xe",
          "logIndex": "0xa2",
          "removed": false
        }
      ],
      "logsBloom": "0x00000000000000000000000000000000000000000000000000000040000000000000000000000000000000000000000000000000000000000000000000000000000000000000000000000208000000100000000000000000000000000000000000000000000000000040000000000000000000000000000000000010000000000400000000000000000000000000000000000000000000000000000000000000000000000000000000000000000000000000000000000000000000000000000000000006000002000000200000000000000000000000000000000000000000000000000000100000000000000000000000000000000000000000000000000000",
      "type": "0x2",
      "transactionHash": "0xd7a23df7b4588c31118a4ba6f135b9d6921b69c7330420d0a35e787c0229b9c9",
      "transactionIndex": "0xe",
      "blockHash": "0x60c18baf3340463c347615cdff8ac90b698bbc1e0a04e62a3cbb80ffa7d6027e",
      "blockNumber": "0xd517a1",
      "gasUsed": "0xc99a",
      "effectiveGasPrice": "0x1b8f8077",
      "from": "0x1d1e94634fbcb767ce8650269b2c4d33280f0130",
      "to": "0x9c80f556f34d39286f2cfd145b98e93f66580295",
      "contractAddress": null,
      "l1BaseFeeScalar": "0x44d",
      "l1BlobBaseFee": "0xe4d",
      "l1BlobBaseFeeScalar": "0xa118b",
      "l1Fee": "0x3e7c3493d",
      "l1GasPrice": "0x23785e061",
      "l1GasUsed": "0x640"
    },
    {
      "status": "0x1",
      "cumulativeGasUsed": "0x65ea16",
      "logs": [
        {
          "address": "0x9c80f556f34d39286f2cfd145b98e93f66580295",
          "topics": [
            "0xddf252ad1be2c89b69c2b068fc378daa952ba7f163c4a11628f55a4df523b3ef",
            "0x0000000000000000000000001d1e94634fbcb767ce8650269b2c4d33280f0130",
            "0x000000000000000000000000820b59263f399442ef0c3b86a25d7c515861b464"
          ],
          "data": "0x0000000000000000000000000000000000000000000000056bc75e2d63100000",
          "blockHash": "0x60c18baf3340463c347615cdff8ac90b698bbc1e0a04e62a3cbb80ffa7d6027e",
          "blockNumber": "0xd517a1",
          "transactionHash": "0x60261715cc3caaa46c1b1412fca89c5344b06d33c289955156d572017bf578a1",
          "transactionIndex": "0xf",
          "logIndex": "0xa3",
          "removed": false
        }
      ],
      "logsBloom": "0x00000000000000000000000000000000000000000000000000000000000000000000000010000000000000000000000000000000000000000000000000000000000000000000000000000208000000100000000000000000000000000000000000000000000000000040000000000000000000000000000000000010000000000400000200000000000000000000000000000000000000000000000000000000000000000000000000000000000000000000000000000000000000000000000000000006000002000000000000000000000000000000000000000000000000000000000000000000000000000000000000000000000000200000000000000000",
      "type": "0x2",
      "transactionHash": "0x60261715cc3caaa46c1b1412fca89c5344b06d33c289955156d572017bf578a1",
      "transactionIndex": "0xf",
      "blockHash": "0x60c18baf3340463c347615cdff8ac90b698bbc1e0a04e62a3cbb80ffa7d6027e",
      "blockNumber": "0xd517a1",
      "gasUsed": "0xc99a",
      "effectiveGasPrice": "0x1b8f8077",
      "from": "0x1d1e94634fbcb767ce8650269b2c4d33280f0130",
      "to": "0x9c80f556f34d39286f2cfd145b98e93f66580295",
      "contractAddress": null,
      "l1BaseFeeScalar": "0x44d",
      "l1BlobBaseFee": "0xe4d",
      "l1BlobBaseFeeScalar": "0xa118b",
      "l1Fee": "0x3e7c3493d",
      "l1GasPrice": "0x23785e061",
      "l1GasUsed": "0x640"
    },
    {
      "status": "0x1",
      "cumulativeGasUsed": "0x66b3a4",
      "logs": [
        {
          "address": "0x9c80f556f34d39286f2cfd145b98e93f66580295",
          "topics": [
            "0xddf252ad1be2c89b69c2b068fc378daa952ba7f163c4a11628f55a4df523b3ef",
            "0x0000000000000000000000001d1e94634fbcb767ce8650269b2c4d33280f0130",
            "0x0000000000000000000000002498f0515663af008227ed0440450efaedd374b6"
          ],
          "data": "0x0000000000000000000000000000000000000000000000056bc75e2d63100000",
          "blockHash": "0x60c18baf3340463c347615cdff8ac90b698bbc1e0a04e62a3cbb80ffa7d6027e",
          "blockNumber": "0xd517a1",
          "transactionHash": "0xa9de8ca3785993b7dbf63693801e3500de28ee947df5476396f2b5efef156829",
          "transactionIndex": "0x10",
          "logIndex": "0xa4",
          "removed": false
        }
      ],
      "logsBloom": "0x00000000000000000000002000000000000000000000000000000010000000100000000000000000000000000000000000000000000000000000000000000000000000000000000000000208000000100000000000000000000000000000000000000000000000000040000000000000000000000000000000000010000000000400000000000000000000000000000000000000000000000000000000000000000000000000000000000000000000000000000000000000000000000000000000000006000002000000000000000000000000000000000000000000000000000000000000000000000000000000000000000000000000000000000000000000",
      "type": "0x2",
      "transactionHash": "0xa9de8ca3785993b7dbf63693801e3500de28ee947df5476396f2b5efef156829",
      "transactionIndex": "0x10",
      "blockHash": "0x60c18baf3340463c347615cdff8ac90b698bbc1e0a04e62a3cbb80ffa7d6027e",
      "blockNumber": "0xd517a1",
      "gasUsed": "0xc98e",
      "effectiveGasPrice": "0x1b8f8077",
      "from": "0x1d1e94634fbcb767ce8650269b2c4d33280f0130",
      "to": "0x9c80f556f34d39286f2cfd145b98e93f66580295",
      "contractAddress": null,
      "l1BaseFeeScalar": "0x44d",
      "l1BlobBaseFee": "0xe4d",
      "l1BlobBaseFeeScalar": "0xa118b",
      "l1Fee": "0x3e7c3493d",
      "l1GasPrice": "0x23785e061",
      "l1GasUsed": "0x640"
    },
    {
      "status": "0x1",
      "cumulativeGasUsed": "0x677d3e",
      "logs": [
        {
          "address": "0x9c80f556f34d39286f2cfd145b98e93f66580295",
          "topics": [
            "0xddf252ad1be2c89b69c2b068fc378daa952ba7f163c4a11628f55a4df523b3ef",
            "0x0000000000000000000000001d1e94634fbcb767ce8650269b2c4d33280f0130",
            "0x0000000000000000000000003660a2b355047dd434bf5b258e9f8d8c4d20f21d"
          ],
          "data": "0x0000000000000000000000000000000000000000000000056bc75e2d63100000",
          "blockHash": "0x60c18baf3340463c347615cdff8ac90b698bbc1e0a04e62a3cbb80ffa7d6027e",
          "blockNumber": "0xd517a1",
          "transactionHash": "0x1856b0d7983ebc5e84b263b90d0fcee95923f346dc17ab519b911076fb4c1ef6",
          "transactionIndex": "0x11",
          "logIndex": "0xa5",
          "removed": false
        }
      ],
      "logsBloom": "0x00000000000000000000000000000000000000000000000000000000000000000000000000000000000000000000000000000000000000000000000000000000000000000000000000000208000000100000000000000000000000000000000000000000000000000040000000000000000000000000000000000010000000000400000000002000000000000000000000000000000000000000000800000000000000000000000000000000000000000000000000000000000000000000000000000006000002000000000000000000000000000000000100000000000000000000000000000000000000000000000000000000000000000000000000000000",
      "type": "0x2",
      "transactionHash": "0x1856b0d7983ebc5e84b263b90d0fcee95923f346dc17ab519b911076fb4c1ef6",
      "transactionIndex": "0x11",
      "blockHash": "0x60c18baf3340463c347615cdff8ac90b698bbc1e0a04e62a3cbb80ffa7d6027e",
      "blockNumber": "0xd517a1",
      "gasUsed": "0xc99a",
      "effectiveGasPrice": "0x1b8f8077",
      "from": "0x1d1e94634fbcb767ce8650269b2c4d33280f0130",
      "to": "0x9c80f556f34d39286f2cfd145b98e93f66580295",
      "contractAddress": null,
      "l1BaseFeeScalar": "0x44d",
      "l1BlobBaseFee": "0xe4d",
      "l1BlobBaseFeeScalar": "0xa118b",
      "l1Fee": "0x3e7c3493d",
      "l1GasPrice": "0x23785e061",
      "l1GasUsed": "0x640"
    },
    {
      "status": "0x1",
      "cumulativeGasUsed": "0x6846d8",
      "logs": [
        {
          "address": "0x9c80f556f34d39286f2cfd145b98e93f66580295",
          "topics": [
            "0xddf252ad1be2c89b69c2b068fc378daa952ba7f163c4a11628f55a4df523b3ef",
            "0x0000000000000000000000001d1e94634fbcb767ce8650269b2c4d33280f0130",
            "0x000000000000000000000000584ded47c060ae1c3fe0f38549d854607d488b40"
          ],
          "data": "0x0000000000000000000000000000000000000000000000056bc75e2d63100000",
          "blockHash": "0x60c18baf3340463c347615cdff8ac90b698bbc1e0a04e62a3cbb80ffa7d6027e",
          "blockNumber": "0xd517a1",
          "transactionHash": "0xc4dd442af5aa0226a08f99e2fff9b0e6b24e265791e130f496693513e5a97abc",
          "transactionIndex": "0x12",
          "logIndex": "0xa6",
          "removed": false
        }
      ],
      "logsBloom": "0x00000000000000000000000000000000000000000000000000000000000000000000000000000000000000000000000000000000000020000000000000000000000000000000000000000208000000100000000000000000000000000000000000000000000000000040000000000000000000000000000000000010000000000400000000000000000000000000000000000000000000000020000000000000100000000000000000000000000000000000000000000000000000000000000000000006000002000000000000000000000000000000000000000000000000000000000000000000000000000000000000000000000000000000000000000000",
      "type": "0x2",
      "transactionHash": "0xc4dd442af5aa0226a08f99e2fff9b0e6b24e265791e130f496693513e5a97abc",
      "transactionIndex": "0x12",
      "blockHash": "0x60c18baf3340463c347615cdff8ac90b698bbc1e0a04e62a3cbb80ffa7d6027e",
      "blockNumber": "0xd517a1",
      "gasUsed": "0xc99a",
      "effectiveGasPrice": "0x1b8f8077",
      "from": "0x1d1e94634fbcb767ce8650269b2c4d33280f0130",
      "to": "0x9c80f556f34d39286f2cfd145b98e93f66580295",
      "contractAddress": null,
      "l1BaseFeeScalar": "0x44d",
      "l1BlobBaseFee": "0xe4d",
      "l1BlobBaseFeeScalar": "0xa118b",
      "l1Fee": "0x3e7c3493d",
      "l1GasPrice": "0x23785e061",
      "l1GasUsed": "0x640"
    },
    {
      "status": "0x1",
      "cumulativeGasUsed": "0x691072",
      "logs": [
        {
          "address": "0x9c80f556f34d39286f2cfd145b98e93f66580295",
          "topics": [
            "0xddf252ad1be2c89b69c2b068fc378daa952ba7f163c4a11628f55a4df523b3ef",
            "0x0000000000000000000000001d1e94634fbcb767ce8650269b2c4d33280f0130",
            "0x0000000000000000000000008827df1a64f3ba03f6ffd1b18b9fadecbb53ca4f"
          ],
          "data": "0x0000000000000000000000000000000000000000000000056bc75e2d63100000",
          "blockHash": "0x60c18baf3340463c347615cdff8ac90b698bbc1e0a04e62a3cbb80ffa7d6027e",
          "blockNumber": "0xd517a1",
          "transactionHash": "0xe7c0002b5fa3cb0db9bffe1247c0e62adedf428e8272cf3ce3829e7b59a3580b",
          "transactionIndex": "0x13",
          "logIndex": "0xa7",
          "removed": false
        }
      ],
      "logsBloom": "0x00000000000000000000000000000000000000000000000000000000000200000000000000000000000000000000000000000000000000000000000000000000000000000000000000000208000000100000000000000000000000000000000000000000000000000040000000000000000000400000000000000010000000000400000000000000000000000000000000000000000000000000000000000000000000000000000000000000000000000000000000000000000000000000000000000006000002000000000000000000000000000000000000000000000000000000000000000000000000000000000000000000010000000000000000000000",
      "type": "0x2",
      "transactionHash": "0xe7c0002b5fa3cb0db9bffe1247c0e62adedf428e8272cf3ce3829e7b59a3580b",
      "transactionIndex": "0x13",
      "blockHash": "0x60c18baf3340463c347615cdff8ac90b698bbc1e0a04e62a3cbb80ffa7d6027e",
      "blockNumber": "0xd517a1",
      "gasUsed": "0xc99a",
      "effectiveGasPrice": "0x1b8f8077",
      "from": "0x1d1e94634fbcb767ce8650269b2c4d33280f0130",
      "to": "0x9c80f556f34d39286f2cfd145b98e93f66580295",
      "contractAddress": null,
      "l1BaseFeeScalar": "0x44d",
      "l1BlobBaseFee": "0xe4d",
      "l1BlobBaseFeeScalar": "0xa118b",
      "l1Fee": "0x3e7c3493d",
      "l1GasPrice": "0x23785e061",
      "l1GasUsed": "0x640"
    }
  ],
  "libraries": [],
  "pending": [],
  "returns": {},
  "timestamp": 1723698729,
  "chain": 84532,
  "commit": "50f07b9"
}