{
  "transactions": [
    {
      "hash": "0x7e3a1cf71d9efa5ecdb326f169a5ccbb58e06a2bfc159e49d59ee7c9891b59e1",
      "transactionType": "CREATE",
      "contractName": "LamboToken",
      "contractAddress": "0xd4a6e0d923730b6443e9492a23a1e54b48f4b9e8",
      "function": null,
      "arguments": [
        "\"hhhh\"",
        "\"hhhh\""
      ],
      "transaction": {
        "from": "0x1d1e94634fbcb767ce8650269b2c4d33280f0130",
        "gas": "0x136baa",
        "value": "0x0",
        "input": "0x60a060405234801561001057600080fd5b506040516115d63803806115d683398181016040528101906100329190610225565b816040516020016100439190610330565b6040516020818303038152906040528181600390816100629190610568565b5080600490816100729190610568565b5050503373ffffffffffffffffffffffffffffffffffffffff1660808173ffffffffffffffffffffffffffffffffffffffff1681525050505061063a565b6000604051905090565b600080fd5b600080fd5b600080fd5b600080fd5b6000601f19601f8301169050919050565b7f4e487b7100000000000000000000000000000000000000000000000000000000600052604160045260246000fd5b610117826100ce565b810181811067ffffffffffffffff82111715610136576101356100df565b5b80604052505050565b60006101496100b0565b9050610155828261010e565b919050565b600067ffffffffffffffff821115610175576101746100df565b5b61017e826100ce565b9050602081019050919050565b60005b838110156101a957808201518184015260208101905061018e565b60008484015250505050565b60006101c86101c38461015a565b61013f565b9050828152602081018484840111156101e4576101e36100c9565b5b6101ef84828561018b565b509392505050565b600082601f83011261020c5761020b6100c4565b5b815161021c8482602086016101b5565b91505092915050565b6000806040838503121561023c5761023b6100ba565b5b600083015167ffffffffffffffff81111561025a576102596100bf565b5b610266858286016101f7565b925050602083015167ffffffffffffffff811115610287576102866100bf565b5b610293858286016101f7565b9150509250929050565b600081519050919050565b600081905092915050565b60006102be8261029d565b6102c881856102a8565b93506102d881856020860161018b565b80840191505092915050565b7f204c616d626f20546f6b656e0000000000000000000000000000000000000000600082015250565b600061031a600c836102a8565b9150610325826102e4565b600c82019050919050565b600061033c82846102b3565b91506103478261030d565b915081905092915050565b7f4e487b7100000000000000000000000000000000000000000000000000000000600052602260045260246000fd5b6000600282049050600182168061039957607f821691505b6020821081036103ac576103ab610352565b5b50919050565b60008190508160005260206000209050919050565b60006020601f8301049050919050565b600082821b905092915050565b6000600883026104147fffffffffffffffffffffffffffffffffffffffffffffffffffffffffffffffff826103d7565b61041e86836103d7565b95508019841693508086168417925050509392505050565b6000819050919050565b6000819050919050565b600061046561046061045b84610436565b610440565b610436565b9050919050565b6000819050919050565b61047f8361044a565b61049361048b8261046c565b8484546103e4565b825550505050565b600090565b6104a861049b565b6104b3818484610476565b505050565b5b818110156104d7576104cc6000826104a0565b6001810190506104b9565b5050565b601f82111561051c576104ed816103b2565b6104f6846103c7565b81016020851015610505578190505b610519610511856103c7565b8301826104b8565b50505b505050565b600082821c905092915050565b600061053f60001984600802610521565b1980831691505092915050565b6000610558838361052e565b9150826002028217905092915050565b6105718261029d565b67ffffffffffffffff81111561058a576105896100df565b5b6105948254610381565b61059f8282856104db565b600060209050601f8311600181146105d257600084156105c0578287015190505b6105ca858261054c565b865550610632565b601f1984166105e0866103b2565b60005b82811015610608578489015182556001820191506020850194506020810190506105e3565b868310156106255784890151610621601f89168261052e565b8355505b6001600288020188555050505b505050505050565b608051610f8161065560003960006103100152610f816000f3fe608060405234801561001057600080fd5b506004361061008e5760003560e01c806306fdde0314610093578063095ea7b3146100b157806318160ddd146100e157806323b872dd146100ff578063313ce5671461012f57806340c10f191461014d57806370a082311461016957806395d89b4114610199578063a9059cbb146101b7578063dd62ed3e146101e7575b600080fd5b61009b610217565b6040516100a89190610bd5565b60405180910390f35b6100cb60048036038101906100c69190610c90565b6102a9565b6040516100d89190610ceb565b60405180910390f35b6100e96102cc565b6040516100f69190610d15565b60405180910390f35b61011960048036038101906101149190610d30565b6102d6565b6040516101269190610ceb565b60405180910390f35b610137610305565b6040516101449190610d9f565b60405180910390f35b61016760048036038101906101629190610c90565b61030e565b005b610183600480360381019061017e9190610dba565b6103a1565b6040516101909190610d15565b60405180910390f35b6101a16103e9565b6040516101ae9190610bd5565b60405180910390f35b6101d160048036038101906101cc9190610c90565b61047b565b6040516101de9190610ceb565b60405180910390f35b61020160048036038101906101fc9190610de7565b61049e565b60405161020e9190610d15565b60405180910390f35b60606003805461022690610e56565b80601f016020809104026020016040519081016040528092919081815260200182805461025290610e56565b801561029f5780601f106102745761010080835404028352916020019161029f565b820191906000526020600020905b81548152906001019060200180831161028257829003601f168201915b5050505050905090565b6000806102b4610525565b90506102c181858561052d565b600191505092915050565b6000600254905090565b6000806102e1610525565b90506102ee85828561053f565b6102f98585856105d3565b60019150509392505050565b60006009905090565b7f000000000000000000000000000000000000000000000000000000000000000073ffffffffffffffffffffffffffffffffffffffff163373ffffffffffffffffffffffffffffffffffffffff1614610393576040517fb0490f9d00000000000000000000000000000000000000000000000000000000815260040160405180910390fd5b61039d82826106c7565b5050565b60008060008373ffffffffffffffffffffffffffffffffffffffff1673ffffffffffffffffffffffffffffffffffffffff168152602001908152602001600020549050919050565b6060600480546103f890610e56565b80601f016020809104026020016040519081016040528092919081815260200182805461042490610e56565b80156104715780601f1061044657610100808354040283529160200191610471565b820191906000526020600020905b81548152906001019060200180831161045457829003601f168201915b5050505050905090565b600080610486610525565b90506104938185856105d3565b600191505092915050565b6000600160008473ffffffffffffffffffffffffffffffffffffffff1673ffffffffffffffffffffffffffffffffffffffff16815260200190815260200160002060008373ffffffffffffffffffffffffffffffffffffffff1673ffffffffffffffffffffffffffffffffffffffff16815260200190815260200160002054905092915050565b600033905090565b61053a8383836001610749565b505050565b600061054b848461049e565b90507fffffffffffffffffffffffffffffffffffffffffffffffffffffffffffffffff81146105cd57818110156105bd578281836040517ffb8f41b20000000000000000000000000000000000000000000000000000000081526004016105b493929190610e96565b60405180910390fd5b6105cc84848484036000610749565b5b50505050565b600073ffffffffffffffffffffffffffffffffffffffff168373ffffffffffffffffffffffffffffffffffffffff16036106455760006040517f96c6fd1e00000000000000000000000000000000000000000000000000000000815260040161063c9190610ecd565b60405180910390fd5b600073ffffffffffffffffffffffffffffffffffffffff168273ffffffffffffffffffffffffffffffffffffffff16036106b75760006040517fec442f050000000000000000000000000000000000000000000000000000000081526004016106ae9190610ecd565b60405180910390fd5b6106c2838383610920565b505050565b600073ffffffffffffffffffffffffffffffffffffffff168273ffffffffffffffffffffffffffffffffffffffff16036107395760006040517fec442f050000000000000000000000000000000000000000000000000000000081526004016107309190610ecd565b60405180910390fd5b61074560008383610920565b5050565b600073ffffffffffffffffffffffffffffffffffffffff168473ffffffffffffffffffffffffffffffffffffffff16036107bb5760006040517fe602df050000000000000000000000000000000000000000000000000000000081526004016107b29190610ecd565b60405180910390fd5b600073ffffffffffffffffffffffffffffffffffffffff168373ffffffffffffffffffffffffffffffffffffffff160361082d5760006040517f94280d620000000000000000000000000000000000000000000000000000000081526004016108249190610ecd565b60405180910390fd5b81600160008673ffffffffffffffffffffffffffffffffffffffff1673ffffffffffffffffffffffffffffffffffffffff16815260200190815260200160002060008573ffffffffffffffffffffffffffffffffffffffff1673ffffffffffffffffffffffffffffffffffffffff16815260200190815260200160002081905550801561091a578273ffffffffffffffffffffffffffffffffffffffff168473ffffffffffffffffffffffffffffffffffffffff167f8c5be1e5ebec7d5bd14f71427d1e84f3dd0314c0f7b2291e5b200ac8c7c3b925846040516109119190610d15565b60405180910390a35b50505050565b600073ffffffffffffffffffffffffffffffffffffffff168373ffffffffffffffffffffffffffffffffffffffff16036109725780600260008282546109669190610f17565b92505081905550610a45565b60008060008573ffffffffffffffffffffffffffffffffffffffff1673ffffffffffffffffffffffffffffffffffffffff168152602001908152602001600020549050818110156109fe578381836040517fe450d38c0000000000000000000000000000000000000000000000000000000081526004016109f593929190610e96565b60405180910390fd5b8181036000808673ffffffffffffffffffffffffffffffffffffffff1673ffffffffffffffffffffffffffffffffffffffff16815260200190815260200160002081905550505b600073ffffffffffffffffffffffffffffffffffffffff168273ffffffffffffffffffffffffffffffffffffffff1603610a8e5780600260008282540392505081905550610adb565b806000808473ffffffffffffffffffffffffffffffffffffffff1673ffffffffffffffffffffffffffffffffffffffff168152602001908152602001600020600082825401925050819055505b8173ffffffffffffffffffffffffffffffffffffffff168373ffffffffffffffffffffffffffffffffffffffff167fddf252ad1be2c89b69c2b068fc378daa952ba7f163c4a11628f55a4df523b3ef83604051610b389190610d15565b60405180910390a3505050565b600081519050919050565b600082825260208201905092915050565b60005b83811015610b7f578082015181840152602081019050610b64565b60008484015250505050565b6000601f19601f8301169050919050565b6000610ba782610b45565b610bb18185610b50565b9350610bc1818560208601610b61565b610bca81610b8b565b840191505092915050565b60006020820190508181036000830152610bef8184610b9c565b905092915050565b600080fd5b600073ffffffffffffffffffffffffffffffffffffffff82169050919050565b6000610c2782610bfc565b9050919050565b610c3781610c1c565b8114610c4257600080fd5b50565b600081359050610c5481610c2e565b92915050565b6000819050919050565b610c6d81610c5a565b8114610c7857600080fd5b50565b600081359050610c8a81610c64565b92915050565b60008060408385031215610ca757610ca6610bf7565b5b6000610cb585828601610c45565b9250506020610cc685828601610c7b565b9150509250929050565b60008115159050919050565b610ce581610cd0565b82525050565b6000602082019050610d006000830184610cdc565b92915050565b610d0f81610c5a565b82525050565b6000602082019050610d2a6000830184610d06565b92915050565b600080600060608486031215610d4957610d48610bf7565b5b6000610d5786828701610c45565b9350506020610d6886828701610c45565b9250506040610d7986828701610c7b565b9150509250925092565b600060ff82169050919050565b610d9981610d83565b82525050565b6000602082019050610db46000830184610d90565b92915050565b600060208284031215610dd057610dcf610bf7565b5b6000610dde84828501610c45565b91505092915050565b60008060408385031215610dfe57610dfd610bf7565b5b6000610e0c85828601610c45565b9250506020610e1d85828601610c45565b9150509250929050565b7f4e487b7100000000000000000000000000000000000000000000000000000000600052602260045260246000fd5b60006002820490506001821680610e6e57607f821691505b602082108103610e8157610e80610e27565b5b50919050565b610e9081610c1c565b82525050565b6000606082019050610eab6000830186610e87565b610eb86020830185610d06565b610ec56040830184610d06565b949350505050565b6000602082019050610ee26000830184610e87565b92915050565b7f4e487b7100000000000000000000000000000000000000000000000000000000600052601160045260246000fd5b6000610f2282610c5a565b9150610f2d83610c5a565b9250828201905080821115610f4557610f44610ee8565b5b9291505056fea2646970667358221220e90b70b3c448885b591cebcd08ca9712335e161bb9205dadc0c03124e4ae2a0b64736f6c63430008190033000000000000000000000000000000000000000000000000000000000000004000000000000000000000000000000000000000000000000000000000000000800000000000000000000000000000000000000000000000000000000000000004686868680000000000000000000000000000000000000000000000000000000000000000000000000000000000000000000000000000000000000000000000046868686800000000000000000000000000000000000000000000000000000000",
        "nonce": "0xca",
        "chainId": "0x2105"
      },
      "additionalContracts": [],
      "isFixedGasLimit": false
    },
    {
      "hash": "0x51f2d6c4780421d35659e25cbff1a9a70c2c26a616bf2fffc1c72a89d9490b87",
      "transactionType": "CALL",
      "contractName": null,
      "contractAddress": "0x1eb6804352ffce385ea6de3f57644a2268d7a9b2",
      "function": "createLaunchPad(address,string,string)",
      "arguments": [
        "0x9F7860DA52bea7779d2bB55d7245d59D129467Dd",
        "\"FUCK Meme \"",
        "\"FMeme\""
      ],
      "transaction": {
        "from": "0x1d1e94634fbcb767ce8650269b2c4d33280f0130",
        "to": "0x1eb6804352ffce385ea6de3f57644a2268d7a9b2",
        "gas": "0x151371",
        "value": "0x0",
        "input": "0xf502ba680000000000000000000000009f7860da52bea7779d2bb55d7245d59d129467dd000000000000000000000000000000000000000000000000000000000000006000000000000000000000000000000000000000000000000000000000000000a0000000000000000000000000000000000000000000000000000000000000000a4655434b204d656d6520000000000000000000000000000000000000000000000000000000000000000000000000000000000000000000000000000000000005464d656d65000000000000000000000000000000000000000000000000000000",
        "nonce": "0xcb",
        "chainId": "0x2105"
      },
      "additionalContracts": [
        {
          "transactionType": "CREATE",
          "address": "0xdc7b09eb0504b407796bf040b823159a427d1fc7",
          "initCode": "0x60a060405234801561001057600080fd5b50604051610b00380380610b0083398101604081905261002f9161013a565b81604051602001610040919061019d565b60408051601f1981840301815291905281600361005d8382610258565b50600461006a8282610258565b50503360805250610317915050565b634e487b7160e01b600052604160045260246000fd5b60005b838110156100aa578181015183820152602001610092565b50506000910152565b600082601f8301126100c457600080fd5b81516001600160401b03808211156100de576100de610079565b604051601f8301601f19908116603f0116810190828211818310171561010657610106610079565b8160405283815286602085880101111561011f57600080fd5b61013084602083016020890161008f565b9695505050505050565b6000806040838503121561014d57600080fd5b82516001600160401b038082111561016457600080fd5b610170868387016100b3565b9350602085015191508082111561018657600080fd5b50610193858286016100b3565b9150509250929050565b600082516101af81846020870161008f565b6b102630b6b137902a37b5b2b760a11b920191825250600c01919050565b600181811c908216806101e157607f821691505b60208210810361020157634e487b7160e01b600052602260045260246000fd5b50919050565b601f821115610253576000816000526020600020601f850160051c810160208610156102305750805b601f850160051c820191505b8181101561024f5782815560010161023c565b5050505b505050565b81516001600160401b0381111561027157610271610079565b6102858161027f84546101cd565b84610207565b602080601f8311600181146102ba57600084156102a25750858301515b600019600386901b1c1916600185901b17855561024f565b600085815260208120601f198616915b828110156102e9578886015182559484019460019091019084016102ca565b50858210156103075787850151600019600388901b60f8161c191681555b5050505050600190811b01905550565b6080516107ce610332600039600061028501526107ce6000f3fe608060405234801561001057600080fd5b506004361061009e5760003560e01c806340c10f191161006657806340c10f191461011857806370a082311461012d57806395d89b4114610156578063a9059cbb1461015e578063dd62ed3e1461017157600080fd5b806306fdde03146100a3578063095ea7b3146100c157806318160ddd146100e457806323b872dd146100f6578063313ce56714610109575b600080fd5b6100ab6101aa565b6040516100b89190610617565b60405180910390f35b6100d46100cf366004610682565b61023c565b60405190151581526020016100b8565b6002545b6040519081526020016100b8565b6100d46101043660046106ac565b610256565b604051600981526020016100b8565b61012b610126366004610682565b61027a565b005b6100e861013b3660046106e8565b6001600160a01b031660009081526020819052604090205490565b6100ab6102d1565b6100d461016c366004610682565b6102e0565b6100e861017f36600461070a565b6001600160a01b03918216600090815260016020908152604080832093909416825291909152205490565b6060600380546101b99061073d565b80601f01602080910402602001604051908101604052809291908181526020018280546101e59061073d565b80156102325780601f1061020757610100808354040283529160200191610232565b820191906000526020600020905b81548152906001019060200180831161021557829003601f168201915b5050505050905090565b60003361024a8185856102ee565b60019150505b92915050565b600033610264858285610300565b61026f858585610383565b506001949350505050565b336001600160a01b037f000000000000000000000000000000000000000000000000000000000000000016146102c35760405163b0490f9d60e01b815260040160405180910390fd5b6102cd82826103e2565b5050565b6060600480546101b99061073d565b60003361024a818585610383565b6102fb8383836001610418565b505050565b6001600160a01b03838116600090815260016020908152604080832093861683529290522054600019811461037d578181101561036e57604051637dc7a0d960e11b81526001600160a01b038416600482015260248101829052604481018390526064015b60405180910390fd5b61037d84848484036000610418565b50505050565b6001600160a01b0383166103ad57604051634b637e8f60e11b815260006004820152602401610365565b6001600160a01b0382166103d75760405163ec442f0560e01b815260006004820152602401610365565b6102fb8383836104ed565b6001600160a01b03821661040c5760405163ec442f0560e01b815260006004820152602401610365565b6102cd600083836104ed565b6001600160a01b0384166104425760405163e602df0560e01b815260006004820152602401610365565b6001600160a01b03831661046c57604051634a1406b160e11b815260006004820152602401610365565b6001600160a01b038085166000908152600160209081526040808320938716835292905220829055801561037d57826001600160a01b0316846001600160a01b03167f8c5be1e5ebec7d5bd14f71427d1e84f3dd0314c0f7b2291e5b200ac8c7c3b925846040516104df91815260200190565b60405180910390a350505050565b6001600160a01b03831661051857806002600082825461050d9190610777565b9091555061058a9050565b6001600160a01b0383166000908152602081905260409020548181101561056b5760405163391434e360e21b81526001600160a01b03851660048201526024810182905260448101839052606401610365565b6001600160a01b03841660009081526020819052604090209082900390555b6001600160a01b0382166105a6576002805482900390556105c5565b6001600160a01b03821660009081526020819052604090208054820190555b816001600160a01b0316836001600160a01b03167fddf252ad1be2c89b69c2b068fc378daa952ba7f163c4a11628f55a4df523b3ef8360405161060a91815260200190565b60405180910390a3505050565b60006020808352835180602085015260005b8181101561064557858101830151858201604001528201610629565b506000604082860101526040601f19601f8301168501019250505092915050565b80356001600160a01b038116811461067d57600080fd5b919050565b6000806040838503121561069557600080fd5b61069e83610666565b946020939093013593505050565b6000806000606084860312156106c157600080fd5b6106ca84610666565b92506106d860208501610666565b9150604084013590509250925092565b6000602082840312156106fa57600080fd5b61070382610666565b9392505050565b6000806040838503121561071d57600080fd5b61072683610666565b915061073460208401610666565b90509250929050565b600181811c9082168061075157607f821691505b60208210810361077157634e487b7160e01b600052602260045260246000fd5b50919050565b8082018082111561025057634e487b7160e01b600052601160045260246000fdfea26469706673582212203172ca225789aec50f2c4a82e7290ff6c7e0c788f1f8ac1ac3eddc67f019166b64736f6c6343000819003300000000000000000000000000000000000000000000000000000000000000400000000000000000000000000000000000000000000000000000000000000080000000000000000000000000000000000000000000000000000000000000000a4655434b204d656d6520000000000000000000000000000000000000000000000000000000000000000000000000000000000000000000000000000000000005464d656d65000000000000000000000000000000000000000000000000000000"
        },
        {
          "transactionType": "CREATE2",
          "address": "0xd584a83068f9914d75512718d626ba9c9bf2c1b2",
          "initCode": "0x3d602d80600a3d3981f3363d3d373d3d3d363d736b879642dcde53519b1d31a93811928aa79290455af43d82803e903d91602b57fd5bf3"
        }
      ],
      "isFixedGasLimit": false
    },
    {
      "hash": "0x53f6a9a34105ab45b0163798573a63ec094756466f9512e1adb800814db624df",
      "transactionType": "CALL",
      "contractName": null,
      "contractAddress": "0x9f7860da52bea7779d2bb55d7245d59d129467dd",
      "function": "approve(address,uint256)",
      "arguments": [
        "0xdbde8CCBB955650DA09aec8B0f8f53ac7AEFa172",
        "1000000000000000000"
      ],
      "transaction": {
        "from": "0x1d1e94634fbcb767ce8650269b2c4d33280f0130",
        "to": "0x9f7860da52bea7779d2bb55d7245d59d129467dd",
        "gas": "0x1090a",
        "value": "0x0",
        "input": "0x095ea7b3000000000000000000000000dbde8ccbb955650da09aec8b0f8f53ac7aefa1720000000000000000000000000000000000000000000000000de0b6b3a7640000",
        "nonce": "0xcc",
        "chainId": "0x2105"
      },
      "additionalContracts": [],
      "isFixedGasLimit": false
    },
    {
      "hash": "0x6d0385caed7bf7ec429eb169e89628f7217e3dce7d67f5d304364263fba63095",
      "transactionType": "CALL",
      "contractName": null,
      "contractAddress": "0xdbde8ccbb955650da09aec8b0f8f53ac7aefa172",
      "function": "buyQuote(address,uint256,uint256)",
      "arguments": [
        "0xd584A83068f9914D75512718D626ba9c9Bf2C1b2",
        "1000000000000000000",
        "0"
      ],
      "transaction": {
        "from": "0x1d1e94634fbcb767ce8650269b2c4d33280f0130",
        "to": "0xdbde8ccbb955650da09aec8b0f8f53ac7aefa172",
        "gas": "0x3fa00",
        "value": "0x0",
        "input": "0xa7591849000000000000000000000000d584a83068f9914d75512718d626ba9c9bf2c1b20000000000000000000000000000000000000000000000000de0b6b3a76400000000000000000000000000000000000000000000000000000000000000000000",
        "nonce": "0xcd",
        "chainId": "0x2105"
      },
      "additionalContracts": [],
      "isFixedGasLimit": false
    },
    {
      "hash": "0xc4787e0971c5f5276702cdf585a409f6b8179a3cc3e66f0ebb7046b0238e6362",
      "transactionType": "CALL",
      "contractName": null,
      "contractAddress": "0xdc7b09eb0504b407796bf040b823159a427d1fc7",
      "function": "approve(address,uint256)",
      "arguments": [
        "0xdbde8CCBB955650DA09aec8B0f8f53ac7AEFa172",
        "367040816326530612"
      ],
      "transaction": {
        "from": "0x1d1e94634fbcb767ce8650269b2c4d33280f0130",
        "to": "0xdc7b09eb0504b407796bf040b823159a427d1fc7",
        "gas": "0x1090c",
        "value": "0x0",
        "input": "0x095ea7b3000000000000000000000000dbde8ccbb955650da09aec8b0f8f53ac7aefa1720000000000000000000000000000000000000000000000000517fdad83365634",
        "nonce": "0xce",
        "chainId": "0x2105"
      },
      "additionalContracts": [],
      "isFixedGasLimit": false
    },
    {
      "hash": "0x083b3afe5c6fb721fec98c9e8dd4bc12c6fe13962d58b71157f2e891b28baee5",
      "transactionType": "CALL",
      "contractName": null,
      "contractAddress": "0xdbde8ccbb955650da09aec8b0f8f53ac7aefa172",
      "function": "sellQuote(address,uint256,uint256)",
      "arguments": [
        "0xd584A83068f9914D75512718D626ba9c9Bf2C1b2",
        "367040816326530612",
        "0"
      ],
      "transaction": {
        "from": "0x1d1e94634fbcb767ce8650269b2c4d33280f0130",
        "to": "0xdbde8ccbb955650da09aec8b0f8f53ac7aefa172",
        "gas": "0x29f89",
        "value": "0x0",
        "input": "0xe784a059000000000000000000000000d584a83068f9914d75512718d626ba9c9bf2c1b20000000000000000000000000000000000000000000000000517fdad833656340000000000000000000000000000000000000000000000000000000000000000",
        "nonce": "0xcf",
        "chainId": "0x2105"
      },
      "additionalContracts": [],
      "isFixedGasLimit": false
    }
  ],
  "receipts": [
    {
      "status": "0x1",
      "cumulativeGasUsed": "0x12af975",
      "logs": [],
      "logsBloom": "0x00000000000000000000000000000000000000000000000000000000000000000000000000000000000000000000000000000000000000000000000000000000000000000000000000000000000000000000000000000000000000000000000000000000000000000000000000000000000000000000000000000000000000000000000000000000000000000000000000000000000000000000000000000000000000000000000000000000000000000000000000000000000000000000000000000000000000000000000000000000000000000000000000000000000000000000000000000000000000000000000000000000000000000000000000000000",
      "type": "0x2",
      "transactionHash": "0x7e3a1cf71d9efa5ecdb326f169a5ccbb58e06a2bfc159e49d59ee7c9891b59e1",
      "transactionIndex": "0x57",
      "blockHash": "0x4f8f756dde8ea622837958a2663e48b24174b78706e2f2be50fd16a790842704",
      "blockNumber": "0x1232e0b",
      "gasUsed": "0xef1c6",
      "effectiveGasPrice": "0x92809e",
      "from": "0x1d1e94634fbcb767ce8650269b2c4d33280f0130",
      "to": null,
      "contractAddress": "0xd4a6e0d923730b6443e9492a23a1e54b48f4b9e8",
      "l1BaseFeeScalar": "0x8dd",
      "l1BlobBaseFee": "0x1",
      "l1BlobBaseFeeScalar": "0x101c12",
      "l1Fee": "0x2e0ef89823",
      "l1GasPrice": "0x7ac9a5d0",
      "l1GasUsed": "0xa551"
    },
    {
      "status": "0x1",
      "cumulativeGasUsed": "0x1396366",
      "logs": [
        {
          "address": "0x1eb6804352ffce385ea6de3f57644a2268d7a9b2",
          "topics": [
            "0x91d24864a084ab70b268a1f865e757ca12006cf298d763b6be697302ef86498c"
          ],
          "data": "0x000000000000000000000000dc7b09eb0504b407796bf040b823159a427d1fc7",
          "blockHash": "0x4f8f756dde8ea622837958a2663e48b24174b78706e2f2be50fd16a790842704",
          "blockNumber": "0x1232e0b",
          "transactionHash": "0x51f2d6c4780421d35659e25cbff1a9a70c2c26a616bf2fffc1c72a89d9490b87",
          "transactionIndex": "0x58",
          "logIndex": "0x10d",
          "removed": false
        },
        {
          "address": "0xdc7b09eb0504b407796bf040b823159a427d1fc7",
          "topics": [
            "0xddf252ad1be2c89b69c2b068fc378daa952ba7f163c4a11628f55a4df523b3ef",
            "0x0000000000000000000000000000000000000000000000000000000000000000",
            "0x000000000000000000000000db2fa0a88b4735e68a9ea697b4707f1ffd342e60"
          ],
          "data": "0x0000000000000000000000000000000000000000000000000429d069189e0000",
          "blockHash": "0x4f8f756dde8ea622837958a2663e48b24174b78706e2f2be50fd16a790842704",
          "blockNumber": "0x1232e0b",
          "transactionHash": "0x51f2d6c4780421d35659e25cbff1a9a70c2c26a616bf2fffc1c72a89d9490b87",
          "transactionIndex": "0x58",
          "logIndex": "0x10e",
          "removed": false
        },
        {
          "address": "0xdc7b09eb0504b407796bf040b823159a427d1fc7",
          "topics": [
            "0xddf252ad1be2c89b69c2b068fc378daa952ba7f163c4a11628f55a4df523b3ef",
            "0x0000000000000000000000000000000000000000000000000000000000000000",
            "0x0000000000000000000000001eb6804352ffce385ea6de3f57644a2268d7a9b2"
          ],
          "data": "0x00000000000000000000000000000000000000000000000009b6e64a8ec60000",
          "blockHash": "0x4f8f756dde8ea622837958a2663e48b24174b78706e2f2be50fd16a790842704",
          "blockNumber": "0x1232e0b",
          "transactionHash": "0x51f2d6c4780421d35659e25cbff1a9a70c2c26a616bf2fffc1c72a89d9490b87",
          "transactionIndex": "0x58",
          "logIndex": "0x10f",
          "removed": false
        },
        {
          "address": "0xdc7b09eb0504b407796bf040b823159a427d1fc7",
          "topics": [
            "0x8c5be1e5ebec7d5bd14f71427d1e84f3dd0314c0f7b2291e5b200ac8c7c3b925",
            "0x0000000000000000000000001eb6804352ffce385ea6de3f57644a2268d7a9b2",
            "0x000000000000000000000000d584a83068f9914d75512718d626ba9c9bf2c1b2"
          ],
          "data": "0x00000000000000000000000000000000000000000000000009b6e64a8ec60000",
          "blockHash": "0x4f8f756dde8ea622837958a2663e48b24174b78706e2f2be50fd16a790842704",
          "blockNumber": "0x1232e0b",
          "transactionHash": "0x51f2d6c4780421d35659e25cbff1a9a70c2c26a616bf2fffc1c72a89d9490b87",
          "transactionIndex": "0x58",
          "logIndex": "0x110",
          "removed": false
        },
        {
          "address": "0xdc7b09eb0504b407796bf040b823159a427d1fc7",
          "topics": [
            "0xddf252ad1be2c89b69c2b068fc378daa952ba7f163c4a11628f55a4df523b3ef",
            "0x0000000000000000000000001eb6804352ffce385ea6de3f57644a2268d7a9b2",
            "0x000000000000000000000000d584a83068f9914d75512718d626ba9c9bf2c1b2"
          ],
          "data": "0x00000000000000000000000000000000000000000000000009b6e64a8ec60000",
          "blockHash": "0x4f8f756dde8ea622837958a2663e48b24174b78706e2f2be50fd16a790842704",
          "blockNumber": "0x1232e0b",
          "transactionHash": "0x51f2d6c4780421d35659e25cbff1a9a70c2c26a616bf2fffc1c72a89d9490b87",
          "transactionIndex": "0x58",
          "logIndex": "0x111",
          "removed": false
        },
        {
          "address": "0xd584a83068f9914d75512718d626ba9c9bf2c1b2",
          "topics": [
            "0xcf2aa50876cdfbb541206f89af0ee78d44a2abf8d328e37fa4917f982149848a"
          ],
          "data": "0x000000000000000000000000000000000000000000000000000000000000000000000000000000000000000000000000000000000000000009b6e64a8ec60000",
          "blockHash": "0x4f8f756dde8ea622837958a2663e48b24174b78706e2f2be50fd16a790842704",
          "blockNumber": "0x1232e0b",
          "transactionHash": "0x51f2d6c4780421d35659e25cbff1a9a70c2c26a616bf2fffc1c72a89d9490b87",
          "transactionIndex": "0x58",
          "logIndex": "0x112",
          "removed": false
        },
        {
          "address": "0x9f7860da52bea7779d2bb55d7245d59d129467dd",
          "topics": [
            "0x8c5be1e5ebec7d5bd14f71427d1e84f3dd0314c0f7b2291e5b200ac8c7c3b925",
            "0x000000000000000000000000d584a83068f9914d75512718d626ba9c9bf2c1b2",
            "0x000000000000000000000000db2fa0a88b4735e68a9ea697b4707f1ffd342e60"
          ],
          "data": "0xffffffffffffffffffffffffffffffffffffffffffffffffffffffffffffffff",
          "blockHash": "0x4f8f756dde8ea622837958a2663e48b24174b78706e2f2be50fd16a790842704",
          "blockNumber": "0x1232e0b",
          "transactionHash": "0x51f2d6c4780421d35659e25cbff1a9a70c2c26a616bf2fffc1c72a89d9490b87",
          "transactionIndex": "0x58",
          "logIndex": "0x113",
          "removed": false
        },
        {
          "address": "0xdc7b09eb0504b407796bf040b823159a427d1fc7",
          "topics": [
            "0x8c5be1e5ebec7d5bd14f71427d1e84f3dd0314c0f7b2291e5b200ac8c7c3b925",
            "0x000000000000000000000000d584a83068f9914d75512718d626ba9c9bf2c1b2",
            "0x000000000000000000000000db2fa0a88b4735e68a9ea697b4707f1ffd342e60"
          ],
          "data": "0xffffffffffffffffffffffffffffffffffffffffffffffffffffffffffffffff",
          "blockHash": "0x4f8f756dde8ea622837958a2663e48b24174b78706e2f2be50fd16a790842704",
          "blockNumber": "0x1232e0b",
          "transactionHash": "0x51f2d6c4780421d35659e25cbff1a9a70c2c26a616bf2fffc1c72a89d9490b87",
          "transactionIndex": "0x58",
          "logIndex": "0x114",
          "removed": false
        },
        {
          "address": "0xd584a83068f9914d75512718d626ba9c9bf2c1b2",
          "topics": [
            "0xb1169cd24fa73a90447c53832d208080fef5826a3f1c5ffa5040dd02b290ff59"
          ],
          "data": "0x0000000000000000000000009f7860da52bea7779d2bb55d7245d59d129467dd000000000000000000000000dc7b09eb0504b407796bf040b823159a427d1fc70000000000000000000000001eb6804352ffce385ea6de3f57644a2268d7a9b200000000000000000000000000000000000000000000000009b6e64a8ec60000",
          "blockHash": "0x4f8f756dde8ea622837958a2663e48b24174b78706e2f2be50fd16a790842704",
          "blockNumber": "0x1232e0b",
          "transactionHash": "0x51f2d6c4780421d35659e25cbff1a9a70c2c26a616bf2fffc1c72a89d9490b87",
          "transactionIndex": "0x58",
          "logIndex": "0x115",
          "removed": false
        },
        {
          "address": "0x9882334d10e75f7c35b482d717c7180a9096394e",
          "topics": [
            "0x9c5d829b9b23efc461f9aeef91979ec04bb903feb3bee4f26d22114abfc7335b"
          ],
          "data": "0x0000000000000000000000009f7860da52bea7779d2bb55d7245d59d129467dd000000000000000000000000dc7b09eb0504b407796bf040b823159a427d1fc7000000000000000000000000d584a83068f9914d75512718d626ba9c9bf2c1b2",
          "blockHash": "0x4f8f756dde8ea622837958a2663e48b24174b78706e2f2be50fd16a790842704",
          "blockNumber": "0x1232e0b",
          "transactionHash": "0x51f2d6c4780421d35659e25cbff1a9a70c2c26a616bf2fffc1c72a89d9490b87",
          "transactionIndex": "0x58",
          "logIndex": "0x116",
          "removed": false
        },
        {
          "address": "0x1eb6804352ffce385ea6de3f57644a2268d7a9b2",
          "topics": [
            "0x9c5d829b9b23efc461f9aeef91979ec04bb903feb3bee4f26d22114abfc7335b"
          ],
          "data": "0x0000000000000000000000009f7860da52bea7779d2bb55d7245d59d129467dd000000000000000000000000dc7b09eb0504b407796bf040b823159a427d1fc7000000000000000000000000d584a83068f9914d75512718d626ba9c9bf2c1b2",
          "blockHash": "0x4f8f756dde8ea622837958a2663e48b24174b78706e2f2be50fd16a790842704",
          "blockNumber": "0x1232e0b",
          "transactionHash": "0x51f2d6c4780421d35659e25cbff1a9a70c2c26a616bf2fffc1c72a89d9490b87",
          "transactionIndex": "0x58",
          "logIndex": "0x117",
          "removed": false
        }
      ],
      "logsBloom": "0x00000000000000802000000000000000000000000008000000000000000100000200000004000000000000000000000000001000000000000000400000200000000000050000000000000008000000000000000000000000000000000000000000000100020400000000000000400800004000000000000800000010000000000000000000000000000080000000000040001000000000000000000000000000020000000002000000000000000000000000000000000000020000000000000000000002000000000800000400000200000000000008000100800000040020000010000018000000000000000000040011000000000000002000001000001000",
      "type": "0x2",
      "transactionHash": "0x51f2d6c4780421d35659e25cbff1a9a70c2c26a616bf2fffc1c72a89d9490b87",
      "transactionIndex": "0x58",
      "blockHash": "0x4f8f756dde8ea622837958a2663e48b24174b78706e2f2be50fd16a790842704",
      "blockNumber": "0x1232e0b",
      "gasUsed": "0xe69f1",
      "effectiveGasPrice": "0x92809e",
      "from": "0x1d1e94634fbcb767ce8650269b2c4d33280f0130",
      "to": "0x1eb6804352ffce385ea6de3f57644a2268d7a9b2",
      "contractAddress": null,
      "l1BaseFeeScalar": "0x8dd",
      "l1BlobBaseFee": "0x1",
      "l1BlobBaseFeeScalar": "0x101c12",
      "l1Fee": "0x21d05a1f4",
      "l1GasPrice": "0x7ac9a5d0",
      "l1GasUsed": "0x795"
    },
    {
      "status": "0x1",
      "cumulativeGasUsed": "0x13a18a0",
      "logs": [
        {
          "address": "0x9f7860da52bea7779d2bb55d7245d59d129467dd",
          "topics": [
            "0x8c5be1e5ebec7d5bd14f71427d1e84f3dd0314c0f7b2291e5b200ac8c7c3b925",
            "0x0000000000000000000000001d1e94634fbcb767ce8650269b2c4d33280f0130",
            "0x000000000000000000000000dbde8ccbb955650da09aec8b0f8f53ac7aefa172"
          ],
          "data": "0x0000000000000000000000000000000000000000000000000de0b6b3a7640000",
          "blockHash": "0x4f8f756dde8ea622837958a2663e48b24174b78706e2f2be50fd16a790842704",
          "blockNumber": "0x1232e0b",
          "transactionHash": "0x53f6a9a34105ab45b0163798573a63ec094756466f9512e1adb800814db624df",
          "transactionIndex": "0x59",
          "logIndex": "0x118",
          "removed": false
        }
      ],
      "logsBloom": "0x00000000000000000000000000000000000020000000000000000000000000000200000000000000000000000000000000000000000000000400000000200000000000000000000000000200000200000000000000000000000000000000000000000000000000000000000000000000000000000000000000000000000000000400000000000000000080000000000000000000000000000000000000000000020000000002000000000000000000000000000000000000000000000000000000000000000002000000000000000000000000000000000000000000000000000010000000000000000000000000000000000000000000000000000000000000",
      "type": "0x2",
      "transactionHash": "0x53f6a9a34105ab45b0163798573a63ec094756466f9512e1adb800814db624df",
      "transactionIndex": "0x59",
      "blockHash": "0x4f8f756dde8ea622837958a2663e48b24174b78706e2f2be50fd16a790842704",
      "blockNumber": "0x1232e0b",
      "gasUsed": "0xb53a",
      "effectiveGasPrice": "0x92809e",
      "from": "0x1d1e94634fbcb767ce8650269b2c4d33280f0130",
      "to": "0x9f7860da52bea7779d2bb55d7245d59d129467dd",
      "contractAddress": null,
      "l1BaseFeeScalar": "0x8dd",
      "l1BlobBaseFee": "0x1",
      "l1BlobBaseFeeScalar": "0x101c12",
      "l1Fee": "0x1bdc4b75b",
      "l1GasPrice": "0x7ac9a5d0",
      "l1GasUsed": "0x640"
    },
    {
      "status": "0x1",
      "cumulativeGasUsed": "0x13cd0b2",
      "logs": [
        {
          "address": "0x9f7860da52bea7779d2bb55d7245d59d129467dd",
          "topics": [
            "0xddf252ad1be2c89b69c2b068fc378daa952ba7f163c4a11628f55a4df523b3ef",
            "0x0000000000000000000000001d1e94634fbcb767ce8650269b2c4d33280f0130",
            "0x000000000000000000000000a694057025bf925f1e010ab7a24b2bf96627a990"
          ],
          "data": "0x000000000000000000000000000000000000000000000000002386f26fc10000",
          "blockHash": "0x4f8f756dde8ea622837958a2663e48b24174b78706e2f2be50fd16a790842704",
          "blockNumber": "0x1232e0b",
          "transactionHash": "0x6d0385caed7bf7ec429eb169e89628f7217e3dce7d67f5d304364263fba63095",
          "transactionIndex": "0x5a",
          "logIndex": "0x119",
          "removed": false
        },
        {
          "address": "0x9f7860da52bea7779d2bb55d7245d59d129467dd",
          "topics": [
            "0xddf252ad1be2c89b69c2b068fc378daa952ba7f163c4a11628f55a4df523b3ef",
            "0x0000000000000000000000001d1e94634fbcb767ce8650269b2c4d33280f0130",
            "0x000000000000000000000000d584a83068f9914d75512718d626ba9c9bf2c1b2"
          ],
          "data": "0x0000000000000000000000000000000000000000000000000dbd2fc137a30000",
          "blockHash": "0x4f8f756dde8ea622837958a2663e48b24174b78706e2f2be50fd16a790842704",
          "blockNumber": "0x1232e0b",
          "transactionHash": "0x6d0385caed7bf7ec429eb169e89628f7217e3dce7d67f5d304364263fba63095",
          "transactionIndex": "0x5a",
          "logIndex": "0x11a",
          "removed": false
        },
        {
          "address": "0xdc7b09eb0504b407796bf040b823159a427d1fc7",
          "topics": [
            "0xddf252ad1be2c89b69c2b068fc378daa952ba7f163c4a11628f55a4df523b3ef",
            "0x000000000000000000000000d584a83068f9914d75512718d626ba9c9bf2c1b2",
            "0x0000000000000000000000001d1e94634fbcb767ce8650269b2c4d33280f0130"
          ],
          "data": "0x0000000000000000000000000000000000000000000000000517fdad83365634",
          "blockHash": "0x4f8f756dde8ea622837958a2663e48b24174b78706e2f2be50fd16a790842704",
          "blockNumber": "0x1232e0b",
          "transactionHash": "0x6d0385caed7bf7ec429eb169e89628f7217e3dce7d67f5d304364263fba63095",
          "transactionIndex": "0x5a",
          "logIndex": "0x11b",
          "removed": false
        },
        {
          "address": "0xd584a83068f9914d75512718d626ba9c9bf2c1b2",
          "topics": [
            "0xcf2aa50876cdfbb541206f89af0ee78d44a2abf8d328e37fa4917f982149848a"
          ],
          "data": "0x0000000000000000000000000000000000000000000000000dbd2fc137a30000000000000000000000000000000000000000000000000000049ee89d0b8fa9cc",
          "blockHash": "0x4f8f756dde8ea622837958a2663e48b24174b78706e2f2be50fd16a790842704",
          "blockNumber": "0x1232e0b",
          "transactionHash": "0x6d0385caed7bf7ec429eb169e89628f7217e3dce7d67f5d304364263fba63095",
          "transactionIndex": "0x5a",
          "logIndex": "0x11c",
          "removed": false
        },
        {
          "address": "0xdbde8ccbb955650da09aec8b0f8f53ac7aefa172",
          "topics": [
            "0x0ae52a34bc319eaa4ece799f69c6a1d4b7b64fd9ff992022c9821cd08daa7ec6"
          ],
          "data": "0x400000000000000000000000d584a83068f9914d75512718d626ba9c9bf2c1b20000000000000000000000009f7860da52bea7779d2bb55d7245d59d129467dd000000000000000000000000dc7b09eb0504b407796bf040b823159a427d1fc70000000000000000000000000000000000000000000000000dbd2fc137a300000000000000000000000000000000000000000000000000000517fdad833656340000000000000000000000000000000000000000000000000000000000000000",
          "blockHash": "0x4f8f756dde8ea622837958a2663e48b24174b78706e2f2be50fd16a790842704",
          "blockNumber": "0x1232e0b",
          "transactionHash": "0x6d0385caed7bf7ec429eb169e89628f7217e3dce7d67f5d304364263fba63095",
          "transactionIndex": "0x5a",
          "logIndex": "0x11d",
          "removed": false
        }
      ],
      "logsBloom": "0x00000000000000800000000000002000000000000000000000000000000100000200000000000008000000000100000000000000000000000000400000000000000400011000000000000208000000000000000000000000000000000000000000000100000400000000000000400000000000000000000000000810000000000400000000000000000080000000000000001000000000000000000000000000000000000002000000000000000000000000000000000000020000200200000000000002000002000000000400000000000000000000000800800000000000000000000010000000000000000000000000000000000000000000000000000000",
      "type": "0x2",
      "transactionHash": "0x6d0385caed7bf7ec429eb169e89628f7217e3dce7d67f5d304364263fba63095",
      "transactionIndex": "0x5a",
      "blockHash": "0x4f8f756dde8ea622837958a2663e48b24174b78706e2f2be50fd16a790842704",
      "blockNumber": "0x1232e0b",
      "gasUsed": "0x2b812",
      "effectiveGasPrice": "0x92809e",
      "from": "0x1d1e94634fbcb767ce8650269b2c4d33280f0130",
      "to": "0xdbde8ccbb955650da09aec8b0f8f53ac7aefa172",
      "contractAddress": null,
      "l1BaseFeeScalar": "0x8dd",
      "l1BlobBaseFee": "0x1",
      "l1BlobBaseFeeScalar": "0x101c12",
      "l1Fee": "0x1bdc4b75b",
      "l1GasPrice": "0x7ac9a5d0",
      "l1GasUsed": "0x640"
    },
    {
      "status": "0x1",
      "cumulativeGasUsed": "0x13d85ed",
      "logs": [
        {
          "address": "0xdc7b09eb0504b407796bf040b823159a427d1fc7",
          "topics": [
            "0x8c5be1e5ebec7d5bd14f71427d1e84f3dd0314c0f7b2291e5b200ac8c7c3b925",
            "0x0000000000000000000000001d1e94634fbcb767ce8650269b2c4d33280f0130",
            "0x000000000000000000000000dbde8ccbb955650da09aec8b0f8f53ac7aefa172"
          ],
          "data": "0x0000000000000000000000000000000000000000000000000517fdad83365634",
          "blockHash": "0x4f8f756dde8ea622837958a2663e48b24174b78706e2f2be50fd16a790842704",
          "blockNumber": "0x1232e0b",
          "transactionHash": "0xc4787e0971c5f5276702cdf585a409f6b8179a3cc3e66f0ebb7046b0238e6362",
          "transactionIndex": "0x5b",
          "logIndex": "0x11e",
          "removed": false
        }
      ],
      "logsBloom": "0x00000000000000000000000000000000000020000000000000000000000000000000000000000000000000000000000000000000000000000400000000200000000000000000000000000200000200000000000000000000000000000000000000000100000000000000000000000000000000000000000000000000000000000400000000000000000000000000000000000000000000000000000000000000020000000000000000000000000000000000000000000000000000000000000000000000000002000000000000000000000000000000000000800000000000000010000010000000000000000000000000000000000000000000000000000000",
      "type": "0x2",
      "transactionHash": "0xc4787e0971c5f5276702cdf585a409f6b8179a3cc3e66f0ebb7046b0238e6362",
      "transactionIndex": "0x5b",
      "blockHash": "0x4f8f756dde8ea622837958a2663e48b24174b78706e2f2be50fd16a790842704",
      "blockNumber": "0x1232e0b",
      "gasUsed": "0xb53b",
      "effectiveGasPrice": "0x92809e",
      "from": "0x1d1e94634fbcb767ce8650269b2c4d33280f0130",
      "to": "0xdc7b09eb0504b407796bf040b823159a427d1fc7",
      "contractAddress": null,
      "l1BaseFeeScalar": "0x8dd",
      "l1BlobBaseFee": "0x1",
      "l1BlobBaseFeeScalar": "0x101c12",
      "l1Fee": "0x1bdc4b75b",
      "l1GasPrice": "0x7ac9a5d0",
      "l1GasUsed": "0x640"
    },
    {
      "status": "0x1",
      "cumulativeGasUsed": "0x13f6c1c",
      "logs": [
        {
          "address": "0xdc7b09eb0504b407796bf040b823159a427d1fc7",
          "topics": [
            "0xddf252ad1be2c89b69c2b068fc378daa952ba7f163c4a11628f55a4df523b3ef",
            "0x0000000000000000000000001d1e94634fbcb767ce8650269b2c4d33280f0130",
            "0x000000000000000000000000d584a83068f9914d75512718d626ba9c9bf2c1b2"
          ],
          "data": "0x0000000000000000000000000000000000000000000000000517fdad83365634",
          "blockHash": "0x4f8f756dde8ea622837958a2663e48b24174b78706e2f2be50fd16a790842704",
          "blockNumber": "0x1232e0b",
          "transactionHash": "0x083b3afe5c6fb721fec98c9e8dd4bc12c6fe13962d58b71157f2e891b28baee5",
          "transactionIndex": "0x5c",
          "logIndex": "0x11f",
          "removed": false
        },
        {
          "address": "0x9f7860da52bea7779d2bb55d7245d59d129467dd",
          "topics": [
            "0xddf252ad1be2c89b69c2b068fc378daa952ba7f163c4a11628f55a4df523b3ef",
            "0x000000000000000000000000d584a83068f9914d75512718d626ba9c9bf2c1b2",
            "0x000000000000000000000000dbde8ccbb955650da09aec8b0f8f53ac7aefa172"
          ],
          "data": "0x0000000000000000000000000000000000000000000000000dbd2fc137a2ffff",
          "blockHash": "0x4f8f756dde8ea622837958a2663e48b24174b78706e2f2be50fd16a790842704",
          "blockNumber": "0x1232e0b",
          "transactionHash": "0x083b3afe5c6fb721fec98c9e8dd4bc12c6fe13962d58b71157f2e891b28baee5",
          "transactionIndex": "0x5c",
          "logIndex": "0x120",
          "removed": false
        },
        {
          "address": "0xd584a83068f9914d75512718d626ba9c9bf2c1b2",
          "topics": [
            "0xcf2aa50876cdfbb541206f89af0ee78d44a2abf8d328e37fa4917f982149848a"
          ],
          "data": "0x000000000000000000000000000000000000000000000000000000000000000100000000000000000000000000000000000000000000000009b6e64a8ec60000",
          "blockHash": "0x4f8f756dde8ea622837958a2663e48b24174b78706e2f2be50fd16a790842704",
          "blockNumber": "0x1232e0b",
          "transactionHash": "0x083b3afe5c6fb721fec98c9e8dd4bc12c6fe13962d58b71157f2e891b28baee5",
          "transactionIndex": "0x5c",
          "logIndex": "0x121",
          "removed": false
        },
        {
          "address": "0x9f7860da52bea7779d2bb55d7245d59d129467dd",
          "topics": [
            "0xddf252ad1be2c89b69c2b068fc378daa952ba7f163c4a11628f55a4df523b3ef",
            "0x000000000000000000000000dbde8ccbb955650da09aec8b0f8f53ac7aefa172",
            "0x000000000000000000000000a694057025bf925f1e010ab7a24b2bf96627a990"
          ],
          "data": "0x00000000000000000000000000000000000000000000000000232bff5f46bfff",
          "blockHash": "0x4f8f756dde8ea622837958a2663e48b24174b78706e2f2be50fd16a790842704",
          "blockNumber": "0x1232e0b",
          "transactionHash": "0x083b3afe5c6fb721fec98c9e8dd4bc12c6fe13962d58b71157f2e891b28baee5",
          "transactionIndex": "0x5c",
          "logIndex": "0x122",
          "removed": false
        },
        {
          "address": "0x9f7860da52bea7779d2bb55d7245d59d129467dd",
          "topics": [
            "0xddf252ad1be2c89b69c2b068fc378daa952ba7f163c4a11628f55a4df523b3ef",
            "0x000000000000000000000000dbde8ccbb955650da09aec8b0f8f53ac7aefa172",
            "0x0000000000000000000000001d1e94634fbcb767ce8650269b2c4d33280f0130"
          ],
          "data": "0x0000000000000000000000000000000000000000000000000d9a03c1d85c4000",
          "blockHash": "0x4f8f756dde8ea622837958a2663e48b24174b78706e2f2be50fd16a790842704",
          "blockNumber": "0x1232e0b",
          "transactionHash": "0x083b3afe5c6fb721fec98c9e8dd4bc12c6fe13962d58b71157f2e891b28baee5",
          "transactionIndex": "0x5c",
          "logIndex": "0x123",
          "removed": false
        },
        {
          "address": "0xdbde8ccbb955650da09aec8b0f8f53ac7aefa172",
          "topics": [
            "0x0ae52a34bc319eaa4ece799f69c6a1d4b7b64fd9ff992022c9821cd08daa7ec6"
          ],
          "data": "0x000000000000000000000000d584a83068f9914d75512718d626ba9c9bf2c1b2000000000000000000000000dc7b09eb0504b407796bf040b823159a427d1fc70000000000000000000000009f7860da52bea7779d2bb55d7245d59d129467dd0000000000000000000000000000000000000000000000000517fdad833656340000000000000000000000000000000000000000000000000d9a03c1d85c40000000000000000000000000000000000000000000000000000000000000000000",
          "blockHash": "0x4f8f756dde8ea622837958a2663e48b24174b78706e2f2be50fd16a790842704",
          "blockNumber": "0x1232e0b",
          "transactionHash": "0x083b3afe5c6fb721fec98c9e8dd4bc12c6fe13962d58b71157f2e891b28baee5",
          "transactionIndex": "0x5c",
          "logIndex": "0x124",
          "removed": false
        }
      ],
      "logsBloom": "0x00000000000000800000000000002000000020000000000000000000000100000200000000000008000000000100000000000000000000000400400000000000000400011000000000000208000200000000000000000000000000000000000000000100000400000000000000400000000000000000000000000810000000000400000000000000000080000000000000001000000000000000000000000000000000000002000000000000000000000000000000000000020000200200000000000002000002000000000400000000000000000000000800800000000000000000000010000000000000000000000000000000000000000000000000000000",
      "type": "0x2",
      "transactionHash": "0x083b3afe5c6fb721fec98c9e8dd4bc12c6fe13962d58b71157f2e891b28baee5",
      "transactionIndex": "0x5c",
      "blockHash": "0x4f8f756dde8ea622837958a2663e48b24174b78706e2f2be50fd16a790842704",
      "blockNumber": "0x1232e0b",
      "gasUsed": "0x1e62f",
      "effectiveGasPrice": "0x92809e",
      "from": "0x1d1e94634fbcb767ce8650269b2c4d33280f0130",
      "to": "0xdbde8ccbb955650da09aec8b0f8f53ac7aefa172",
      "contractAddress": null,
      "l1BaseFeeScalar": "0x8dd",
      "l1BlobBaseFee": "0x1",
      "l1BlobBaseFeeScalar": "0x101c12",
      "l1Fee": "0x1bdc4b75b",
      "l1GasPrice": "0x7ac9a5d0",
      "l1GasUsed": "0x640"
    }
  ],
  "libraries": [],
  "pending": [],
  "returns": {},
  "timestamp": 1724954882,
  "chain": 8453,
  "commit": "df55a2a"
}