{
  "transactions": [
    {
      "hash": "0x299d7731f91ab5f78db2523933ca5384ee6e42920c8dc9f1073e56b78a1b407c",
      "transactionType": "CREATE",
      "contractName": "LamboToken",
      "contractAddress": "0x2b33d14313ae7f4d10fb834d7f98a6cb338cd859",
      "function": null,
      "arguments": [
        "\"hhhh\"",
        "\"hhhh\""
      ],
      "transaction": {
        "from": "0x1d1e94634fbcb767ce8650269b2c4d33280f0130",
        "gas": "0x136baa",
        "value": "0x0",
        "input": "0x60a060405234801561001057600080fd5b506040516115d63803806115d683398181016040528101906100329190610225565b816040516020016100439190610330565b6040516020818303038152906040528181600390816100629190610568565b5080600490816100729190610568565b5050503373ffffffffffffffffffffffffffffffffffffffff1660808173ffffffffffffffffffffffffffffffffffffffff1681525050505061063a565b6000604051905090565b600080fd5b600080fd5b600080fd5b600080fd5b6000601f19601f8301169050919050565b7f4e487b7100000000000000000000000000000000000000000000000000000000600052604160045260246000fd5b610117826100ce565b810181811067ffffffffffffffff82111715610136576101356100df565b5b80604052505050565b60006101496100b0565b9050610155828261010e565b919050565b600067ffffffffffffffff821115610175576101746100df565b5b61017e826100ce565b9050602081019050919050565b60005b838110156101a957808201518184015260208101905061018e565b60008484015250505050565b60006101c86101c38461015a565b61013f565b9050828152602081018484840111156101e4576101e36100c9565b5b6101ef84828561018b565b509392505050565b600082601f83011261020c5761020b6100c4565b5b815161021c8482602086016101b5565b91505092915050565b6000806040838503121561023c5761023b6100ba565b5b600083015167ffffffffffffffff81111561025a576102596100bf565b5b610266858286016101f7565b925050602083015167ffffffffffffffff811115610287576102866100bf565b5b610293858286016101f7565b9150509250929050565b600081519050919050565b600081905092915050565b60006102be8261029d565b6102c881856102a8565b93506102d881856020860161018b565b80840191505092915050565b7f204c616d626f20546f6b656e0000000000000000000000000000000000000000600082015250565b600061031a600c836102a8565b9150610325826102e4565b600c82019050919050565b600061033c82846102b3565b91506103478261030d565b915081905092915050565b7f4e487b7100000000000000000000000000000000000000000000000000000000600052602260045260246000fd5b6000600282049050600182168061039957607f821691505b6020821081036103ac576103ab610352565b5b50919050565b60008190508160005260206000209050919050565b60006020601f8301049050919050565b600082821b905092915050565b6000600883026104147fffffffffffffffffffffffffffffffffffffffffffffffffffffffffffffffff826103d7565b61041e86836103d7565b95508019841693508086168417925050509392505050565b6000819050919050565b6000819050919050565b600061046561046061045b84610436565b610440565b610436565b9050919050565b6000819050919050565b61047f8361044a565b61049361048b8261046c565b8484546103e4565b825550505050565b600090565b6104a861049b565b6104b3818484610476565b505050565b5b818110156104d7576104cc6000826104a0565b6001810190506104b9565b5050565b601f82111561051c576104ed816103b2565b6104f6846103c7565b81016020851015610505578190505b610519610511856103c7565b8301826104b8565b50505b505050565b600082821c905092915050565b600061053f60001984600802610521565b1980831691505092915050565b6000610558838361052e565b9150826002028217905092915050565b6105718261029d565b67ffffffffffffffff81111561058a576105896100df565b5b6105948254610381565b61059f8282856104db565b600060209050601f8311600181146105d257600084156105c0578287015190505b6105ca858261054c565b865550610632565b601f1984166105e0866103b2565b60005b82811015610608578489015182556001820191506020850194506020810190506105e3565b868310156106255784890151610621601f89168261052e565b8355505b6001600288020188555050505b505050505050565b608051610f8161065560003960006103100152610f816000f3fe608060405234801561001057600080fd5b506004361061008e5760003560e01c806306fdde0314610093578063095ea7b3146100b157806318160ddd146100e157806323b872dd146100ff578063313ce5671461012f57806340c10f191461014d57806370a082311461016957806395d89b4114610199578063a9059cbb146101b7578063dd62ed3e146101e7575b600080fd5b61009b610217565b6040516100a89190610bd5565b60405180910390f35b6100cb60048036038101906100c69190610c90565b6102a9565b6040516100d89190610ceb565b60405180910390f35b6100e96102cc565b6040516100f69190610d15565b60405180910390f35b61011960048036038101906101149190610d30565b6102d6565b6040516101269190610ceb565b60405180910390f35b610137610305565b6040516101449190610d9f565b60405180910390f35b61016760048036038101906101629190610c90565b61030e565b005b610183600480360381019061017e9190610dba565b6103a1565b6040516101909190610d15565b60405180910390f35b6101a16103e9565b6040516101ae9190610bd5565b60405180910390f35b6101d160048036038101906101cc9190610c90565b61047b565b6040516101de9190610ceb565b60405180910390f35b61020160048036038101906101fc9190610de7565b61049e565b60405161020e9190610d15565b60405180910390f35b60606003805461022690610e56565b80601f016020809104026020016040519081016040528092919081815260200182805461025290610e56565b801561029f5780601f106102745761010080835404028352916020019161029f565b820191906000526020600020905b81548152906001019060200180831161028257829003601f168201915b5050505050905090565b6000806102b4610525565b90506102c181858561052d565b600191505092915050565b6000600254905090565b6000806102e1610525565b90506102ee85828561053f565b6102f98585856105d3565b60019150509392505050565b60006009905090565b7f000000000000000000000000000000000000000000000000000000000000000073ffffffffffffffffffffffffffffffffffffffff163373ffffffffffffffffffffffffffffffffffffffff1614610393576040517fb0490f9d00000000000000000000000000000000000000000000000000000000815260040160405180910390fd5b61039d82826106c7565b5050565b60008060008373ffffffffffffffffffffffffffffffffffffffff1673ffffffffffffffffffffffffffffffffffffffff168152602001908152602001600020549050919050565b6060600480546103f890610e56565b80601f016020809104026020016040519081016040528092919081815260200182805461042490610e56565b80156104715780601f1061044657610100808354040283529160200191610471565b820191906000526020600020905b81548152906001019060200180831161045457829003601f168201915b5050505050905090565b600080610486610525565b90506104938185856105d3565b600191505092915050565b6000600160008473ffffffffffffffffffffffffffffffffffffffff1673ffffffffffffffffffffffffffffffffffffffff16815260200190815260200160002060008373ffffffffffffffffffffffffffffffffffffffff1673ffffffffffffffffffffffffffffffffffffffff16815260200190815260200160002054905092915050565b600033905090565b61053a8383836001610749565b505050565b600061054b848461049e565b90507fffffffffffffffffffffffffffffffffffffffffffffffffffffffffffffffff81146105cd57818110156105bd578281836040517ffb8f41b20000000000000000000000000000000000000000000000000000000081526004016105b493929190610e96565b60405180910390fd5b6105cc84848484036000610749565b5b50505050565b600073ffffffffffffffffffffffffffffffffffffffff168373ffffffffffffffffffffffffffffffffffffffff16036106455760006040517f96c6fd1e00000000000000000000000000000000000000000000000000000000815260040161063c9190610ecd565b60405180910390fd5b600073ffffffffffffffffffffffffffffffffffffffff168273ffffffffffffffffffffffffffffffffffffffff16036106b75760006040517fec442f050000000000000000000000000000000000000000000000000000000081526004016106ae9190610ecd565b60405180910390fd5b6106c2838383610920565b505050565b600073ffffffffffffffffffffffffffffffffffffffff168273ffffffffffffffffffffffffffffffffffffffff16036107395760006040517fec442f050000000000000000000000000000000000000000000000000000000081526004016107309190610ecd565b60405180910390fd5b61074560008383610920565b5050565b600073ffffffffffffffffffffffffffffffffffffffff168473ffffffffffffffffffffffffffffffffffffffff16036107bb5760006040517fe602df050000000000000000000000000000000000000000000000000000000081526004016107b29190610ecd565b60405180910390fd5b600073ffffffffffffffffffffffffffffffffffffffff168373ffffffffffffffffffffffffffffffffffffffff160361082d5760006040517f94280d620000000000000000000000000000000000000000000000000000000081526004016108249190610ecd565b60405180910390fd5b81600160008673ffffffffffffffffffffffffffffffffffffffff1673ffffffffffffffffffffffffffffffffffffffff16815260200190815260200160002060008573ffffffffffffffffffffffffffffffffffffffff1673ffffffffffffffffffffffffffffffffffffffff16815260200190815260200160002081905550801561091a578273ffffffffffffffffffffffffffffffffffffffff168473ffffffffffffffffffffffffffffffffffffffff167f8c5be1e5ebec7d5bd14f71427d1e84f3dd0314c0f7b2291e5b200ac8c7c3b925846040516109119190610d15565b60405180910390a35b50505050565b600073ffffffffffffffffffffffffffffffffffffffff168373ffffffffffffffffffffffffffffffffffffffff16036109725780600260008282546109669190610f17565b92505081905550610a45565b60008060008573ffffffffffffffffffffffffffffffffffffffff1673ffffffffffffffffffffffffffffffffffffffff168152602001908152602001600020549050818110156109fe578381836040517fe450d38c0000000000000000000000000000000000000000000000000000000081526004016109f593929190610e96565b60405180910390fd5b8181036000808673ffffffffffffffffffffffffffffffffffffffff1673ffffffffffffffffffffffffffffffffffffffff16815260200190815260200160002081905550505b600073ffffffffffffffffffffffffffffffffffffffff168273ffffffffffffffffffffffffffffffffffffffff1603610a8e5780600260008282540392505081905550610adb565b806000808473ffffffffffffffffffffffffffffffffffffffff1673ffffffffffffffffffffffffffffffffffffffff168152602001908152602001600020600082825401925050819055505b8173ffffffffffffffffffffffffffffffffffffffff168373ffffffffffffffffffffffffffffffffffffffff167fddf252ad1be2c89b69c2b068fc378daa952ba7f163c4a11628f55a4df523b3ef83604051610b389190610d15565b60405180910390a3505050565b600081519050919050565b600082825260208201905092915050565b60005b83811015610b7f578082015181840152602081019050610b64565b60008484015250505050565b6000601f19601f8301169050919050565b6000610ba782610b45565b610bb18185610b50565b9350610bc1818560208601610b61565b610bca81610b8b565b840191505092915050565b60006020820190508181036000830152610bef8184610b9c565b905092915050565b600080fd5b600073ffffffffffffffffffffffffffffffffffffffff82169050919050565b6000610c2782610bfc565b9050919050565b610c3781610c1c565b8114610c4257600080fd5b50565b600081359050610c5481610c2e565b92915050565b6000819050919050565b610c6d81610c5a565b8114610c7857600080fd5b50565b600081359050610c8a81610c64565b92915050565b60008060408385031215610ca757610ca6610bf7565b5b6000610cb585828601610c45565b9250506020610cc685828601610c7b565b9150509250929050565b60008115159050919050565b610ce581610cd0565b82525050565b6000602082019050610d006000830184610cdc565b92915050565b610d0f81610c5a565b82525050565b6000602082019050610d2a6000830184610d06565b92915050565b600080600060608486031215610d4957610d48610bf7565b5b6000610d5786828701610c45565b9350506020610d6886828701610c45565b9250506040610d7986828701610c7b565b9150509250925092565b600060ff82169050919050565b610d9981610d83565b82525050565b6000602082019050610db46000830184610d90565b92915050565b600060208284031215610dd057610dcf610bf7565b5b6000610dde84828501610c45565b91505092915050565b60008060408385031215610dfe57610dfd610bf7565b5b6000610e0c85828601610c45565b9250506020610e1d85828601610c45565b9150509250929050565b7f4e487b7100000000000000000000000000000000000000000000000000000000600052602260045260246000fd5b60006002820490506001821680610e6e57607f821691505b602082108103610e8157610e80610e27565b5b50919050565b610e9081610c1c565b82525050565b6000606082019050610eab6000830186610e87565b610eb86020830185610d06565b610ec56040830184610d06565b949350505050565b6000602082019050610ee26000830184610e87565b92915050565b7f4e487b7100000000000000000000000000000000000000000000000000000000600052601160045260246000fd5b6000610f2282610c5a565b9150610f2d83610c5a565b9250828201905080821115610f4557610f44610ee8565b5b9291505056fea2646970667358221220e90b70b3c448885b591cebcd08ca9712335e161bb9205dadc0c03124e4ae2a0b64736f6c63430008190033000000000000000000000000000000000000000000000000000000000000004000000000000000000000000000000000000000000000000000000000000000800000000000000000000000000000000000000000000000000000000000000004686868680000000000000000000000000000000000000000000000000000000000000000000000000000000000000000000000000000000000000000000000046868686800000000000000000000000000000000000000000000000000000000",
        "nonce": "0xe3",
        "chainId": "0x2105"
      },
      "additionalContracts": [],
      "isFixedGasLimit": false
    },
    {
      "hash": "0x6558e823f6c860a5f15a3586915e2d6f265a086eff764a81ce75329edde6b2f1",
      "transactionType": "CALL",
      "contractName": null,
      "contractAddress": "0x9996a78823f98bc9b3a2e1e9c0b58f4e337b986e",
      "function": "createLaunchPad(address,string,string)",
      "arguments": [
        "0x55ECAF244d78242F781530D2f8cc735E416dD756",
        "\"FUCK Meme \"",
        "\"FMeme\""
      ],
      "transaction": {
        "from": "0x1d1e94634fbcb767ce8650269b2c4d33280f0130",
        "to": "0x9996a78823f98bc9b3a2e1e9c0b58f4e337b986e",
        "gas": "0x1e3823",
        "value": "0x0",
        "input": "0xf502ba6800000000000000000000000055ecaf244d78242f781530d2f8cc735e416dd756000000000000000000000000000000000000000000000000000000000000006000000000000000000000000000000000000000000000000000000000000000a0000000000000000000000000000000000000000000000000000000000000000a4655434b204d656d6520000000000000000000000000000000000000000000000000000000000000000000000000000000000000000000000000000000000005464d656d65000000000000000000000000000000000000000000000000000000",
        "nonce": "0xe4",
        "chainId": "0x2105"
      },
      "additionalContracts": [
        {
          "transactionType": "CREATE",
          "address": "0xda05b4e46996c351e9ee0d76ec7b52761b25ffab",
          "initCode": "0x60a060405234801561001057600080fd5b506040516115d63803806115d683398181016040528101906100329190610225565b816040516020016100439190610330565b6040516020818303038152906040528181600390816100629190610568565b5080600490816100729190610568565b5050503373ffffffffffffffffffffffffffffffffffffffff1660808173ffffffffffffffffffffffffffffffffffffffff1681525050505061063a565b6000604051905090565b600080fd5b600080fd5b600080fd5b600080fd5b6000601f19601f8301169050919050565b7f4e487b7100000000000000000000000000000000000000000000000000000000600052604160045260246000fd5b610117826100ce565b810181811067ffffffffffffffff82111715610136576101356100df565b5b80604052505050565b60006101496100b0565b9050610155828261010e565b919050565b600067ffffffffffffffff821115610175576101746100df565b5b61017e826100ce565b9050602081019050919050565b60005b838110156101a957808201518184015260208101905061018e565b60008484015250505050565b60006101c86101c38461015a565b61013f565b9050828152602081018484840111156101e4576101e36100c9565b5b6101ef84828561018b565b509392505050565b600082601f83011261020c5761020b6100c4565b5b815161021c8482602086016101b5565b91505092915050565b6000806040838503121561023c5761023b6100ba565b5b600083015167ffffffffffffffff81111561025a576102596100bf565b5b610266858286016101f7565b925050602083015167ffffffffffffffff811115610287576102866100bf565b5b610293858286016101f7565b9150509250929050565b600081519050919050565b600081905092915050565b60006102be8261029d565b6102c881856102a8565b93506102d881856020860161018b565b80840191505092915050565b7f204c616d626f20546f6b656e0000000000000000000000000000000000000000600082015250565b600061031a600c836102a8565b9150610325826102e4565b600c82019050919050565b600061033c82846102b3565b91506103478261030d565b915081905092915050565b7f4e487b7100000000000000000000000000000000000000000000000000000000600052602260045260246000fd5b6000600282049050600182168061039957607f821691505b6020821081036103ac576103ab610352565b5b50919050565b60008190508160005260206000209050919050565b60006020601f8301049050919050565b600082821b905092915050565b6000600883026104147fffffffffffffffffffffffffffffffffffffffffffffffffffffffffffffffff826103d7565b61041e86836103d7565b95508019841693508086168417925050509392505050565b6000819050919050565b6000819050919050565b600061046561046061045b84610436565b610440565b610436565b9050919050565b6000819050919050565b61047f8361044a565b61049361048b8261046c565b8484546103e4565b825550505050565b600090565b6104a861049b565b6104b3818484610476565b505050565b5b818110156104d7576104cc6000826104a0565b6001810190506104b9565b5050565b601f82111561051c576104ed816103b2565b6104f6846103c7565b81016020851015610505578190505b610519610511856103c7565b8301826104b8565b50505b505050565b600082821c905092915050565b600061053f60001984600802610521565b1980831691505092915050565b6000610558838361052e565b9150826002028217905092915050565b6105718261029d565b67ffffffffffffffff81111561058a576105896100df565b5b6105948254610381565b61059f8282856104db565b600060209050601f8311600181146105d257600084156105c0578287015190505b6105ca858261054c565b865550610632565b601f1984166105e0866103b2565b60005b82811015610608578489015182556001820191506020850194506020810190506105e3565b868310156106255784890151610621601f89168261052e565b8355505b6001600288020188555050505b505050505050565b608051610f8161065560003960006103100152610f816000f3fe608060405234801561001057600080fd5b506004361061008e5760003560e01c806306fdde0314610093578063095ea7b3146100b157806318160ddd146100e157806323b872dd146100ff578063313ce5671461012f57806340c10f191461014d57806370a082311461016957806395d89b4114610199578063a9059cbb146101b7578063dd62ed3e146101e7575b600080fd5b61009b610217565b6040516100a89190610bd5565b60405180910390f35b6100cb60048036038101906100c69190610c90565b6102a9565b6040516100d89190610ceb565b60405180910390f35b6100e96102cc565b6040516100f69190610d15565b60405180910390f35b61011960048036038101906101149190610d30565b6102d6565b6040516101269190610ceb565b60405180910390f35b610137610305565b6040516101449190610d9f565b60405180910390f35b61016760048036038101906101629190610c90565b61030e565b005b610183600480360381019061017e9190610dba565b6103a1565b6040516101909190610d15565b60405180910390f35b6101a16103e9565b6040516101ae9190610bd5565b60405180910390f35b6101d160048036038101906101cc9190610c90565b61047b565b6040516101de9190610ceb565b60405180910390f35b61020160048036038101906101fc9190610de7565b61049e565b60405161020e9190610d15565b60405180910390f35b60606003805461022690610e56565b80601f016020809104026020016040519081016040528092919081815260200182805461025290610e56565b801561029f5780601f106102745761010080835404028352916020019161029f565b820191906000526020600020905b81548152906001019060200180831161028257829003601f168201915b5050505050905090565b6000806102b4610525565b90506102c181858561052d565b600191505092915050565b6000600254905090565b6000806102e1610525565b90506102ee85828561053f565b6102f98585856105d3565b60019150509392505050565b60006009905090565b7f000000000000000000000000000000000000000000000000000000000000000073ffffffffffffffffffffffffffffffffffffffff163373ffffffffffffffffffffffffffffffffffffffff1614610393576040517fb0490f9d00000000000000000000000000000000000000000000000000000000815260040160405180910390fd5b61039d82826106c7565b5050565b60008060008373ffffffffffffffffffffffffffffffffffffffff1673ffffffffffffffffffffffffffffffffffffffff168152602001908152602001600020549050919050565b6060600480546103f890610e56565b80601f016020809104026020016040519081016040528092919081815260200182805461042490610e56565b80156104715780601f1061044657610100808354040283529160200191610471565b820191906000526020600020905b81548152906001019060200180831161045457829003601f168201915b5050505050905090565b600080610486610525565b90506104938185856105d3565b600191505092915050565b6000600160008473ffffffffffffffffffffffffffffffffffffffff1673ffffffffffffffffffffffffffffffffffffffff16815260200190815260200160002060008373ffffffffffffffffffffffffffffffffffffffff1673ffffffffffffffffffffffffffffffffffffffff16815260200190815260200160002054905092915050565b600033905090565b61053a8383836001610749565b505050565b600061054b848461049e565b90507fffffffffffffffffffffffffffffffffffffffffffffffffffffffffffffffff81146105cd57818110156105bd578281836040517ffb8f41b20000000000000000000000000000000000000000000000000000000081526004016105b493929190610e96565b60405180910390fd5b6105cc84848484036000610749565b5b50505050565b600073ffffffffffffffffffffffffffffffffffffffff168373ffffffffffffffffffffffffffffffffffffffff16036106455760006040517f96c6fd1e00000000000000000000000000000000000000000000000000000000815260040161063c9190610ecd565b60405180910390fd5b600073ffffffffffffffffffffffffffffffffffffffff168273ffffffffffffffffffffffffffffffffffffffff16036106b75760006040517fec442f050000000000000000000000000000000000000000000000000000000081526004016106ae9190610ecd565b60405180910390fd5b6106c2838383610920565b505050565b600073ffffffffffffffffffffffffffffffffffffffff168273ffffffffffffffffffffffffffffffffffffffff16036107395760006040517fec442f050000000000000000000000000000000000000000000000000000000081526004016107309190610ecd565b60405180910390fd5b61074560008383610920565b5050565b600073ffffffffffffffffffffffffffffffffffffffff168473ffffffffffffffffffffffffffffffffffffffff16036107bb5760006040517fe602df050000000000000000000000000000000000000000000000000000000081526004016107b29190610ecd565b60405180910390fd5b600073ffffffffffffffffffffffffffffffffffffffff168373ffffffffffffffffffffffffffffffffffffffff160361082d5760006040517f94280d620000000000000000000000000000000000000000000000000000000081526004016108249190610ecd565b60405180910390fd5b81600160008673ffffffffffffffffffffffffffffffffffffffff1673ffffffffffffffffffffffffffffffffffffffff16815260200190815260200160002060008573ffffffffffffffffffffffffffffffffffffffff1673ffffffffffffffffffffffffffffffffffffffff16815260200190815260200160002081905550801561091a578273ffffffffffffffffffffffffffffffffffffffff168473ffffffffffffffffffffffffffffffffffffffff167f8c5be1e5ebec7d5bd14f71427d1e84f3dd0314c0f7b2291e5b200ac8c7c3b925846040516109119190610d15565b60405180910390a35b50505050565b600073ffffffffffffffffffffffffffffffffffffffff168373ffffffffffffffffffffffffffffffffffffffff16036109725780600260008282546109669190610f17565b92505081905550610a45565b60008060008573ffffffffffffffffffffffffffffffffffffffff1673ffffffffffffffffffffffffffffffffffffffff168152602001908152602001600020549050818110156109fe578381836040517fe450d38c0000000000000000000000000000000000000000000000000000000081526004016109f593929190610e96565b60405180910390fd5b8181036000808673ffffffffffffffffffffffffffffffffffffffff1673ffffffffffffffffffffffffffffffffffffffff16815260200190815260200160002081905550505b600073ffffffffffffffffffffffffffffffffffffffff168273ffffffffffffffffffffffffffffffffffffffff1603610a8e5780600260008282540392505081905550610adb565b806000808473ffffffffffffffffffffffffffffffffffffffff1673ffffffffffffffffffffffffffffffffffffffff168152602001908152602001600020600082825401925050819055505b8173ffffffffffffffffffffffffffffffffffffffff168373ffffffffffffffffffffffffffffffffffffffff167fddf252ad1be2c89b69c2b068fc378daa952ba7f163c4a11628f55a4df523b3ef83604051610b389190610d15565b60405180910390a3505050565b600081519050919050565b600082825260208201905092915050565b60005b83811015610b7f578082015181840152602081019050610b64565b60008484015250505050565b6000601f19601f8301169050919050565b6000610ba782610b45565b610bb18185610b50565b9350610bc1818560208601610b61565b610bca81610b8b565b840191505092915050565b60006020820190508181036000830152610bef8184610b9c565b905092915050565b600080fd5b600073ffffffffffffffffffffffffffffffffffffffff82169050919050565b6000610c2782610bfc565b9050919050565b610c3781610c1c565b8114610c4257600080fd5b50565b600081359050610c5481610c2e565b92915050565b6000819050919050565b610c6d81610c5a565b8114610c7857600080fd5b50565b600081359050610c8a81610c64565b92915050565b60008060408385031215610ca757610ca6610bf7565b5b6000610cb585828601610c45565b9250506020610cc685828601610c7b565b9150509250929050565b60008115159050919050565b610ce581610cd0565b82525050565b6000602082019050610d006000830184610cdc565b92915050565b610d0f81610c5a565b82525050565b6000602082019050610d2a6000830184610d06565b92915050565b600080600060608486031215610d4957610d48610bf7565b5b6000610d5786828701610c45565b9350506020610d6886828701610c45565b9250506040610d7986828701610c7b565b9150509250925092565b600060ff82169050919050565b610d9981610d83565b82525050565b6000602082019050610db46000830184610d90565b92915050565b600060208284031215610dd057610dcf610bf7565b5b6000610dde84828501610c45565b91505092915050565b60008060408385031215610dfe57610dfd610bf7565b5b6000610e0c85828601610c45565b9250506020610e1d85828601610c45565b9150509250929050565b7f4e487b7100000000000000000000000000000000000000000000000000000000600052602260045260246000fd5b60006002820490506001821680610e6e57607f821691505b602082108103610e8157610e80610e27565b5b50919050565b610e9081610c1c565b82525050565b6000606082019050610eab6000830186610e87565b610eb86020830185610d06565b610ec56040830184610d06565b949350505050565b6000602082019050610ee26000830184610e87565b92915050565b7f4e487b7100000000000000000000000000000000000000000000000000000000600052601160045260246000fd5b6000610f2282610c5a565b9150610f2d83610c5a565b9250828201905080821115610f4557610f44610ee8565b5b9291505056fea2646970667358221220e90b70b3c448885b591cebcd08ca9712335e161bb9205dadc0c03124e4ae2a0b64736f6c6343000819003300000000000000000000000000000000000000000000000000000000000000400000000000000000000000000000000000000000000000000000000000000080000000000000000000000000000000000000000000000000000000000000000a4655434b204d656d6520000000000000000000000000000000000000000000000000000000000000000000000000000000000000000000000000000000000005464d656d65000000000000000000000000000000000000000000000000000000"
        },
        {
          "transactionType": "CREATE2",
          "address": "0xd9c57a01a60150e3de7d9f79febb18980dab64a5",
          "initCode": "0x3d602d80600a3d3981f3363d3d373d3d3d363d73a0083d339029d6d02e66760d2a1932aa0702c9d65af43d82803e903d91602b57fd5bf3"
        }
      ],
      "isFixedGasLimit": false
    },
    {
      "hash": "0x4c0258ad4f7fa2677d7d7e07e1d907c8bd1887b5dc435a1ae92c2fbb57732439",
      "transactionType": "CALL",
      "contractName": "MockToken",
      "contractAddress": "0x55ecaf244d78242f781530d2f8cc735e416dd756",
      "function": "approve(address,uint256)",
      "arguments": [
        "0x28c20a465ed67F273138d8948D53842D85F4f78C",
        "1000000000000000000"
      ],
      "transaction": {
        "from": "0x1d1e94634fbcb767ce8650269b2c4d33280f0130",
        "to": "0x55ecaf244d78242f781530d2f8cc735e416dd756",
        "gas": "0x10c19",
        "value": "0x0",
        "input": "0x095ea7b300000000000000000000000028c20a465ed67f273138d8948d53842d85f4f78c0000000000000000000000000000000000000000000000000de0b6b3a7640000",
        "nonce": "0xe5",
        "chainId": "0x2105"
      },
      "additionalContracts": [],
      "isFixedGasLimit": false
    },
    {
      "hash": "0x745d5e310109ae644fbb99c662127e22d86bee04e1a3f7932e154d81f8067acc",
      "transactionType": "CALL",
      "contractName": "Router",
      "contractAddress": "0x28c20a465ed67f273138d8948d53842d85f4f78c",
      "function": "buyQuote(address,uint256,uint256)",
      "arguments": [
        "0xd9c57A01a60150E3de7d9F79fEbB18980Dab64A5",
        "1000000000000000000",
        "0"
      ],
      "transaction": {
        "from": "0x1d1e94634fbcb767ce8650269b2c4d33280f0130",
        "to": "0x28c20a465ed67f273138d8948d53842d85f4f78c",
        "gas": "0x42e31",
        "value": "0x0",
        "input": "0xa7591849000000000000000000000000d9c57a01a60150e3de7d9f79febb18980dab64a50000000000000000000000000000000000000000000000000de0b6b3a76400000000000000000000000000000000000000000000000000000000000000000000",
        "nonce": "0xe6",
        "chainId": "0x2105"
      },
      "additionalContracts": [],
      "isFixedGasLimit": false
    },
    {
      "hash": "0xdcee7c22ff135c52e5432a16362b72fa5bfc9ea4c23c2f5e576c6bf2c694306a",
      "transactionType": "CALL",
      "contractName": "LamboToken",
      "contractAddress": "0xda05b4e46996c351e9ee0d76ec7b52761b25ffab",
      "function": "approve(address,uint256)",
      "arguments": [
        "0x28c20a465ed67F273138d8948D53842D85F4f78C",
        "367040816326530612"
      ],
      "transaction": {
        "from": "0x1d1e94634fbcb767ce8650269b2c4d33280f0130",
        "to": "0xda05b4e46996c351e9ee0d76ec7b52761b25ffab",
        "gas": "0x10c3c",
        "value": "0x0",
        "input": "0x095ea7b300000000000000000000000028c20a465ed67f273138d8948d53842d85f4f78c0000000000000000000000000000000000000000000000000517fdad83365634",
        "nonce": "0xe7",
        "chainId": "0x2105"
      },
      "additionalContracts": [],
      "isFixedGasLimit": false
    },
    {
      "hash": "0x95e04a995fae9363e8d945d2c5e25d7335511e4424a72474c74b1747ce9ad1c3",
      "transactionType": "CALL",
      "contractName": "Router",
      "contractAddress": "0x28c20a465ed67f273138d8948d53842d85f4f78c",
      "function": "sellQuote(address,uint256,uint256)",
      "arguments": [
        "0xd9c57A01a60150E3de7d9F79fEbB18980Dab64A5",
        "367040816326530612",
        "0"
      ],
      "transaction": {
        "from": "0x1d1e94634fbcb767ce8650269b2c4d33280f0130",
        "to": "0x28c20a465ed67f273138d8948d53842d85f4f78c",
        "gas": "0x33a8d",
        "value": "0x0",
        "input": "0xe784a059000000000000000000000000d9c57a01a60150e3de7d9f79febb18980dab64a50000000000000000000000000000000000000000000000000517fdad833656340000000000000000000000000000000000000000000000000000000000000000",
        "nonce": "0xe8",
        "chainId": "0x2105"
      },
      "additionalContracts": [],
      "isFixedGasLimit": false
    }
  ],
  "receipts": [
    {
      "status": "0x1",
      "cumulativeGasUsed": "0x1551289",
      "logs": [],
      "logsBloom": "0x00000000000000000000000000000000000000000000000000000000000000000000000000000000000000000000000000000000000000000000000000000000000000000000000000000000000000000000000000000000000000000000000000000000000000000000000000000000000000000000000000000000000000000000000000000000000000000000000000000000000000000000000000000000000000000000000000000000000000000000000000000000000000000000000000000000000000000000000000000000000000000000000000000000000000000000000000000000000000000000000000000000000000000000000000000000",
      "type": "0x2",
      "transactionHash": "0x299d7731f91ab5f78db2523933ca5384ee6e42920c8dc9f1073e56b78a1b407c",
      "transactionIndex": "0x5e",
      "blockHash": "0x11b774d027f27e52c0b996210aa48d6821b9d63caecad96929a54e44228cea1c",
      "blockNumber": "0x1232f9f",
      "gasUsed": "0xef1c6",
      "effectiveGasPrice": "0xd4f0e9",
      "from": "0x1d1e94634fbcb767ce8650269b2c4d33280f0130",
      "to": null,
      "contractAddress": "0x2b33d14313ae7f4d10fb834d7f98a6cb338cd859",
      "l1BaseFeeScalar": "0x8dd",
      "l1BlobBaseFee": "0x1",
      "l1BlobBaseFeeScalar": "0x101c12",
      "l1Fee": "0x42bdfff88d",
      "l1GasPrice": "0xb1edb58e",
      "l1GasUsed": "0xa551"
    },
    {
      "status": "0x1",
      "cumulativeGasUsed": "0x169bda2",
      "logs": [
        {
          "address": "0x9996a78823f98bc9b3a2e1e9c0b58f4e337b986e",
          "topics": [
            "0x91d24864a084ab70b268a1f865e757ca12006cf298d763b6be697302ef86498c"
          ],
          "data": "0x000000000000000000000000da05b4e46996c351e9ee0d76ec7b52761b25ffab",
          "blockHash": "0x11b774d027f27e52c0b996210aa48d6821b9d63caecad96929a54e44228cea1c",
          "blockNumber": "0x1232f9f",
          "transactionHash": "0x6558e823f6c860a5f15a3586915e2d6f265a086eff764a81ce75329edde6b2f1",
          "transactionIndex": "0x5f",
          "logIndex": "0x155",
          "removed": false
        },
        {
          "address": "0xda05b4e46996c351e9ee0d76ec7b52761b25ffab",
          "topics": [
            "0xddf252ad1be2c89b69c2b068fc378daa952ba7f163c4a11628f55a4df523b3ef",
            "0x0000000000000000000000000000000000000000000000000000000000000000",
            "0x000000000000000000000000d5ca04e28ee61d8338d49cd379371ef7424d3370"
          ],
          "data": "0x0000000000000000000000000000000000000000000000000429d069189e0000",
          "blockHash": "0x11b774d027f27e52c0b996210aa48d6821b9d63caecad96929a54e44228cea1c",
          "blockNumber": "0x1232f9f",
          "transactionHash": "0x6558e823f6c860a5f15a3586915e2d6f265a086eff764a81ce75329edde6b2f1",
          "transactionIndex": "0x5f",
          "logIndex": "0x156",
          "removed": false
        },
        {
          "address": "0xda05b4e46996c351e9ee0d76ec7b52761b25ffab",
          "topics": [
            "0xddf252ad1be2c89b69c2b068fc378daa952ba7f163c4a11628f55a4df523b3ef",
            "0x0000000000000000000000000000000000000000000000000000000000000000",
            "0x0000000000000000000000009996a78823f98bc9b3a2e1e9c0b58f4e337b986e"
          ],
          "data": "0x00000000000000000000000000000000000000000000000009b6e64a8ec60000",
          "blockHash": "0x11b774d027f27e52c0b996210aa48d6821b9d63caecad96929a54e44228cea1c",
          "blockNumber": "0x1232f9f",
          "transactionHash": "0x6558e823f6c860a5f15a3586915e2d6f265a086eff764a81ce75329edde6b2f1",
          "transactionIndex": "0x5f",
          "logIndex": "0x157",
          "removed": false
        },
        {
          "address": "0xda05b4e46996c351e9ee0d76ec7b52761b25ffab",
          "topics": [
            "0x8c5be1e5ebec7d5bd14f71427d1e84f3dd0314c0f7b2291e5b200ac8c7c3b925",
            "0x0000000000000000000000009996a78823f98bc9b3a2e1e9c0b58f4e337b986e",
            "0x000000000000000000000000d9c57a01a60150e3de7d9f79febb18980dab64a5"
          ],
          "data": "0x00000000000000000000000000000000000000000000000009b6e64a8ec60000",
          "blockHash": "0x11b774d027f27e52c0b996210aa48d6821b9d63caecad96929a54e44228cea1c",
          "blockNumber": "0x1232f9f",
          "transactionHash": "0x6558e823f6c860a5f15a3586915e2d6f265a086eff764a81ce75329edde6b2f1",
          "transactionIndex": "0x5f",
          "logIndex": "0x158",
          "removed": false
        },
        {
          "address": "0xda05b4e46996c351e9ee0d76ec7b52761b25ffab",
          "topics": [
            "0xddf252ad1be2c89b69c2b068fc378daa952ba7f163c4a11628f55a4df523b3ef",
            "0x0000000000000000000000009996a78823f98bc9b3a2e1e9c0b58f4e337b986e",
            "0x000000000000000000000000d9c57a01a60150e3de7d9f79febb18980dab64a5"
          ],
          "data": "0x00000000000000000000000000000000000000000000000009b6e64a8ec60000",
          "blockHash": "0x11b774d027f27e52c0b996210aa48d6821b9d63caecad96929a54e44228cea1c",
          "blockNumber": "0x1232f9f",
          "transactionHash": "0x6558e823f6c860a5f15a3586915e2d6f265a086eff764a81ce75329edde6b2f1",
          "transactionIndex": "0x5f",
          "logIndex": "0x159",
          "removed": false
        },
        {
          "address": "0xd9c57a01a60150e3de7d9f79febb18980dab64a5",
          "topics": [
            "0xcf2aa50876cdfbb541206f89af0ee78d44a2abf8d328e37fa4917f982149848a"
          ],
          "data": "0x000000000000000000000000000000000000000000000000000000000000000000000000000000000000000000000000000000000000000009b6e64a8ec60000",
          "blockHash": "0x11b774d027f27e52c0b996210aa48d6821b9d63caecad96929a54e44228cea1c",
          "blockNumber": "0x1232f9f",
          "transactionHash": "0x6558e823f6c860a5f15a3586915e2d6f265a086eff764a81ce75329edde6b2f1",
          "transactionIndex": "0x5f",
          "logIndex": "0x15a",
          "removed": false
        },
        {
          "address": "0x55ecaf244d78242f781530d2f8cc735e416dd756",
          "topics": [
            "0x8c5be1e5ebec7d5bd14f71427d1e84f3dd0314c0f7b2291e5b200ac8c7c3b925",
            "0x000000000000000000000000d9c57a01a60150e3de7d9f79febb18980dab64a5",
            "0x000000000000000000000000d5ca04e28ee61d8338d49cd379371ef7424d3370"
          ],
          "data": "0xffffffffffffffffffffffffffffffffffffffffffffffffffffffffffffffff",
          "blockHash": "0x11b774d027f27e52c0b996210aa48d6821b9d63caecad96929a54e44228cea1c",
          "blockNumber": "0x1232f9f",
          "transactionHash": "0x6558e823f6c860a5f15a3586915e2d6f265a086eff764a81ce75329edde6b2f1",
          "transactionIndex": "0x5f",
          "logIndex": "0x15b",
          "removed": false
        },
        {
          "address": "0xda05b4e46996c351e9ee0d76ec7b52761b25ffab",
          "topics": [
            "0x8c5be1e5ebec7d5bd14f71427d1e84f3dd0314c0f7b2291e5b200ac8c7c3b925",
            "0x000000000000000000000000d9c57a01a60150e3de7d9f79febb18980dab64a5",
            "0x000000000000000000000000d5ca04e28ee61d8338d49cd379371ef7424d3370"
          ],
          "data": "0xffffffffffffffffffffffffffffffffffffffffffffffffffffffffffffffff",
          "blockHash": "0x11b774d027f27e52c0b996210aa48d6821b9d63caecad96929a54e44228cea1c",
          "blockNumber": "0x1232f9f",
          "transactionHash": "0x6558e823f6c860a5f15a3586915e2d6f265a086eff764a81ce75329edde6b2f1",
          "transactionIndex": "0x5f",
          "logIndex": "0x15c",
          "removed": false
        },
        {
          "address": "0xd9c57a01a60150e3de7d9f79febb18980dab64a5",
          "topics": [
            "0xb1169cd24fa73a90447c53832d208080fef5826a3f1c5ffa5040dd02b290ff59"
          ],
          "data": "0x00000000000000000000000055ecaf244d78242f781530d2f8cc735e416dd756000000000000000000000000da05b4e46996c351e9ee0d76ec7b52761b25ffab0000000000000000000000009996a78823f98bc9b3a2e1e9c0b58f4e337b986e00000000000000000000000000000000000000000000000009b6e64a8ec60000",
          "blockHash": "0x11b774d027f27e52c0b996210aa48d6821b9d63caecad96929a54e44228cea1c",
          "blockNumber": "0x1232f9f",
          "transactionHash": "0x6558e823f6c860a5f15a3586915e2d6f265a086eff764a81ce75329edde6b2f1",
          "transactionIndex": "0x5f",
          "logIndex": "0x15d",
          "removed": false
        },
        {
          "address": "0xa2baf87c52cb0bcb48ee5ba08aa97177f15c76fb",
          "topics": [
            "0x9c5d829b9b23efc461f9aeef91979ec04bb903feb3bee4f26d22114abfc7335b"
          ],
          "data": "0x00000000000000000000000055ecaf244d78242f781530d2f8cc735e416dd756000000000000000000000000da05b4e46996c351e9ee0d76ec7b52761b25ffab000000000000000000000000d9c57a01a60150e3de7d9f79febb18980dab64a5",
          "blockHash": "0x11b774d027f27e52c0b996210aa48d6821b9d63caecad96929a54e44228cea1c",
          "blockNumber": "0x1232f9f",
          "transactionHash": "0x6558e823f6c860a5f15a3586915e2d6f265a086eff764a81ce75329edde6b2f1",
          "transactionIndex": "0x5f",
          "logIndex": "0x15e",
          "removed": false
        },
        {
          "address": "0x9996a78823f98bc9b3a2e1e9c0b58f4e337b986e",
          "topics": [
            "0x9c5d829b9b23efc461f9aeef91979ec04bb903feb3bee4f26d22114abfc7335b"
          ],
          "data": "0x00000000000000000000000055ecaf244d78242f781530d2f8cc735e416dd756000000000000000000000000da05b4e46996c351e9ee0d76ec7b52761b25ffab000000000000000000000000d9c57a01a60150e3de7d9f79febb18980dab64a5",
          "blockHash": "0x11b774d027f27e52c0b996210aa48d6821b9d63caecad96929a54e44228cea1c",
          "blockNumber": "0x1232f9f",
          "transactionHash": "0x6558e823f6c860a5f15a3586915e2d6f265a086eff764a81ce75329edde6b2f1",
          "transactionIndex": "0x5f",
          "logIndex": "0x15f",
          "removed": false
        }
      ],
      "logsBloom": "0x00000020000000000000000000000000000008000000000000000200002000000008000000000000000000000000000800000040000000000000000000200000000000040000000000000008000000000000000000000000000020000000000000000000020400000000000000000800004000000000000000000010000004000000004000000000080000000000000040001000000000000080000000000000020000001000008000000000000000000008000000000000000000000000000000000002104000000800000400000000000000000008000100000000000020000010090008000000000000000000000011000000000000000400000002020000",
      "type": "0x2",
      "transactionHash": "0x6558e823f6c860a5f15a3586915e2d6f265a086eff764a81ce75329edde6b2f1",
      "transactionIndex": "0x5f",
      "blockHash": "0x11b774d027f27e52c0b996210aa48d6821b9d63caecad96929a54e44228cea1c",
      "blockNumber": "0x1232f9f",
      "gasUsed": "0x14ab19",
      "effectiveGasPrice": "0xd4f0e9",
      "from": "0x1d1e94634fbcb767ce8650269b2c4d33280f0130",
      "to": "0x9996a78823f98bc9b3a2e1e9c0b58f4e337b986e",
      "contractAddress": null,
      "l1BaseFeeScalar": "0x8dd",
      "l1BlobBaseFee": "0x1",
      "l1BlobBaseFeeScalar": "0x101c12",
      "l1Fee": "0x30ffb3c47",
      "l1GasPrice": "0xb1edb58e",
      "l1GasUsed": "0x795"
    },
    {
      "status": "0x1",
      "cumulativeGasUsed": "0x16a74f3",
      "logs": [
        {
          "address": "0x55ecaf244d78242f781530d2f8cc735e416dd756",
          "topics": [
            "0x8c5be1e5ebec7d5bd14f71427d1e84f3dd0314c0f7b2291e5b200ac8c7c3b925",
            "0x0000000000000000000000001d1e94634fbcb767ce8650269b2c4d33280f0130",
            "0x00000000000000000000000028c20a465ed67f273138d8948d53842d85f4f78c"
          ],
          "data": "0x0000000000000000000000000000000000000000000000000de0b6b3a7640000",
          "blockHash": "0x11b774d027f27e52c0b996210aa48d6821b9d63caecad96929a54e44228cea1c",
          "blockNumber": "0x1232f9f",
          "transactionHash": "0x4c0258ad4f7fa2677d7d7e07e1d907c8bd1887b5dc435a1ae92c2fbb57732439",
          "transactionIndex": "0x60",
          "logIndex": "0x160",
          "removed": false
        }
      ],
      "logsBloom": "0x00000000000000000000040000000000000000000000000000000000002000000000000000000000000000000000000000000000000000000000000000200000000000000000000000000200000000000000000000000000000000000000000000000000000000000000000000000000000000000000000000000000000000000400000000000000000000000000000000000000000000000000000000000000020000000000008000000000000000000000000000000000000000000000000000000000004002000000000000000002000000000000000000000000000000000010000000000000000000000000000000000000000000000000000000000004",
      "type": "0x2",
      "transactionHash": "0x4c0258ad4f7fa2677d7d7e07e1d907c8bd1887b5dc435a1ae92c2fbb57732439",
      "transactionIndex": "0x60",
      "blockHash": "0x11b774d027f27e52c0b996210aa48d6821b9d63caecad96929a54e44228cea1c",
      "blockNumber": "0x1232f9f",
      "gasUsed": "0xb751",
      "effectiveGasPrice": "0xd4f0e9",
      "from": "0x1d1e94634fbcb767ce8650269b2c4d33280f0130",
      "to": "0x55ecaf244d78242f781530d2f8cc735e416dd756",
      "contractAddress": null,
      "l1BaseFeeScalar": "0x8dd",
      "l1BlobBaseFee": "0x1",
      "l1BlobBaseFeeScalar": "0x101c12",
      "l1Fee": "0x285f3aa77",
      "l1GasPrice": "0xb1edb58e",
      "l1GasUsed": "0x640"
    },
    {
      "status": "0x1",
      "cumulativeGasUsed": "0x16d7bc1",
      "logs": [
        {
          "address": "0x55ecaf244d78242f781530d2f8cc735e416dd756",
          "topics": [
            "0xddf252ad1be2c89b69c2b068fc378daa952ba7f163c4a11628f55a4df523b3ef",
            "0x0000000000000000000000001d1e94634fbcb767ce8650269b2c4d33280f0130",
            "0x000000000000000000000000289867bdada03b52edfef9a35be9b2be3150f3a9"
          ],
          "data": "0x000000000000000000000000000000000000000000000000002386f26fc10000",
          "blockHash": "0x11b774d027f27e52c0b996210aa48d6821b9d63caecad96929a54e44228cea1c",
          "blockNumber": "0x1232f9f",
          "transactionHash": "0x745d5e310109ae644fbb99c662127e22d86bee04e1a3f7932e154d81f8067acc",
          "transactionIndex": "0x61",
          "logIndex": "0x161",
          "removed": false
        },
        {
          "address": "0x55ecaf244d78242f781530d2f8cc735e416dd756",
          "topics": [
            "0xddf252ad1be2c89b69c2b068fc378daa952ba7f163c4a11628f55a4df523b3ef",
            "0x0000000000000000000000001d1e94634fbcb767ce8650269b2c4d33280f0130",
            "0x000000000000000000000000d9c57a01a60150e3de7d9f79febb18980dab64a5"
          ],
          "data": "0x0000000000000000000000000000000000000000000000000dbd2fc137a30000",
          "blockHash": "0x11b774d027f27e52c0b996210aa48d6821b9d63caecad96929a54e44228cea1c",
          "blockNumber": "0x1232f9f",
          "transactionHash": "0x745d5e310109ae644fbb99c662127e22d86bee04e1a3f7932e154d81f8067acc",
          "transactionIndex": "0x61",
          "logIndex": "0x162",
          "removed": false
        },
        {
          "address": "0xda05b4e46996c351e9ee0d76ec7b52761b25ffab",
          "topics": [
            "0xddf252ad1be2c89b69c2b068fc378daa952ba7f163c4a11628f55a4df523b3ef",
            "0x000000000000000000000000d9c57a01a60150e3de7d9f79febb18980dab64a5",
            "0x0000000000000000000000001d1e94634fbcb767ce8650269b2c4d33280f0130"
          ],
          "data": "0x0000000000000000000000000000000000000000000000000517fdad83365634",
          "blockHash": "0x11b774d027f27e52c0b996210aa48d6821b9d63caecad96929a54e44228cea1c",
          "blockNumber": "0x1232f9f",
          "transactionHash": "0x745d5e310109ae644fbb99c662127e22d86bee04e1a3f7932e154d81f8067acc",
          "transactionIndex": "0x61",
          "logIndex": "0x163",
          "removed": false
        },
        {
          "address": "0xd9c57a01a60150e3de7d9f79febb18980dab64a5",
          "topics": [
            "0xcf2aa50876cdfbb541206f89af0ee78d44a2abf8d328e37fa4917f982149848a"
          ],
          "data": "0x0000000000000000000000000000000000000000000000000dbd2fc137a30000000000000000000000000000000000000000000000000000049ee89d0b8fa9cc",
          "blockHash": "0x11b774d027f27e52c0b996210aa48d6821b9d63caecad96929a54e44228cea1c",
          "blockNumber": "0x1232f9f",
          "transactionHash": "0x745d5e310109ae644fbb99c662127e22d86bee04e1a3f7932e154d81f8067acc",
          "transactionIndex": "0x61",
          "logIndex": "0x164",
          "removed": false
        },
        {
          "address": "0x28c20a465ed67f273138d8948d53842d85f4f78c",
          "topics": [
            "0x0ae52a34bc319eaa4ece799f69c6a1d4b7b64fd9ff992022c9821cd08daa7ec6"
          ],
          "data": "0x400000000000000000000000d9c57a01a60150e3de7d9f79febb18980dab64a500000000000000000000000055ecaf244d78242f781530d2f8cc735e416dd756000000000000000000000000da05b4e46996c351e9ee0d76ec7b52761b25ffab0000000000000000000000000000000000000000000000000dbd2fc137a300000000000000000000000000000000000000000000000000000517fdad833656340000000000000000000000000000000000000000000000000000000000000000",
          "blockHash": "0x11b774d027f27e52c0b996210aa48d6821b9d63caecad96929a54e44228cea1c",
          "blockNumber": "0x1232f9f",
          "transactionHash": "0x745d5e310109ae644fbb99c662127e22d86bee04e1a3f7932e154d81f8067acc",
          "transactionIndex": "0x61",
          "logIndex": "0x165",
          "removed": false
        }
      ],
      "logsBloom": "0x00000000000000000000000000000000000000000000000000000000002000000000000000000000000000000100000000000040000000000000000000000000000400000000000000000208000000000000000000000000000000000000000000000000000400000000000000000000000000000000000000000010000000000400000000100020080000000000000000001000000100000000000000000000000000001000008000000000000000000008000000000000000000000000000000000002104002000000000400000000000000000000000900000000000000000000080000000400000000000000000000000100001000000400000000000000",
      "type": "0x2",
      "transactionHash": "0x745d5e310109ae644fbb99c662127e22d86bee04e1a3f7932e154d81f8067acc",
      "transactionIndex": "0x61",
      "blockHash": "0x11b774d027f27e52c0b996210aa48d6821b9d63caecad96929a54e44228cea1c",
      "blockNumber": "0x1232f9f",
      "gasUsed": "0x306ce",
      "effectiveGasPrice": "0xd4f0e9",
      "from": "0x1d1e94634fbcb767ce8650269b2c4d33280f0130",
      "to": "0x28c20a465ed67f273138d8948d53842d85f4f78c",
      "contractAddress": null,
      "l1BaseFeeScalar": "0x8dd",
      "l1BlobBaseFee": "0x1",
      "l1BlobBaseFeeScalar": "0x101c12",
      "l1Fee": "0x285f3aa77",
      "l1GasPrice": "0xb1edb58e",
      "l1GasUsed": "0x640"
    },
    {
      "status": "0x1",
      "cumulativeGasUsed": "0x16e332a",
      "logs": [
        {
          "address": "0xda05b4e46996c351e9ee0d76ec7b52761b25ffab",
          "topics": [
            "0x8c5be1e5ebec7d5bd14f71427d1e84f3dd0314c0f7b2291e5b200ac8c7c3b925",
            "0x0000000000000000000000001d1e94634fbcb767ce8650269b2c4d33280f0130",
            "0x00000000000000000000000028c20a465ed67f273138d8948d53842d85f4f78c"
          ],
          "data": "0x0000000000000000000000000000000000000000000000000517fdad83365634",
          "blockHash": "0x11b774d027f27e52c0b996210aa48d6821b9d63caecad96929a54e44228cea1c",
          "blockNumber": "0x1232f9f",
          "transactionHash": "0xdcee7c22ff135c52e5432a16362b72fa5bfc9ea4c23c2f5e576c6bf2c694306a",
          "transactionIndex": "0x62",
          "logIndex": "0x166",
          "removed": false
        }
      ],
      "logsBloom": "0x00000000000000000000040000000000000000000000000000000000000000000000000000000000000000000000000000000000000000000000000000200000000000000000000000000208000000000000000000000000000000000000000000000000000000000000000000000000000000000000000000000000000000000400000000000000000000000000000000000000000000000000000000000000020000000000000000000000000000000008000000000000000000000000000000000000000002000000000000000002000000000000000000000000000000000010000000000000000000000000000000000000000000000400000000000004",
      "type": "0x2",
      "transactionHash": "0xdcee7c22ff135c52e5432a16362b72fa5bfc9ea4c23c2f5e576c6bf2c694306a",
      "transactionIndex": "0x62",
      "blockHash": "0x11b774d027f27e52c0b996210aa48d6821b9d63caecad96929a54e44228cea1c",
      "blockNumber": "0x1232f9f",
      "gasUsed": "0xb769",
      "effectiveGasPrice": "0xd4f0e9",
      "from": "0x1d1e94634fbcb767ce8650269b2c4d33280f0130",
      "to": "0xda05b4e46996c351e9ee0d76ec7b52761b25ffab",
      "contractAddress": null,
      "l1BaseFeeScalar": "0x8dd",
      "l1BlobBaseFee": "0x1",
      "l1BlobBaseFeeScalar": "0x101c12",
      "l1Fee": "0x285f3aa77",
      "l1GasPrice": "0xb1edb58e",
      "l1GasUsed": "0x640"
    },
    {
      "status": "0x1",
      "cumulativeGasUsed": "0x1706854",
      "logs": [
        {
          "address": "0xda05b4e46996c351e9ee0d76ec7b52761b25ffab",
          "topics": [
            "0xddf252ad1be2c89b69c2b068fc378daa952ba7f163c4a11628f55a4df523b3ef",
            "0x0000000000000000000000001d1e94634fbcb767ce8650269b2c4d33280f0130",
            "0x000000000000000000000000d9c57a01a60150e3de7d9f79febb18980dab64a5"
          ],
          "data": "0x0000000000000000000000000000000000000000000000000517fdad83365634",
          "blockHash": "0x11b774d027f27e52c0b996210aa48d6821b9d63caecad96929a54e44228cea1c",
          "blockNumber": "0x1232f9f",
          "transactionHash": "0x95e04a995fae9363e8d945d2c5e25d7335511e4424a72474c74b1747ce9ad1c3",
          "transactionIndex": "0x63",
          "logIndex": "0x167",
          "removed": false
        },
        {
          "address": "0x55ecaf244d78242f781530d2f8cc735e416dd756",
          "topics": [
            "0xddf252ad1be2c89b69c2b068fc378daa952ba7f163c4a11628f55a4df523b3ef",
            "0x000000000000000000000000d9c57a01a60150e3de7d9f79febb18980dab64a5",
            "0x00000000000000000000000028c20a465ed67f273138d8948d53842d85f4f78c"
          ],
          "data": "0x0000000000000000000000000000000000000000000000000dbd2fc137a2ffff",
          "blockHash": "0x11b774d027f27e52c0b996210aa48d6821b9d63caecad96929a54e44228cea1c",
          "blockNumber": "0x1232f9f",
          "transactionHash": "0x95e04a995fae9363e8d945d2c5e25d7335511e4424a72474c74b1747ce9ad1c3",
          "transactionIndex": "0x63",
          "logIndex": "0x168",
          "removed": false
        },
        {
          "address": "0xd9c57a01a60150e3de7d9f79febb18980dab64a5",
          "topics": [
            "0xcf2aa50876cdfbb541206f89af0ee78d44a2abf8d328e37fa4917f982149848a"
          ],
          "data": "0x000000000000000000000000000000000000000000000000000000000000000100000000000000000000000000000000000000000000000009b6e64a8ec60000",
          "blockHash": "0x11b774d027f27e52c0b996210aa48d6821b9d63caecad96929a54e44228cea1c",
          "blockNumber": "0x1232f9f",
          "transactionHash": "0x95e04a995fae9363e8d945d2c5e25d7335511e4424a72474c74b1747ce9ad1c3",
          "transactionIndex": "0x63",
          "logIndex": "0x169",
          "removed": false
        },
        {
          "address": "0x55ecaf244d78242f781530d2f8cc735e416dd756",
          "topics": [
            "0xddf252ad1be2c89b69c2b068fc378daa952ba7f163c4a11628f55a4df523b3ef",
            "0x00000000000000000000000028c20a465ed67f273138d8948d53842d85f4f78c",
            "0x000000000000000000000000289867bdada03b52edfef9a35be9b2be3150f3a9"
          ],
          "data": "0x00000000000000000000000000000000000000000000000000232bff5f46bfff",
          "blockHash": "0x11b774d027f27e52c0b996210aa48d6821b9d63caecad96929a54e44228cea1c",
          "blockNumber": "0x1232f9f",
          "transactionHash": "0x95e04a995fae9363e8d945d2c5e25d7335511e4424a72474c74b1747ce9ad1c3",
          "transactionIndex": "0x63",
          "logIndex": "0x16a",
          "removed": false
        },
        {
          "address": "0x55ecaf244d78242f781530d2f8cc735e416dd756",
          "topics": [
            "0xddf252ad1be2c89b69c2b068fc378daa952ba7f163c4a11628f55a4df523b3ef",
            "0x00000000000000000000000028c20a465ed67f273138d8948d53842d85f4f78c",
            "0x0000000000000000000000001d1e94634fbcb767ce8650269b2c4d33280f0130"
          ],
          "data": "0x0000000000000000000000000000000000000000000000000d9a03c1d85c4000",
          "blockHash": "0x11b774d027f27e52c0b996210aa48d6821b9d63caecad96929a54e44228cea1c",
          "blockNumber": "0x1232f9f",
          "transactionHash": "0x95e04a995fae9363e8d945d2c5e25d7335511e4424a72474c74b1747ce9ad1c3",
          "transactionIndex": "0x63",
          "logIndex": "0x16b",
          "removed": false
        },
        {
          "address": "0x28c20a465ed67f273138d8948d53842d85f4f78c",
          "topics": [
            "0x0ae52a34bc319eaa4ece799f69c6a1d4b7b64fd9ff992022c9821cd08daa7ec6"
          ],
          "data": "0x000000000000000000000000d9c57a01a60150e3de7d9f79febb18980dab64a5000000000000000000000000da05b4e46996c351e9ee0d76ec7b52761b25ffab00000000000000000000000055ecaf244d78242f781530d2f8cc735e416dd7560000000000000000000000000000000000000000000000000517fdad833656340000000000000000000000000000000000000000000000000d9a03c1d85c40000000000000000000000000000000000000000000000000000000000000000000",
          "blockHash": "0x11b774d027f27e52c0b996210aa48d6821b9d63caecad96929a54e44228cea1c",
          "blockNumber": "0x1232f9f",
          "transactionHash": "0x95e04a995fae9363e8d945d2c5e25d7335511e4424a72474c74b1747ce9ad1c3",
          "transactionIndex": "0x63",
          "logIndex": "0x16c",
          "removed": false
        }
      ],
      "logsBloom": "0x00000000000000000000040000000000000000000000000000000000002000000000000000000000000000000100000000000040000000000000000000000000000400000000000000000208000000000000000000000000000000000000000000000000000400000000000000000000000000000000000000000010000000000400000000100020080000000000000000001000000100000000000000000000000000001000008000000000000000000008000000000000000000000000000000000002104002000000000400000002000000000000000900000000000000000000080000000400000000000000000000000100001000000400000000000004",
      "type": "0x2",
      "transactionHash": "0x95e04a995fae9363e8d945d2c5e25d7335511e4424a72474c74b1747ce9ad1c3",
      "transactionIndex": "0x63",
      "blockHash": "0x11b774d027f27e52c0b996210aa48d6821b9d63caecad96929a54e44228cea1c",
      "blockNumber": "0x1232f9f",
      "gasUsed": "0x2352a",
      "effectiveGasPrice": "0xd4f0e9",
      "from": "0x1d1e94634fbcb767ce8650269b2c4d33280f0130",
      "to": "0x28c20a465ed67f273138d8948d53842d85f4f78c",
      "contractAddress": null,
      "l1BaseFeeScalar": "0x8dd",
      "l1BlobBaseFee": "0x1",
      "l1BlobBaseFeeScalar": "0x101c12",
      "l1Fee": "0x285f3aa77",
      "l1GasPrice": "0xb1edb58e",
      "l1GasUsed": "0x640"
    }
  ],
  "libraries": [],
  "pending": [],
  "returns": {},
  "timestamp": 1724955686,
  "chain": 8453,
  "commit": "df55a2a"
}